:020000040800F2
:1000000000800020B9ED000845EE0008BDE00008C2
:1000100000000000000000000000000000000000E0
:1000200000000000000000000000000059F300087C
:100030000000000000000000E5F30008B1E0000847
:1000400045EE000845EE000845EE000845EE0008C4
:1000500045EE000845EE000845EE0008B1E4000852
:1000600045EE000845EE000839E1000879E1000896
:1000700045EE000845EE000845EE000845EE000894
:1000800045EE000845EE000845EE000845EE000884
:1000900045EE000845EE000845EE000845EE000874
:1000A00045EE000845EE000845EE0008F5E00008C2
:0C00B00005E1000815E1000845EE00081D
:1000BC0010B5064C2378002B07D1054B002B02D032
:1000CC00044800E000BF0123237010BDD0020020C3
:1000DC0000000000F07C0108044B10B5002B03D08D
:1000EC000349044800E000BF10BDC04600000000FA
:1000FC00D4020020F07C010802780B78002A03D08F
:10010C00013001319A42F7D0D01A70470023C25CFB
:10011C000133002AFBD1581E7047000002B471460F
:10012C0049084900095C49008E4402BC7047C0462E
:10013C00002243088B4274D303098B425FD3030A1A
:10014C008B4244D3030B8B4228D3030C8B420DD32D
:10015C00FF22090212BA030C8B4202D312120902BB
:10016C0065D0030B8B4219D300E0090AC30B8B42F9
:10017C0001D3CB03C01A5241830B8B4201D38B03A7
:10018C00C01A5241430B8B4201D34B03C01A52414C
:10019C00030B8B4201D30B03C01A5241C30A8B428F
:1001AC0001D3CB02C01A5241830A8B4201D38B027A
:1001BC00C01A5241430A8B4201D34B02C01A52411E
:1001CC00030A8B4201D30B02C01A5241CDD2C30990
:1001DC008B4201D3CB01C01A524183098B4201D30C
:1001EC008B01C01A524143098B4201D34B01C01AF7
:1001FC00524103098B4201D30B01C01A5241C3086F
:10020C008B4201D3CB00C01A524183088B4201D3DD
:10021C008B00C01A524143088B4201D34B00C01AC9
:10022C005241411A00D20146524110467047FFE735
:10023C0001B5002000F0F0F802BDC0460029F7D04F
:10024C0076E7704703460B437FD4002243088B426A
:10025C0074D303098B425FD3030A8B4244D3030B41
:10026C008B4228D3030C8B420DD3FF22090212BA06
:10027C00030C8B4202D31212090265D0030B8B4282
:10028C0019D300E0090AC30B8B4201D3CB03C01A6C
:10029C005241830B8B4201D38B03C01A5241430B47
:1002AC008B4201D34B03C01A5241030B8B4201D337
:1002BC000B03C01A5241C30A8B4201D3CB02C01AA2
:1002CC005241830A8B4201D38B02C01A5241430A1A
:1002DC008B4201D34B02C01A5241030A8B4201D309
:1002EC000B02C01A5241CDD2C3098B4201D3CB01B0
:1002FC00C01A524183098B4201D38B01C01A52415F
:10030C0043098B4201D34B01C01A524103098B4262
:10031C0001D30B01C01A5241C3088B4201D3CB004D
:10032C00C01A524183088B4201D38B00C01A524130
:10033C0043088B4201D34B00C01A5241411A00D2E0
:10034C0001465241104670475DE0CA0F00D0494249
:10035C00031000D34042534000229C4603098B42B9
:10036C002DD3030A8B4212D3FC22890112BA030A41
:10037C008B420CD3890192118B4208D389019211C3
:10038C008B4204D389013AD0921100E08909C30948
:10039C008B4201D3CB01C01A524183098B4201D34A
:1003AC008B01C01A524143098B4201D34B01C01A35
:1003BC00524103098B4201D30B01C01A5241C308AD
:1003CC008B4201D3CB00C01A524183088B4201D31C
:1003DC008B00C01A5241D9D243088B4201D34B0037
:1003EC00C01A5241411A00D20146634652415B1079
:1003FC00104601D34042002B00D54942704763465A
:10040C005B1000D3404201B5002000F005F802BD9E
:10041C000029F8D016E770477047C0468446101C78
:10042C0062468C46191C634600E0C0461FB501F0BD
:10043C00B1FB002801D40021C8421FBD10B501F04A
:10044C0009FB4042013010BD10B501F0A3FB0028A0
:10045C0001DB002010BD012010BDC04610B501F01D
:10046C0099FB002801DD002010BD012010BDC04605
:10047C0010B501F02BFB002801DC002010BD012081
:10048C0010BDC04610B501F021FB002801DA002098
:10049C0010BD012010BDC0468446081C6146FFE714
:1004AC001FB500F013F9002801D40021C8421FBD6C
:1004BC0010B500F095F84042013010BD10B500F0B9
:1004CC0005F9002801DB002010BD012010BDC0463D
:1004DC0010B500F0FBF8002801DD002010BD012054
:1004EC0010BDC04610B500F0A3F8002801DC0020B8
:1004FC0010BD012010BDC04610B500F099F80028C1
:10050C0001DA002010BD012010BDC046994201D176
:10051C00801A04D002D2012040427047012070475B
:10052C00F0B5CE46474615042D0C2E0080B50704B9
:10053C00140C3F0C9946030C7E435D4367436343A5
:10054C007F19340CE4199C46A54203D980235B0225
:10055C009846C4444B4643435143250C36046544EA
:10056C00360C2404A4195B19591820000CBC9046B5
:10057C009946F0BD9E2110B5C905041CFFF7BCFFC0
:10058C00002803D1201C00F0E7FB10BD9E21201C8D
:10059C00C90500F01DFA00F0DFFB80231B069C460A
:1005AC006044F2E770B500220C4B04000D00FFF71D
:1005BC0069FF002804D12000290002F029F970BD40
:1005CC00064B00222000290001F0BEFD02F020F9AC
:1005DC0080231B069C466044F1E7C0460000E041C6
:1005EC0070B542004E024C0045026D0A120EC30F4C
:1005FC00760A240EC90FFF2A0FD0FF2C11D0012030
:10060C00A24200D070BDB542FCD18B420DD0002A65
:10061C00F8D12800451EA841F4E70120002DF1D1A6
:10062C00EBE70120002EEDD1E9E70020EAE7C04618
:10063C0070B54A004E02450244006D0A240EC30FE9
:10064C00760A120EC90FFF2C15D0FF2A0ED0002CE3
:10065C0015D1002A01D1002E1CD0002D14D08B42B4
:10066C0027D00220013B1840013870BD002EEED07F
:10067C0002204042F9E7002DFAD1FF2A0ED0002AC1
:10068C000ED1002EEDD00BE0012301399943080067
:10069C000130EAE70020002DE7D0E2E7002EE7D199
:1006AC008B42DED1944205DD0221581E08400138F0
:1006BC00DBE70024A24204DCB542D2D80020B542CC
:1006CC00D3D2581E012398430130CEE730B54200F7
:1006DC0044024D02C30F4800640A120E6D0A000E4C
:1006EC00C90FFF2A12D0FF280CD0002A12D10028E3
:1006FC0019D1002D17D1002C2BD00220013B184012
:10070C00013826E0002DF0D0022022E0002CFBD195
:10071C00FF281FD000281FD1002D1DD10220013B26
:10072C001840013815E0002C0ED08B42E5D1002288
:10073C00904204DCAC42E0D80020AC4209D2581EF6
:10074C0001239843013004E0012301399943080047
:10075C00013030BD002DD7D18B42CED18242E7DDA6
:10076C000221581E08400138F3E7C046F0B54E464A
:10077C0057464546DE46E0B543025B0A450083B06A
:10078C000F1C99462D0EC60F002D57D0FF2D24D0CF
:10079C008020DB00C0041843002381469A469B4608
:1007AC007F3D7C027A00FB0F640A120E984623D020
:1007BC00FF2A4BD0E30080240020E4047F3A1C4342
:1007CC00AD186B1C47460193534677403A000F2BEC
:1007DC0048D87D499B00CB589F46002B00D085E024
:1007EC0008339A46063B9B467C027A00FB0FFF259A
:1007FC00640A120E9846DBD1002C00D090E05246D1
:10080C0001231A4392460120DBE74C465846170059
:10081C00022824D0032800D1CFE000220023012895
:10082C004DD15802D205400AFF071043384303B09C
:10083C003CBC90469946A246AB46F0BD002B5BD122
:10084C0004239A46033B00259B46AAE7FF35002C60
:10085C0060D1524602231A4392460220B1E7FF228E
:10086C000023DEE74B461B0C9C464B462604360CFD
:10087C00180461463300220C6446000C43434E437B
:10088C005043544380191A0C1218964203D98021F4
:10089C0049028C4664441B041B0C1004C0188301D1
:1008AC005E1EB341800E1843130C1B199B010343AE
:1008BC001C00230179D5012362081C401443019AC2
:1008CC007F32002A4DDD630704D00F232340042B15
:1008DC0000D00434230103D53C4B019A1C408032D8
:1008EC00FE2ABCDCA3015B0AD2B29AE70C239A461F
:1008FC00093BFF259B4654E7180002F001F94A46D4
:10090C00431F76259A4000236D4291462D1A9A4634
:10091C009B4646E7524603231A439246032050E770
:10092C00200002F0EDF8431F2D1A9C40763D00206C
:10093C0047E780230027DB03FF2272E7424666E786
:10094C004C463200584662E780234A46DB031A4283
:10095C0022D01C4220D123435B025B0A4746FF2274
:10096C005FE701239A1A1B2A21DC23000199D3404B
:10097C009E318C401A0023005C1EA34113435A077E
:10098C0004D00F221A40042A00D004335A0111D487
:10099C009B015B0A002244E780234A46DB03134396
:1009AC005B025B0A3700FF223BE7019587E70022D9
:1009BC00002336E70122002333E78023DB032343A4
:1009CC005B025B0AFF222CE73C7D0108FFFFFFF76F
:1009DC00F8B54746CE464400C20F80B547024802E0
:1009EC00400A8446664648007F0A240EF60025001D
:1009FC009046FB00000EC90FB146FF2800D185E0E0
:100A0C0001267140261A914257D0002E43DD002852
:100A1C0000D07FE04946002900D1AAE0013E002E1B
:100A2C0000D0F7E05B1A5A0100D48BE09B019C09C3
:100A3C00200002F065F805388440854200DDD3E0E3
:100A4C00451B230020200135EB40451BAC40621EAA
:100A5C0094412343072400251C40012241460A40AF
:100A6C00002C04D00F211940042900D00433590163
:100A7C0000D480E00135ECB2FF2D00D0A3E0FF24C0
:100A8C0000235B02E405580AD207204310430CBC38
:100A9C0090469946F8BD002E74D1601CC0B2012856
:100AAC0000DCA7E04A469C1A620100D5B6E0002C97
:100ABC00BED1002200240023E3E7002E00DC85E0F9
:100ACC00002846D0FF2C49D080224846D20410433F
:100ADC00814601221B2E09DC20204C46801B8440C1
:100AEC004A462000F240441EA04102439B185A0182
:100AFC0028D50135FF2D00D1A8E001220724944907
:100B0C001A405B080B4013431C40A6E7002E00D094
:100B1C0078E775E7FF2C54D080224946D204114364
:100B2C00894601221B2E09DC20214846891B88405E
:100B3C004A460100F240481E81410A439B1A5A0161
:100B4C0000D573E7012241460A40590700D089E7D6
:100B5C0011E04846002858D1FF2C0CD1DB08002BA3
:100B6C0000D18CE78020C00303435B025B0AFF24A7
:100B7C0087E7FF2C25D0DB08FF2DF0D05B025B0A4A
:100B8C00ECB27EE7002C4DD0FF2818D08024E40472
:100B9C00724223431B2A00DDC4E01C002025D440F4
:100BAC00AA1A93405A1E934123434A460500D31A6E
:100BBC00884638E7721CF8D0F243FF28EAD10A00C5
:100BCC004B46FF25D7E79B015B0A5AE7002E41D124
:100BDC00651CE9B2012945DDFF2D00D14FE7072443
:100BEC004B445B081C4038E707225A4B2D1A234014
:100BFC00144032E7002C1DD1002B7AD14B46002B30
:100C0C0000D191E00A000025B5E7013E002E19D174
:100C1C004B446CE7FF2C84D1FF25ACE74A46884651
:100C2C00D41A05E7002BC5D10A00FF28C8D005004F
:100C3C004B46A0E7002B49D14B46002B77D00A003E
:100C4C00FF2598E7FF2C00D043E787E70A00FF2435
:100C5C00002316E7002C15D1002B57D1FF28E6D125
:100C6C004B467BE7002C20D1002B57D0494600295E
:100C7C0053D04B445A0168D50724364A1C400125F1
:100C8C001340EAE6FF28EBD08022D20476421343CD
:100C9C001B2E53DC2025AD1B1A00AB40F2405C1E12
:100CAC00A34113434B44050021E7002BD8D0494600
:100CBC00002900D152E78021C9030F4200D14DE732
:100CCC006046084200D049E74B4647E74846FF25B7
:100CDC00002800D14FE78022D203174204D060468F
:100CEC00104201D14B46884601224146FF250A405D
:100CFC0041E7484600281FD01A1A500120D54A4611
:100D0C000724D31A1C4088460025A6E6741CC9D0BB
:100D1C00F643FF28BCD14B4620E799464B460025AD
:100D2C00DB082BE7012340E700220023A9E6802300
:100D3C000022DB03FF24A4E600251CE70123B1E716
:100D4C00002AF1D013000025FCE60025FAE6C04687
:100D5C00FFFFFF7DFFFFFFFB41024200C30F490A6B
:100D6C00120E00207E2A0DD99D2A0CD8802000045A
:100D7C000143952A0ADC9620821AD1404842002B66
:100D8C0000D108007047034A9818FBE7963A914047
:100D9C00F4E7C046FFFFFF7F70B5041E34D001F0AE
:100DAC00AFFE9E22121A962A07DCD2B208282EDD3C
:100DBC00083884406002400A21E0992A09DD0300CA
:100DCC0021001B3399404B1E994105231B1ADC4013
:100DDC000C43052801DD431F9C4023000D490B40AB
:100DEC00650709D00F252C40042C05D004335C0179
:100DFC0002D59F220B40121A9B01580AD2B2400214
:100E0C00D205400A104370BD00220020F7E76002B3
:100E1C00400AF4E7FFFFFFFBF0B54F464646D646C7
:100E2C000C000903C0B5490A470F5E0039431F0384
:100E3C00DB0F9C4665007B0A570F1F436D0DE40FBB
:100E4C00760DA146C000B846D200AB1B64457BD0E2
:100E5C00002B5FDD002E00D0A4E03E00164300D135
:100E6C0012E15E1E002E00D09EE1871A4346B84266
:100E7C0080410125C91A4042091A0B0200D431E104
:100E8C0049024E0A002E00D16EE1300001F038FE0E
:100E9C000300083B1F2B00DD61E120223900D21A30
:100EAC009E40D1409F400E439D4200DD51E15D1BB1
:100EBC006B1C1F2B00DD7CE12021C91A3D0030008A
:100ECC008F408840DD40791E8F4131000722284336
:100EDC00D940002507433A40002A09D00F233B4054
:100EEC00042B05D03B1DBB42BF417F42C9191F00DB
:100EFC000B0200D426E26A1CC64B55056D0D9A42B6
:100F0C0000D106E1C44AFF080A40530752023B4392
:100F1C00120B8EE0002B00D0B8E06B1C5B055B0D58
:100F2C00012B00DC30E1871A4346B842B641CB1A9C
:100F3C0076429E1B330200D54CE13B003343A1D1DA
:100F4C0000220024002570E0002B00DCE5E0002EE0
:100F5C0000D183E0AF4EB54260D0802636043743D3
:100F6C00B846382B00DC3EE1434613431F007A1E83
:100F7C0097413F1887428041404209180B0200D428
:100F8C00B0E0A44B01359D4200D1C3E0A24A7B08DE
:100F9C000A4001210F401F435108D30707221F436A
:100FAC003A4099E79B4EB54238D0802636043743F9
:100FBC00B846382B00DDDCE01F2B00DC30E11E00D6
:100FCC004746203EF740BC46202B04D04026F31A5F
:100FDC0046469E403243170063467A1E97411F4394
:100FEC00CCE0002B00D104E24346134300D159E17D
:100FFC004B07C00818438023C9081B03194208D0AB
:10100C004546ED081D4204D14346D0085907084314
:10101C002900420FC9007F4D1143C0004B07CA087D
:10102C007C49C00803438D4268D012036D05120B36
:10103C006D0D002112031800130B0A0D12051A4333
:10104C00764B2D0513402B435B00E4075B082343D1
:10105C0019001CBC90469946A246F0BD3E001643B2
:10106C0012D05E1E002E00D000E18718874280410E
:10107C0041444042091801250B0233D5022585E76E
:10108C0064463300414610001D00C7E7002D00D018
:10109C00DAE00C000443F3D05C1C00D19FE15D4C02
:1010AC00A64200D12FE1DB43382B00DD66E11F2B7C
:1010BC0000DD83E120240500E41A0F00DD40D94057
:1010CC00A0404346A7405B1A441EA04198462F43BC
:1010DC003843171ABA42924143465242991A64460F
:1010EC003500CAE607223A40002A00D0F6E64B0744
:1010FC00CA084849FF083B438D4296D11900114359
:10110C0000D19EE1802109030A431203120B414DC9
:10111C008FE71500002200238BE7002B00D0C7E0DF
:10112C006B1C5F057F0D012F00DCF1E0394DAB42EC
:10113C0000D1B9E085180A008542894142444942F0
:10114C0051180722CF076D082F4349083A401D005C
:10115C00C2E607223049ED1A31403A40BCE63E0067
:10116C002838864000279FE6380001F0C9FC203063
:10117C008EE6434613431F007A1E9741C71BB842A5
:10118C0080414042091A78E60E003B0006431343A7
:10119C00002D61D1002E00D0F4E0002B00D11BE11A
:1011AC0064463900100039E71A4FBB427AD033003D
:1011BC00FFE630001F3DE840202B03D04021CB1A26
:1011CC009E4037437B1E9F41072207433A40002134
:1011DC00002589E7171A4346BA42B641591A764296
:1011EC008E1B64464EE61F2B00DDADE020264746E5
:1011FC00F61AB740B9461700B246DF404E463E439A
:10120C0037005646B240561EB24117434246DA40AA
:10121C008918AEE6FF070000FFFF7FFFFFFF0F807E
:10122C0020264746F61AB740B9461700B246DF40AB
:10123C004E463E4337005646B240561EB241174307
:10124C004246DA40891A99E77F4CA6425BD080244B
:10125C0024045B42214327E7002E0CD1002B00D144
:10126C00CBE0644639001000774DD7E6764FBB4291
:10127C0018D0330075E6002B14D04B07C008184368
:10128C008023C9081B03194207D0FC081C4204D157
:10129C007907D0080843E14621004C46420FC900AB
:1012AC001143C000684DB9E61D0000220023C0E6C2
:1012BC00002D5BD10D00054300D1E2E65D1C00D191
:1012CC00B0E0614DAE421FD0DB43382B71DC1F2BDD
:1012DC0000DD96E020250F00ED1AAF40B94607005F
:1012EC00AA46DF404D463D432F005546A840D94005
:1012FC00451EA84188440743BF189742924151426A
:10130C00414435003AE6644635004146100085E616
:10131C000B000343002D00D063E6002BF5D04346B1
:10132C00134300D17AE68718874280410722414453
:10133C00404209183A400B0200D4D5E6434B013524
:10134C001940C9E5380069E61E004746203EF740C3
:10135C00BC46202B04D04026F31A46469E4032430E
:10136C00170063467A1E97411F4302E6364DAE4284
:10137C00CAD080252D045B422943A6E70843411EB1
:10138C008841A6E6002B00D148E6871A4346B842AE
:10139C00B641CB1A76429E1B33024BD5171A4346E5
:1013AC00BA429241591A5242891A072264463A406B
:1013BC0092E501430F00791E8F419DE71C000F0041
:1013CC00203CE740202B03D04024E31A99400843EB
:1013DC00411E884138437CE60022002425E6171A7A
:1013EC004346BA429241591A5242891A6446350010
:1013FC0043E541461000144D10E6802200241203F0
:10140C0080E61D000F00203DEF40BC46202B03D092
:10141C004025EB1A9940084307006346781E874124
:10142C001F4369E7871897429B4141445B42C918A7
:10143C003500A3E53B003343CED0072231003A40C0
:10144C0052E600231A00F4E5FF070000FFFF7FFFC0
:10145C00F0B55746DE464E464546E0B58346070096
:10146C000E03480085B092461C00360B400DCD0F84
:10147C00002800D19DE0954B984239D08023F6008E
:10148C001B041E43924A7B0F334399469446030038
:10149C006344009300230026FF00029323031B0BDD
:1014AC0098466300E40F52465B0D019400D1B3E003
:1014BC0086498B4200D19EE04246D1008022120424
:1014CC000A435146490F11438B46814952468C467B
:1014DC0000996344CB1A0021D20000932B00634087
:1014EC009A460F2E00D905E17A4BB6009B599F46C0
:1014FC005B463343994600D0B8E002230826002708
:10150C0000900293CAE7CB463A0002990195019BE1
:10151C009A46022927D0032900D180E2012944D020
:10152C006D49009B8C4663441C00002C38DD53072E
:10153C0000D013E2D2085B46DB0109D55946674B54
:10154C0019408B468021C9008C46009B63441C00CB
:10155C00634B9C4207DC5B4664055F075B021743E9
:10156C001B0B620D02E000230027584A00211B03CD
:10157C001C0B0B0D1B05234314055A4A3800134052
:10158C001C4353466400DB0764081C43210005B070
:10159C003CBC90469946A246AB46F0BD0122524255
:1015AC0001231B1B382B00DCADE10022002300279C
:1015BC00DCE75B46334399465ED0002E00D18AE1CE
:1015CC00300001F09DFA03000B3B1C2B00DD7BE18E
:1015DC001D22D31A5A460100DA4008398E401300F6
:1015EC005F46334399468F403F4B00261B1A0093AE
:1015FC000023029352E7414653460B433B499B461B
:10160C008C46009B634400935B46002B3BD102232A
:10161C0000221E43022161E7434613439B4637D009
:10162C004346002B00D162E1404601F069FA030009
:10163C000B3B1C2B00DD53E102004146083A914064
:10164C0088461D21CB1A5146D9400B0041460B430D
:10165C009B46534693401A00009B25499C46604488
:10166C0003008C4663440093002137E70323B14603
:10167C0000900C26029311E70023009301330426FB
:10168C00002702930AE70323C3461E43032125E7E1
:10169C0001331E430022012120E700239A468023B8
:1016AC0000271B03094A61E7802349461B031942A3
:1016BC0000D1E2E05946194200D0DEE00B431B0397
:1016CC0017001B0BA246014A50E7C046FF0700005B
:1016DC0001FCFFFF7C7D0108FF030000FFFFFFFE04
:1016EC00FE070000FFFF0F800DFCFFFF01F8FFFF5E
:1016FC00F3030000D94500D9CBE000D1C6E03C0093
:10170C0048460027009B013B00935B46160E1B02CC
:10171C001E431302984633041B0C9946310C01915D
:10172C00FEF78CFD4A4642430B04210C050019437D
:10173C008A4207D98919013D8E4203D88A4201D9C0
:10174C00851E8919881A0199FEF778FD09048C46C3
:10175C004A46210464464243090C030021438A4251
:10176C0004D98919013B8E4200D8F1E02D041D43A8
:10177C00AB464346891A4246280C12041D0C5B46A4
:10178C00140C22001B041B0C5A4303946B4344435C
:10179C00029568431B19150CEB189C4203D9802445
:1017AC006402A44660441C0C15041B042D0C201868
:1017BC005D19814277D373D00C1AA24A7D1BAF42BC
:1017CC00BF419446009B7F426344E01B1C00864251
:1017DC0000D1DBE00199FEF731FD4A4642430B0490
:1017EC00290C070019438A4207D98919013F8E42F7
:1017FC0003D88A4201D9871E8919881A0199FEF7E4
:10180C001DFD09044A46894629044D464243090CEC
:10181C00030029438A4207D98919013B8E4203D818
:10182C008A4201D9831E89193F04891A3A00039F01
:10183C001A43380013041B0C584381460298150CAC
:10184C006F43434345434846000C8446DB196344CD
:10185C009F4203D9802040028446654448461F0CB1
:10186C0000041B04000C7D191818A94200D284E056
:10187C0000D17FE001231A4357E680234A461B031D
:10188C0013431B031B0BAA466F4A6FE6BA4200D9DF
:10189C0035E74B46DC0758087B081C43FF0734E749
:1018AC000024AF4289D247444745A4415B46644279
:1018BC00A4196418013BA6421ED2A0426DD800D1D7
:1018CC00B6E0241A9B4678E703005A46283B9A4018
:1018DC000027914688E6584601F012F9203072E64E
:1018EC0003005246283B9A4093460022B4E65046E9
:1018FC0001F006F920309AE6A642E2D1B845DCD9CF
:10190C00341A9B4659E71F2B65DC504C0099A446B2
:10191C005C46614408008C4011008240D940501E46
:10192C0082410C4314435A46DA401300620709D033
:10193C000F222240042A05D02200141D9442894112
:10194C0049425B181A0262D50122002300270DE6DA
:10195C008A4200D80AE7831E891907E70F23134030
:10196C00042B00D1E6E5171D9742924153429B444C
:10197C00FA08E0E5002800D1D7E57118531EB142F2
:10198C0027D3A94215D358D01A0073E7002B00DCDB
:10199C0004E6012300229B44CDE50223474447453E
:1019AC0089415B429C46494289190C19E344241A2B
:1019BC0003E743465F0047459B41B8465B429E198F
:1019CC00023A8919A94200D054E7404500D051E7AA
:1019DC00ABE51A00F6E71F215F4649420C1BE740B6
:1019EC00202B07D01A49009B8C46634418005B4699
:1019FC0083401A43501E82413A4307270023174065
:101A0C0009D00F21002311401400042995D1220084
:101A1C005F075B021B0BD20817430022A6E580234D
:101A2C0059461B030B431B0317001B0B064A9DE572
:101A3C00BD42B2D89B460024BFE68045B9D31A00FC
:101A4C00C3E7C046FF030000FF0700001E040000B0
:101A5C003E040000F0B54F464646D6468446C0B517
:101A6C008046194E18030F034D00000B5C00824694
:101A7C003F0B6D0DC90F9146640DDB0F0120B54274
:101A8C000AD0B44203D0A54201D157450CD01CBC9E
:101A9C0090469946A246F0BD66463E43F7D1AC420D
:101AAC00F5D154461443F2D10120C845EFD19942E7
:101ABC0007D0002DEBD163461F433800471EB841B9
:101ACC00E5E70020E3E7C046FF070000F0B54F460E
:101ADC004646D6464D00C0B50E03C90F8A462C4962
:101AEC001F035C008046360B6D0D91463F0B640D59
:101AFC00DB0F8D421ED08C4216D0002D1ED13043F0
:101B0C008446002C01D13A4323D06246002A1AD0D5
:101B1C009A4529D0514602200139084001381CBC95
:101B2C0090469946A246F0BD39001143E5D00220FB
:101B3C004042F4E73043FAD1AC420FD0002C0FD125
:101B4C003A43E7D00CE00122013B934318000130EB
:101B5C00E5E763460020002BE1D0DBE73A43E6D112
:101B6C009A45D7D1A542D5DCA54205DBBE42D1D8DA
:101B7C0008D00020BE42D2D25046012301389843EF
:101B8C000130CCE7C845C5D80020C845F4D3C6E71A
:101B9C00FF070000F0B54F464646D6464D00C0B58F
:101BAC000E03C90F8A462E491F035C008046360B74
:101BBC006D0D91463F0B640DDB0F8D4218D08C429E
:101BCC0011D0002D18D130438446002C1ED13A433D
:101BDC001CD163460020002B30D051460220013925
:101BEC00084001382AE039001143EAD0022025E0F0
:101BFC003043FBD1AC4226D0002C26D13A4324D121
:101C0C005146022001390840013817E06246002A8B
:101C1C000FD09A45E1D1A54205DBBE42DDD819D0E3
:101C2C000020BE420AD250460123013898430130AD
:101C3C0004E00122013B9343180001301CBC904688
:101C4C009946A246F0BD3A43D0D19A45C5D1A5429A
:101C5C00C3DCE0E7C845C0D80020C845E3D3EDE7B6
:101C6C00FF070000F0B55746DE464E464546E0B548
:101C7C00834606000F03480087B092461D003F0BB9
:101C8C00400DCC0F002800D16FE0DE4B984238D0CD
:101C9C008023FF001B041F43730F3B430193DA4B5C
:101CAC000027994600239B46F60081442B036900CC
:101CBC001B0B52469846490DED0F002900D185E0CB
:101CCC00D04B994200D173E04346DA0080231B04C9
:101CDC0013435246CC48520F8446134352460020BD
:101CEC006144D20089442100694000918C46012155
:101CFC0049448A460F2F00D990E0C449BF00CF5900
:101D0C00BF465B463B43019300D06AE102230827A0
:101D1C00002681469B46C9E732005846019B614626
:101D2C000091022800D175E0032800D1FEE10128C2
:101D3C0000D02CE100230027002600253F032A0DAC
:101D4C003F0BB34812053A4302401B051343009A5C
:101D5C005B00D1075B080B433000190007B03CBC9B
:101D6C0090469946A246AB46F0BD5B463B43019379
:101D7C0000D12FE1002F00D1A5E1380000F0C0FE0A
:101D8C0003000B3B1C2B00DD96E11D22D31A5A4697
:101D9C000100DA405E4608398F4013008E403B4309
:101DAC0001939C4B00271B1A994600239B467DE709
:101DBC00414653460B4393498C46E144002B00D0DB
:101DCC001AE102220220174300228CE7134300D1B0
:101DDC000DE14346002B00D181E1404600F090FE1E
:101DEC0002000B3A1C2A00DD72E10100434608395F
:101DFC008B4098461D239A1A5346D3401A004346EB
:101E0C00134352468A404946081A824989468144FE
:101E1C00002068E77B4B002700268EE7140C120489
:101E2C00120C1100370C3604350C794328008C4603
:101E3C002E0060436044834656432100300C80469C
:101E4C005846794340440291844506D988468021FE
:101E5C0049028C46E044414602913604010C360C92
:101E6C0000048B4681191E0C1B041B0C03911900DA
:101E7C0079438C46280075436544A8465843050CA5
:101E8C0045447743A94203D9802149028C466744D3
:101E9C00290C8C4639000004000C2D042D186144CB
:101EAC00AB4405915946049101990F043F0C080C61
:101EBC00390051434243904602008C46090C8B4634
:101ECC0062437C4344445C44A04503D980214902CD
:101EDC0088464244210C884661460904090C8C460C
:101EEC0039005943434370437E430F0CF6182404C6
:101EFC00BE19644442448C46B34203D980235B022E
:101F0C0098464044029B61469846049B37044344E0
:101F1C009B46AB45AD416B420D0405992D0C8C468F
:101F2C007F196744FD18A8465D462D19A542A441AA
:101F3C0093466442A446C344DC448F42BF41984557
:101F4C009B4193459241A445A4415B427F421F4370
:101F5C00360C52426442BF192243BF1862463818ED
:101F6C004302D20D039913436A020A43501E824165
:101F7C006146ED0D2A434E023243D90100D4B3E041
:101F8C000126500832400243DE0732435B08224CE4
:101F9C005444002C62DD510709D00F201040042856
:101FAC0005D0101D9042924152429B180200D9015B
:101FBC0004D580241948E400034054441848844252
:101FCC0000DD27E75E075B02D2081F0B6305164393
:101FDC005B0DB2E6002399460133042700269B468D
:101FEC0064E60323019781460C279B465EE601229B
:101FFC0001201743002276E6032303201F434346A8
:10200C0071E6C046FF07000001FCFFFFBC7D010824
:10201C00FFFF0F800DFCFFFFFF030000FFFFFFFE23
:10202C00FE0700000023802700933F030026434B4C
:10203C0083E6019B3200A446584670E6AC466EE639
:10204C00802701993F0339422DD03B422BD11F43AE
:10205C003F033F0B00951600384B6EE601252D1BF8
:10206C00382D00DD66E61F2D40DC35481C00504441
:10207C00160082408440EE40501E8241344314438B
:10208C00EB40620709D00F222240042A05D022001F
:10209C00141D9442804140421B181A023ED5012364
:1020AC000027002649E68027019B3F031F433F037F
:1020BC003F0B0094214B40E603005A46283B9A40C4
:1020CC00002601926DE6584600F01AFD203057E6C6
:1020DC0003005246283B9A401300002293E65046D8
:1020EC0000F00EFD20307BE6CA4650E71F201E0094
:1020FC004042041BE640202D03D0124C5444A34014
:10210C001A43501E8241324307260027164009D03D
:10211C000F200023104014000428B9D122005E07C0
:10212C005B021F0BD2081643002306E680273F03F1
:10213C001F433F033F0B1600004BFEE5FF0700005B
:10214C001E0400003E040000F8B557464E464546B6
:10215C00DE460C000903E0B5490A460F5F00314327
:10216C001E03DB0F760A9B46530F3343C84E6500A4
:10217C00C000E40FD2006D0DA24681467F0D9C4637
:10218C009046B74200D1B9E05B46012673409B46AE
:10219C00EE1BA34500D183E0002E63DD002F00D0A1
:1021AC00B1E06346134300D123E1731E002B00D032
:1021BC00BAE1861A6346B04280410125C91A4042F1
:1021CC00091A0B0200D447E149024B0A98464346D0
:1021DC00002B00D189E1404600F092FC0300083B43
:1021EC001F2B00DD7CE120223000D21A4146D0406A
:1021FC00994002009E400A439D4200DD6AE15D1B4E
:10220C006B1C1F2B00DD94E1202110003500C91A36
:10221C008E40DA408840DD40711E8E41110007224D
:10222C002843002506433240002A09D00F233340AF
:10223C00042B05D0331DB342B641764289191E00DA
:10224C000B0200D43DE26A1C914B55056D0D9A4270
:10225C0000D119E18F4AF6080A405707520237435A
:10226C00120B9BE0002E00D0C5E06E1C7605760D9F
:10227C00012E00DC48E16746861ACB1BB042BF41F9
:10228C007F42B8461F004346FF1A3B00B8461B026C
:10229C0000D55FE137439AD100220024002579E074
:1022AC00002E00DCFAE0002F00D18DE0784B9D422F
:1022BC0067D0802367461B041F43BC46382E00DCC6
:1022CC0052E1634613435A1E93411E1886428041C5
:1022DC00404209180B0200D4BEE06D4B01359D4203
:1022EC0000D1D2E06B4A73080A4001210E401E4314
:1022FC005108D30707221E43324095E71E001643B0
:10230C0000D045E740E7624B9D423AD080236746B8
:10231C001B041F43BC46382E00DDEBE01F2E00DCF7
:10232C003AE133006746203BDF403B00202E05D0CE
:10233C004027BF1B6646BE40324390464646721E3F
:10234C0096413343DAE0002B00D114E26346134389
:10235C0000D168E180234E07C008C9081B0306435F
:10236C00194208D06046C008184204D163460100E7
:10237C00D2085E071643F3009946C900720F444D0C
:10238C0011434B46DE08424B4F073743CA089D4268
:10239C0000D16EE012036D05120B6D0D00211203BE
:1023AC00130B0A0D12051A433B4B2D0513402B43FF
:1023BC005B00E4075B082343380019003CBC9046E3
:1023CC009946A246AB46F8BD6346134311D0731E23
:1023DC00002B00D007E186188642804161444042C0
:1023EC00091801250B0237D502257BE73E00614613
:1023FC0091463500C5E75C46002D00D0E1E00B00AE
:10240C000343F3D0731C00D1ACE1214B9F4200D1AC
:10241C003AE1F343382B00DD6FE11F2B00DD8CE13B
:10242C0020250E00ED1AAE40B0460600AA46DE404E
:10243C00454635432E005546D940A8406346451EB7
:10244C00A8415B1A9C463043161AB242924163462D
:10245C005242991A3D00B4E607223240002A00D0BD
:10246C00E4E60B4BF6084F073743CA089D4200D0F1
:10247C0090E73B00134300D1A6E180231B031A43D2
:10248C001203120B024D89E715000022002785E785
:10249C00FF070000FFFF7FFFFFFF0F80002E00D023
:1024AC00C7E06B1C5E05760D012E00DCF0E0C84D1C
:1024BC00AB4200D1B9E085180A00854289416244DB
:1024CC00494251180722CE076D082E434908324065
:1024DC001D00A9E6BF49ED1A114007223240A3E6C0
:1024EC00320028388240002686E6300000F008FBD7
:1024FC00203073E6634613435A1E9341C61AB0420A
:10250C0080414042091A5CE60E00674606431743B9
:10251C00002D5ED1002E00D0F3E0002F00D11EE183
:10252C005C46614691462CE7A94FBE427BD01E000B
:10253C00F1E610001F3DE840202B03D04021CB1AC0
:10254C009A401643731E9E410722064332400021D7
:10255C00002583E7161A6346B2428041591A40425D
:10256C000B1A98465C4632E61F2E00DDABE02027A6
:10257C00BB1B9A4663465746BB40994613004F46D1
:10258C00F3401F433B005746BA40571EBA41134312
:10259C006246F240891898E62027BB1B9A46634690
:1025AC005746BB40994613004F46F3401F433B0030
:1025BC005746BA40571EBA4113436246F240891A35
:1025CC009CE7834B9F425FD080252D0473422943A7
:1025DC0020E7002E0CD1002F00D1D0E05C466146E4
:1025EC0091467B4DCDE67A4FBE421CD01E0065E66F
:1025FC00002F18D0C0084E0706438020C9080003DE
:10260C00014208D06346DC08044204D12100DA46BA
:10261C00D2085E071643F300994601245346C900BD
:10262C00720F11431C406A4DABE61D0000220027BF
:10263C00B4E6002D59D10B00034300D1D6E6731C30
:10264C0000D1B2E0624B9F421ED0F343382B6FDCBB
:10265C001F2B00DD97E020250E00ED1AAE40B04692
:10266C000600AA46DE40454635432E005546A84096
:10267C00D940451EA8418C440643B6189642924157
:10268C00514261443D0025E63D006146914678E6A5
:10269C000B000343002D00D055E6002BF5D063460C
:1026AC00134300D16DE68618864280416144404256
:1026BC00091800220B0200D4D0E6464B0135194014
:1026CC00B2E5B1465DE633006746203BDF403B0098
:1026DC00202E05D04027BF1B6646BE403243904695
:1026EC004646721E96413343EFE5394B9F42CBD0A1
:1026FC0080252D0473422943A8E70843411E8841D5
:10270C00A2E6002F00D13CE66346861ACF1AB042EF
:10271C009B415B42FB1A98461B024ED5161A634628
:10272C00B2429241591A5242891A5C4600227BE508
:10273C0001430E00711E8E419FE71D000E00203DCF
:10274C00EE40B046202B04D04025EB1A99400843AC
:10275C00814648464346411E8841184374E6002290
:10276C00002417E6161A6346B2429241591A524295
:10277C00891A3D0025E561469146154D01E68022FA
:10278C000024120379E61D000E00203DEE40B046F9
:10279C00202B04D04025EB1A9940084381464E4625
:1027AC004346711E8E411E4367E7861896429B4135
:1027BC0061445B42C9183D008CE547463743CED097
:1027CC0007224146324049E600273A00E6E5C0467A
:1027DC00FF070000FFFF7FFF70B50C4E0D031C03BD
:1027EC0049005B002D0B490D240B5B0DB14208D049
:1027FC00064900208B4203D114432000441EA04103
:10280C0070BD05430120002DFAD1F1E7FF07000050
:10281C0030B5144D0A034B00120B5B0DC90F00248D
:10282C00AB4211DD104CA34210DC80246403224324
:10283C000E4CE41A1F2C0CDD0D48C31ADA401300A1
:10284C005C42002900D11C00200030BD094BCC1883
:10285C00FAE7094DE040AC4663449A401300034349
:10286C00EEE7C046FE0300001D0400003304000028
:10287C0013040000FFFFFF7FEDFBFFFF70B5002886
:10288C002DD0C317C5185D40C40F280000F038F9CF
:10289C00154B1B1A5B055B0D0A2815DD0B388540A3
:1028AC0000222D032D0B002110002D030A0D2D0BE2
:1028BC0012052A430D4D1B052A4013435B00E40708
:1028CC005B082343190070BD0200290015329140AA
:1028DC000A000B21081AC5402D032D0BE3E7002439
:1028EC00002300250022DEE71E040000FFFF0F80FE
:1028FC0010B5041E25D000F003F9144B1B1A5B0510
:10290C005B0D0A2812DD0B38844000222403240BB3
:10291C000021100024030A0D240B120522430C4C39
:10292C001B05224013435B00590810BD0200210017
:10293C00153291400A000B21081AC4402403240BC1
:10294C00E6E7002300240022E2E7C0461E04000054
:10295C00FFFF0F804100090E4B1C70B5DBB2460225
:10296C00750AC40F012B14DDE0239B006D07360B99
:10297C00CB1800210A0D280012051C4D32435B05B3
:10298C002A405B0813435B00E4075B0823431900F0
:10299C0070BD002914D1002D1ED0280000F0B0F815
:1029AC000A281CDC0B232A001B1ADA4003001533FF
:1029BC009D400F4B12031B1A5B05160B5B0DD8E7E2
:1029CC00002D06D0320B802636036D071643094BBB
:1029DC00CFE7084B0026CCE700230026C9E703000D
:1029EC002A000B3B9A400025E3E7C046FFFF0F800F
:1029FC0089030000FF070000F0B54C00640D0B03C9
:102A0C00621C5B0A460F5205C90F1E43C500520DCE
:102A1C00012A29DD374BE718FE2F1CDC002F3BDD8C
:102A2C008001431E98410722F3006D0F03432B4393
:102A3C001A40002A04D00F221A40042A00D0043372
:102A4C008022D2041A4024D00137FAB2FF2F02D0D0
:102A5C009B01580A01E0FF2200204002D205400AE7
:102A6C00C90710430843F0BD3543002C04D1002D99
:102A7C000AD100220020F0E7002DECD08020C0030A
:102A8C003043FF22E9E7002400235B02580AE2B23C
:102A9C00E3E7DB083C00F8E73B001733F3DB80236C
:102AAC001B0433431E26F61B1F2E14DD022252423A
:102ABC00D71B1A00FA401700202E04D00E4A944659
:102ACC006444A3401D432B005D1EAB4107223B43D6
:102ADC001A400027ADE7094A2800A21895409340F8
:102AEC006C1EA541F04007222B4303431A400027DC
:102AFC009FE7C04680FCFFFFA2FCFFFF82FCFFFFAC
:102B0C001C2101231B04984201D3000C10391B0A11
:102B1C00984201D3000A08391B09984201D30009D5
:102B2C00043902A2105C40187047C046040302022C
:102B3C00010101010000000000000000F0B583B0AD
:102B4C0006000F0015001C000CF012F8002820D015
:102B5C00B300144A985821000CF0C8F9002803D18E
:102B6C0000240123019310E00123019313E03000B2
:102B7C000BF0FEFF0122390010F065FC01900137CB
:102B8C0002200EF01DF90134E4B2A3B2AB42EED335
:102B9C0001E0012301930A200EF012F9019803B011
:102BAC00F0BDC0466860002070B582B0204B1B8819
:102BBC009BB2204A93420BD01A0A1F490A7002D1C9
:102BCC000A00012111701D4A13700124022023E018
:102BDC00194B01221A70194B00221A70FA2024E0AA
:102BEC00134BC318651E6A46D1791E88AB005B195E
:102BFC005B005B19CB185B001149CE52023080B2DE
:102C0C00D3790133DBB2D3716B4607331B78DBB25C
:102C1C000A2BE5D90134E4B2074B1B78A34203D34A
:102C2C006B460022DA71EFE7002002B070BDC0469F
:102C3C0000D80108FFFF0000240000204A0E0020ED
:102C4C008408002070B50124002501E00134E4B2B1
:102C5C00084B1B78A3420BD3611E4900064BC918C5
:102C6C00601C09F095FDA31C1B2BEFDD0A25EDE77D
:102C7C00280070BD24000020D4640020F0B583B07F
:102C8C006B460022DA800026002523E06B469F1D50
:102C9C0028001C3080B2390009F07AFD3988124ABC
:102CAC00B3009F19780010180155671E090A9B196B
:102CBC0058001218D1550135ADB20234E4B2092CCA
:102CCC00E4D9B3009B195A00074B9B1800225A7287
:102CDC000136F6B2054B1B78B34201D30124EEE763
:102CEC00002003B0F0BDC0463C0D002024000020A5
:102CFC00F0B583B06B460022DA80002400250BE08F
:102D0C0063001E49C9182800CB3080B209F040FD81
:102D1C000135ADB20134E4B2194B1B78A342EFD8A4
:102D2C00002623E06B469F1D2800993080B23900A5
:102D3C0009F02EFD3988134AB3009F19780010183A
:102D4C000155671E090A9B1958001218D1550135F7
:102D5C00ADB20234E4B2092CE4D9B3009B195A0089
:102D6C00084B9B1800225A720136F6B2092E01D874
:102D7C000124F0E7002003B0F0BDC046940C002005
:102D8C0024000020300C002070B584B00E21694462
:102D9C0000230B8003AA1380E42009F0F9FC00281F
:102DAC0000D075E00E236B441E780E216944E5209B
:102DBC0009F0EEFC040003A9E62009F0E9FC044349
:102DCC00A4B2002C00D065E00E236B441D882D04AA
:102DDC0003AB1B88ED180E216944E72009F0D8FCE1
:102DEC00040003A9E82009F0D3FC0443A4B2002C8E
:102DFC0052D10E236B441C88240403AB1B88E418AB
:102E0C000E216944E92009F0C3FC002807D10E23E8
:102E1C006B441B88190A2C4A11702C4A13700E2112
:102E2C006944EA2009F0B4FC002807D10E236B4456
:102E3C001B88190A264A1170264A13700E21694400
:102E4C00EB2009F0A5FC002807D10E236B441B884E
:102E5C00190A214A1170214A13701B4B1B78002B45
:102E6C0003D01A4A1278002A18D1194B1B78002B60
:102E7C0003D0184A1278002A17D1174B1B78002B55
:102E8C0003D0164A1278002A16D1002004B070BD67
:102E9C0000268AE700259EE70024B1E70092220075
:102EAC002900300004F006FCDFE700922200290024
:102EBC00300004F0FFFBE0E7009222002900300014
:102ECC0004F0F8FBE1E7C0461A0F00202D0C00209F
:102EDC001B0F00202E0C00201C0F00202F0C00209C
:102EEC0010B582B08A206B46991D400009F050FC49
:102EFC00002800D075E06B4606331B88554A1370CA
:102F0C001B0A53708E206B46991D400009F040FC43
:102F1C00002800D06CE06B4606331B88D90B4D4A59
:102F2C0011715B08D38016206B46991DFF3009F098
:102F3C002FFC002863D16B46DA88474B1A808B2014
:102F4C006B46991D400009F023FC00285CD16B46B0
:102F5C00DA88414B5A8018206B46991DFF3009F0D6
:102F6C0017FC002855D16B4606331B883A4A13715F
:102F7C001B0A53718C206B46991D400009F008FC0C
:102F8C0004001A2001A9FF3009F002FC0443A4B28A
:102F9C00002C45D16B4606331B8801AA12881204FB
:102FAC0013432D4A93608D206B46991D400009F008
:102FBC00EFFB002842D16B4606331B88264A13735D
:102FCC001B0A53731C206B46991DFF3009F0E0FB64
:102FDC00002839D0214B9A7E1F4B9A76002002B0E4
:102FEC0010BD1F4A11781B4B197052785A7089E723
:102FFC001B4A1179174B1971D288DA8093E7174B5A
:10300C001A88154B1A809AE7144B5A88124B5A801F
:10301C00A1E7124A1179104B197152795A71A9E72B
:10302C00104B1B78002B04D00B4BE12252029A6000
:10303C00B9E70A4B9A68084B9A60B4E7064B18221A
:10304C005A7300221A73BDE76B469A79024B9A7633
:10305C00C4E7C046645F0020E45F00200800002045
:10306C0000000020F0020020F0B589B01E236B4454
:10307C0000221A80002401E00134E4B2052C54D85B
:10308C0025003B35AD00ADB21E216944280009F086
:10309C007FFB0028F0D11E236B4419880B0A1809FA
:1030AC00621C9042E8D10F200340E5D0D700BA183B
:1030BC001F4FBF187B7039721E266E44681C80B27D
:1030CC00310009F065FB33881A0ABA707B71A81CB1
:1030DC0080B2310009F05CFB33881A0AFA70BB71BC
:1030EC000335A8B2310009F053FB33881A0A3A7140
:1030FC00FB71651CEDB2787829000AF025F8397A55
:10310C004A08BB7801200240014000200590F87964
:10311C000490B87903907879029038790190F87816
:10312C00009028000AF028F9A6E7002009B0F0BDAD
:10313C00841B0020F0B5D6464F4680B583B03220B4
:10314C0010F0F8FE071E66D0374B1B78FE2B64D1AF
:10315C000026354C4CE02278FA540133DBB20134B2
:10316C00132BF8D9B246B3009B199A002F4B9146FA
:10317C009944791C1422484610F011FF14220021A6
:10318C00380010F015FF1434002503E07A55013493
:10319C000135EDB201942278931CDBB2012B01D9DD
:1031AC00312DF3D97B19013B1B78002B01D0013554
:1031BC00EDB2280010F0BEFE53469B0053449A001B
:1031CC001A4B9B18D860002816D02A00390010F032
:1031DC00E6FE174A1378013313702A0000213800D9
:1031EC0010F0E6FE019B1B78FE2B0FD10136F6B2D8
:1031FC00042E0BD80023B3E714220021484610F00C
:10320C00D7FE380010F0A0FE0E2007E0380010F0BA
:10321C009BFE002002E0FB2000E0FF2003B00CBC72
:10322C0091469A46F0BDC04600DC010800600020C3
:10323C00EF0F002010B5FFF7B7FCFFF703FDFFF70A
:10324C001DFDFFF755FDFFF79FFDFFF749FEFFF74B
:10325C000BFFFFF76FFF10BD70B50124002605E0D2
:10326C00601C09F047FB0CE00134E4B2084B1B78FE
:10327C00A3420BD32500631E5B00064A995A002912
:10328C00EED102351B2DEFDD0A26EDE7300070BDC7
:10329C0024000020D4640020F8B50026002517E097
:1032AC00601EBA00D2195100114B5B18195C09024F
:1032BC001B5DC91889B228001C3080B209F01AFBBA
:1032CC000135ADB20234E4B2092CE9D90136F6B2BB
:1032DC00084B1B78B34209D33700B3009B195A0033
:1032EC00034BD35C002BF1D00124EDE70020F8BD9B
:1032FC003C0D002024000020F8B5DE4657464E4613
:10330C004546E0B50F00160099460AAB1B789B4664
:10331C000BAB1D780CAB1B789A460DAB1C780EAB27
:10332C001B78984681B2E42009F0E4FA390A89B294
:10333C00E52009F0DFFAB9B2E62009F0DBFA310A30
:10334C0089B2E72009F0D6FAB1B2E82009F0D2FA36
:10335C004B461902594489B2E92009F0CBFA2D02E7
:10336C005544A9B2EA2009F0C5FA24024444A1B29A
:10337C00EB2009F0BFFA00203CBC90469946A246CF
:10338C00AB46F8BD10B51F4C63785B01217819432F
:10339C008A20400009F0AEFA2379DB030622A15EF5
:1033AC00194389B28E20400009F0A4FA164C2188EA
:1033BC001620FF3009F09EFA61888B20400009F03E
:1033CC0099FA63791B02217B19431820FF3009F00D
:1033DC0091FA21898C20400009F08CFA61891A201D
:1033EC00FF3009F087FA637B1B02217919438D208A
:1033FC00400009F07FFAA17E1C20FF3009F07AFA18
:10340C00002010BD645F0020E45F002070B5342202
:10341C0000210F4810F0CCFD0124002605E0601CB3
:10342C0009F068FA0CE00134E4B20A4B1B78A342B1
:10343C000BD32500631E5B00054A995A0029EED177
:10344C0002351B2DEFDD0A26EDE7300070BDC046BE
:10345C00D46400202400002010B5064B1A68064BDB
:10346C009A4206D009F05CFA002802D1014B024ABC
:10347C001A6010BDF07F0020ADDEEFBE70B58EB0CF
:10348C0012256D4404AB009307AB2A0008A9012058
:10349C0009F012FD03AC009405AB0E226A4406A998
:1034AC00022009F009FD01230A9300260B962B88B4
:1034BC00099309A908980EF0E9FE0A9602230B93CA
:1034CC002388099309A905980EF0E0FE29880022AB
:1034DC0008980FF02CF805200BF0B4F9218805980A
:1034EC000FF01EF8002802D000200EB070BD122381
:1034FC006B441988012208980FF019F805200BF07D
:10350C00A1F903AB198805980FF00AF80128ECD043
:10351C000020EAE770B505000024032C10D86300E6
:10352C001B199A00074B9B1899682800FCF7E4FDBF
:10353C00002802D00134E4B2EFE70134E0B200E03D
:10354C00002070BD8C00002070B50400002501E047
:10355C000135EDB2052D25D818492000FCF7CCFD1E
:10356C00002821D016492000FCF7C6FD00281DD0EC
:10357C0014492000FCF7C0FD002819D01249200086
:10358C00FCF7BAFD002815D010492000FCF7B4FD5B
:10359C00002811D00E492000FCF7AEFD0028D7D131
:1035AC00062000E0002070BD0120FCE70220FAE7B5
:1035BC000320F8E70420F6E70520F4E7688001080B
:1035CC006C80010870800108748001087880010803
:1035DC007C80010870B50AF0EDFF0BF08BF809F058
:1035EC0003FA09F0EDFB08F0A5F90BF0B7F808F0B9
:1035FC00DDFF0BF0E5F809F0BBFC002811D1FFF75B
:10360C003DFF002853D0364B01221A7032200BF0AC
:10361C0019F907F053F9334BE12252029A60012455
:10362C0011E0FFF719FFBFF34F8F2F4B2F4ADA60D2
:10363C00BFF34F8FC046FDE72A4B996820000BF073
:10364C0003FB0134E4B2052CF6D9FFF7F3FD0BF0C4
:10365C0087FB08F013FF264B1B78002B2DD0802501
:10366C002D019024E4050122290020000EF05FFFBB
:10367C00FA2040000BF0E6F80022290020000EF0A2
:10368C0056FF64200BF0DEF80122290020000EF01A
:10369C004EFF64200BF0D6F80022290020000EF01B
:1036AC0046FF03F0C7FC134B01221A7070BD322089
:1036BC000BF0C8F807F002F9C7E780252D0190241C
:1036CC00E4050122290020000EF031FFFA20400011
:1036DC000BF0B8F80022290020000EF028FFE0E7DC
:1036EC00F0020020E45F002000ED00E00400FA0589
:1036FC004A0E0020EF02002010B50DF043FB06F03F
:10370C0013FFFFF767FF03F0B1FC0BF0CCFB10BD10
:10371C0030B583B00500012401E00134E4B2052C7E
:10372C0014D8AC42F9D00B4B1A88110A0A4B1970F9
:10373C005A709C7003230093073300220021200051
:10374C0004F0CCF80A200BF0B3FBE6E7002003B042
:10375C0030BDC046580000200C0D0020F0B5DE46F0
:10376C0057464E464546E0B583B000AF444B1B78F8
:10377C000733DB08DB006A46D31A9D466D460023EF
:10378C0006E00022EA545C003E4962520133DBB28F
:10379C003B4A12789342F4D3013801232B54012273
:1037AC0001E00132D2B2062A19D883001B185B0043
:1037BC001B189B185B0034495B5A002BF1D0541E2C
:1037CC000121A1400C002F4E41008C46895B214306
:1037DC006446A153DB08013B0221E954E1E70223D3
:1037EC009B465E460136F3B29B4600239C46002066
:1037FC002EE00132D2B2062A28D8A3001B195B0096
:10380C001B199B185B0020495B5A002BF1D0DB087D
:10381C00013B7B60E95C0029EBD1110001390126E9
:10382C008E40B0461749894661008A46494656463D
:10383C00715A464631434E46534699537B68594616
:10384C00E95463460133DBB29C46D2E70130C0B287
:10385C000B4B1B78984207D204002A5C5B46013B59
:10386C009A42F3D10122C6E76346002BB9D100205E
:10387C00BD4603B03CBC90469946A246AB46F0BD53
:10388C0024000020C40A00208408002070B50B78A6
:10389C00002B03D104780023002602E0FF24FAE772
:1038AC000133074A12789A4208DDC25CA242F7D271
:1038BC00CD5C002DF4D1DEB21400F1E7300070BD08
:1038CC00240000200023012202E0C15C0A400133E5
:1038DC00024909789942F8DC100070472400002056
:1038EC00F0B58FB005000E003222002101A810F0B7
:1038FC005FFB1A220021484810F05AFB2A00013DB8
:10390C00002346494B5546494B55012000E00130F8
:10391C00062816DCAB005B195B005B191B185B00FF
:10392C0040495B5A002BF2D0DB08B1B28B42EED18E
:10393C00731E3A4A0121D154374B1E70C0B20FB0DE
:10394C00F0BD012300E0013337490978994209DBC6
:10395C009A42F8D0591E3148FF2444543048002470
:10396C004454F0E7002401A8FFF7ACFF00280CD169
:10397C0001A92A48FFF78AFF0130C4B2B44204D02F
:10398C00611E01AB01225A5403E0002225E00132F2
:10399C00D2B2062AE7D88B005B185B005B189B1829
:1039AC005B0020481B5A002BF1D0DB08DBB2013B3B
:1039BC0001A8C05C0028EAD1184F785C0130C0B275
:1039CC00FF5C8742E3D9154FF8541548C454DEE721
:1039DC00531C11498C54DAB20400631E1049C85CA4
:1039EC000028F5D1012200E00132062AA7DCAB0049
:1039FC005B195B005B199B185B000A495B5A002B37
:103A0C00F2D0DB08711E054C615C0139024C615C23
:103A1C008B42E9D1D0B292E7AC600020E40E0020DA
:103A2C00000F00208408002024000020F0B585B091
:103A3C0004000390554D564B2A0043CB43C219004A
:103A4C001B6813608B8893802800FCF75FFB82B2A5
:103A5C0001235B4200933333290020000BF0A6F8BE
:103A6C00012513E0494E2A004A49300011F0FEF9B5
:103A7C003000FCF74BFB82B201235B4200933333E3
:103A8C00310003980BF092F80135EDB2052DE9D910
:103A9C0001235B420093333303223F4903980BF01D
:103AAC0085F8002431E007231340D2083B493748FE
:103ABC0011F0DCF9354F3800FCF728FB82B20123FA
:103ACC005B4200933333390003980BF06FF80135E8
:103ADC00EDB2052D0ED8B3009B195B009B195B1939
:103AEC005B002F4A9A5A002ADDD12E49274811F043
:103AFC00BDF9DFE701235B420093333302222A49ED
:103B0C0003980BF053F80134E4B2284B1B78A34212
:103B1C0030D92600621C1D4D2549280011F0A6F94C
:103B2C002800FCF7F3FA82B201277F420097322378
:103B3C00290003980BF03AF816236343184A9A5A53
:103B4C0053009B1859001B4BC9180522280011F073
:103B5C00E2F90097322305222900039D28000BF07F
:103B6C0025F8009732230122134928000BF01EF888
:103B7C000125AEE701235B420093333301220F4949
:103B8C0003980BF013F805B0F0BDC046740E00207E
:103B9C002C800108408001086097010858800108BA
:103BAC008408002054800108D47E010824000020E1
:103BBC0048800108948001083C80010888B0010805
:103BCC00F0B583B005002D4C2D4923000A0043CAE3
:103BDC0043C343CA43C312681A602000FCF796FA29
:103BEC0082B201235B4200933333210028000AF098
:103BFC00DDFF012623E00134E4B20A2C1DD8731E2C
:103C0C005B00204A9A5A611E80231B020B4113420F
:103C1C00F1D01A4F230032001B49380011F026F95D
:103C2C003800FCF773FA82B201235B420093333302
:103C3C00390028000AF0BAFFDDE70136F6B2134B63
:103C4C001B78B34201D30124D7E70C4C1049230055
:103C5C000A0043CA43C343CA43C303CA03C3200075
:103C6C00FCF754FA82B201235B42009333332100F8
:103C7C0028000AF09BFF03B0F0BDC046740E002074
:103C8C00DC7F0108D4640020F87F010824000020A8
:103C9C000C800108F0B5C64600B584B007000BF0E7
:103CAC0025FA040000230370934B1A78934D944922
:103CBC00280011F0DBF82900200011F0F7F8914BE7
:103CCC001A789149280011F0D1F82900200011F040
:103CDC00EDF806230093043B00228C49280011F0D8
:103CEC00C5F82900200011F0E1F8894A894928001B
:103CFC0011F0BCF82900200011F0D8F8864A874949
:103D0C00280011F0B3F82900200011F0CFF8844BF3
:103D1C002A0043CB43C219001B6813608B88938025
:103D2C008B7993712900200011F0C0F801250DE06A
:103D3C00724B7C4A116819609188998092799A71BA
:103D4C006E49200011F0B2F80135EDB2052D3BD8CB
:103D5C006A4E2A007449300011F088F831002000B6
:103D6C0011F0A4F8714B5B5D042BE9D89B00704AF1
:103D7C00D3589F4661496F480B00020043CA43C3A6
:103D8C0003CA03C312781A70DAE75C4A6A4B43CB56
:103D9C0043C2D5E7594969480B00020043CA43C3E3
:103DAC0043CA43C312881A80CAE7544964480B00BB
:103DBC00020043CA43C343CA43C3116819609188C4
:103DCC00998092799A71BBE74C495E480B000200CE
:103DDC0061CA61C361CA61C3200011F067F8012692
:103DEC000BE0464D32005849280011F03FF82900ED
:103DFC00200011F05BF80136F6B2062E22D8751EA3
:103E0C00EB005B1BDA00514BD358002BE9D0EB00D5
:103E1C005B1BDA004D4B9B18586A06F0B9FD0390FA
:103E2C00AD004B4BE85806F0B3FD344D0090039BAE
:103E3C0032004849280011F019F82900200011F02F
:103E4C0035F8D8E72000FCF761F920180322424925
:103E5C0010F0A5F82000FCF759F920181D223F4955
:103E6C0010F09DF82000FCF751F98046012501E087
:103E7C000135EDB2052D16D81F4B1B78013B5B00AD
:103E8C00374A9A5A691E80231B020B411342EFD00A
:103E9C001A4E2A003349300010F0E8FF31002000A0
:103EAC0011F004F8E4E72000FCF730F943461B045A
:103EBC001B0C98420DD02000FCF728F92018032287
:103ECC00254910F06CF8002F09D104B004BC9046C1
:103EDC00F0BD20180522244910F061F8EBE7200012
:103EEC00FCF714F982B201235B42009333332100B7
:103EFC0038000AF05BFEE8E74A0E0020740E002042
:103F0C00207E0108790800203C7E0108587E0108BB
:103F1C00787E0108847E01089C7E0108A87E010839
:103F2C00C47E0108E07E0108D87E0108C40E002082
:103F3C00FC7D0108E87E0108007F01080C7F010868
:103F4C00287F0108487F0108607F0108201A0020A3
:103F5C00BC1400207C7F0108D47E0108AC7F0108D2
:103F6C00D4640020CC7F0108D47F010870B5050013
:103F7C002949FCF7C1F800280AD028492800FCF789
:103F8C00BBF8002844D02E78232E04D0002416E051
:103F9C00234B187870BD681C0FF08FFFC0B200283F
:103FAC0003D0204B1B78834205D21D4B1C788442D6
:103FBC0030D120B2EEE700B2ECE70134E4B2194B99
:103FCC001B78A3420DD9A3001B195900164BC91815
:103FDC002800FCF791F80028EFD1002EEDD020B28C
:103FEC00D8E70026092E11D8B3009B195A000F49A7
:103FFC0089182800FCF780F8002802D00136F6B2A8
:10400C00F0E73402FE20204300B2C3E76420C1E78E
:10401C00FF20BFE76620BDE76080010864800108CF
:10402C004A0E0020240000203C0D0020300C002003
:10403C00F8B506000D000024032C09DCA300294967
:10404C00C9182800FCF758F8002843D00134F3E7CE
:10405C000124254B1B78A3420BDDA3001B1959002F
:10406C00224BC9182800FCF747F8002834D001343B
:10407C00EFE70024092C0BDCA3001B195A001C4988
:10408C0089182800FCF738F8002827D00134F1E70C
:10409C00184B194A1A60174B1C68002C0FD0236858
:1040AC001F683800FCF732F802003900280010F0C5
:1040BC0021FF002814D062680E4B1A60EBE7B300A6
:1040CC009E197000094BC018290010F00BFFFFF768
:1040DC00E3F802E0062000E00720F8BD0720FCE72B
:1040EC000820FAE7107E0108240000203C0D002077
:1040FC00300C0020CC0E0020E8000020F8B50600A3
:10410C000D000024092C14DCA3001B195A003349A0
:10411C0089182800FBF7F0FF002801D00134F1E7E3
:10412C00013E0122A2402E497600735A134373526A
:10413C00F8BD0024032C09DCA3002A49C918280067
:10414C00FBF7DAFF002845D00134F3E70124264BB6
:10415C001B78A3420BDDA3001B195900234BC91874
:10416C002800FBF7C9FF002836D00134EFE7204BBD
:10417C00204A1A6002E062681D4B1A601C4B1C68D6
:10418C00002C1CD023681F683800FBF7BFFF02000F
:10419C003900280010F0AEFE0028ECD10820C7E74B
:1041AC000E488018290010F09DFE013E0122A2400D
:1041BC000B497600735A134373520020B8E7092C4D
:1041CC00F3DCA3001B195A00044BD35C002BE7D083
:1041DC000134F4E70620ABE70720A9E7300C0020F8
:1041EC00940C0020107E0108240000203C0D0020BF
:1041FC00D00E0020E800002030B583B01E200FF058
:10420C0099FE04001E2200210FF0D2FE08490A7DFF
:10421C00013A8B7D487D098B9200064D52590191D4
:10422C0000900549200010F021FE200003B030BDA5
:10423C00E45F0020148601088080010800B585B079
:10424C000A00074B197801230393023B0293019355
:10425C00033300930B0003F0BFFD05B000BDC04657
:10426C004A0E002030B587B004000D0000230493E3
:10427C000393029301930093002200210020FFF787
:10428C003BF8621ED3009B1ADA00154BD258002A59
:10429C0007D0691ECB005B1AD900114BCB58002BF1
:1042AC000ED1002A15D16A1ED3009B1ADA000C4BD2
:1042BC00D358002B12D0280008F026F9002006E075
:1042CC00200008F021F9280008F01EF9002007B0A2
:1042DC0030BD200008F018F90020F8E76820F6E758
:1042EC00201A0020F8B50700002501E034700135D4
:1042FC007E193478002C09D00FF00EFE001942788C
:10430C0003231340012BF1D12034EFE7F8BD00005B
:10431C00F0B5C64600B588B00500D74B1C78052C07
:10432C0000D10DE2D548A3001A19910000220A54BD
:10433C00401842700230043200210FF039FE2B7805
:10434C00622B02D1AB782E2B4FD0CD4E29003000F2
:10435C0010F0C8FDCB4C2100300011F051FC0500D1
:10436C002100002011F04CFC06002100002011F06F
:10437C0047FC0400002D00D1E9E12800FFF7CAF842
:10438C00051E02D0002E00D1ACE1002E00D1E0E1E0
:10439C00002C00D1DFE12000FFF7BCF8002800D191
:1043AC00B1E1B54B1978B54A8B005F18BC000427F6
:1043BC00A7541419E570E071AF4D2C783000FFF75D
:1043CC00C3F8AE4AA10009198B00D31858702B788A
:1043DC009900C918880012185278002A00D1BCE143
:1043EC000133A54A13700020ABE16E78303EF6B273
:1043FC00052E00D9A9E1A14BA200101981000120C2
:10440C00C8545B1800225A709E70EF1C07329E49EC
:10441C00380010F06FFD002822D1A3001C19A20057
:10442C00964B9B180522DA70F2009219974B9B1849
:10443C001B7ADB0705D500208F4A137801331370E4
:10444C007FE10123059300230493039302930193CB
:10445C00009300220121300008F08EFF0020EBE7D2
:10446C000E228B49380010F045FD00281ED1A30008
:10447C001C19A200814B9B180622DA70F2009219CB
:10448C00824B9B181B7A9B0701D50020D4E7012394
:10449C000593002304930393029301930093012249
:1044AC000021300008F068FF0020C5E70C22794994
:1044BC00380010F01FFD00287BD1F2009219734BCD
:1044CC009B189B78002B0FD0F20092196F4B9B1806
:1044DC00DB78002B29D0F20092196C4B9B181B79BE
:1044EC00002B44D00C20A7E7644FA3001C19A30099
:1044FC00FB180922DA7028000F300FF0D8FC5E4B45
:10450C001978C3B28A00521891007F183B710122AE
:10451C0005920022049203920292019200920021D1
:10452C00300008F029FF002086E7544FA3001C1927
:10453C00A300FB180A22DA7028000F300FF0B7FC2A
:10454C004D4B1A78C0B293009B189A00BF18387163
:10455C00012305930023049303930293019300908A
:10456C0000220021300008F007FF002064E7434FD1
:10457C00A3001C19A300FB180B22DA7028000F30C3
:10458C000FF095FC3C4B1A78C0B293009B189A0024
:10459C00BF183871012305930023049303930293EE
:1045AC000190009300220021300008F0E5FE00206D
:1045BC0042E70D223849380010F09CFC002800D04E
:1045CC008EE0F2009219314B9B185B79002B0FD0C7
:1045DC00F20092192D4B9B189B79002B2AD0F200DC
:1045EC0092192A4B9B18DB79002B57D00D2023E70F
:1045FC00224FA3001C19A300FB180C22DA70280010
:10460C0010300FF054FC1C4B1A78C0B293009B185E
:10461C009A00BF1838710123059300230493039368
:10462C0002900193009300220021300008F0A4FEB8
:10463C00002001E7114FA3001C19A300FB180D2249
:10464C00DA70280010300FF032FC0B4B1A78C0B225
:10465C0093009B189A00BF1838710123059300230F
:10466C0004930390029301930093002200213000E5
:10467C0008F082FE0020DFE6EF0F00200060002033
:10468C00540F0020DC7E010894970108841B002045
:10469C00188801082888010838880108304F14331D
:1046AC0098465C433C19063BE370280010300FF031
:1046BC00FEFB2C4B1B78C0B242465343FF1838719B
:1046CC000123059304900024039402940194009414
:1046DC00230022002100300008F04EFE2000ABE643
:1046EC000020A9E6002C00D04FE61E4803781C4998
:1046FC009A00D618B400022666540919CD700133FD
:10470C00037000201DE0174B98461A78144F930045
:10471C00981881000320C8557A18D57020000FF026
:10472C00C1FBFEF769F9079043461A7893009B1872
:10473C009800C0190630042207A90FF030FC3BE6A4
:10474C000E2008B004BC9046F0BD0020F9E76720AD
:10475C00F7E76720F5E76720F3E76720F1E7C04646
:10476C0000600020EF0F0020F8B50C00022817D0D5
:10477C00032803D001280FD000200CE0344B1A780A
:10478C00013A93009B189A00324B9B1801221A7421
:10479C0005F022FF0020F8BD0800FFF7B9FDFAE78D
:1047AC002B4B1D78013DAB005B199A00294B9B18D4
:1047BC00DE68002E34D03000FBF7A8FC0700200088
:1047CC00FBF7A4FC39180231300010F02FFB214EFE
:1047DC00AB005D19AB00F318D8601D4D2B78013B75
:1047EC009A00D2189300F318D8687B1CC0182100CB
:1047FC0010F078FB2A78013A93009B189A00B618AF
:10480C00F3681322DA55124B1B78013B9A00D2182D
:10481C009100104A5218D268002A11D00020BAE731
:10482C000800FBF773FC01300FF084FBAB005D1943
:10483C00AA00084B9B18D860210010F053FBE2E74C
:10484C00044BC818142200210FF0B2FB0E20A2E773
:10485C00EF0F002000600020F0B5DE4657464E46B4
:10486C004546E0B58BB00490039115001C0009225D
:10487C00002107A80FF09CFB60E1E91C0130FFF759
:10488C0073FF002806D1CF4B02221A700D23237020
:10489C00002784E15222CC4920000FF080FBC94B49
:1048AC0000221A7000277AE1C64B00221A70C74901
:1048BC000330FFF759FF4122C54920000FF06FFB71
:1048CC0000276CE129000220FFF74EFF002803D1DE
:1048DC000D232370002762E15222BB4920000FF008
:1048EC005EFB00275BE10FF017FB7378C018437871
:1048FC005B0700D54CE1721B290007A810F00BFBDD
:10490C0007A8FFF733FB0590B24A12789146904204
:10491C002CD0642832D0662837D0FF283CD06B4688
:10492C001B7D9A46FE2B68D001360622AA49300020
:10493C0010F0E0FA002800D0A3E0A84B00221A7077
:10494C001921504603F022FA64200AF0B1FAA44B64
:10495C001A78A04B18780023514605F055FF9F4B51
:10496C001B78602B00D1C8E0002718E1701C99223D
:10497C00920021000AF054FB070010E1272299490C
:10498C0020000FF00CFB002709E12522964920009E
:10499C000FF005FB002702E11A22002193480FF0CB
:1049AC0007FB01362800FBF7B1FB070007A8FBF754
:1049BC00ADFB3A1A013A31008D4810F0ACFA2800E0
:1049CC00FBF7A4FB070007A8FBF7A0FB3B1A9BB265
:1049DC001722FF21484603F0B1F9992292002100D9
:1049EC0030000AF01DFB07002000FBF78FFB20189E
:1049FC001D2280490FF0D3FAD1E0059B1B12DBB2CC
:104A0C009A467D4B9B4652461A701A2200217748D3
:104A1C000FF0CEFA731C98462800FBF777FB0600C4
:104A2C0007A8FBF773FB321A013A4146704810F0A5
:104A3C0072FA2800FBF76AFB060007A8FBF766FB77
:104A4C00331A9BB217225146484603F077F9614B53
:104A5C001B78013B5B00694A9B5A5A4612781341FA
:104A6C00DB0706D407AB22006549200010F0FEF9E5
:104A7C0095E099229200210040460AF0D1FA0700F5
:104A8C00F0E72800FBF742FB070007A8FBF73EFB0B
:104A9C003A1A013A3100564810F03DFA2800FBF75B
:104AAC0035FB060007A8FBF731FB321A92B2013A2C
:104ABC0092B21721504603F069F9059A514920002A
:104ACC0010F0D4F92378002B02D0039B002B08D1D3
:104ADC002000FBF71BFB0200002120000FF068FAFE
:104AEC003DE72000FBF712FB82B201230093313328
:104AFC00210004980AF05AF8EAE7FA21890001200B
:104B0C000BF0B4FE404B1B78002B0BD03F4A1388A4
:104B1C0001331380059B22003D49200010F0A6F9BB
:104B2C0000273CE000273AE02000FBF7EFFA0200F8
:104B3C00002120000FF03CFA002F71D02800FFF765
:104B4C00D1FB204B1E78002E07D1032231492800BF
:104B5C0010F0D0F9002800D18FE6002E07D00622E5
:104B6C002D49280010F0C6F9002800D19CE6022E31
:104B7C0000D1A7E62E21280010F0A6F9061E07D0BA
:104B8C0003380322254910F0B5F9002800D0AAE615
:104B9C0099229200210028000AF042FA070023789B
:104BAC00002BC1D0039B002BBED02000FBF7AEFA2C
:104BBC0082B201235B42009333332100049809F045
:104BCC00F5FFB1E71C100020508601084480010855
:104BDC00AC8601084A0E002090870108645F002013
:104BEC0079080020F48601081C870108F80A0020C7
:104BFC000C0D002044870108EE0F0020940C0020BF
:104C0C006487010898870108E00E0020D81700205F
:104C1C00BC8701084C860108A4860108F0860108AF
:104C2C000922002107A80FF0C3F90C4B1B78002BAD
:104C3C0002D1039B002B06D10BB03CBC904699468D
:104C4C00A246AB46F0BD01235B42009333333822BE
:104C5C000349049809F0AAFFEEE7C0461C10002097
:104C6C00DC87010870B584B00F236B4400221A70E6
:104C7C000121494201200BF0F9FD0AF037FA050039
:104C8C00464B9A68E1231B039A420FD0012406E09D
:104C9C00E1210903200009F0D7FF0134E4B2052C0F
:104CAC0004D83F4B1B78A342F7D0F1E73D4B1B8850
:104CBC005A00D21853003C4A9B183C4A12783C4C80
:104CCC00374E317800913B49200010F0CFF8A422E8
:104CDC0030780A239200384909F096FF2000FBF740
:104CEC0015FA82B230780A23210009F08DFF0026D4
:104CFC001CE02B4B18780A230222304909F084FF60
:104D0C00002E3DD02E4C264B18782B002200012172
:104D1C00FFF7A2FD21002B4810F0E4F8322200210D
:104D2C0020000FF045F900260AF02CFB264B1B78CF
:104D3C00012BF9D11A4B1878421E24498B5C0F2495
:104D4C006C44237000238B541F4A13700A330122C6
:104D5C00210009F059FF23780D2BCAD00A2BE3D080
:104D6C00082B12D07F2B10D01A00203AD2B25E2A18
:104D7C00DAD8312ED8DC124A9355013676B2D3E705
:104D8C0010490F4810F0AEF8BCE7002ECCDD013E08
:104D9C0076B20B4B00229A55C6E7C046E45F002062
:104DAC007908002058000020948001084A0E002049
:104DBC00F00F0020488801087488010830A1010810
:104DCC00200F0020BC0F002083080020A010002022
:104DDC0070B50C001C4B1A78013A93009B189A0082
:104DEC001A4B9B18DB68002B2CD0194B1B68002B23
:104DFC0014D0174B1D682B78002B12D013212800D0
:104E0C0010F062F8061E11D0421B2900200010F091
:104E1C0082F801360E4B1E60012006E00C4B186028
:104E2C00E7E70B4B00221A60002070BD2900200020
:104E3C0010F058F82000FBF769F92D18044B1D6091
:104E4C000120F2E70020F0E7EF0F002000600020C7
:104E5C0018100020F0B583B0040083001B189A00D2
:104E6C00464BD35C012B04D0032B15D0002003B090
:104E7C00F0BD424A83001818810008005118897847
:104E8C001218D278CB005B183D495B5C9A4201D07A
:104E9C000020ECE70120EAE7384E85002B1899003A
:104EAC007118CA78013A53009B189A00354BD358A5
:104EBC001F680631042201A80FF071F82C19A30009
:104ECC00F6187378062B47D89B002F4AD3589F4669
:104EDC00391C0198FBF7ECFA00283FD00120C6E7FB
:104EEC00391C0198FBF7EAFA002801D10020BEE733
:104EFC000120BCE7391C0198FBF7F4FA00282FD0ED
:104F0C000021381CFBF7D4FA00282BD10130AEE776
:104F1C00391C0198FBF7DCFA002825D00120A6E704
:104F2C00391C0198FBF7E8FA00281FD00021381C27
:104F3C00FBF7BEFA00281BD1013098E7391C019809
:104F4C00FBF7B6FA002815D10021381CFBF7B0FA94
:104F5C00002811D101308AE7002088E7002086E77D
:104F6C00002084E7002082E7002080E700207EE715
:104F7C0000207CE700207AE7002078E70060002022
:104F8C00841B00208C0000203086010870B50AF0CC
:104F9C00ADF8050000241BE0194B18782B00194ABA
:104FAC000021FFF759FC2800FBF7B0F802000021A4
:104FBC0028000EF0FDFFB3009B199A00124B9B18B2
:104FCC00D8681049FFF704FF0028E5D10134A4B2DA
:104FDC000E4B1B78A34211D92600A3001B199A0073
:104FEC00094B9B181B7C002BF0D0E0B2FFF732FF73
:104FFC000028EBD0064B20221A70DCE7002070BD95
:10500C0079080020880F002000600020EF0F00209E
:10501C00645F002000207047F0B583B005001400D9
:10502C0000230193009301AA012120000AF062F8E9
:10503C000023C356702B17D068276A460221200024
:10504C000AF058F80EF039FF0400682F12D0010056
:10505C00300009F0F9FD33002200094928000FF057
:10506C0005FF002003B0F0BD01300EF026FFC6B2E4
:10507C000027E2E71322034928000EF090FFF0E727
:10508C00EC940108D894010810B5044B1A6812046A
:10509C00120C03490FF0EAFE002010BDCCF7FF1FE5
:1050AC00CC8E010810B582B00400100000230193CF
:1050BC000023009301AA01210AF01CF80023C35617
:1050CC00323BDBB2012B07D915220B4920000EF025
:1050DC0066FF002002B010BD0EF0EFFEC0B26946B4
:1050EC0008F014FC0098FDF735FC02000B00034996
:1050FC0020000FF0BBFEECE7C88B0108A48B010865
:10510C0010B582B00400002301930093694601A8F6
:10511C0008F040FB01A920000FF0E4FE0098FDF719
:10512C0019FC02000B00034920000FF09FFE002029
:10513C0002B010BD148C010810B582B0040000231D
:10514C0001930093694601A808F024FB01A92000F3
:10515C000FF0C8FE0198FDF7FDFB02000B000349A0
:10516C0020000FF083FE002002B010BDE08B010880
:10517C0070B584B00500160000230393029300233E
:10518C00019303AA0121300009F0B4FF040002AA24
:10519C000221300009F0AEFF06000023E356323B3B
:1051AC00DBB2012B07D91522194928000EF0F7FEA6
:1051BC00002004B070BD20000EF07FFEC4B2154973
:1051CC003000FAF799FF002805D013493000FAF7A0
:1051DC0093FF002816D10F4E3100200008F07CFC04
:1051EC0001AA3100200008F0A9FC01A928000FF049
:1051FC0079FE0198FBF7BEF982B2084928000FF03E
:10520C0035FED5E71222064928000EF0C8FECFE77E
:10521C00C88B0108548B0108588B0108608B01085E
:10522C00708B0108F0B585B00400100000230393C7
:10523C005D4B1A7802AB1A7003AA012109F05AFFD0
:10524C0005005A49FAF758FF002868D1584B1B78CB
:10525C00013B584AD65C012523E02A005649200020
:10526C000FF004FE2000FAF751FF82B2504B187871
:10527C00642300935A3B210009F098FC3DE0012087
:10528C000BF09EFD4A4B1A78013A711C53009B1887
:10529C009B014A4AD3185B5C002BF0D00E00013501
:1052AC00EDB2052D44D8424B1B78AB42F7D00FF032
:1052BC008BFD02AF3870642300935A3B01223900F6
:1052CC00280009F073FC280009F052FC03689B8C41
:1052DC00DBB23A789342C0D02A00394920000FF053
:1052EC00C5FD2000FAF712FF82B2314B1878642307
:1052FC0000935A3B210009F059FC542231492000FB
:10530C000EF04DFE2000FAF701FF82B2284B187800
:10531C00642300935A3B210009F048FCB2E70023B8
:10532C00EB56702B07D00F22274920000EF037FECA
:10533C00002005B0F0BD681C0EF0BFFD0500C6B224
:10534C00731EDBB2042B0BD96623662B26D0062BDF
:10535C00EED1FF222A401A4920000FF087FDE7E723
:10536C000FF032FD02AF387064230093323B012200
:10537C003900300009F01AFC002009F0F9FB036831
:10538C009B8CDBB23A78934201D00623DDE7FF22F7
:10539C002A40094920000FF069FDC9E71B220B497F
:1053AC0020000EF0FCFDC3E7087D010864800108B5
:1053BC00790800206814002048A50108A8100020D6
:1053CC0064A5010878A50108E8A50108CCA5010889
:1053DC00F0B585B00500140000230393029303AAD3
:1053EC000121200009F086FE0023C356702B16D035
:1053FC00672602AA0221200009F07CFE0023C35676
:10540C00702B13D0672000281DD0672822D01922BA
:10541C00134928000EF0C3FD002005B0F0BD01308B
:10542C000EF04BFDC3B201930026E2E701300EF003
:10543C0044FDC7B2002E01D06720E6E73900019881
:10544C00FEF710FFDFE73B00019A064928000FF03A
:10545C000DFDE1E70F22044928000EF0A0FDDBE76B
:10546C0094A6010874A60108E8A50108F0B585B05A
:10547C000500140000230393029303AA01212000CA
:10548C0009F038FE0023C356702B16D0672602AAEB
:10549C000221200009F02EFE0023C356702B13D0DE
:1054AC00672000281DD0672822D017221349280016
:1054BC000EF075FD002005B0F0BD01300EF0FDFCC6
:1054CC00C3B201930026E2E701300EF0F6FCC7B23E
:1054DC00002E01D06720E6E739000198FEF7AEFEFA
:1054EC00DFE73B00019A064928000FF0BFFCE1E71B
:1054FC000F22044928000EF052FDDBE7688D0108ED
:10550C00448D0108E8A50108F0B5D6464F4680B594
:10551C0085B0019010000023039303AA012109F028
:10552C00E9FD0EF0C4FCC4B2002C49D02E4B1B7804
:10553C00A34201D2FF2344E0FF260640013E2B4B41
:10554C009946B3009A469A19930000254A469D54F1
:10555C0053469B199F004F447D70B81C04220021B8
:10556C000EF026FD3D74F8680EF0EEFCFD6001E0D7
:10557C000134E4B21C4B1B78A3421AD9A3001B19AB
:10558C009A001A4BD35C002BF2D0621E93009B182E
:10559C009800164A8018A3001B199E00B6181422F6
:1055AC0031000EF0FCFC1422002130000EF000FD46
:1055BC00DEE7013B0C4A137005F00EF8002300E007
:1055CC00FF23002B0AD02322094901980EF0E7FC97
:1055DC00002005B00CBC91469A46F0BD3622054918
:1055EC0001980EF0DCFCF3E7EF0F002000600020C8
:1055FC00888E0108508E010810B582B0040010008E
:10560C000023019301AA012109F074FD0EF04FFC57
:10561C00C3B2002B03D00F4A12789A4207D223222E
:10562C000D4920000EF0BBFC002002B010BDFF2382
:10563C0018400138830018188200084B9B18002270
:10564C001A7404F0C9FF3522054920000EF0A7FC9E
:10565C00EAE7C046EF0F0020888E010800600020AA
:10566C009892010810B582B0040010000023019339
:10567C0001AA012109F03EFD0EF019FCC3B2002B6A
:10568C0003D00F4A12789A4207D223220D492000E8
:10569C000EF085FC002002B010BDFF23184001382D
:1056AC00830018188200084B9B1801221A7404F00E
:1056BC0093FF3822054920000EF071FCEAE7C04642
:1056CC00EF0F0020888E0108006000204C8C010830
:1056DC00F0B5CE46474680B58BB0040006AA744B95
:1056EC00043323CB23C21B881380724B18780123FD
:1056FC005B420093333337226F4909F057FA002786
:10570C00012398468CE06D4B9B181A7CD3009B1A96
:10571C0006AA944663444246694920000FF0A6FB52
:10572C008BE0B3009B199A00644B9B18DB78053B0C
:10573C00DAB2092A4ED89300624AD3589F46B30076
:10574C009B1999005D4A52189378D26800922200F6
:10575C005D4920000FF08AFB3CE0B3009B199900D7
:10576C00564A52189378D26800922200574920006A
:10577C000FF07CFB2EE0B3009B1999004F4A521896
:10578C0093781179D268019200912200504920003F
:10579C000FF06CFB1EE0B3009B199900474A52189E
:1057AC0093781179D2680192009122004949200026
:1057BC000FF05CFB0EE0484D2B0022004749200007
:1057CC000FF054FB2800FAF7A1FC0200002128007E
:1057DC000EF0EEFBB3009B199A00384B9B18D8685F
:1057EC003D49FFF7F5FA0028E5D12000FAF78EFCC9
:1057FC0020180C223A490EF0D2FB2000FAF786FC56
:10580C0082B22C4B187801235B4200933333210076
:10581C0009F0CCF943460133DBB298460137FFB2AD
:10582C00304B1B78BB4238D93E00BB00DB199A00C9
:10583C00224BD35C002B00D065E7B3009B199A0078
:10584C001E4BD35C012B00D16BE7032BC2D1B300F1
:10585C009B199D00194BED18A91D042205A80EF0EB
:10586C009EFBEA78013A6B78013B5D00EB181E4D0C
:10587C00ED1853009B189A001C4B9B189B6899467B
:10588C000598FDF767F80290039100954B462200AE
:10589C00174920000FF0EAFA9CE7B52215492000C1
:1058AC000EF07DFB00200BB00CBC90469946F0BD71
:1058BC00087D0108790800202C9701080060002061
:1058CC0064970108088B01087097010884970108F8
:1058DC009C970108B497010820100020E09701085C
:1058EC00E8970108EF0F00205C9201088C00002063
:1058FC00D0970108F497010810B504000BF074FA66
:10590C000004000C1A4B9C46604408282AD88000DE
:10591C00184B1B589F46184A184920000FF0A6FA3E
:10592C000BF05CFA030B2200154920000FF09EFAD5
:10593C00002010BD134A114920000FF097FAEFE731
:10594C00114A0E4920000FF091FAE9E70F4A0B4972
:10595C0020000FF08BFAE3E70D4A084920000FF006
:10596C0085FADDE70B4A054920000FF07FFAD7E7EF
:10597C00C0FBFFFF308B01085891010864910108AE
:10598C00B091010878910108849101089091010867
:10599C009C910108A891010870B505000E220E49D2
:1059AC000EF0FDFA00240AE00C4BE3189B001B6878
:1059BC002A000B4928000FF059FA0134E4B2022CEA
:1059CC00F2D92800FAF7A2FB2818032205490EF099
:1059DC00E6FA002070BDC046C0A60108EBFDFF072B
:1059EC00D0A6010830A1010830B585B0040008F03C
:1059FC0081FE1B4B5B7B182B04D00C2B0ED0002094
:105A0C0005B030BD16498A7C4B7C087CC989019154
:105A1C000090144920000FF029FAF0E7104BDB7CC2
:105A2C00012B0FD0022BEAD10D498A7C4B7C087CD0
:105A3C00C9890D4D0295019100900C4920000FF081
:105A4C0015FADCE706498A7C4B7C087CC989084D31
:105A5C00029501910090054920000FF007FACEE75E
:105A6C00E45F002008A6010860A6010830A6010822
:105A7C005CA6010810B5040008F03CFEFEF7BCFB68
:105A8C000200034920000FF0F1F9002010BDC046C0
:105A9C00908D0108F0B583B005001600002301932A
:105AAC00009301AA0121300009F024FB04007C4B77
:105ABC00186004227B490FF01DFA002800D09EE0EC
:105ACC000434019B1E1F3200774920000FF012FA9C
