:020000040800F2
:1000000000800020F9E2000885E30008A9D8000874
:1000100000000000000000000000000000000000E0
:10002000000000000000000000000000C101010805
:100030000000000000000000590201089DD80008DF
:1000400085E3000885E3000885E3000885E30008F0
:1000500085E3000885E3000885E3000879DA0008F5
:1000600085E3000885E30008F1D8000831D90008CD
:1000700085E3000885E3000885E3000885E30008C0
:1000800085E3000885E3000885E3000885E30008B0
:1000900085E3000885E3000885E3000885E30008A0
:1000A00085E3000885E3000885E30008ADD8000873
:0C00B000BDD80008CDD8000885E300088A
:1000BC0010B5064C2378002B07D1054B002B02D032
:1000CC00044800E000BF0123237010BDB8020020DB
:1000DC00000000004C830108044B10B5002B03D02A
:1000EC000349044800E000BF10BDC04600000000FA
:1000FC00BC0200204C83010802780B78002A03D044
:10010C00013001319A42F7D0D01A70470023C25CFB
:10011C000133002AFBD1581E7047000002B471460F
:10012C0049084900095C49008E4402BC7047C0462E
:10013C0003B47146490840004900095E49008E44E9
:10014C0003BC7047002243088B4274D303098B42D3
:10015C005FD3030A8B4244D3030B8B4228D3030C8B
:10016C008B420DD3FF22090212BA030C8B4202D32D
:10017C001212090265D0030B8B4219D300E0090A55
:10018C00C30B8B4201D3CB03C01A5241830B8B425E
:10019C0001D38B03C01A5241430B8B4201D34B0347
:1001AC00C01A5241030B8B4201D30B03C01A5241AC
:1001BC00C30A8B4201D3CB02C01A5241830A8B4231
:1001CC0001D38B02C01A5241430A8B4201D34B021A
:1001DC00C01A5241030A8B4201D30B02C01A52417E
:1001EC00CDD2C3098B4201D3CB01C01A5241830932
:1001FC008B4201D38B01C01A524143098B4201D36C
:10020C004B01C01A524103098B4201D30B01C01A96
:10021C005241C3088B4201D3CB00C01A5241830810
:10022C008B4201D38B00C01A524143088B4201D33D
:10023C004B00C01A5241411A00D20146524110469D
:10024C007047FFE701B5002000F0F0F802BDC04692
:10025C000029F7D076E7704703460B437FD4002282
:10026C0043088B4274D303098B425FD3030A8B423E
:10027C0044D3030B8B4228D3030C8B420DD3FF22A8
:10028C00090212BA030C8B4202D31212090265D076
:10029C00030B8B4219D300E0090AC30B8B4201D329
:1002AC00CB03C01A5241830B8B4201D38B03C01A70
:1002BC005241430B8B4201D34B03C01A5241030BE7
:1002CC008B4201D30B03C01A5241C30A8B4201D398
:1002DC00CB02C01A5241830A8B4201D38B02C01A43
:1002EC005241430A8B4201D34B02C01A5241030ABA
:1002FC008B4201D30B02C01A5241CDD2C3098B429F
:10030C0001D3CB01C01A524183098B4201D38B011B
:10031C00C01A524143098B4201D34B01C01A5241BE
:10032C0003098B4201D30B01C01A5241C3088B4203
:10033C0001D3CB00C01A524183088B4201D38B00EE
:10034C00C01A524143088B4201D34B00C01A524190
:10035C00411A00D201465241104670475DE0CA0F67
:10036C0000D04942031000D34042534000229C4627
:10037C0003098B422DD3030A8B4212D3FC22890131
:10038C0012BA030A8B420CD3890192118B4208D307
:10039C00890192118B4204D389013AD0921100E069
:1003AC008909C3098B4201D3CB01C01A524183097D
:1003BC008B4201D38B01C01A524143098B4201D3AA
:1003CC004B01C01A524103098B4201D30B01C01AD5
:1003DC005241C3088B4201D3CB00C01A524183084F
:1003EC008B4201D38B00C01A5241D9D243088B42A5
:1003FC0001D34B00C01A5241411A00D20146634648
:10040C0052415B10104601D34042002B00D54942AB
:10041C00704763465B1000D3404201B5002000F0EA
:10042C0005F802BD0029F8D016E770477047C046A2
:10043C008446101C62468C46191C634600E0C0467C
:10044C001FB501F009F9002801D40021C8421FBDD5
:10045C0010B501F053F84042013010BD10B501F059
:10046C00FBF8002801DB002010BD012010BDC046A8
:10047C0010B501F0F1F8002801DD002010BD0120BD
:10048C0010BDC04610B501F075F8002801DC002045
:10049C0010BD012010BDC04610B501F06BF800284E
:1004AC0001DA002010BD012010BDC0468446081C96
:1004BC006146FFE71FB500F049F9002801D400217F
:1004CC00C8421FBD10B500F0CDF84042013010BD40
:1004DC0010B500F03BF9002801DB002010BD012015
:1004EC0010BDC04610B500F031F9002801DD002028
:1004FC0010BD012010BDC04610B500F0DBF800287F
:10050C0001DC002010BD012010BDC04610B500F06C
:10051C00D1F8002801DA002010BD012010BDC04622
:10052C00994201D1801A04D002D201204042704776
:10053C0001207047F0B515042D0C0F0001002E00A2
:10054C00C64684460004140C000C090C46434D436B
:10055C00604361434019340C241800B5A54203D9FB
:10056C008020400280464144250C6D186146594359
:10057C007A43300449192404000C2018891880BCD3
:10058C00B846F0BD70B500220C4B04000D00FFF70F
:10059C0083FF002804D12000290001F0E9FE70BD82
:1005AC00064B00222000290001F032FB01F0E0FE96
:1005BC0080231B069C466044F1E7C0460000E041E6
:1005CC0070B505000C000022002328002100FFF765
:1005DC0045FF002808D12800210000F00FF8020088
:1005EC000B001000190070BD80231B06E1182800B9
:1005FC0000F004F8002342428B41F2E770B5002270
:10060C000B4B0D00040001F097F8FFF7BBFF060041
:10061C0001F014FF0022074B01F08EF802000B00D2
:10062C002000290001F0F4FAFFF7ACFF310070BD97
:10063C000000F03D0000F04170B50600080001F02C
:10064C00CDFE0022064B01F077F80D0004003000BF
:10065C0001F0F4FE2B00220000F0FEF870BDC04645
:10066C000000F04170B542004E024C0045026D0A8C
:10067C00120EC30F760A240EC90FFF2A0FD0FF2CBF
:10068C0011D00120A24200D070BDB542FCD18B42EA
:10069C000DD0002AF8D12800451EA841F4E701200E
:1006AC00002DF1D1EBE70120002EEDD1E9E7002080
:1006BC00EAE7C046F0B5420046024D024C00C30FBB
:1006CC00760A120E6D0A240EC80FFF2A1FD0FF2CBB
:1006DC0010D0002A1FD171427141002C01D1002D84
:1006EC001ED000290ED183421ED00221581E084074
:1006FC000138F0BD002D26D1002AF4D17142714190
:10070C000029F0D00028F4D101204042F1E7002E5E
:10071C0019D1FF2CEED0002CE5D1002DE3D1E4E76C
:10072C000020002EE5D0E0E7A24205DCEADBAE4279
:10073C0002D8E7D30020DCE7414241414842022184
:10074C0008400138D5E702204042D2E7F0B542001C
:10075C0046024D024C00C30F760A120E6D0A240E8F
:10076C00C80FFF2A0DD0FF2C0FD0002A23D17142C5
:10077C007141002C0FD1002D0DD10020002E14D072
:10078C000DE0002E10D1FF2C15D1002D0CD1002A1C
:10079C0003D171427141002908D1834210D002214A
:1007AC00581E0840013800E00220F0BD0028FCD1A2
:1007BC0001204042F9E7002CEFD1002DEDD1EEE7FE
:1007CC00A24205DCF2DBAE4202D8EFD30020ECE70C
:1007DC00414241414842022108400138E5E7C04608
:1007EC0070B5051E0ED001F01FFF9E2304001B1ACE
:1007FC00962B0CDC082801DD083CA5406D026D0A27
:10080C00D8B201E000200025C005284370BD992B0B
:10081C0009DD020029001B3291404A1E914105223C
:10082C00121AD5400D43052C01DD621F954029009D
:10083C00084E31406A0709D00F202840042805D003
:10084C0004314A0102D59F2331401B1B89014D0AFB
:10085C00D8B2D9E7FFFFFFFBF0B54F46D646464668
:10086C000D0001001800C0B517002B035A0A4B0FDE
:10087C001343CA00914602036E004100520AEC0F6A
:10088C007D0F1543760D490DC00F8246AC46FF0017
:10089C00721A844200D198E0002A00DC81E0002921
:1008AC0000D1B6E0C9498E4200D172E18021280006
:1008BC00090408438446382A00DD5EE11F2A00DD66
:1008CC00EEE1202039006546801A8740D1408540F2
:1008DC000D4339004F1EB9416746D7402943DB1BF6
:1008EC004A46551AA945894149425B1A98464346DE
:1008FC001B0200D4CCE043465B025B0A984643469D
:10090C00002B00D12CE1404601F08EFE010008398D
:10091C00202228004346521A8B40D0408D4003437E
:10092C008E4200DD17E18E1B721C1F2A00DDA7E131
:10093C00202118002E00891A8D408840D640D340C3
:10094C00691E8D4130439846002605436B0709D03C
:10095C000F232B40042B05D02B1DAB42AD416D4218
:10096C00A8441D0043461B0200D494E0974B721C14
:10097C009A4200D19DE04146954BED0819400B0081
:10098C00520549075B0229431B0B520D12051343F9
:10099C00E407234308001900E0BCBA46B146A84658
:1009AC00F0BD002A43D08A1B002E00D02AE14C4611
:1009BC001C4300D1D1E1541E012A00D11FE2834D0A
:1009CC00AA4200D172E2220023E1002A00DC98E066
:1009DC00002942D07D498E4200D1DAE080212800E6
:1009EC00090408438446382A00DD29E11F2A00DC6B
:1009FC0087E1110065462039CD40202A04D04020E3
:100A0C006146821A91400F4339004F1EB9410D4384
:100A1C001BE12900394300D1B5E0511E012A00D158
:100A2C00ABE16A48824200D1B2E10A0043E769496E
:100A3C00751C0D4200D0CFE0002E00D093E149464A
:100A4C00194300D1D1E16146394300D0E3E1494675
:100A5C005807C9080143DB0826E02900394300D1B7
:100A6C0091E0511E012A05D05848824200D18FE1F5
:100A7C000A00B8E73D004D444D4589416344984612
:100A8C0049428844434602261B0200D5EBE0013E56
:100A9C006B0700D05CE74346E9085A071143320064
:100AAC00DB084A48824221D01B0352051B0B520D16
:100ABC006CE70023002169E72A003A4369D04A46D3
:100ACC005807D108DA0880231B0308431A4207D0C1
:100ADC002900ED081D4203D12A00FF0848073843BE
:100AEC00430FC1005B07C908194313000A001A43DE
:100AFC0000D113E28022120313431B03334A1B0B56
:100B0C0044E7002A4BD08A1B002E00D1E7E02F4887
:100B1C00814200D195E1802000040343382A00DD96
:100B2C0043E11F2A00DDDBE120201D004E46801A28
:100B3C008540D64035434E4686403000D340461E55
:100B4C00B0419C440543ED19BD429B415B4263445B
:100B5C0098460E007FE01E4A761A13409846F5E63A
:100B6C00280001F061FD010018311F2900DCCFE6DF
:100B7C002B00083883400025D2E662463A43110028
:100B8C004F1EB941ACE649465807C9080143DB087A
:100B9C0087E749465A07C9081143DB08A6E70D4900
:100BAC00701C084200D0BBE0002E00D014E1494676
:100BBC00194300D175E12900394300D07EE1494643
:100BCC005807C9080143DB086EE7C046FF07000061
:100BDC00FFFF7FFFFE0700004946CD1B6146581AF8
:100BEC00A94589414942884601004046091A884670
:100BFC00090200D5A6E04146294300D07FE6002338
:100C0C00002451E7C74CA14200D1C7E08024240442
:100C1C002343382A54DC1F2A00DDCCE0202448462C
:100C2C00A41A1D004E46A040D640A5400400D34057
:100C3C0062463543661EB441D31A9C46254344E0B4
:100C4C0062463A4315006F1EBD414D444D458941E6
:100C5C0049428846984443461B0200D418E7B14BDE
:100C6C0001369E4249D04246AF4B01211A40130037
:100C7C006A080D401543D9075B0898460D4365E695
:100C8C0018001F3EF040202A03D040218A1A9340BE
:100C9C001D43691E8D410023002698460543F7E647
:100CAC00110065462039CD40202A04D040206146F1
:100CBC00821A91400F4339004F1EB94129430FE668
:100CCC004A4613431D006B1E9D417D1BAF429B4149
:100CDC0062465B42D31A984654460E0007E64846D5
:100CEC00184300D1B3E0501E012A00D10DE18D4D07
:100CFC00AA4200D1A5E0020010E732000023002137
:100D0C0044E620213800891A65468F408D40D0403A
:100D1C00791E8F4105433D436746D740DB1994E765
:100D2C00804A904200D1ECE0390049444945924157
:100D3C00634452429B18DD0749085B08984606003D
:100D4C000D43A5E64A46BD1AAF4289416246494267
:100D5C00D31A5B1A98465446D1E56C07F90821431F
:100D6C00EB0804009DE64A461A4375D161463943A7
:100D7C0014D1802300241B03BCE64A46D51BA9458D
:100D8C008941624649429B1A5B1A98460126AEE598
:100D9C004A46D1085A071143DB08A7E66346F9080F
:100DAC005A0754461143DB08A0E64A4613431D007C
:100DBC006B1E9D41C7E614001E00203CE640202A15
:100DCC0005D04024A21A93404A461A4391464D46F8
:100DDC006B1E9D41354378E74A461A4300D06BE6BB
:100DEC006B07F9081943EB0880E66146394354D088
:100DFC006346F9085C072143DB08040054E64A46C5
:100E0C00BD1AAF42894162464942D31A5B1A9846D1
:100E1C00040001266BE54A46D51BA945894162466B
:100E2C0049429A1A521A9046120232D54A46BD1AB3
:100E3C00AF42894162464942D31A5B1A9846040074
:100E4C0084E56346F9085A071143DB084EE6F908B6
:100E5C0068070143EB0824E662463A4300D198E662
:100E6C004A46D1085A071143DA0880231B031A4259
:100E7C0008D06046C5081D4204D154462A00F90822
:100E8C00430719434B0FC9005B07C90819431300EB
:100E9C002CE64146294300D0FAE500230A00002441
:100EAC0002E66B07F9081943EB08FDE56346F90800
:100EBC005B07194363460400DB0817E63D004D440D
:100ECC0063444D45894198464942884443461B0238
:100EDC0000D4DDE54246144B01261A409046D7E576
:100EEC0010001E002038C640202A05D04020821A4F
:100EFC0093404A461A4391464D466B1E9D413543DD
:100F0C0021E602000023002140E54A46D519BD42E6
:100F1C0089416344984649428844B3E50021014A1B
:100F2C000B0033E5FF070000FFFF7FFFF0B55746CE
:100F3C004E464546DE46E0B5814605000C034800AA
:100F4C0092461F0085B0240B400DCE0F002859D0BF
:100F5C00874B984200D198E06B0FE4001C43802330
:100F6C001B0423439846834BED009B460023994674
:100F7C00834400933C037B005046240B5B0DFF0F16
:100F8C00002B67D07A4A934218D07A49420F8C468C
:100F9C00E40059461443802263441204CB1A1443D0
:100FAC009B46C200002033007B409A464B460F2BD9
:100FBC0000D9EFE070499B00CB589F466F4B5246CF
:100FCC009C462243E344002A00D095E04946022384
:100FDC001943894600240220E5E70023002400255C
:100FEC0052461B052343D20713432800190005B0B2
:100FFC00F0BCBB46B246A946A046F0BD0024002575
:10100C005B4BEDE74B462343984600D189E0002C1F
:10101C0000D1E0E1200001F007FB010002000B39D8
:10102C001D235B1A49461000D940083884400B0038
:10103C004D4623439846854051483C03831A9B46B2
:10104C000023994600937B005046240B5B0DFF0F49
:10105C00002B97D15246224355D0002C00D1CAE127
:10106C00200001F0E1FA02000B3A1D2301009B1A4B
:10107C0052460839DA408C40144352468A40414B60
:10108C0058449B46834400208DE74B4623439846A7
:10109C0040D108239946063B00258346009369E717
:1010AC00B246009B022BA9D0032B00D111E2012BDD
:1010BC0093D0354A5A44002A00DC3CE16B0700D03F
:1010CC00A7E1ED084346DB0106D542462F4B1A40FB
:1010DC0090468022D2005A442D4B9A428EDC4346D5
:1010EC00520558075C020543240B530D78E7BA46AA
:1010FC00A04615000090D4E74A4603231A439146B4
:10110C00032052464FE749460123194389460024E0
:10111C00012048E70C239946093BA04683460093DF
:10112C0028E70423994600239B46013300250093AE
:10113C0020E7002380249A4600250D4B24034FE71B
:10114C00802341461B03194208D01C4206D11C4384
:10115C002403BA461500064B240B41E78024434672
:10116C0024031C432403B246014B240B38E7C0462E
:10117C00FF07000001FCFFFF7883010801F8FFFF67
:10118C000DFCFFFFF3030000FF030000FFFFFFFE59
:10119C00FE070000444500D216E100D111E1012305
:1011AC005B429C462E0040460025E3442302140E6D
:1011BC001C431B0C994623041F0C12024946009237
:1011CC000197FFF745F802007A430B04310C804677
:1011DC0019438A420BD901235B429C460919E0440E
:1011EC008C4204D88A4202D9831E98460919881A5F
:1011FC004946FFF72DF809048C4631046646019ADE
:10120C00090C4243030031438A4204D90919013BBA
:10121C008C4200D811E1891A4246009E12041A43EE
:10122C00330C1F00100C9046029313043204160C5E
:10123C0032001B0C5A4303967B4346437843170CEE
:10124C00BC469B1963449E4203D980267602B44661
:10125C0060441E0C301816041B04360C9E19814277
:10126C0000D29CE000D197E0AE1B091AB542804138
:10127C004042081A844200D111E14946FEF7E8FFCA
:10128C00019A0B044243310C050019438A4207D9D9
:10129C000919013D8C4203D88A4201D9851E0919CE
:1012AC00881A4946FEF7D4FF09048C463104664679
:1012BC00019A090C4243030031438A4207D90919A8
:1012CC00013B8C4203D88A4201D9831E0919039E23
:1012DC00891A32002D041D43029F2B041B0C5A4308
:1012EC007B439C46280C4643130CB444634478431C
:1012FC009E4203D980267602B44660441E0C12042A
:10130C001B04120C30189B18814206D302D0012307
:10131C001D43CEE6002B00D1CBE661186E1EA14218
:10132C0000D2A4E0814200D2C9E000D1D9E035005E
:10133C00EDE701256D420121891A382900DD4CE6C3
:10134C001F2900DC7FE01F235B429A1A4346D340DF
:10135C00202904D04446654A5A44944025436A1EC9
:10136C00954107222B43150000241D401A4200D141
:10137C00A1E00F2200241A40042A00D198E01A1D83
:10138C009A429B415B42E4181300220200D48FE086
:10139C0001230024002523E6B54200D364E743462D
:1013AC005A1E009B9C4665441F009D429B415B421C
:1013BC001B19C9188C423AD2884263D860D0904627
:1013CC0052E7AA4200D9EAE64346DE0758086B0802
:1013DC001E43ED07EAE6484601F026F9010002003B
:1013EC00153120321C2900DC1AE64B4608388340A4
:1013FC000025984620E601F017F903001A00153273
:10140C0020301C2A00DC30E65446083B00229C406D
:10141C0035E60F232B40042B00D152E605235B420B
:10142C00AB429B4104355B42ED0898444AE68C4242
:10143C00C5D1AF42C0D9904616E78A4200D8EAE639
:10144C00831E0919E7E62A4A28005A444346954068
:10145C009340C8406A1E9541444603432B43CC40FD
:10146C005A0792D00F221A40042A88D18DE73500F2
:10147C00814200D04BE7009A934200D047E718E630
:10148C00AE429CD902235B429C46009BE0449C46A6
:10149C0065449D429B415B421B19C918E4E6154A01
:1014AC005A44002A00DC44E701230025984409E64D
:1014BC0065076402240BDB081D43002390E5009EA6
:1014CC00023D7200B242BF417F423C1909190092A1
:1014DC00CEE78024434624031C432403064B240BF1
:1014EC007EE5009A9A42EAD33500C4E73E04000038
:1014FC001E040000FF030000FF070000F0B54F467C
:10150C004646D646944691461A03120B184DC0B562
:10151C004C000F0392465A00060080463F0B0120F8
:10152C00640DC90F520DDB0FAC420AD0AA4203D096
:10153C00944201D157450DD0E0BCBA46B146A846FD
:10154C00F0BD3D003543F7D1A242F5D15246654678
:10155C002A43F1D10120C845EED1994206D0002C86
:10156C00EAD13E433000461EB041E5E70020E3E7F8
:10157C00FF070000F0B54E4645465746DE460400D0
:10158C001800E0B516001B031B0B324D0F034A006D
:10159C0099464300A446B0463F0B520DC90F5B0D54
:1015AC00C00FAA4229D0AB4218D0002A2AD13C4302
:1015BC00A34665426541002B02D14C46264327D0F9
:1015CC00002D15D1814228D0022001390840013864
:1015DC00F0BCBB46B246A946A046F0BD4D462E43D4
:1015EC002FD1002AEED13C4365426541002DE9D054
:1015FC000028EDD101204042EAE73D00254320D1EF
:10160C009342EBD0002BDDD14C462643DAD1DBE7FD
:10161C005B460020002BDBD0D6E79A420ADCE7DBE6
:10162C004F45D1D810D000204F45D1D20029E1D060
:10163C000800CDE74342584102234042184001388C
:10164C00C6E702204042C3E7C445BDD80020C445CC
:10165C00BED2EBE7FF070000F0B54E4645465746B5
:10166C00DE4604001800E0B516001B031B0B314DC1
:10167C000F034A0099464300A446B0463F0B520D57
:10168C00C90F5B0DC00FAA4211D0AB4214D0002A77
:10169C002FD13C43A34665426541002B14D14C46E7
:1016AC00264311D15B460020002B17D010E03D00E3
:1016BC00254312D193421CD14D462E430DD1002A05
:1016CC0004D13C4365426541002D0DD1814216D0B9
:1016DC00022001390840013800E00220F0BCBB4672
:1016EC00B246A946A046F0BD0028F7D101204042E1
:1016FC00F4E7002BEAD14C462643E7D1E8E79A42BF
:10170C0006DD434258410223404218400138E5E7C8
:10171C009A42E9DB4F45DBD806D000204F45DDD29D
:10172C000029E3D00800D9E7C445D1D80020C4452E
:10173C00D4D2F5E7FF070000F0B557464E464546B4
:10174C00DE46E0B598460C034B000600924687B087
:10175C00240B5B0DCF0F002B6CD0DD4A934200D1D4
:10176C0086E0420FE4001443802212041443D94A49
:10177C00C500944663440093002399469B46434618
:10178C0042461E03D20F5B0050469046360B5B0D53
:10179C0000D178E0CE4A93421DD0CE49420F8C4600
:1017AC0000996344F6008C46164380229C44120434
:1017BC0063461643C2000020009300994346013152
:1017CC008C4649467B4001930F2900D97EE0C24BE1
:1017DC00890059588F465246009B324300D056E13F
:1017EC00BB4900268C4663444946009302231943A7
:1017FC0089460220E1E743460193340015008346F5
:10180C005B46022B5ED0032B00D1F3E1012B00D001
:10181C0018E1002200240025019B12052243DB075E
:10182C001A432800110007B0F0BCBB46B246A946CB
:10183C00A046F0BD2500054300D141E1002C00D1AC
:10184C00ADE1200000F0F0FE010002000B391D2379
:10185C0010005B1A3100350008388440D9408540AF
:10186C000C439E48831A0093002399469B4686E7B7
:10187C000500254300D01CE108220093022300241C
:10188C0091469B467BE75246324300D10AE1002E3B
:10189C0000D176E1300000F0C7FE02000B3A1D23A8
:1018AC0001009B1A52460839DA408E4016435246C4
:1018BC008A40009B8949181A03008C466344002017
:1018CC0000937AE700240025814AA5E72F0C2D040C
:1018DC002D0C2B00110C1204120C534398461300C0
:1018EC0028007B43994648434844834640460B00B6
:1018FC00000C824658467B4350440293814506D9DE
:10190C009A4680235B029946CA4453460293030CC1
:10191C009B4643461B0400041B0C9846030043449F
:10192C000493330C99462B003604360C73439846BB
:10193C0033007B439A464B465D435F4343465544D5
:10194C00180C4019824503D980235B029A465744F0
:10195C00050CEB19059343461D042D0C000440198E
:10196C00250C2404240C270057436A4390462A0074
:10197C003B0C9A464A436143414451448344884555
:10198C0003D980235B02984642443F040B0C3F0C66
:10199C000904C919270098464B4677435C436E43AC
:1019AC005D433B0C9946A4194C4442440395A64212
:1019BC0004D980235B02984645440395029B3F045F
:1019CC005B441E008342804123049846059B3F0CD8
:1019DC004744984676188E428941474440423D1808
:1019EC00A846934649428A46C3449F42BF4180451C
:1019FC008041039BDA449846534640427F4207435A
:101A0C00240C934592418A4589413F19DC0D049B76
:101A1C0075021D43681E85415346524249420A4392
:101A2C00BF184744F60D7F0235435A023C43154319
:101A3C00FB0100D4C1E001216A080D401543E20707
:101A4C001543640826496144002956DD6B0709D00B
:101A5C000F222A40042A05D02A1DAA42AD416D420C
:101A6C0064191500E30104D580211E4AC9001440F5
:101A7C0061441D4A914200DD24E76207ED086402CF
:101A8C0049051543240B4A0DC6E60197B8E6104AE2
:101A9C000320944663444A46009303231A43914619
:101AAC0052468AE6494601231943894600260120FD
:101ABC0083E60C2200930323050091469B465EE6C9
:101ACC000423994600230093013300249B4656E6D9
:101ADC00FF07000001FCFFFFB88301080DFCFFFFAE
:101AEC00FF030000FFFFFFFEFE0700000023802421
:101AFC000025444A019324038EE60120401A38281D
:101B0C0000DD86E61F285BDD1F2223005242511A9E
:101B1C00CB401900202803D03B4A62449440254313
:101B2C006A1E95412A000A4307210D000024154026
:101B3C0011425BD00F2100241140042953D0111DF8
:101B4C00914292415242A4180A0023024BD5012221
:101B5C000024002560E680231B031C4209D01E4292
:101B6C0007D133431C0343461500240B254A01932C
:101B7C0052E68022120314432403224A240B0197B9
:101B8C004AE600F051FD03001A00153220301C2AE1
:101B9C0000DC84E65646083B00229E4089E600F0B5
:101BAC0043FD01000200153120321C2900DC4EE6F9
:101BBC00340008380025844053E6009B9C4641E7DE
:101BCC001249220061442E008D408A40C640691E95
:101BDC008D4132432A43C4405307B6D00F211140E4
:101BEC000429ACD1B1E765076402240BD208154374
:101BFC00002211E68022120314432403014A240B11
:101C0C000AE6C046FF0700003E0400001E04000068
:101C1C00F8B557464E464546DE460400E0B51F0073
:101C2C0010000B03620F4E00CD0F5B0A39031343F8
:101C3C00490AE200440F2143C24C91469246C0002F
:101C4C007A008046760D520DFF0FA24200D1B4E00F
:101C5C0001246740BB46BD4200D188E0B41AA446BB
:101C6C00002C00DCB2E0002A00D1C5E0B54A964257
:101C7C0000D18BE28022120411436246382A00DD27
:101C8C00A1E11F2A00DD16E220270C00BF1ABC4080
:101C9C000200A0466446B840E240444614430200A9
:101CAC00501E82416046C14022435B1A49468C1A41
:101CBC00A145924152429B1A984643461B0200D4BE
:101CCC0017E143465B025B0A98464346002B00D162
:101CDC006CE1404600F0A8FC0200083A20212000EC
:101CEC004346891A9340C84094400343964200DD12
:101CFC0057E1961B711C1F2900DDCBE12022180037
:101D0C002600521A94409040CE40CB40621E944123
:101D1C003043984600260443630709D00F23234021
:101D2C00042B05D0231DA342A4416442A0441C00F3
:101D3C0043461B0200D4DFE0824B01369E4200D1A9
:101D4C00FBE04246804BE4081A4013007105520731
:101D5C005B0222431B0B490D0905ED07194329436F
:101D6C001000F0BCBB46B246A946A046F8BDB41A5A
:101D7C00A446002C58DD002A00D19EE0714A964200
:101D8C0000D13BE18022120411436246382A00DD67
:101D9C00C1E01F2A00DCBBE10C00203AD440220039
:101DAC006446202C04D040273F1BB9400843804692
:101DBC004446611E8C411443B1E00C0004432AD00C
:101DCC00BB46BD422DD0614CA446B4446446002CA5
:101DDC005CD0941BA446002E00D015E14D461D434B
:101DEC0000D1C3E1651E012C00D10CE2554EB4426A
:101DFC0000D1F8E1AC460EE10A00024300D136E115
:101E0C002200013A012C00D1C6E14E4CA44500D170
:101E1C00F4E0944631E701246740BB46BD4200D054
:101E2C001CE74A4CA446B4446446002C00D1CFE0D5
:101E3C00941BA446002E00D15CE1424EB24200D16C
:101E4C00ECE18026360433436446382C00DDB3E1E4
:101E5C001F2C00DD38E22026361B1C00B4404F46F8
:101E6C00A0466446E74044463C434F46B7403E00DC
:101E7C00771EBE4134436646F340C9182418844289
:101E8C009B415B429846160088444EE0304A741CD5
:101E9C00144200D0D6E04A461A43002E00D05BE133
:101EAC00002A00D1A5E10A00024300D0BBE14A465A
:101EBC005907D2080A43DB0827E00A00024300D185
:101ECC0074E12200013A012C05D01E4CA44500D12E
:101EDC0094E0944659E74844484592415B1898462B
:101EEC00040052429044434602261B0200D5C4E033
:101EFC00013E630700D011E74346B4465907E20898
:101F0C000A43DB080F498C4540D061461B03490549
:101F1C001B0B490D20E701430C00611E8C414C4406
:101F2C004C45924152429046984443461B02E0D5A0
:101F3C00044B01369E4200D09FE03100002300226A
:101F4C000AE7C046FF070000FFFF7FFF01F8FFFF15
:101F5C00FE070000002A00D160E10A0002434DD0C8
:101F6C004A465C07D20822438024DB082403234220
:101F7C0007D0CE08264204D15D463300C20849077B
:101F8C000A43510FD200D20849070A4311001943E2
:101F9C0000D1C8E1802109030B431B03D5491B0B5E
:101FAC00DAE6D549B61A0B409846B5E6200000F0A3
:101FBC003BFB020018321F2A00DC8FE62300083896
:101FCC008340002492E608430200501E82416DE6D5
:101FDC00CA4C721C224200D0ADE04A461A43002E75
:101FEC00B8D1002A00D158E10A00024300D059E1CF
:101FFC004A465907D2080A43DB0886E74A4659077E
:10200C00D2080A43DB08C1E7BA4DAA4200D11EE14F
:10201C0080252D042B436446382C5DDC1F2C00DD01
:10202C00D0E0202567462D1B4E461C00FE40AC40E0
:10203C0034434E46AE403500FB406E1EB541C91AC6
:10204C002C434EE04A46141AA14592415242904606
:10205C005F1A3A004746D21B9046120200D58BE01D
:10206C004246224300D030E6002300254DE74A4685
:10207C005907D2080A43DB0844E742469E4B6108E5
:10208C001A401300012214400C43DA075B089846EF
:10209C00144341E61A001F3EF2401600202903D0DB
:1020AC004022511A8B401C43621E9441002334433E
:1020BC00984600261DE70C00203AD44022006446C6
:1020CC00202C04D040273F1BB9400843804644468F
:1020DC00611E8C412243E9E54C4623431C00631EE0
:1020EC009C41041BA0429B415B42CB1A98465D4627
:1020FC001600E2E54E461E4300D1AEE0661E012CF2
:10210C0000D1FDE07B4FBC4200D107E1B4469BE619
:10211C0064462022121B0C00944007009040A046FD
:10212C006446421E90416246E7404446D1403C43DF
:10213C0004435B18F3E66F4CA24200D1D5E048444F
:10214C005B184845894149425B18DC0740085B082D
:10215C00984616000443CCE6002A00D082E00A0020
:10216C00024340D1802300251B0313E74B07C20811
:10217C001A435D46CB08C5E64A46841AA0429241F2
:10218C00CB1A52429B1A98465D469EE54A46590721
:10219C00D2080A43DB08F9E64A46141AA1459241D3
:1021AC005B1A52429B1A9846012686E54A46590705
:1021BC00D2080A43DB08A5E64C4623431C00631EE9
:1021CC009C415BE665461E00203DEE40202C05D070
:1021DC0040252D1BAB404C461C43A2465446631E67
:1021EC009C4134437DE74B07C2081A435D46CB083C
:1021FC00CCE60A00024300D136E74B07C2081A436B
:10220C005D46CB0881E64A46841AA0429241CB1A1D
:10221C0052429B1A98465D4601264EE54B07C20872
:10222C001A43CB08B2E64A46141AA14592415F1AEA
:10223C005242BA1A904612026BD54A46841AA042F0
:10224C009241CB1A52429B1A98465D4664E54B0765
:10225C00C2081A435D46CB0898E64B07C2081A43DE
:10226C00CB084FE60A00024390D04A465C07D208DE
:10227C0014438022DB081203134208D0CE08164206
:10228C0005D1C0084907084304005D463300610FBF
:10229C00E2004907D2080A4378E64B07C2081A4302
:1022AC00CB0832E648445B18484592419846524266
:1022BC009044434604001B0200D41AE642460E4BDF
:1022CC0001261A40904614E666461F00203EF74051
:1022DC00202C05D04026361BB3404C461C43A2464E
:1022EC005446631E9C413C43C8E511000023002268
:1022FC0032E5C046FF070000FFFF7FFFFE0700002E
:10230C004A461418844292415B18984652429044B3
:10231C00E9E54246224300D1A6E6EAE54B07C208AE
:10232C001A43CB0832E600220149130014E5C046DB
:10233C00FF07000070B505000C480C03160049009F
:10234C001A035B00240B490D120B5B0D814208D064
:10235C00064900208B4203D132431000421E9041AB
:10236C0070BD01202C43FBD1F2E7C046FF070000F3
:10237C000A0030B5134C530009030500090B00206B
:10238C005B0DD20FA34204DD0F48834202DD0F4BDD
:10239C00D01830BD8020400301430D48C01A1F28BF
:1023AC0008DD0C48C31AD9400B005842002AF0D162
:1023BC001800EEE7084CC540A446634499400B0056
:1023CC002B43F2E7FE0300001D040000FFFFFF7F1C
:1023DC003304000013040000EDFBFFFF70B5002870
:1023EC0016D0C317C5185D40C40F280000F01CF9A7
:1023FC00114A121A0A2816DC03002E0015339E40CF
:10240C000B23181AC54053052D032D0B5B0D03E050
:10241C0000240023002500261B052B43E40723433F
:10242C003000190070BD0B38854053052D03002674
:10243C002D0B5B0DF0E7C0461E04000010B5041E0A
:10244C0010D000F0F1F80F4B1B1A0A2811DC0B22EC
:10245C002100121AD14015300A035B058440120B7F
:10246C005B0D01E0002300221B0513432000190023
:10247C0010BD22000B3882405B0512030024120BA6
:10248C005B0DF1E71E04000070B543004602C40F5B
:10249C00FE201B0E591C750A08420CD0E02292003B
:1024AC0094466D07360B63441B053343E407234303
:1024BC002800190070BD002B14D1002D1BD0280052
:1024CC0000F0B2F80A281CDC0B232A001B1ADA4095
:1024DC00030015339D400E4B12031B1A5B05160BA4
:1024EC005B0DE1E7002D09D0320B80263603094B3A
:1024FC006D071643D8E700230026D5E70026054BC9
:10250C00D2E703002A000B3B9A400025E3E7C046C4
:10251C0089030000FF07000002004B00F0B5080320
:10252C005B0D3D4ECC0F400A510F5F1C0843D5008C
:10253C0037420AD039495E18FE2E16DDFF230021E2
:10254C00DB050B43E0071843F0BD002B06D12843F5
:10255C0027D005218901490ADBB2F1E70543EDD00B
:10256C008021C903FF230143EAE7002E1CDD920101
:10257C0011004A1E9141C0006D0F014329434B07C6
:10258C0048D00F230B40042B00D004318023DB04F4
:10259C000B403FD0721CFE2ED0D08901490AD3B219
:1025AC00CEE700230021CBE73200173222DB80215B
:1025BC001E2209040843921B1F2A1DDD02214942D9
:1025CC008E1B0100F1400E00202A04D0144A9446C0
:1025DC0063449840054329004D1EA9413143002610
:1025EC004B07CED180200B00C004012203400142D6
:1025FC00D3D1AFE70023ACE70A498C4629006344EA
:10260C00D1409D400A00290098404D1EA94101432C
:10261C001143E4E733009DE7FE07000080FCFFFF59
:10262C00A2FCFFFF82FCFFFF1C2101231B0498422C
:10263C0001D3000C10391B0A984201D3000A083947
:10264C001B09984201D30009043902A2105C4018FE
:10265C007047C046040302020101010100000000A2
:10266C000000000070B504000B78002B03D1057836
:10267C000023002002E0FF25FAE70133064A127816
:10268C009A4208DDE25CAA42F7D2CE5C002EF4D16D
:10269C00D8B21500F1E770BD1C000020010000232A
:1026AC000120044A12789A4203DDCA5C10400133BF
:1026BC00F7E770471C000020F0B5D6464F4680B5B2
:1026CC0083B0322010F0E2FF061E67D0354B1B782A
:1026DC00FE2B65D10027334C49E02278F2540133AC
:1026EC00DBB20134132BF8D9BA46BB00DB199B00C3
:1026FC002D4A99469144711C1422484610F0E8FF6B
:10270C0014220021300010F0ECFF002501942378F6
:10271C00FD2B06D8312D04D8735501340135EDB29B
:10272C00F4E77319013B1B78002B01D00135EDB296
:10273C00280010F0ABFF53469B0053449B001A4AF1
:10274C00D318D860002816D02A00310010F0C0FF32
:10275C00164A1378013313702A000021300010F050
:10276C00C0FF019B1B78FE2B0FD10137FFB2042F4A
:10277C000BD80023B6E714220021484610F0B1FF15
:10278C00300010F08DFF0E2003E0300010F088FFB9
:10279C00002003B0C0BCBA46B146F0BDFB20F8E740
:1027AC00FF20F6E700DC0108486100203F0A00200A
:1027BC0070B582B0204B1B889BB2204A93420BD041
:1027CC001A0A1F490A7002D10A00012111701D4A10
:1027DC0013700124022023E0194B01221A70194BAB
:1027EC0000221A70FA2024E0134BC318651E6A46A7
:1027FC00D1791E88AB005B195B005B19CB185B00B1
:10280C001149CE52023080B2D3790133DBB2D3718D
:10281C006B4607331B78DBB20A2BE5D90134E4B2E3
:10282C00074B1B78A34203D36B460022DA71EFE708
:10283C00002002B070BDC04600D80108FFFF0000A8
:10284C001C0000209E080020D802002070B5012436
:10285C00002505E0601C04F0E3FB0BE00134E4B25E
:10286C00074B1B78A34209D3631E5B00054A995A98
:10287C000029EFD1192CF1D90A25EFE7280070BDFA
:10288C001C000020B465002070B5342200210E48D5
:10289C0010F027FF0124002505E0601C04F0C0FBAC
:1028AC000BE00134E4B2094B1B78A34209D3631E3D
:1028BC005B00054A995A0029EFD1192CF1D90A2548
:1028CC00EFE7280070BDC046B46500201C00002056
:1028DC0070B50124002501E00134E4B2084B1B78EB
:1028EC00A3420AD3611E4900064BC918601C04F0B0
:1028FC00E5FA192CF0D90A25EEE7280070BDC04680
:10290C001C000020B4650020F8B50025002601E06D
:10291C000135EDB2124B1B78AB421FD32F00AB002D
:10292C005B195A000F4BD35C002BF1D00124092CFE
:10293C00EED8601EBA00D21951000A4B5B18195C14
:10294C0009021B5DC91889B230001C3080B204F03A
:10295C0067FB0136B6B20234E4B2E8E70020F8BDFA
:10296C001C00002090070020F0B583B06B460022BD
:10297C00DA800026002508E0B3009B195A00164B9C
:10298C009B1800225A720136F6B2144B1B78B342D4
:10299C001FD30124092CEFD828001C3080B26B46C1
:1029AC00991D04F08BFA6B46D8889B799C460A4A91
:1029BC00B3009F197900511867460F55671E010A1D
:1029CC009B1958001218D1550135ADB20234E4B23E
:1029DC00E0E7002003B0F0BD900700201C000020B1
:1029EC00F0B583B06B460022DA80002400250BE0A2
:1029FC0063001F49C9182800CB3080B204F05EFA7E
:102A0C000135ADB20134E4B21A4B1B78A342EFD8B6
:102A1C00002608E0B3009B195A00174B9B180022A4
:102A2C005A720136F6B2092E1FD80124092CF1D89E
:102A3C002800993080B26B46991D04F03FFA6B4622
:102A4C00D8889B799C460C4AB3009F197900511881
:102A5C0067460F55671E010A9B1958001218D1556D
:102A6C000135ADB20234E4B2E0E7002003B0F0BDB2
:102A7C00E80600201C0000208406002070B584B0FD
:102A8C000E21694400230B8003AA1380E42004F078
:102A9C0015FA002800D075E00E236B441D780E212A
:102AAC006944E52004F00AFA040003A9E62004F0C6
:102ABC0005FA0443A4B2002C00D065E00E236B444D
:102ACC001E88360403AB1B88F6180E216944E720D8
:102ADC0004F0F4F9040003A9E82004F0EFF904432E
:102AEC00A4B2002C52D10E236B441C88240403ABDB
:102AFC001B88E4180E216944E92004F0DFF9002852
:102B0C0007D10E236B441B88190A2C4A11702C4ACE
:102B1C0013700E216944EA2004F0D0F9002807D183
:102B2C000E236B441B88190A264A1170264A13700F
:102B3C000E216944EB2004F0C1F9002807D10E23C3
:102B4C006B441B88190A214A1170214A13701B4BC4
:102B5C001B78002B03D01A4A1278002A18D1194B73
:102B6C001B78002B03D0184A1278002A17D1174B68
:102B7C001B78002B03D0164A1278002A16D100209D
:102B8C0004B070BD00258AE700269EE70024B1E75B
:102B9C00009222003100280005F05AFBDFE700927A
:102BAC0022003100280005F053FBE0E700922200E0
:102BBC003100280005F04CFBE1E7C0466A09002013
:102BCC00810600206B090020820600206C09002081
:102BDC0083060020F8B5DE4657464E464546E0B51E
:102BEC000F0016001C000AAB1B789B460BAB1B7826
:102BFC009A460CAB1B7899460DAB1D780EAB1B7827
:102C0C0098460100E42004F00BFA390A89B2E52059
:102C1C0004F006FAB9B2E62004F002FA310A89B2DD
:102C2C00E72004F0FDF9B1B2E82004F0F9F9240230
:102C3C005C44A1B2E92004F0F3F95346190249446B
:102C4C0089B2EA2004F0ECF92D024544A9B2EB203C
:102C5C0004F0E6F90020F0BCBB46B246A946A046FB
:102C6C00F8BD000010B582B08A206B46991D40005B
:102C7C0004F024F9002800D067E06B469A1DDB882D
:102C8C0011784A4A91711B0AD37116206B46991D13
:102C9C00FF3004F013F900285ED16B46DA88434B01
:102CAC001A808B206B46991D400004F007F9002810
:102CBC0057D16B46DA883D4B5A8018206B46991DCC
:102CCC00FF3004F0FBF8002850D16B469A1DDB88CE
:102CDC001178364A11711B0A53718C206B46991D61
:102CEC00400004F0EBF804001A2001A9FF3004F0B6
:102CFC00E5F80443A4B2002C3FD16B4606331B8885
:102D0C0001AA128812041343284A93608D206B4643
:102D1C00991D400004F0D2F800283CD16B469A1D56
:102D2C00DB881178214A11731B0A53731C206B46E4
:102D3C00991DFF3004F0C2F8002832D16B469A7905
:102D4C001A4BDA76002002B010BD194A9179174B54
:102D5C009971D279DA7198E7154B1A88134B1A804E
:102D6C009FE7134B5A88114B5A80A6E7104A1179EA
:102D7C000E4B197152795A71AFE70E4B1B78002B21
:102D8C0004D00A4BE12252029A60BFE7084B9A68C2
:102D9C00064B9A60BAE7054B18225A7300221A7335
:102DAC00C4E7034BDA7E014BDA76CBE72C610020CB
:102DBC0000000020D602002010B51A4CE3795B010C
:102DCC00A17919438A20400004F02AF921881620A1
:102DDC00FF3004F025F961888B20400004F020F9C5
:102DEC0063791B02217B19431820FF3004F018F97A
:102DFC0021898C20400004F013F961891A20FF30DE
:102E0C0004F00EF9637B1B02217919438D204000DD
:102E1C0004F006F9E17E1C20FF3004F001F90020DB
:102E2C0010BDC0462C610020F0B589B01E236B4448
:102E3C0000221A80002401E00134E4B2052C5DD894
:102E4C0025003B35AD00ADB21E216944280004F0CD
:102E5C0035F80028F0D11E236B441B88180A190B77
:102E6C00621C9142E8D10F210F0007400142E3D0D0
:102E7C00D600B218234EB61877703372681C80B225
:102E8C001E236B44190004F019F86B46DB8B1A0AED
:102E9C00B2707371A81C80B21E236B44190004F02D
:102EAC000DF86B46DB8B1A0AF270B3710335A8B2BE
:102EBC001E236B44190004F001F86B46DB8B1A0AD5
:102ECC003271F371651CEDB27078290004F010FFBB
:102EDC00317A4A08B3780120024001400020059065
:102EEC00F0790490B0790390707902903079019068
:102EFC00F0780090280005F013F89DE7002009B049
:102F0C00F0BDC046D80C002010B5FFF751FCFFF700
:102F1C00DFFCFFF729FDFFF763FDFFF7AFFDFFF7C0
:102F2C00A1FEFFF781FFFFF7C7FB10BD30B58FB0D7
:102F3C0004AB009307AB12226A4408A901200AF0E3
:102F4C00D1FB03AC009405AB0E226A4406A9022007
:102F5C000AF0C8FB01230A9300250B956B465B8A8C
:102F6C00099309A908980EF03DFD0A9502230B93CD
:102F7C002388099309A905980EF034FD6B46598AEC
:102F8C00002208980EF001FE05200AF03DFF218872
:102F9C0005980EF0F3FD041E03D0002420000FB0A2
:102FAC0030BD12236B441988012208980EF0EDFDF8
:102FBC0005200AF029FF03AB198805980EF0DEFDF9
:102FCC000128EBD10400E9E710B5074B1A68074B51
:102FDC009A4200D110BD04F039F80028FAD1024B06
:102FEC00024A1A60F6E7C046F07F0020ADDEEFBE65
:102FFC0010B50BF0A9F80400E1231B0243608023F9
:10300C00DB00036180235B01836010F0A5F922686B
:10301C00136820210B43136010BD000070B5050030
:10302C000024032C10D863001B199B00074AD318EB
:10303C0099682800FDF760F8002802D00134E4B24A
:10304C00EFE70134E0B200E0002070BD8400002006
:10305C0070B50400002501E00135EDB2052D25D831
:10306C0018492000FDF748F8002821D01649200007
:10307C00FDF742F800281DD014492000FDF73CF85C
:10308C00002819D012492000FDF736F8002815D079
:10309C0010492000FDF730F8002811D00E4920000F
:1030AC00FDF72AF80028D7D1062000E0002070BDDB
:1030BC000120FCE70220FAE70320F8E70420F6E7FA
:1030CC000520F4E7F8830108FC830108008401085B
:1030DC0004840108088401080C84010830B583B00D
:1030EC000500012401E00134E4B2052C14D8AC42F3
:1030FC00F9D00B4B1A88110A0A4B19705A709C7034
:10310C0003230093073300220021200005F0B4F9BB
:10311C000A200BF06DF9E6E7002003B030BDC04685
:10312C005000002060070020F0B5DE4657464E46A2
:10313C004546E0B583B000AF444B1B780733DB0842
:10314C00DB006A46D31A9D466D4600233F4A12782F
:10315C00934207D20022EA545C003D49625201338B
:10316C00DBB2F3E7013801232B54012201E00132D9
:10317C00D2B2052A19D883001B185B001B189B18A8
:10318C005B0034495B5A002BF1D0541E0121A14045
:10319C000C002F4E41008C46895B21436446A153A1
:1031AC00DB08013B0221E954E1E702239B465E4622
:1031BC000136F3B29B4600239C4600222EE00130E0
:1031CC00C0B2052828D8A3001B195B001B191B18BB
:1031DC005B0020495B5A002BF1D0DB08013B7B6084
:1031EC00E95C0029EBD10100013901268E40B04683
:1031FC001749894661008A4649465646715A4646E1
:10320C0031434E46534699537B685946E9546346BD
:10321C000133DBB29C46D2E70132D2B20B4B1B78A6
:10322C009A4207D21400A95C5B46013B9942F3D148
:10323C000120C6E76346002BB9D10020BD4603B080
:10324C00F0BCBB46B246A946A046F0BD1C0000200F
:10325C0018050020D8020020F0B58FB005000E0034
:10326C00002401942E22002102A810F03AFA1A220E
:10327C000021484810F035FA2900013D464B5C55B9
:10328C00464B5C55012000E00130062816DCAB00F3
:10329C005B195B005B191B185B00414A9B5A002BA6
:1032AC00F2D0DB08B2B29342EED1731E3A4A01213E
:1032BC00D154384B1E70C0B20FB0F0BD012300E0EA
:1032CC000133384A12789A4209DB9942F8D05A1ED7
:1032DC003148FF248454314800248454F0E70024FE
:1032EC0001A8FFF7DBF900280CD101A92A48FFF748
:1032FC00B9F90130C4B2B44204D0611E01AB012251
:10330C005A5403E0002225E00132D2B2062AE7D853
:10331C008B005B185B005B189B185B0020481B5AEA
:10332C00002BF1D0DB08DBB2013B01A8C05C00280C
:10333C00EAD1194F785C0130C0B2FF5C8742E3D907
:10334C00154FF8541548C454DEE7531C11498C54DE
:10335C00DAB20400631E1149C85C0028F5D10122C1
:10336C0000E00132062AA7DCAB005B195B005B199D
:10337C009B185B000A495B5A002BF2D0DB08711ECC
:10338C00054C615C0139034C615C8B42E9D1D0B2D4
:10339C0092E7C046E4610020340900205009002067
:1033AC00D80200201C000020F0B5CE46474680B560
:1033BC0085B080460F0016001D00354B1878FFF7BE
:1033CC004BFF0400002D04D0314B1B789946BB42B7
:1033DC000FD0002D0FD17B1E2E4AD35C012B04D0B5
:1033EC00013B2D4AD35C994607E0294B1B78994643
:1033FC0003E02C0001E000239946254B1B78434544
:10340C001CD03000FFF7F4FD2000FFF7F1FD204B3E
:10341C001B784B4535D01E4B197800230393013B89
:10342C0002930193033300930B002200300005F04C
:10343C0055FA05B0C0BCB946B046F0BD0BF0F8F873
:10344C008046002D16D1154B19683A0011F0DAF8A8
:10345C00134B1968404611F0F5F84046FCF756FE40
:10346C0082B23223414630000AF0BCFE64200DF0DB
:10347C004DF8C6E70B4B19682B003A0011F0C2F857
:10348C00E6E720000AF060FE01210AF0F7FEC2E731
:10349C009E08002034090020E46100207800002000
:1034AC00800000207C000020F0B5C64600B582B03C
:1034BC000600574C574B220023CB23C219681160CE
:1034CC009B8893802000FCF721FE82B201235B4293
:1034DC0000933333210030000AF054FE012413E032
:1034EC004B4D22004C49280011F08CF82800FCF7B9
:1034FC000DFE82B201235B4200933333290030006E
:10350C000AF040FE0134E4B2052CE9D901235B42F8
:10351C00009333330322414930000AF033FE002775
:10352C0032E007231340D2083D49394811F06AF8BC
:10353C00374B98461800FCF7E9FD82B201235B4239
:10354C0000933333414630000AF01CFE0134E4B2E0
:10355C00052C0ED8AB005B195B005B191B195B00CB
:10356C00304A9A5A002ADCD12F49294811F04AF8DE
:10357C00DEE701235B420093333302222B493000F8
:10358C000AF000FE0137FFB2294B1B78BB4232D93F
:10359C003D007A1C1E4C2749200011F033F8200006
:1035AC00FCF7B4FD82B201235B429846009333339F
:1035BC00210030000AF0E6FD16237B43194A9B5A82
:1035CC005900C91849001C4BC9180522200011F0DC
:1035DC006DF84346009333330522210030000AF086
:1035EC00D1FD4346009333330122144930000AF0D5
:1035FC00C9FD0124ACE701235B4200933333012264
:10360C000F4930000AF0BEFD02B080BCB846F0BDD8
:10361C00C80800201084010824840108208E0108A9
:10362C003C840108D8020020388401084885010830
:10363C001C0000202C840108C0880108208401088B
:10364C00B0A10108F0B583B006002C4C2C4B220025
:10365C0023CB23C223CB23C21B6813602000FCF7AF
:10366C0055FD82B201235B420093333321003000BD
:10367C000AF088FD012523E0204F23002A00214970
:10368C00380010F0BFFF3800FCF740FD82B2012378
:10369C005B4200933333390030000AF073FD013480
:1036AC00E4B20A2C0AD86B1E5B00174A9A5A611EA8
:1036BC0080231B020B411342F1D0DDE70135EDB243
:1036CC00124B1B78AB4201D30124EAE70B4C104B95
:1036DC00220023CB23C223CB23C203CB03C2200063
:1036EC00FCF714FD82B201235B42009333332100BB
:1036FC0030000AF047FD03B0F0BDC046C8080020FA
:10370C004484010860840108B46500201C0000207A
:10371C0074840108F0B5C64600B582B080460AF044
:10372C0087FF060000230370914B1A78914C924945
:10373C00200010F067FF2100300010F083FF8F4B4A
:10374C001A788F49200010F05DFF2100300010F036
:10375C0079FF04230093023B00228A49200010F0D9
:10376C0051FF2100300010F06DFF874A874920007F
:10377C0010F048FF2100300010F064FF844A8549A6
:10378C00200010F03FFF2100300010F05BFF824B57
:10379C00220023CB23C219681160998891809B79F0
:1037AC0093712100300010F04DFF01240DE0714B9E
:1037BC007A4A116819609188998092799A716D4949
:1037CC00300010F03FFF0134E4B2052C38D8694DBD
:1037DC0022007349280010F015FF2900300010F06A
:1037EC0031FF704B1B5D042BE9D89B006E4AD358FC
:1037FC009F4660496D4B0A0023CB23C203CB03C207
:10380C001B781370DBE75B4A694B23CB23C2D6E7EB
:10381C005849684B0A0023CB23C223CB23C21B88F5
:10382C001380CCE75349644B0A0023CB23C223CB30
:10383C0023C219681160998891809B799371BEE7B6
:10384C004C495E4B0A0031CB31C231CB31C2300016
:10385C0010F0F8FE01240BE0464D220058492800D8
:10386C0010F0D0FE2900300010F0ECFE0134E4B270
:10387C00062C22D8651EEB005B1BDB00514A9B58C3
:10388C00002BE9D0EB005B1BDB004E4AD318586AC7
:10389C0007F022FD0700AD004B4BE85807F01CFD6C
:1038AC00344D00903B0022004849280010F0AAFE3D
:1038BC002900300010F0C6FED8E73000FCF726FCDB
:1038CC003018032242490FF003FF3000FCF71EFCB6
:1038DC0030181D223F490FF0FBFE3000FCF716FCA0
:1038EC00050001240BE0234F22003B49380010F067
:1038FC0089FE3900300010F0A5FE0134E4B2052C2D
:10390C000CD81B4B1B78013B5B00344A9A5A611E46
:10391C0080231B020B411342EFD0E4E73000FCF78D
:10392C00F5FB2D042D0CA8420ED03000FCF7EEFB5D
:10393C003018032226490FF0CBFE4346002B09D149
:10394C0002B080BCB846F0BD3018052224490FF0F7
:10395C00BFFEEAE73000FCF7D9FB82B201235B42E1
:10396C0000933333310040460AF00CFCE8E7C046C4
:10397C009E080020C808002094840108D70200206B
:10398C00B0840108CC840108EC840108F884010897
:10399C00108501081C85010838850108548501082B
:1039AC004C85010818090020508601085C85010827
:1039BC0074850108808501089C850108BC85010877
:1039CC00D485010828110020840C0020F085010802
:1039DC00488501082086010840860108B46500204E
:1039EC004886010870B506002949FCF785FB0028BC
:1039FC000AD028493000FCF77FFB002846D03578E8
:103A0C00232D04D0002418E0234B187870BD701CB3
:103A1C000FF011FEC0B2002803D0204B1B7883425C
:103A2C0005D21D4B1C78844203D06620EEE700B211
:103A3C00ECE720B2EAE70134E4B2184B1B78A3425E
:103A4C000DD9A10009194900154BC9183000FCF714
:103A5C0053FB0028EFD1002DEDD020B2D6E7002586
:103A6C00092D11D8A900491949000E4B59183000DD
:103A7C00FCF742FB002802D00135EDB2F0E72C0236
:103A8C00FE20204300B2C1E76420BFE7FF20BDE762
:103A9C0064860108688601089E0800201C0000202E
:103AAC009007002084060020F8B504000E000025C5
:103ABC00032D09DCAB002949C9183000FCF71CFBAD
:103ACC00002843D00135F3E70125254B1B78AB4289
:103ADC000BDDA90049194900224BC9183000FCF72D
:103AEC000BFB002834D00135EFE70025092D0BDC4A
:103AFC00A900491949001C4B59183000FCF7FCFA75
:103B0C00002827D00135F1E7184B194A1A60174BDA
:103B1C001D68002D0FD02B681F683800FCF7F6FAD3
:103B2C0002003900300010F0B0FD002814D06A6893
:103B3C000E4B1A60EBE7A00000194000094C00196D
:103B4C00310010F09AFDFEF7DFFE02E0062000E0E7
:103B5C000720F8BD0720FCE70820FAE79C8801083D
:103B6C001C00002090070020840600202009002063
:103B7C00D0000020F8B504000D000026092E14DC3E
:103B8C00B10089194900344B59182800FCF7B4FAD4
:103B9C00002801D00136F1E7013C0122B2402F4947
:103BAC006400635A13436352F8BD0026032E09DCEC
:103BBC00B3002B49C9182800FCF79EFA002845D001
:103BCC000136F3E70126274B1B78B3420BDDB1001E
:103BDC0089194900244BC9182800FCF78DFA0028D4
:103BEC0036D00136EFE7214B214A1A601F4B1E6875
:103BFC00002E20D033681F683800FCF787FA0200CB
:103C0C003900280010F041FD002823D07268174BB2
:103C1C001A60EBE7B000801940001018290010F072
:103C2C002CFD013C0122B2400C496400635A134341
:103C3C0063520020B8E7092EF3DCB3009B195B003C
:103C4C00054A9B5C002BE5D00136F4E70620ABE778
:103C5C000720A9E70820A7E784060020E806002033
:103C6C009C8801081C0000209007002024090020DB
:103C7C00D000002070B5012500261DE00134E4B20F
:103C8C00052C17D820000AF05FFA426B80231B0228
:103C9C009A42F3D1144B1B78013B611E8022120215
:103CAC000A41110011485B001A5A0A431A52E5E7FF
:103CBC000124E5E70135EDB20D4B1B78AB4211D376
:103CCC00094B1B78AB42F3D000221321280004F0DF
:103CDC00DFFD32200AF098F8064B1B78002BE9D058
:103CEC000226E7E7300070BD9E080020B465002076
:103CFC001C0000203009002010B5012407E0200032
:103D0C000AF022FA01210AF0B9FA0134E4B2052CC6
:103D1C0012D80A4B1B78013B5B00094A9A5A611E68
:103D2C0080231B020B411342E9D120000AF00CFA4C
:103D3C0000210AF0A3FAE8E7002010BD9E0800203D
:103D4C00B465002070B509F017FF09F0B5FF03F05A
:103D5C00E1F909F04BFC08F0D1F909F0E1FF09F0A9
:103D6C00F3FB0AF00FF809F019FD00281AD1FFF740
:103D7C00DDF8002821D03E4B01221A7032200AF0C7
:103D8C0043F807F051FA3B4BE12252029A600124AE
:103D9C00052C17D8374B996820000AF065FA0134C6
:103DAC00E4B2F5E7FFF710F9BFF34F8F324B334A0C
:103DBC00DA60BFF34F8FC046FDE732200AF024F8DB
:103DCC0007F032FAFFF7A0F8FFF796FF08F000FFB4
:103DDC002B4B1B78002B17D180252D019024E4054B
:103DEC000122290020000DF0D0FEFA2040000AF03C
:103DFC000BF80022290020000DF0C7FE02F0C0FFD6
:103E0C00204B01221A7070BD80252D019024E405F1
:103E1C000122290020000DF0B8FEFA20400009F024
:103E2C00F3FF0022290020000DF0AFFE642009F002
:103E3C00EBFF0122290020000DF0A7FE642009F001
:103E4C00E3FF0022290020000DF09FFE642009F002
:103E5C00DBFF0122290020000DF097FE642009F001
:103E6C00D3FF0022290020000DF08FFEC6E7C046CC
:103E7C00D60200202C61002000ED00E00400FA05C1
:103E8C009E080020D502002030B583B01E200FF014
:103E9C00FDFB04001E2200210FF023FC08490A7DC3
:103EAC00013A8B7D487D098B9200064D5259019148
:103EBC0000900549200010F0A5FB200003B030BD98
:103ECC002C6100204C890108AC88010800B585B034
:103EDC000A00074B197801230393023B02930193C9
:103EEC00033300930B0004F0F9FC05B000BDC04691
:103EFC009E08002030B587B005000C000023049309
:103F0C000393029301930093002200210020FEF7FB
:103F1C0061FE6A1ED3009B1ADB00154A9A58002AD0
:103F2C0007D0611ECB005B1ADB0011495B58002BDC
:103F3C000FD1002A15D1621ED3009B1ADB000C4A4C
:103F4C009B58002B12D0200002F086FE002007B0F8
:103F5C0030BD280002F080FE200002F07DFE002023
:103F6C00F5E7280002F078FE0020F0E76820EEE785
:103F7C002811002030B5002201E023700132841892
:103F8C00835C002B07D00449CD5C03212940012917
:103F9C00F3D12033F1E730BD19B70108F0B5CE46A7
:103FAC00474680B589B00400DB4B1D78052D00D148
:103FBC0015E2DA48AB005A1992000021115480180E
:103FCC004170023004220FF08CFB2378622B02D15B
:103FDC00A3782E2B56D0D24D2100280010F04DFB8B
:103FEC00D04E3100280011F0C7F904003100002038
:103FFC0011F0C2F905003100002011F0BDF90600E6
:10400C00002C00D1EFE12000FFF708F8041E02D0CD
:10401C00002D00D1B5E1002D00D1E6E1002E00D13C
:10402C00E5E13000FEF7FAFF002800D1BAE1BA4B07
:10403C001E78BA4AB3009919890004278F5499192C
:10404C0089005118CC70C871B34C26782800FEF743
:10405C00FFFFB24AB3009B199B00D318587021780C
:10406C008B005B189B00D3185B78002B00D1C0E150
:10407C000131A94B19700026300009B0C0BCB946FB
:10408C00B046F0BD6778303FFFB2052F00D9A8E1EC
:10409C00A24AAB00591989000120885453180022F8
:1040AC005A709F70E61C07329F49300010F0EDFAF1
:1040BC00002824D1AB005D19AD00984B5D19052388
:1040CC00EB70FA00D219994B9B181B7A012216003F
:1040DC001E401A4205D000268F4A13780133137004
:1040EC00CAE70123059300230493039302930193DE
:1040FC00009300220121380003F012FFECE70E229E
:10410C008B49300010F0C1FA002820D1AB005D19AA
:10411C00AD00824B5D190623EB70FA00D219834B6C
:10412C009B181B7A022216001E401A4201D0002650
:10413C00D2E7012305930023049303930293019385
:10414C000093013A0021380003F0EAFEC4E70C2288
:10415C007849300010F099FA00287BD1FA00D21976
:10416C00724B9B189E78002E0FD0FA00D2196F4B11
:10417C009B18DE78002E29D0FA00D2196B4B9B18B5
:10418C001E79002E44D00C26A6E7644B9846AB0053
:10419C005B199B0043440922DA7020000F300FF0AA
:1041AC0044FA5D4B1978C3B28A005218920042440B
:1041BC001371012205920022049203920292019241
:1041CC0000920021380003F0ABFE85E7534B984674
:1041DC00AB005B199B0043440A22DA7020000F30BD
:1041EC000FF023FA4C4B1A78C0B293009B189B002B
:1041FC004344187101230593002304930393029302
:10420C000193009000220021380003F089FE63E73F
:10421C00424B9846AB005B199B0043440B22DA706F
:10422C0020000F300FF001FA3B4B1A78C0B293000C
:10423C009B189B004344187101230593002304939E
:10424C00039302930190009300220021380003F0A5
:10425C0067FE41E70D223849300010F016FA0028AD
:10426C0000D08CE0FA00D219304B9B185E79002EEE
:10427C000FD0FA00D2192D4B9B189E79002E2AD004
:10428C00FA00D219294B9B18DE79002E56D00D2638
:10429C0022E7224B9846AB005B199B0043440C224F
:1042AC00DA70200010300FF0C0F91B4B1A78C0B236
:1042BC0093009B189B004344187101230593002322
:1042CC000493039302900193009300220021380081
:1042DC0003F026FE00E7114B9846142399465D43E4
:1042EC004544073BEB70200010300FF09EF90A4B51
:1042FC001B78C0B24A4653434344187101230593BB
:10430C000021049103900291019100910B000A008D
:10431C00380003F005FEDFE63F0A0020486100206C
:10432C00A409002050850108FC900108D80C00203D
:10433C006889010878890108888901082E4B9846FC
:10434C00142399465D434544063BEB702000103026
:10435C000FF06BF9294B1B78C0B24A4653434344C8
:10436C00187101230593049000210391029101918E
:10437C0000910B000A00380003F0D2FDACE60026D9
:10438C00AAE6002E00D046E61C4D2B781A499A005E
:10439C00D0188000023646540A18D47001332B70A2
:1043AC00002669E6154B98461A78134F9300991816
:1043BC0089000320C8557B18DC7030000FF030F9F1
:1043CC00FEF7AAF8079043461B789800C0188000A7
:1043DC00C0190630042207A90FF07AF934E60E262C
:1043EC004AE6002648E6672646E6672644E6672640
:1043FC0042E6672640E6C046486100203F0A00209E
:10440C00F8B50C00022817D0032803D001280FD0D0
:10441C000020F8BD354B1A78013A93009B189B008D
:10442C00334AD31801221A7406F0F2FD0020F0E78B
:10443C000800FFF7B3FDECE72C4B1D78013DAB00FA
:10444C005B199B002A4AD318DF68002F34D0380040
:10445C00FBF75CFE06002000FBF758FE311802311A
:10446C00380010F0AFF8224FAB005D19AD007D198C
:10447C00E8601E4D2A78013A93009B189B00FB18AC
:10448C00D868731CC018210010F0F7F82A78013A8C
:10449C0093009B189B00FF18FB6813229A55134B33
:1044AC001A78013A93009B189B001149CB18DB68D2
:1044BC00002B11D00020ACE70800FBF727FE0130E1
:1044CC000FF0E4F8AB005D19AD00094B5D19E86025
:1044DC00210010F0D2F8E2E790008018800040181C
:1044EC00142200210FF0FDF80E2092E73F0A002065
:1044FC0048610020F0B5DE4657464E464546E0B5CD
:10450C0089B08246894615001C00002305930522BC
:10451C00002106A80FF0E5F82EE1E91C0120FFF7B9
:10452C006FFF002806D1D34B02221A700D23237083
:10453C00B8460FE15222D04920000FF0C9F8CD4BFC
:10454C0000221A70B84605E1CA4B00221A70CB49FA
:10455C000320FFF755FF4122C94920000FF0B8F89E
:10456C00B846F7E029000220FFF74AFF002804D1E3
:10457C000D23237000239846ECE05222BE49200004
:10458C000FF0A6F800239846E4E0701C99229200E4
:10459C00210009F0E5FF8046DCE02722B949200024
:1045AC000FF096F800239846D4E02522B649200057
:1045BC000FF08EF800239846CCE01A220021B34865
:1045CC000FF08FF801362800FBF7A0FD070005A8B7
:1045DC00FBF79CFD3A1A013A3100AD4810F066F831
:1045EC002800FBF793FD070005A8FBF78FFD3B1A8E
:1045FC009BB21722FF21584604F022F9992292000F
:10460C002100300009F0ACFF80462000FBF77EFD56
:10461C0020181D229F490FF05BF89BE0029B1F1294
:10462C00FBB29D4F03933B701A22002197480FF069
:10463C0058F8721C02922800FBF768FD060005A8CA
:10464C00FBF764FD321A013A0299914810F02EF8EA
:10465C002800FBF75BFD060005A8FBF757FD331A96
:10466C009BB217220399584604F0EAF88B4B1B783F
:10467C00013B5B008A4A9B5A3A781341DB0706D40C
:10468C0005AB2200874920000FF0BCFF62E09922A5
:10469C0092002100029809F063FF8046F0E72800A1
:1046AC00FBF734FD804605A8FBF730FD43461A1A8C
:1046BC00013A310076480FF0F9FF2800FBF726FD90
:1046CC00060005A8FBF722FD321A92B2013A92B20B
:1046DC001721380004F0DCF8029A734920000FF01F
:1046EC0091FF2378002B02D04B46002B08D12000E1
:1046FC00FBF70CFD0200002120000EF0F2FFA1E000
:10470C002000FBF703FD82B201230093313321001B
:10471C00504609F037FDEAE7FA21890001200BF039
:10472C006DFA624B1B78002B00D193E0604A138822
:10473C0001331380029B22005E4920000FF062FFC0
:10474C000023984606E0992292002100280009F0E7
:10475C0007FF80462378002B02D04B46002B7CD1E0
:10476C002000FBF7D3FC0200002120000EF0B9FF63
:10477C004346002B00D1ADE02800FFF7FBFB3D4B7F
:10478C001E78002E07D103224B4928000FF07DFF25
:10479C00071E00D1C1E6002E07D00622474928008B
:1047AC000FF073FF071E00D1CEE6022E00D1D9E622
:1047BC002E2128000FF053FF061EC4D0033803220D
:1047CC003F490FF062FF0028BDD073783D4AD35C9F
:1047DC005B07B8D4721B290005A80FF067FF05A86A
:1047EC00FFF700F902902D4A12789346904200D1BF
:1047FC00CBE6642800D1D0E6662800D1D5E6FF28A8
:10480C0000D1DAE66B461F7AFE2F00D106E701369F
:10481C0006222D4930000FF038FF002800D03EE76B
:10482C002A4B00229A711921380004F031F86420C7
:10483C0009F0DEFD264B1A78184B18780023390046
:10484C00FEF7B2FD214B9B79602B00D164E700236E
:10485C0098467FE7002398467CE72000FBF756FC40
:10486C0082B201235B42009333332100504609F09E
:10487C0089FC75E76C0A00209C89010828840108D2
:10488C00F8890108408A0108688A01084C05002053
:10489C0060070020908A01083E0A00209E08002034
:1048AC00E8060020B08A0108E48A010830090020DB
:1048BC00F60E0020088B010898890108F089010880
:1048CC003C8A010819B70108DC8A01082C61002018
:1048DC00D70200200922002105A80EF002FF0C4B84
:1048EC001B78002B02D14B46002B06D109B0F0BC33
:1048FC00BB46B246A946A046F0BD01235B420093DD
:10490C00333338220349504609F03CFCEEE7C046ED
:10491C006C0A0020288B010870B584B00121494233
:10492C0001200BF06BF90F236B4400221A7009F075
:10493C007FFE0600514B9A68E1231B039A420FD06D
:10494C00012401E00134E4B2052C09D84C4B1B784E
:10495C00A342F7D0E1210903200009F085FCF1E71F
:10496C00484B1A8853009B185B00474A9B18474AD0
:10497C001278474C424D29780091464920000FF09F
:10498C0041FE28780A23444A444909F02BFC2000B4
:10499C00FBF7BCFB82B228780A23210009F022FC29
:1049AC00002558E00F206844027098013C4A121808
:1049BC00002010553B4AD4540F246C44304B1878CB
:1049CC000A230122210009F00DFC23780D2B25D0A0
:1049DC000A2B3ED0082B49D01A00203AD2B25E2ABC
:1049EC0037D8312D35DC304A535501356DB230E0B6
:1049FC000BF0FCFB0134A4B23F2CDDD8204B1B7810
:104A0C00013B9801264A1218125D002ACAD13F2C8C
:104A1C00EED1244A0021D1540024E9E7184B187830
:104A2C000A230222214909F0DDFB002D19D01E4C6E
:104A3C00134B1878330022000121FFF75BFD210096
:104A4C001B480FF01AFE3222002120000EF049FE06
:104A5C0000250BF0CBFB0A4B1B78013B114AD45CB5
:104A6C00CAE7134910480FF008FEE0E7002DF0DD0F
:104A7C00013D6DB20C4B00225A55EAE72C61002027
:104A8C00D702002050000020C08801089E0800209A
:104A9C00400A0020648B010893020000908B0108EF
:104AAC00F00A0020300C002070090020249F01081F
:104ABC000C0A002070B50C001C4B1A78013A9300BC
:104ACC009B189B001A4AD318DB68002B2CD0194B6F
:104ADC001B68002B14D0174B1E683378002B12D098
:104AEC00132130000FF0BBFD051E11D0821B3100CD
:104AFC0020000FF0DBFD01350E4B1D60012070BD59
:104B0C000C4B1860E7E70B4B00221A600020F6E70D
:104B1C00310020000FF0B1FD2000FBF7F7FA36183A
:104B2C00044B1E600120EAE70020E8E73F0A002062
:104B3C0048610020680A0020F0B583B004008300AF
:104B4C001B189B00424A9B5C012B04D0032B13D0F7
:104B5C00002003B0F0BD3E4A800003199B00D3181F
:104B6C009978DA78CB005B183A495B5C9A4201D0B1
:104B7C000020EEE70120ECE7354E8500291889006E
:104B8C007118CA78013A53009B189B00324A9B5803
:104B9C001F680631042201A80EF09AFD2D19AD00F4
:104BAC0075196B78062B45D89B002C4AD3589F4619
:104BBC00391C0198FBF786FC0028CAD00120C8E7F5
:104BCC00391C0198FBF784FC0028C2D00120C0E7F7
:104BDC00391C0198FBF790FC00282DD00021381CC3
:104BEC00FBF770FC002829D00020B2E7391C019893
:104BFC00FBF778FC0028ACD00120AAE7391C0198FF
:104C0C00FBF784FC00281BD00021381CFBF75AFC56
:104C1C00002817D000209CE7391C0198FBF752FCA8
:104C2C00002811D10021381CFBF74CFC00280DD0BA
:104C3C0000208EE700208CE700208AE7012088E71F
:104C4C00002086E7012084E7002082E7012080E72E
:104C5C0048610020D80C002084000020248E01081C
:104C6C0070B509F0E5FC060000241BE0194B187820
:104C7C003300194A0021FFF73DFC3000FBF746FAE0
:104C8C000200002130000EF02CFDAB005B199B00E4
:104C9C00124AD318D8681049FFF70CFF0028E5D149
:104CAC000134A4B20E4B1B78A34211D92500A300EA
:104CBC001B199B00094AD3181B7C002BF0D0E0B2C7
:104CCC00FFF73AFF0028EBD0064B20229A71DCE765
:104CDC00002070BDD7020020D809002048610020B8
:104CEC003F0A00202C61002000207047F0B583B0F3
:104CFC0005001600002401940094002820D001AA7D
:104D0C000121300009F098FC0023C356702B19D0F8
:104D1C0068276A460221300009F08EFC0EF08BFCED
:104D2C000600682F14D00100200009F09DFA230022
:104D3C0032000A4928000FF065FC002003B0F0BDDA
:104D4C0072B6FEE701300EF076FCC4B20027E0E745
:104D5C001322034928000EF0BBFCEEE7548E010829
:104D6C00408E010810B5002808D0054B1A681204B3
:104D7C00120C04490FF046FC002010BD72B6FEE781
:104D8C00CCF7FF1F7C8E010870B584B004001000B6
:104D9C00002303935F4B1A7802AB1A70002C10D0CF
:104DAC0003AA012109F048FC05005B49FBF7A4F9B3
:104DBC00002869D1594B1B78013B594AD65C012517
:104DCC0023E072B6FEE72A00564920000FF01AFCC9
:104DDC002000FBF79BF982B2504B187864230093A8
:104DEC005A3B210009F0CEF93CE001200BF08EFB80
:104DFC004A4B1B78013B711C9B014B4AD3185B5CE3
:104E0C00002BF2D00E000135EDB2052D45D8434BE9
:104E1C001B78AB42F7D00FF097FB6B4618726423EC
:104E2C0000935A3B012202A9280009F0ABF9280093
:104E3C0009F08AF903689B8CDBB26A46127A9342BA
:104E4C00C1D02A00394920000FF0DCFB2000FBF711
:104E5C005DF982B2314B1878642300935A3B2100E0
:104E6C0009F090F95422324920000EF031FC200058
:104E7C00FBF74CF982B2294B1878642300935A3B08
:104E8C00210009F07FF9B3E70023EB56702B07D014
:104E9C000F22284920000EF01BFC002004B070BD2E
:104EAC00681C0EF0C8FB0500C6B2731EDBB2042BE7
:104EBC000BD96623662B27D0062BEED1FF222A4076
:104ECC001A4920000FF09EFBE7E70FF03DFB6B4605
:104EDC00187264230093323B012202A9300009F0BE
:104EEC0051F9300009F030F903689B8CDBB26A464B
:104EFC00127A934201D00623DCE7FF222A400949AB
:104F0C0020000FF07FFBC8E71B220B4920000EF09E
:104F1C00DFFBC2E74C8F010868860108D70200202E
:104F2C00300C00209C8E0108F00A0020B88E01087D
:104F3C00CC8E01083C8F0108208F0108F0B5C646C5
:104F4C0000B582B0050017000024002601940094DF
:104F5C00002822D001AA0121380009F06DFB0023A2
:104F6C00C356702B1BD0672398466A460221380023
:104F7C0009F062FB0023C356702B17D06720002862
:104F8C0022D0672827D01922164928000EF0A0FB42
:104F9C00002002B080BCB846F0BD72B6FEE701300E
:104FAC000EF049FBC4B200239846DEE701300EF048
:104FBC0042FBC6B24346002B01D06720E1E731002B
:104FCC002000FEF797FFDAE733002200064928009D
:104FDC000FF018FBDCE70F22044928000EF078FBD9
:104FEC00D6E7C046708F0108508F01083C8F01082E
:104FFC00F0B5C64600B582B00500170000240026A7
:10500C0001940094002822D001AA0121380009F053
:10501C0013FB0023C356702B1BD0672398466A469C
:10502C000221380009F008FB0023C356702B17D05F
:10503C006720002822D0672827D01722164928007D
:10504C000EF046FB002002B080BCB846F0BD72B634
:10505C00FEE701300EF0EFFAC4B200239846DEE70B
:10506C0001300EF0E8FAC6B24346002B01D067209F
:10507C00E1E731002000FEF729FFDAE733002200D8
:10508C00064928000FF0BEFADCE70F22044928007D
:10509C000EF01EFBD6E7C046B08F01088C8F0108BE
:1050AC003C8F0108F0B5D6464F464646C0B582B097
:1050BC0080461000002301934346002B0ED001AA1A
:1050CC00012109F0B9FA0EF0B0FAC4B2002C4AD0A2
:1050DC002F4B1B78A34203D2FF2345E072B6FEE7A9
:1050EC00FF250540013D2B4B9946AF007B199B00DA
:1050FC00002292464A46514699541E004E44717005
:10510C00B01C04220EF0EDFA53463374F0680EF026
:10511C00C7FA5346F36001E00134E4B21C4B1B7830
:10512C00A34219D9A3001B199B001A4A9B5C002BA4
:10513C00F2D0631E9800C01880008018A5002D19AD
:10514C00AD00AD18142229000EF0C2FA1422002171
:10515C0028000EF0C6FADFE7013B0D4A137005F08C
:10516C0057FF002300E0FF23002B0BD136220A4906
:10517C0040460EF0ADFA002002B0E0BCBA46B14693
:10518C00A846F0BD2322054940460EF0A1FAF2E7ED
:10519C003F0A002048610020C88F010800900108D8
:1051AC0010B582B00400100000230193002C14D021
:1051BC0001AA012109F040FA0EF037FAC3B2002B14
:1051CC0003D0104A12789A4209D223220E492000A9
:1051DC000EF07EFA002002B010BD72B6FEE7FF237F
:1051EC000340013B9A00D3189B00084AD3180022B5
:1051FC001A7405F00DFF3522054920000EF068FAEF
:10520C00E8E7C0463F0A00200090010848610020F2
:10521C002490010810B582B0040010000023019303
:10522C00002C14D001AA012109F006FA0EF0FDF9A8
:10523C00C3B2002B03D0104A12789A4209D223220F
:10524C000E4920000EF044FA002002B010BD72B6D8
:10525C00FEE7FF230340013B9A00D3189B00084A4A
:10526C00D31801221A7405F0D3FE38220549200008
:10527C000EF02EFAE8E7C0463F0A00200090010825
:10528C00486100205C900108F0B5D6464F46464672
:10529C00C0B58AB0040006AA7B4B23CB23C21B8863
:1052AC001380002C0DD0794B187801235B420093AE
:1052BC0033333722764908F065FF002601239A46DE
:1052CC0094E072B6FEE7B3009B199B00D3181A7CCE
:1052DC00D3009B1A06AA9446634452466D4920009B
:1052EC000FF090F98FE0AB005B199B006A4AD31862
:1052FC00DB780B2B13D8092B33D2052B23D0062BA1
:10530C004ED1AB005B199B00634AD2189378D268DC
:10531C0000922200614920000FF074F940E00C3B30
:10532C00DBB2022B3CD8AA00521993005A4AD2186D
:10533C0093781179D268019200912200584920008B
:10534C000FF060F92CE0AB005B199B00524AD218AD
:10535C009378D26800922200524920000FF052F943
:10536C001EE0AA00521993004B4AD2189378117977
:10537C00D2680192009122004B4920000FF042F9B3
:10538C000EE04A4F3B002200494920000FF03AF949
:10539C003800FAF7BBFE0200002138000EF0A1F92C
:1053AC00AB005B199B003C4AD318D8683F49FFF708
:1053BC0081FB0028E5D12000FAF7A8FE20180C226A
:1053CC003C490EF085F92000FAF7A0FE82B22F4B73
:1053DC00187801235B4200933333210008F0D2FE8E
:1053EC0057460137FBB29A460136F6B2324B1B7860
:1053FC00B3423DD93500B3009B199B00264A9B5CF8
:10540C00002B00D05FE7AB005B199B00224A9B5C32
:10541C00012B00D167E7032BC2D1AB005B199B00BA
:10542C001D4A984690444346991D042205A80EF047
:10543C004FF94346DA78013A5B78013B5900CB18B7
:10544C001E498846984453009B189B001C4AD3184D
:10545C009B6899460598FDF717F80290039143460F
:10546C0000934B462200174920000FF0CBF897E72A
:10547C00A722154920000EF02BF900200AB0E0BC41
:10548C00BA46B146A846F0BD68830108D702002091
:10549C0094900108CC90010848610020EC90010820
:1054AC001C910108D890010804910108700A002091
:1054BC0048910108509101083F0A0020D4A8010826
:1054CC0084000020389101085C91010810B5041E7D
:1054DC000CD00BF02FF803041B0C1C4A94466344AD
:1054EC00082B2CD89B001A4AD3589F4672B6FEE75D
:1054FC00184A194920000FF085F80BF015F8030B2A
:10550C002200164920000FF07DF8002010BD144A2F
:10551C00114920000FF076F8EFE7124A0E492000EF
:10552C000FF070F8E9E7104A0B4920000FF06AF809
:10553C00E3E70E4A084920000FF064F8DDE70C4A57
:10554C00054920000FF05EF8D7E7C046C0FBFFFF0F
:10555C007492010804920108109201085C920108EF
:10556C0024920108309201083C92010848920108EB
:10557C005492010870B5041E05D00E220E490EF08F
:10558C00A7F800250CE072B6FEE70C4BEB189B005D
:10559C001B6822000A4920000FF034F80135EDB2E7
:1055AC00022DF2D92000FAF7B1FD2018032205498B
:1055BC000EF08EF8002070BD98920108EBFDFF07ED
:1055CC00A8920108249F010830B585B0041E0AD0AA
:1055DC0008F072FB1C4B5B7B182B06D00C2B10D0ED
:1055EC00002005B030BD72B6FEE717498A7C4B7CB3
:1055FC00087CC98901910090144920000FF002F831
:10560C00EEE7114BDB7C012B0FD0022BE8D10E49BE
:10561C008A7C4B7C087CC9890D4D029501910090C8
:10562C000C4920000EF0EEFFDAE707498A7C4B7C30
:10563C00087CC989084D029501910090054920000C
:10564C000EF0E0FFCCE7C0462C610020B0920108C0
:10565C0008930108D89201080493010810B5041EA0
:10566C000AD008F029FBFEF70FFC020003492000CA
:10567C000EF0C8FF002010BD72B6FEE70C930108B7
:10568C00F0B583B0040016000023019300930028AA
:10569C0022D001AA0121300008F0CEFF05007C4B7E
:1056AC00186004227B490EF0F0FF002800D099E02E
:1056BC000435019B1E1F3200774928000EF0E5FFD0
:1056CC0000281FD1754B9D79602D07D0202D0CD053
:1056DC00002D11D06825CEE072B6FEE7704A7149F4
:1056EC0020000EF08FFF0025C5E06F4A6D492000A9
:1056FC000EF088FF0025BEE06C4A6A4920000EF0CF
:10570C0081FFB8E032006A4928000EF0BEFF002885
:10571C001DD1624BDD79032D05D0012D0AD0002D52
:10572C000FD06825A7E05E4A5E4920000EF06AFFA4
:10573C000025A0E05C4A5B4920000EF063FF0025C9
:10574C0099E05A4A574920000EF05CFF93E0320072
:10575C00584928000EF099FF002823D032005649F2
:10576C0028000EF092FF002824D032005349280064
:10577C000EF08BFF002825D03200514928000EF086
:10578C0084FF002826D032004E4928000EF07DFF01
:10579C0000282ED1414B5A794B4920000EF032FF94
:1057AC00002568E03D4B9A68474920000EF02AFF1F
:1057BC00002560E0394B1A88434920000EF022FF87
:1057CC00002558E0354B5A883F4920000EF01AFF4F
:1057DC00002550E0314B1A793B4920000EF012FFA6
:1057EC00002548E00522394928000EF04EFF00281C
:1057FC0005D01322364920000DF06AFF3DE06A46C1
:10580C000221300008F018FF07000026092E0CD8E2
:10581C00B100891949002F4BC9183800FAF76CFCF4
:10582C0000280BD00136F6B2F0E70025002D07D08A
:10583C003A00294920000EF0E5FE09E00125F5E7C4
:10584C003A00264920000EF0DDFE16E00135EDB2DF
:10585C00234B1B78AB420DD36B1E5B00214A9B5A2A
:10586C003341DB07F2D52B0022001F4920000EF03C
:10587C00C9FEEBE70025682D02D0002003B0F0BD77
:10588C00034B1A68194920000EF0BCFEF5E7C04620
:10589C00B40A0020249301082C9301082C610020E9
:1058AC006886010830850108389301083C9301088B
:1058BC00449301084C930108589301086493010820
:1058CC007493010888930108008B01089C930108CC
:1058DC00DC93010884060020C0930108A4930108FE
:1058EC001C000020E8060020D4930108F093010866
:1058FC0070B582B00400100000230193002C1AD064
:10590C0001AA012108F098FE0500019E32001F49F2
:10591C000EF0BBFE002810D032001D4928000EF0FE
:10592C00B4FE00281AD00F221A4920000DF0D0FE28
:10593C00002002B070BD72B6FEE71749174B0A0083
:10594C0023CB23C223CB23C21B681360FDF734FA8D
:10595C002722134920000DF0BBFEE9E70022162197
:10596C00FF2002F095FF0F4B02221A70642008F002
:10597C003FFDFCF789FF05F041FC642008F038FD81
:10598C004022094920000DF0A3FED1E71094010834
:10599C0040940108489401082C610020000000206C
:1059AC00189401081C07002058940108F0B5CE4645
:1059BC00474680B58DB0070014000026002398469A
:1059CC000B960A9609960896079600282CD00BAAD7
:1059DC000121200008F030FE0500B94B18600422AC
:1059EC00B8490EF052FE002820D00422B6492800F7
:1059FC000EF04BFE002800D184E10422B3492800AC
:105A0C000EF043FE002800D1DDE16724672C01D1A4
:105A1C0000F0EAFB682C01D100F0EDFB00200DB08A
:105A2C00C0BCB946B046F0BD72B6FEE70AAA022168
:105A3C00200008F001FE0400A54B1860A04B1D6867
:105A4C0004350B9B1E1F3200A24928000EF01DFED0
:105A5C00002856D10A9D2A009F4920000EF015FE01
:105A6C00002816D02A009D4920000EF00EFE0028BA
:105A7C001ED02A009A4920000EF007FE002826D0DE
:105A8C002A00984920000EF000FE00282ED0682431
:105A9C00BCE7954B60229A71D979090260231943AE
:105AAC0009B289B28A30400001F0BAFA00246DE3E1
:105ABC008D4B20229A71D97909022023194309B2FE
:105ACC0089B28A30400001F0ABFA00245EE3864BC9
