:020000040800F2
:100000000080002091F500081DF6000881E8000836
:1000100000000000000000000000000000000000E0
:100020000000000000000000000000002DFB0008A0
:100030000000000000000000B9FB000875E800089F
:100040001DF600081DF600081DF600081DF6000844
:100050001DF600081DF600081DF6000869EC0008F2
:100060001DF600081DF60008FDE800083DE900083F
:100070001DF600081DF600081DF600081DF6000814
:100080001DF600081DF600081DF600081DF6000804
:100090001DF600081DF600081DF600081DF60008F4
:1000A0001DF600081DF600081DF60008B9E8000856
:0C00B000C9E80008D9E800081DF60008A7
:1000BC0010B5064C2378002B07D1054B002B02D032
:1000CC00044800E000BF0123237010BDD8020020BB
:1000DC000000000088940108044B10B5002B03D0DD
:1000EC000349044800E000BF10BDC04600000000FA
:1000FC00DC0200208894010802780B78002A03D0D7
:10010C00013001319A42F7D0D01A70470023C25CFB
:10011C000133002AFBD1581E7047000002B471460F
:10012C0049084900095C49008E4402BC7047C0462E
:10013C0003B47146490840004900095E49008E44E9
:10014C0003BC7047002243088B4274D303098B42D3
:10015C005FD3030A8B4244D3030B8B4228D3030C8B
:10016C008B420DD3FF22090212BA030C8B4202D32D
:10017C001212090265D0030B8B4219D300E0090A55
:10018C00C30B8B4201D3CB03C01A5241830B8B425E
:10019C0001D38B03C01A5241430B8B4201D34B0347
:1001AC00C01A5241030B8B4201D30B03C01A5241AC
:1001BC00C30A8B4201D3CB02C01A5241830A8B4231
:1001CC0001D38B02C01A5241430A8B4201D34B021A
:1001DC00C01A5241030A8B4201D30B02C01A52417E
:1001EC00CDD2C3098B4201D3CB01C01A5241830932
:1001FC008B4201D38B01C01A524143098B4201D36C
:10020C004B01C01A524103098B4201D30B01C01A96
:10021C005241C3088B4201D3CB00C01A5241830810
:10022C008B4201D38B00C01A524143088B4201D33D
:10023C004B00C01A5241411A00D20146524110469D
:10024C007047FFE701B5002000F0F0F802BDC04692
:10025C000029F7D076E7704703460B437FD4002282
:10026C0043088B4274D303098B425FD3030A8B423E
:10027C0044D3030B8B4228D3030C8B420DD3FF22A8
:10028C00090212BA030C8B4202D31212090265D076
:10029C00030B8B4219D300E0090AC30B8B4201D329
:1002AC00CB03C01A5241830B8B4201D38B03C01A70
:1002BC005241430B8B4201D34B03C01A5241030BE7
:1002CC008B4201D30B03C01A5241C30A8B4201D398
:1002DC00CB02C01A5241830A8B4201D38B02C01A43
:1002EC005241430A8B4201D34B02C01A5241030ABA
:1002FC008B4201D30B02C01A5241CDD2C3098B429F
:10030C0001D3CB01C01A524183098B4201D38B011B
:10031C00C01A524143098B4201D34B01C01A5241BE
:10032C0003098B4201D30B01C01A5241C3088B4203
:10033C0001D3CB00C01A524183088B4201D38B00EE
:10034C00C01A524143088B4201D34B00C01A524190
:10035C00411A00D201465241104670475DE0CA0F67
:10036C0000D04942031000D34042534000229C4627
:10037C0003098B422DD3030A8B4212D3FC22890131
:10038C0012BA030A8B420CD3890192118B4208D307
:10039C00890192118B4204D389013AD0921100E069
:1003AC008909C3098B4201D3CB01C01A524183097D
:1003BC008B4201D38B01C01A524143098B4201D3AA
:1003CC004B01C01A524103098B4201D30B01C01AD5
:1003DC005241C3088B4201D3CB00C01A524183084F
:1003EC008B4201D38B00C01A5241D9D243088B42A5
:1003FC0001D34B00C01A5241411A00D20146634648
:10040C0052415B10104601D34042002B00D54942AB
:10041C00704763465B1000D3404201B5002000F0EA
:10042C0005F802BD0029F8D016E770477047C046A2
:10043C008446100062468C461900634600E0C046B4
:10044C001FB501F0EDFB002801D40021C8421FBDEF
:10045C0010B501F03DFB4042013010BD10B501F06C
:10046C00DFFB002801DB002010BD012010BDC046C1
:10047C0010B501F0D5FB002801DD002010BD0120D6
:10048C0010BDC04610B501F065FB002801DC002052
:10049C0010BD012010BDC04610B501F05BFB00285B
:1004AC0001DA002010BD012010BDC04684460800B2
:1004BC006146FFE71FB500F05FF9002801D4002169
:1004CC00C8421FBD10B500F0EBF84042013010BD22
:1004DC0010B500F051F9002801DB002010BD0120FF
:1004EC0010BDC04610B500F047F9002801DD002012
:1004FC0010BD012010BDC04610B500F0F7F8002863
:10050C0001DC002010BD012010BDC04610B500F06C
:10051C00EDF8002801DA002010BD012010BDC04606
:10052C00994201D1801A04D002D201204042704776
:10053C0001207047F0B5CE46474680B50700994676
:10054C003B0C9C4613041B0C1D000E006146000462
:10055C00140C000C45434B4360436143C0182C0CF6
:10056C0020188C46834203D980235B029846C444EE
:10057C00494679437243030C63442D042D0CC9186E
:10058C00000440198918C0BCB946B046F0BDC0463D
:10059C009E2110B5C905041CFFF7B8FF002803D134
:1005AC00201C00F001FC10BD9E21201CC90500F090
:1005BC004DFA00F0F9FB80231B069C466044F2E7E1
:1005CC0070B500220C4B04000D00FFF765FF0028EE
:1005DC0004D12000290002F0A3F970BD064B0022C3
:1005EC002000290001F0ECFD02F09AF980231B0693
:1005FC009C466044F1E7C0460000E04170B5050040
:10060C000C000022002328002100FFF727FF002800
:10061C0008D12800210000F00FF802000B00100098
:10062C00190070BD80231B06E118280000F004F8A7
:10063C00002342428B41F2E770B500220B4B0D00B8
:10064C00040001F051FBFFF7BBFF060002F0CEF9EE
:10065C000022074B01F048FB02000B002000290090
:10066C0001F0AEFDFFF7ACFF310070BD0000F03DB6
:10067C000000F04170B50600080002F087F9002276
:10068C00064B01F031FB0D000400300002F0AEF916
:10069C002B00220000F0EAFB70BDC0460000F041C8
:1006AC0070B5420045024E024C00C30F6D0A01208A
:1006BC00120E760A240EC90FFF2A06D0FF2C03D087
:1006CC00A24201D1B54206D070BD002DFCD1FF2C49
:1006DC00FAD1002EF8D18B4206D00120002AF3D19A
:1006EC002800431E9841EFE70020EDE770B542006B
:1006FC0045024E024C00C30F6D0A120E760A240EF0
:10070C00C80FFF2A1BD0FF2C0ED0002A1BD1002CA7
:10071C0001D1002E1CD0002D0CD083421CD0022104
:10072C00581E0840013870BD002E22D1002AF4D189
:10073C00002DF2D10028F6D101204042F3E7002D24
:10074C0017D1FF2CF0D0002CE7D1002EE5D1E6E735
:10075C000020002DE7D0E2E7A24205DCEADBB5423F
:10076C0002D8E7D30020DEE743425841400001386D
:10077C00D9E702204042D6E770B5420045024E024E
:10078C004C00C30F6D0A120E760A240EC80FFF2AF6
:10079C000BD0FF2C0DD0002A1FD1002C16D1002E0F
:1007AC0014D10020002D10D009E0002D0CD1FF2C0D
:1007BC0013D1002E08D1002A08D0834212D0022176
:1007CC00581E0840013800E0022070BD002DF4D105
:1007DC000028FAD101204042F7E7002CEDD1002E81
:1007EC00EBD1ECE7A24205DCF2DBB54202D8EFD349
:1007FC000020EAE74342584140000138E5E7C04693
:10080C00F0B54F464646D64644024500C0B5640A8C
:10081C000F1C2D0EC60F002D00D18DE0FF2D00D129
:10082C0092E00023802099469A46E400C0040443D9
:10083C007F3D7802430A98467B001B0EFF0F002B6E
:10084C0000D170E0FF2B00D186E04246D000802220
:10085C007F3BED180023D204024390469C463100A6
:10086C004B467940681C0F2B1CD8764A9B00D358FA
:10087C009F4639004446E2465346022B0FD0032BC9
:10088C0000D1D7E0012B37D100200024C005204334
:10089C00C9070843E0BCBA46B146A846F0BDFF20E4
:1008AC000024F3E7260C2404220C44462404240CD4
:1008BC00434627001B0C574374435A435E4312199B
:1008CC003B0C9B189C4203D98022520294466644EE
:1008DC003F041A043F0CD2199401671EBC411B0C37
:1008EC00920E9B1914439B011C431B0100D49BE0EB
:1008FC00012362081C40144302007F32002A64DD8D
:10090C00630704D00F232340042B00D004342301AD
:10091C0003D502004C4B80321C40FE2ABFDCA401E4
:10092C00640AD0B2B2E74346002B3DD14A460133AC
:10093C001A4391469C4692E7002C29D104239946F0
:10094C00033B00259A4674E7002C1BD108239946DB
:10095C00063BFF259A466CE74346FF35002B0BD12F
:10096C0002234A461A4391469C4678E75346310087
:10097C00022B00D083E792E703234A461A439146A1
:10098C009C466CE70C239946093BFF259A4650E799
:10099C00200002F021F97625431F9C4000236D4274
:1009AC0099469A462D1A44E7404602F015F94246FC
:1009BC00431F9A4000232D1A90469C46763D4EE7E5
:1009CC0080240021FF20E40360E701239B1A1B2BEA
:1009DC0000DD59E722009E30DA4084401300621E8D
:1009EC0094411C43630704D00F232340042B00D0F5
:1009FC00043463011AD50120002447E78020C0038A
:100A0C00044209D04346034206D1444604436402DF
:100A1C003900FF20640A39E78020C00304436402D4
:100A2C003100FF20640A31E7280065E7A4010020AB
:100A3C00640A2BE78020C00304436402FF20640A8D
:100A4C0024E7C046B0940108FFFFFFF7F8B5CE4687
:100A5C00474643025B0A4E02DA009446720A9146FC
:100A6C0045004A0080B52D0E1F00C40F120EC90F91
:100A7C00B609FF2A5BD0012041408C4239D0A81A1C
:100A8C0000285ADD002A6AD0FF2D00D1D9E080223F
:100A9C00D20416431B2800DCE9E001206346181A37
:100AAC00430100D4B4E080018709380002F094F8C7
:100ABC0005388740854200DCCCE02D1AB54838401B
:100ACC00430704D00F230340042B00D00430430110
:100ADC0000D4A0E06A1CFE2D00D18DE08001470AF5
:100AEC00D2B2D0053843E4072043C0BCB946B04667
:100AFC00F8BDA81A8046002845DD002A70D0FF2DCD
:100B0C0000D19EE08023DB041E4343461B2B00DCFC
:100B1C00D2E00120604443017AD50135FF2D6BD022
:100B2C0001239D4A0340400810401843C8E7002E9B
:100B3C0020D08C4223D02800FF38002839D0571BF6
:100B4C00002D00D09DE06346002B00D1DBE07B1E26
:100B5C00012F00D10DE1FF2F71D01F0098E0002E66
:100B6C0000D1A7E0421E012800D1E6E0FF2868D0A2
:100B7C0010008FE701204140A14200D07FE7FF2009
:100B8C0040428046A8444046002838D0511B002DD6
:100B9C0000D1AEE0FF2A00D1DFE080236046DB0409
:100BAC00184384461B2900DCD9E00120150080196C
:100BBC00B1E7FE206A1C104271D1002D00D0A6E0D6
:100BCC006346002B00D1D9E00022002E00D188E72B
:100BDC00981B430100D4E1E063460C00F01A6FE768
:100BEC00002E00D1B7E00200013A012800D19CE0B0
:100BFC00FF2826D0904688E7FF22002771E7FE20C9
:100C0C006A1C104264D0FF2AF6D0150066447008A6
:100C1C00430700D056E7C308FF2D12D05B025F0AD2
:100C2C00EAB25EE76246002A00D196E0002E08D0B8
:100C3C008022D203134204D04846104201D10C004A
:100C4C004B46002BD8D08027FF031F437F02FF2287
:100C5C007F0A46E720233A00451B38000135EA405D
:100C6C005D1BA840431E98410025104328E7202314
:100C7C001B1A32009E40C2403000431E9841104364
:100C8C000CE7FF2ADBD080236046DB041843844644
:100C9C001B2F56DD01200C001500301A00E76346AF
:100CAC009F1B7B013DD4002F00D0FEE600240022C8
:100CBC00002716E70500AFE7320043464146DA400D
:100CCC0020235B1A9E403000431E9841104321E7BD
:100CDC00002DA7D16346002B59D00022002E00D145
:100CEC00FFE630006044430192D52A4B0135184091
:100CFC008EE76346002B47D04B1E012915D0FF29E8
:100D0C002BD019004EE70C004B463D0084E76246A1
:100D1C00002A8BD1002E92D180270024FF22FF03C2
:100D2C00DFE663460C00F71ABFE63000604401258D
:100D3C00430100D46CE70225F2E663460125981BBB
:100D4C00AEE6202364466046FC40DF1BB840431EE1
:100D5C00984120439FE705005EE74B4671E720234F
:100D6C0065466046CD40591A8840431E9841284339
:100D7C001CE763460C000125F01A91E6002E95D075
:100D8C000C004F460022ACE64B460D0044E74F46A4
:100D9C000022A6E6FFFFFFFBFFFFFF7D002800D02F
:100DAC0036E7002400279CE641024200C30F490AA3
:100DBC000020120E7E2A03DD9D2A02DD094A9818B6
:100DCC007047802000040143952A07DC9620821A84
:100DDC00D1404842002BF3D10800F1E7963A9140FC
:100DEC00F7E7C046FFFFFF7F70B5051E0ED001F080
:100DFC00F3FE9E2304001B1A962B0CDC082801DD45
:100E0C00083CA5406D026D0AD8B201E00020002517
:100E1C00C005284370BD992B09DD020029001B3247
:100E2C0091404A1E91410522121AD5400D43052CC2
:100E3C0012DC29000C4E31406A0709D00F202840E3
:100E4C00042805D004314A0102D59F2331401B1BD5
:100E5C0089014D0AD8B2DBE7621F95402900024E8A
:100E6C0031406A07F4D0E9E7FFFFFFFBF0B54F46CE
:100E7C004646D6460D000400C0B51F0011002803DD
:100E8C00620F400A10437A00520DE3003C03914676
:100E9C00640AFA0F4F0F6E0027439246B846760D40
:100EAC00ED0FC900954200D199E04C46341BA44685
:100EBC00002C00DC7CE04A46002A00D1B8E0C54A90
:100ECC00964200D11CE180223C0012041443A0463F
:100EDC006246382A00DD61E11F2A00DDCCE1644660
:100EEC002022121B444694400F00A14664469140B8
:100EFC00E7404C464A1E91413C43424621436446DE
:100F0C00E240801A5C1AA3429B415F42C71B3B0222
:100F1C0000D4D0E07F027F0A002F00D1FFE0380020
:100F2C0001F05AFE01000839202322005B1A8F4081
:100F3C00DA408C401743B14200DAFFE0891B4B1CAE
:100F4C001F2B00DDA8E020223900D21A200094408B
:100F5C009140D840621E9441DF40002601430C436F
:100F6C00630709D00F232340042B05D0231DA34274
:100F7C00A44164423F191C003B0200D49EE0954BF7
:100F8C0001369E4200D1B7E0934AE40817407B0734
:100F9C0071057F0223433F0B4A0D12053A43ED07BF
:100FAC002A4318001100E0BCBA46B146A846F0BD71
:100FBC00002C4BD04C46A41BA446002E00D023E1A1
:100FCC0004001C4300D1AFE16246541E012A00D13B
:100FDC0015E2804DAC4500D1C8E1A4461BE14A4660
:100FEC00B21A9446002A00DCACE04A46002A43D0F0
:100FFC00784A964200D1AFE180223C00120414439F
:10100C00A0466246382A67DC1F2A00DC5FE14746AF
:10101C00203AD7406246202A05D064464022121B53
:10102C004446944021434A1E91410C003C4357E0F6
:10103C003A000A4300D105E12200013A012C00D10B
:10104C0082E1644CA4455BD0944641E7634C771C29
:10105C00274200D0C4E004001C43002E00D069E1FC
:10106C00002C00D1BFE144460C4300D0D0E1420734
:10107C00DB081343C00829E03A000A4300D170E1B1
:10108C0062466446013A012C00D1E0E0514CA44583
:10109C0000D161E19446B4E73A001F39CA4011000F
:1010AC00202B03D04022D31A9F403C43631E9C410B
:1010BC00002700260C43630700D053E7B446E4082E
:1010CC007B072343F808434A94451DD06246070327
:1010DC0052053F0B520D60E744460C43621E94418F
:1010EC00E4189C429B415F423F183B02E3D5394BCD
:1010FC0001369E4200D0B5E03200002700234CE7B9
:10110C004207DB081343C0081A00024300D1E1E197
:10111C0080273F0307433F032E4A3F0B3DE7200048
:10112C0001F05AFD010018311F2900DCFCE60838DB
:10113C00844027000024B14200DBFFE6264A761AE1
:10114C0017400DE7002A2FD04A46921B9446002EDA
:10115C0000D1ADE01F4A914500D10FE1802212046D
:10116C0010436246382A00DD0FE11F2A00DD80E1C2
:10117C00644620221E00121B6746040093409440D4
:10118C00FE405A1E9341F84034431C43804464187B
:10119C008C42BF417F424E464744A6E742460A4333
:1011AC0011004A1E9141ADE60C4C721C224200D03B
:1011BC00A1E002001A43002E00D0FAE0002A00D170
:1011CC0045E13A000A4300D046E14207DB081343ED
:1011DC00C0087BE7FF070000FFFF7FFFFE07000052
:1011EC0047465C1AC21BA342BF417F42B946170057
:1011FC004A46BF1A3A0200D58DE023003B4300D08B
:10120C008AE60020002561E7B44CA14500D1ADE091
:10121C008024240420436446382C3DDC62461F2C79
:10122C0000DDB7E020251E002D1B0400AB40AC40B8
:10123C00D640D04042465D1EAB413443121A904614
:10124C0023432CE04207DB081343C0083BE75C1840
:10125C009C429B4140445B42C71801263B0200D490
:10126C0029E702269E4A63081740012214401C43BA
:10127C00FB071C437F0873E64446203AD440624681
:10128C00202A05D067464022D21B47469740394357
:10129C004A1E9141214335E60343581E8341CC1A23
:1012AC00A142BF4143467F4255464E46DF1B2EE6C8
:1012BC0002001A4300D1BDE062466446013A012C9B
:1012CC0000D1E5E0854CA44558D0944649E76446E6
:1012DC002022121B444694400F00A14664469140C4
:1012EC00E7404C464A1E91413C4342460C43614602
:1012FC00CA408018F4E6794CA24200D1FDE6591898
:10130C0099429B4140445F42C719FC0749081600AB
:10131C000C437F08CFE6CC1AA142BF4143467F4223
:10132C00181A5546C71BF7E5C9087B0755460B43EA
:10133C00F808C8E6002C00D081E043460B4315D1D9
:10134C00802000250003E3E65C1AA3429B41C71BE7
:10135C005B420126FF1ADAE54207DB081343C0089B
:10136C00D2E64207DB081343C008ACE643464246CC
:10137C00C9085B0755460B43D008C5E643464246B1
:10138C005B07C9080B43D008BEE603431C00631E71
:10139C009C41FCE60200203CE24014006246202AFC
:1013AC0003D04025AD1AA8400343581E8341234364
:1013BC0075E7002AE2D03A000A43CDD04207DB0899
:1013CC0013438022C0081203104206D0FC081442BA
:1013DC0003D12000CB087A0713435A0FDB005207C6
:1013EC00DB08134390E643460B4300D109E7434621
:1013FC004246C9085B0755460B43D00866E6CC1A33
:10140C00A14289413F1A4942554601267F1A7EE581
:10141C0042465C1A871AA34292415242BF1A3A02C0
:10142C003DD5CC1AA1428941434649421F1A554623
:10143C007F1A95E57B07C9080B43F80843E6444639
:10144C00DB080C4330D142071343C0085CE67B0732
:10145C00C9080B43F80839E65C189C429B41404490
:10146C005B42C7183B0200D425E61D4B01261F40EA
:10147C0021E60400203AD4406246202A04D04022BF
:10148C006646921B904003435A1E93411C437EE6D2
:10149C005C188C428941404449424718DDE62300E0
:1014AC003B4300D1ADE606E6440723438024C00845
:1014BC002403204208D04246D608264204D1554681
:1014CC003000CB0851070B435A0FDB00DB085207E7
:1014DC00134319E60023014A1F005EE5FF070000D5
:1014EC00FFFF7FFFF0B557464E464546DE46E0B55A
:1014FC00814605000C03480092461F0085B0240B62
:10150C00400DCE0F002800D156E1D44B984200D1AB
:10151C0072E16B0FE4001C4380231B0423439846A9
:10152C00CF4BED009B4600239946834400933C032C
:10153C007B005046240B5B0DFF0F002B00D11FE1ED
:10154C00C64A934200D162E1C549420F8C46E40081
:10155C0059461443802263441204CB1A14439B460D
:10156C00C200002033007B409A464B460F2B27D8F5
:10157C00BC499B00CB589F46B246009B022B16D011
:10158C00032B00D18EE2012B00D0D9E000230024E4
:10159C00002552461B052343D2071343280019008C
:1015AC0005B0F0BCBB46B246A946A046F0BD00242F
:1015BC000025AA4BEDE7BA46A04615000090DCE7E3
:1015CC00444500D2C7E100D1C2E101235B429C46F5
:1015DC002E0040460025E3442302140E1C431B0C32
:1015EC00994623041F0C1202494600920197FEF7FC
:1015FC002FFE02007A430B04310C804619438A42B9
:10160C0007D901235B429C460919E0448C4200D85F
:10161C0007E2881A4946FEF71BFE09048C46310482
:10162C006646019A090C4243030031438A4204D9AD
:10163C000919013B8C4200D8EDE1881A424612048C
:10164C001A4390464146009B0E041B0C1F0002934C
:10165C00009B360C1B04190C0B007343120C7E43BD
:10166C00039151437A431F0CBC4676186644B14231
:10167C0003D9802149028C466244310C8A1831040A
:10168C001E04360C8E19904202D312D1B54210D2E0
:10169C004346591E009B9C4665441F009D429B413E
:1016AC005B421B19C018844200D2A0E100D19BE11F
:1016BC008846AE1BB542AD41801A6D42401B844238
:1016CC0000D1D5E14946FEF7C3FD019A0B04424314
:1016DC00310C050019438A4200D96CE1881A49463D
:1016EC00FEF7B6FD019A360442430904360C03009A
:1016FC000E43B24200D953E10398B61A02002D04EE
:10170C001D43029F2B041B0C5A437B439C46290C04
:10171C004843130C844463447943984203D9802092
:10172C00400284466144180C12041B04120C41182C
:10173C009B188E4200D2FFE000D1FAE001231D433A
:10174C00494A5A44002A00DCAAE06B0700D03DE16C
:10175C00ED084346DB0106D54246444B1A40904601
:10176C008022D2005A44424B9A4200DD1FE7434686
:10177C005B071D43434652055C02240B530D08E7DF
:10178C005246224300D17BE0002C00D1FAE020002D
:10179C0001F022FA02000B3A1D2301009B1A52465B
:1017AC000839DA408C40144352468A40314B584435
:1017BC009B4683440020D5E64B462343984644D0B1
:1017CC00002C00D1CEE0200001F006FA010002004E
:1017DC000B391D235B1A49461000D9400838844048
:1017EC000B004D462343984685402348831A9B465D
:1017FC000023994600939AE64B46234398461DD105
:10180C0008239946063B0025834600938FE65246F3
:10181C00224309D1022349461943184B89469C4659
:10182C0000240220E3449DE603234A461A43134B4B
:10183C0091469C4652460320E34493E60C2399467A
:10184C00093BA0468346009371E604239946002386
:10185C009B4601330025009369E6C046FF07000054
:10186C0001FCFFFFF0940108FF030000FFFFFFFEE7
:10187C00FE070000F30300000DFCFFFF01F8FFFF63
:10188C004946012319438946002401206AE60023B6
:10189C0080249A4600258A4B24037AE601256D4262
:1018AC0001239B1A382B00DD70E61F2B00DCBFE0F8
:1018BC001F2149428A1A4146D1400A00202B04D0EC
:1018CC004146804B5B4499400D436B1E9D41072361
:1018DC002A431D0000241540134200D1D4E00F21EF
:1018EC0000231140042900D1CBE0111D91429241FB
:1018FC0052429B180A00190200D4C2E001230024B2
:10190C00002546E6802341461B03194208D01C42A1
:10191C0006D11C432403BA461500694B240B38E648
:10192C008024434624031C432403B246644B240BFB
:10193C002FE6002B00D103E7A619681EA64200D2A1
:10194C008DE08E4200D2A3E000D1B3E00500F5E6B5
:10195C00AA4200D939E64346DE0758086B081E43F5
:10196C00ED0739E6484601F037F901000200153160
:10197C0020321C2900DC2CE74B460838834000251C
:10198C00984632E701F028F903001A00153220308E
:10199C001C2A00DC00E75446083B00229C4005E76B
:1019AC003619013BB44200D9A6E6B24200D8A3E6F0
:1019BC00831E3619A0E60919013D8C4200D98DE62B
:1019CC008A4200D88AE6851E091987E60F232B4028
:1019DC00042B00D1BCE605235B42AB429B41043592
:1019EC005B42ED089844B4E6AF4200D960E682420F
:1019FC0004D800D05CE6AE4200D859E602235B4224
:101A0C009C46009BE0449C4665449D429B415B4246
:101A1C001B19C0184DE68A4200D80EE6831E091920
:101A2C000BE68A4200D8F4E5831E98460919F0E5C6
:101A3C002549280059448D4042468A40691E8D41F3
:101A4C004146D840D94002432A430B00510700D1EC
:101A5C0051E70F211140042900D046E74BE7050060
:101A6C008E4200D06AE6009A934200D066E667E6A2
:101A7C00164A5A44002A00DC10E70123002598443A
:101A8C0067E65D075B021C0BD2080023154380E55B
:101A9C000098023D42008242BF417F423C193619F8
:101AAC000092DDE78024434624031C432403044BAB
:101ABC00240B6EE5009A9A42EAD30500D3E7C046A0
:101ACC00FF0700003E0400001E040000FF0300009E
:101ADC00F0B54E464546DE4657469046E0B51700F3
:101AEC001A03120B0500844619480E034C0091464C
:101AFC005A00DB0F9B46360B640DC90F520D844206
:101B0C0019D0824210D0012094420ED14E450CD1F6
:101B1C000120C44509D1594517D0002C05D13000FE
:101B2C002843431E984100E00120F0BCBB46B2465E
:101B3C00A946A046F0BD330001202B43F5D1A242AB
:101B4C00F3D14B463B43F0D1E2E70020EDE7C04632
:101B5C00FF070000F0B54746CE46040018001600FB
:101B6C001B031B0B2D4D4A00994680B543000F03F8
:101B7C00A446B0463F0B520DC90F5B0DC00FAA42D5
:101B8C0021D0AB4213D0002A22D13C43002B02D1EE
:101B9C004D462E4322D0002C10D0814222D0022060
:101BAC00013908400138C0BCB946B046F0BD4D46BD
:101BBC002E4329D1002AF0D13C43EED10028F2D19A
:101BCC0001204042EFE73D0025431DD19342EED06A
:101BDC00002BE2D14C462643DFD1E0E70020002C5D
:101BEC00E1D0DCE79A420ADCE8DB4F45D7D80ED0CF
:101BFC0000204F45D7D20029E2D00800D3E743425A
:101C0C00584140000138CEE702204042CBE7C445A2
:101C1C00C5D80020C445C6D2EDE7C046FF0700007A
:101C2C00F0B54746CE460400180016001B031B0BEC
:101C3C002C4D4A00994680B543000F03A446B0468C
:101C4C003F0B520DC90F5B0DC00FAA420DD0AB421A
:101C5C0010D0002A27D13C43002B11D14D462E43E6
:101C6C000ED10020002C15D00EE03D00254310D1E4
:101C7C00934218D14D462E430BD1002A02D13C433E
:101C8C00002C0BD0814214D00220013908400138BD
:101C9C0000E00220C0BCB946B046F0BD0028F9D126
:101CAC0001204042F6E7002BECD14C462643E9D10B
:101CBC00EAE79A4204DD4342584140000138E9E723
:101CCC009A42EBDB4F45DFD806D000204F45E1D2DE
:101CDC000029E5D00800DDE7C445D5D80020C4456F
:101CEC00D8D2F5E7FF070000F0B557464E464546FB
:101CFC00DE46E0B598460C034B000600924687B0D2
:101D0C00240B5B0DCF0F002B00D15CE1D94A934221
:101D1C0000D175E1420FE4001443802212041443F5
:101D2C00D54AC500944663440093002399469B46CC
:101D3C00434642461E03D20F5B0050469046360B7C
:101D4C005B0D00D120E1CB4A934200D162E1CA493C
:101D5C00420F8C4600996344F6008C461643802251
:101D6C009C44120463461643C20000200093009961
:101D7C00434601318C4649467B4001930F2926D8B6
:101D8C00BE4B890059588F464346019334001500C9
:101D9C0083465B46022B16D0032B00D103E2012BAA
:101DAC0000D0CDE0002200240025019B1205224327
:101DBC00DB071A432800110007B0F0BCBB46B24643
:101DCC00A946A046F0BD00240025AA4AEDE7280C40
:101DDC002D042D0C2B00110C1204120C534398469D
:101DEC0013002F00434399464F434F44BB4647468D
:101DFC000B003F0CBA464343DA440293D14504D955
:101E0C0080277F02B9464B44029353461B0C9B46DA
:101E1C0053461F0443461B041B0C98463B0043448B
:101E2C000493330C3604360C9846330043439946DE
:101E3C00434643432F009A46434677435D43380C51
:101E4C004D444519A94503D980235B029946CA44E0
:101E5C003F04280C3F0C2D04ED19270C2404240CF2
:101E6C000300200050437A4391463A0053440593B3
:101E7C00030C9A464A43614349445144AB44894557
:101E8C0003D980235B0299464A4400040B0C000CD6
:101E9C000904091820009946434670435C437E436D
:101EAC005F43030C9846A41944444A440397A64242
:101EBC0004D980235B029846474403972304029E6F
:101ECC009A46059B5E449846AE42AD4176188E42CA
:101EDC0089410004000C504440446D424719B846F7
:101EEC00934649428946C344D94498428041A84507
:101EFC00AD4193459241894589416D424042284309
:101F0C00240C524249420A43039B00198018C718FB
:101F1C004B46DC0D049B75021D436A1E95414B46D6
:101F2C00F60D7F0235435A023C431543FB0100D4A6
:101F3C001CE101216A080D401543E20715436408B2
:101F4C004F496144002900DCB0E06B0709D00F2237
:101F5C002A40042A05D02A1DAA42AD416D426419BB
:101F6C001500E30104D58021464AC90014406144A0
:101F7C00454A914200DD26E76207ED0864024905F7
:101F8C001543240B4A0D10E75246324300D17FE033
:101F9C00002E00D1DCE0300000F01EFE02000B3AF7
:101FAC001D2301009B1A52460839DA408E40164315
:101FBC0052468A40009B3549181A03008C466344EC
:101FCC0000200093D3E6250005434AD0002C00D115
:101FDC00B0E0200000F000FE010002000B391D23D0
:101FEC0010005B1A3100350008388440D940854018
:101FFC000C432648831A0093002399469B4697E688
:10200C000500254326D10822009302230024914683
:10201C009B468DE65246009B324310D11549002653
:10202C008C46634449460093022319438946022097
:10203C009DE65B460197022B00D0ADE6C3E60D4A48
:10204C000320944663444A46009303231A43914663
:10205C0052468CE60C2200930323050091469B46C6
:10206C0066E60423994600230093013300249B4623
:10207C005EE6C046FF07000001FCFFFF309501083B
:10208C00FF030000FFFFFFFEFE0700000DFCFFFF3B
:10209C0049460123194389460026012067E600239F
:1020AC0080240025434A019324037EE60120401A34
:1020BC00382800DD76E61F285BDD1F222300524204
:1020CC00511ACB401900202803D03B4A624494405B
:1020DC0025436A1E95412A000A4307210D0000245E
:1020EC00154011425BD00F2100241140042953D01C
:1020FC00111D914292415242A4180A0023024BD561
:10210C0001220024002550E680231B031C4209D029
:10211C001E4207D133431C0343461500240B254AAA
:10212C00019342E68022120314432403214A240B18
:10213C0001973AE600F050FD010002001531203203
:10214C001C2900DC4BE7340008380025844050E79C
:10215C0000F042FD03001A00153220301C2A00DC6E
:10216C001EE75646083B00229E4023E7009B9C46F8
:10217C00E6E61249220061442E008D408A40C6409A
:10218C00691E8D4132432A43C4405307B6D00F21F8
:10219C0011400429ACD1B1E765076402240BD208C5
:1021AC001543002201E68022120314432403014A42
:1021BC00240BFAE5FF0700003E0400001E0400009B
:1021CC00F8B557464E464546DE46E0B51E001700AC
:1021DC004A000B03520D5B0A9046420F1A43CD0F77
:1021EC00CD4C3103C300944670007A0F490AFF00AE
:1021FC009A46B946400DF60F1143A04200D1B1E00A
:10220C0001225640B346B54200D188E04246121A2C
:10221C00002A00DCAEE0002800D1C1E0BE488045B9
:10222C0000D151E1802000040143382A00DD7BE11C
:10223C001F2A00DDEEE120203E00801A0C00D64063
:10224C00D140874062468440521A781E874194469A
:10225C0034432743DC1BA3429B4162465B42D31AA7
:10226C0099464B461B0200D418E14B465802430AD0
:10227C0099464B46002B00D137E1484600F0ACFCA8
:10228C00010008392023220048465B1ADA408840B6
:10229C008C4043461043884500DD36E1C91A4B1C7F
:1022AC001F2B00DDEAE020222600D21A0100944008
:1022BC00DE40D84000239140621E944181469846EE
:1022CC0031430C43630709D00F232340042B05D063
:1022DC00231DA342A4416442A1441C004B461B0293
:1022EC0000D4DEE041468C4B0131994200D1E7E04D
:1022FC004B468A48E4080340180049055B07400236
:10230C0023434A0D040B1205ED0722432A43180000
:10231C001100F0BCBB46B246A946A046F8BD4246E9
:10232C00121A002A52DD002800D19CE0A04500D1F1
:10233C00CAE0802000040143382A00DD49E11F2A4D
:10234C0000DC97E110000E002038C640202A04D093
:10235C004020821A91400F43B9464C46621E94416C
:10236C0034433AE10A003A4328D0B346B5422BD065
:10237C006B4A4244002A5DD042464446821A002CE5
:10238C0000D0F5E065461D4300D19CE1551E012AA5
:10239C0000D1FBE1604CA24200D1BDE12A00F0E08B
:1023AC000800384300D1C3E0501E012A00D1A8E137
:1023BC00594CA24200D187E0020036E70122564078
:1023CC00B346B54200D021E7554A4244002A00D119
:1023DC00B5E042464446821A002C00D138E14E4EFC
:1023EC00B04200D1DEE18026644636043443A44674
:1023FC00382A00DD96E11F2A00DD24E22026B41ADB
:10240C00A24664465646B440A1461C004E46D440F3
:10241C00264334005646B3405E1EB3411C4363460C
:10242C00D340C918E419BC42BF417F42B94680462B
:10243C008944D8E040463B4C0130204200D0B4E007
:10244C004046002800D044E16046184300D190E19A
:10245C000800384300D0AAE16146DB0849070B436A
:10246C006146CC0827E00800384361D0501E012A91
:10247C0000D139E1A24227D002005DE702001F39EA
:10248C00CA401100202B03D04022D31A9840044399
:10249C00631E9C410023994698460C43630700D069
:1024AC0012E74B464A46E4085B072343D4084246EE
:1024BC0019498A420ED024035205240B520D22E7EF
:1024CC000A00002400231EE7DB0862465207134370
:1024DC006246D4081A00224300D1FCE18022120388
:1024EC00144324030C4A240B0DE7200000F074FB6A
:1024FC00010018311F2900DCC4E60838844043462B
:10250C0020000024884500DCC8E6044A5B1A104011
:10251C0098468146D6E6C046FF070000FFFF7FFFC6
:10252C0001F8FFFFFE0700000F437A1E974191E66A
:10253C006146DB0849070B436146CC08B8E74046C7
:10254C00D34C0130204200D0A2E04046002800D0FD
:10255C0001E16046184300D15EE10800384300D029
:10256C005FE16146DB0849070B436146CC08A2E7F3
:10257C00C84DA84200D1CFE0802564462D042C43E1
:10258C00A446382A56DC1F2A00DDD1E020251E0087
:10259C00AD1A6446AB40AC40D6405D1EAB413443F3
:1025AC0023436446D440091B49E06046DC1B461AB1
:1025BC00A34280414042814630004E46801B8146FA
:1025CC00000276D44B46234300D052E6002400256B
:1025DC0071E739430C00621E9441E4189C429B4104
:1025EC005B42634499464B461B0200D456E70123D9
:1025FC009C46A84BE044984538D04B46A64801224F
:10260C0003401800630814401C43C3071C434308D1
:10261C00994657E610000E002038C640202A04D0F8
:10262C004020821A91400F43B9464F467A1E97417B
:10263C0037430FE662461A4313005A1E9341FC1AA5
:10264C00A742BF417F42CB1B99465D46804608E6B8
:10265C0066461E4300D1BEE0561E012A00D109E198
:10266C008C4CA24200D119E13200C1E64246002452
:10267C00002348E620200C00801A3E00874084404E
:10268C00D640781E8741D14034433C438C44A4E768
:10269C00804A904200D1E9E0DF199F429B4161449E
:1026AC005B42C918CC077F084B08994680463C43CF
:1026BC00F4E6FC1AA742BF4163467F42C91ACB1B02
:1026CC0099465D46D5E5FF084B075D463B43CC0874
:1026DC00EEE662461A4300D082E00B003B431BD16E
:1026EC00802400252403F9E6DC199C429B416144BB
:1026FC0089465B4299444B461B0244D401239846BD
:10270C00CCE6DC1B6246A3429B41511A5B42CB1ABE
:10271C00994601239846A4E5FF084B075D463B43C9
:10272C00CC08D7E662461A431400631E9C4179E636
:10273C0015006446203DEC40A046202A05D04025DB
:10274C006446AA1A944023439A465446631E9C41FD
:10275C004346234373E762461A4323D00A003A43A5
:10276C0000D0A0E06246DB08520713436246D4084F
:10277C00B0E60B003B4300D128E7FF084B075D4652
:10278C003B43CC0897E60223984636E7FC1AA7424F
:10279C00BF4163467F42C91ACB1B994601235D4654
:1027AC0098465EE54B07FF083B43CC0892E6DC1BE2
:1027BC006046A342B641401A7642801B8146000215
:1027CC0060D5FC1AA742BF4163467F42C91ACB1B96
:1027DC0099465D4676E5FF084B073B43CC0867E618
:1027EC000A00DB083A4300D16FE6624652071343F6
:1027FC006246D40880221203144207D0C808104243
:10280C0004D15D460400FB0849070B435A0FDB005B
:10281C00DB08520713435DE64B07FF083B43CC082C
:10282C0049E6DC199C429B41614489465B429944D0
:10283C004B461B0200D431E64A46174B1A40012383
:10284C00914698462AE616006446203EF440A0467F
:10285C00202A05D040266446B21A944023439A4657
:10286C005446631E9C4143461C43DBE50200002496
:10287C00002348E5DC19BC42BF41614489467F42D4
:10288C00B94438E74B46234300D19FE606E6C046E1
:10289C00FE070000FF070000FFFF7FFFFF084B074C
:1028AC003B43CC0816E66246DB08520713436246EC
:1028BC00D40880221203144207D0C808104204D155
:1028CC005D460400FB0849070B435A0FDB00520717
:1028DC00DB081343FEE50023014A1C0013E5C04648
:1028EC00FF07000070B505000C481C0316005B00C8
:1028FC000A034900120B490D240B5B0D814208D0D1
:10290C00064A0020934203D120003043431E9841D5
:10291C0070BD01202A43FBD1F2E7C046FF0700003F
:10292C000A0030B5134C530009030500090B0020B5
:10293C005B0DD20FA34204DD0F48834202DD0F4B27
:10294C00D01830BD8020400301430D48C01A1F2809
:10295C0008DD0C48C31AD9400B005842002AF0D1AC
:10296C001800EEE7084CC540A446634499400B00A0
:10297C002B43F2E7FE0300001D040000FFFFFF7F66
:10298C003304000013040000EDFBFFFF70B50028BA
:10299C0016D0C317C5185D40C40F280000F01CF9F1
:1029AC00114A121A0A2816DC03002E0015339E4019
:1029BC000B23181AC54052052D032D0B530D03E0A4
:1029CC0000240023002500261B052B43E40723438A
:1029DC003000190070BD0B38854052052D030026C0
:1029EC002D0B530DF0E7C0461E04000010B5041E5D
:1029FC0010D000F0F1F80F4B1B1A0A2811DC0B2237
:102A0C002100121AD14015300A035B058440120BC9
:102A1C005B0D01E0002300221B051343200019006D
:102A2C0010BD22000B3882405B0512030024120BF0
:102A3C005B0DF1E71E04000070B543004602C40FA5
:102A4C00FE201B0E591C750A08420CD0E022920085
:102A5C0094466D07360B63441B053343E40723434D
:102A6C002800190070BD002B14D1002D1BD028009C
:102A7C0000F0B2F80A281CDC0B232E001B1ADE40D7
:102A8C00030015339D400E4A3603121A5205360BBD
:102A9C00530DE1E7002D09D08022360B1203094BB0
:102AAC006D071643D8E700230026D5E70026054B13
:102ABC00D2E703000B3B9D402E000025E3E7C04608
:102ACC0089030000FF07000002004B00F0B55B0D0E
:102ADC000C033D4E640A400F5F1CC90F0443D50024
:102AEC0037420AD039481E18FE2E16DDFF2000246E
:102AFC00C0052043C9070843F0BD002B06D12C4369
:102B0C0026D005229201540AD8B2F1E72543EDD024
:102B1C008020C0030443FF20EAE7002E1BDD920156
:102B2C00531E9A41E4006D0F22432A43530748D0A9
:102B3C000F231340042B00D004328023DB041340FA
:102B4C003FD0701CFE2ED1D09201540AC0B2CFE7F8
:102B5C0000200024CCE73200173222DB8020000456
:102B6C0020431E24A41B1F2C1DDD02225242961B47
:102B7C000200F2401600202C04D0154A94466344FF
:102B8C00984005432A00531E9A41324300265307AE
:102B9C00CED180241300E404012023402242D3D15F
:102BAC00B0E70023ADE70B4A94462A00E24014003C
:102BBC002A0063449A409840551EAA41024322437E
:102BCC00E4E733009EE7C046FE07000080FCFFFFF1
:102BDC00A2FCFFFF82FCFFFF1C2101231B04984277
:102BEC0001D3000C10391B0A984201D3000A083992
:102BFC001B09984201D30009043902A2105C401849
:102C0C007047C046040302020101010100000000EC
:102C1C000000000011281FD005281FD019281FD034
:102C2C0007281FD008281FD017281FD00F281FD007
:102C3C000E281FD01A281FD01B281FD018281FD0D1
:102C4C000A281FD009281FD013281FD0062801D00E
:102C5C00472002E0403000E0462070474620FCE769
:102C6C004620FAE74620F8E74620F6E74620F4E748
:102C7C004620F2E74620F0E74620EEE74620ECE758
:102C8C004620EAE74620E8E74620E6E74620E4E768
:102C9C00431E16205843014B185C70472C0900202A
:102CAC00F0B5C64600B507000D0090461C0006ABFB
:102CBC001878FFF7EDFF060038000CF043FB0028F6
:102CCC002AD0BB00194A985821000CF0FBFC0028B4
:102CDC002AD13000FFF79EFF472802D0002401269E
:102CEC0016E038000CF02EFB4246290010F0AFFF26
:102CFC00060012E038000CF025FB0122290010F030
:102D0C00A6FF0600013502200EF050FC0134E4B29F
:102D1C00A3B24345EED300E001260A200EF046FC98
:102D2C00300080BCB846F0BD0126F6E7A4160020A2
:102D3C0070B582B0204B1B889BB2204A93420BD0BB
:102D4C001A0A1F490A7002D10A00012111701D4A8A
:102D5C0013700124022023E0194B01221A70194B25
:102D6C0000221A70FA2024E0134BC318651E6A4621
:102D7C00D1791E88AB005B195B005B19CB185B002B
:102D8C001149CE52023080B2D3790133DBB2D37108
:102D9C006B4607331B78DBB20A2BE5D90134E4B25E
:102DAC00074B1B78A34203D36B460022DA71EFE783
:102DBC00002002B070BDC04600D80108FFFF000023
:102DCC00240000201E0F00202C09002070B50124C7
:102DDC00002501E00134E4B2084B1B78A3420AD36E
:102DEC00611E4900064BC918601C0AF0A3F8192C87
:102DFC00F0D90A25EEE7280070BDC046240000205B
:102E0C00CC210020F0B583B06B460022DA8000267E
:102E1C00002526E028001C3080B26B46991D0AF074
:102E2C0089F86B46D8889B799C46124AB3009F1947
:102E3C007900511867460F55671E010A9B195800F7
:102E4C001218D1550135ADB20234E4B2092CE1D9D6
:102E5C00B3009B195A00074B9B1800225A7201367B
:102E6C00F6B2054B1B78B34201D30124EEE70020E8
:102E7C0003B0F0BD100E002024000020F0B583B08C
:102E8C006B460022DA80002400250BE063001F490A
:102E9C00C9182800CB3080B20AF04CF80135ADB21D
:102EAC000134E4B21A4B1B78A342EFD8002626E07B
:102EBC002800993080B26B46991D0AF03BF86B469E
:102ECC00D8889B799C46134AB3009F1979005118F6
:102EDC0067460F55671E010A9B1958001218D155E9
:102EEC000135ADB20234E4B2092CE1D9B3009B191F
:102EFC005A00084B9B1800225A720136F6B2092E62
:102F0C0001D80124F0E7002003B0F0BD3C0D0020F7
:102F1C0024000020D80C002070B584B00E21694428
:102F2C0000230B8003AA1380E4200AF003F8002886
:102F3C0000D075E00E236B441D780E216944E5200A
:102F4C0009F0F8FF040003A9E62009F0F3FF04439D
:102F5C00A4B2002C00D065E00E236B441E8836040E
:102F6C0003AB1B88F6180E216944E72009F0E2FF39
:102F7C00040003A9E82009F0DDFF0443A4B2002CEF
:102F8C0052D10E236B441C88240403AB1B88E41819
:102F9C000E216944E92009F0CDFF002807D10E234A
:102FAC006B441B88190A2C4A11702C4A13700E2181
:102FBC006944EA2009F0BEFF002807D10E236B44B8
:102FCC001B88190A264A1170264A13700E2169446F
:102FDC00EB2009F0AFFF002807D10E236B441B88B0
:102FEC00190A214A1170214A13701B4B1B78002BB4
:102FFC0003D01A4A1278002A18D1194B1B78002BCF
:10300C0003D0184A1278002A17D1174B1B78002BC3
:10301C0003D0164A1278002A16D1002004B070BDD5
:10302C0000258AE700269EE70024B1E700922200E3
:10303C003100280004F096FCDFE7009222003100FA
:10304C00280004F08FFCE0E70092220031002800F9
:10305C0004F088FCE1E7C046F20F0020D50C0020FC
:10306C00F30F0020D60C0020F40F0020D70C00200A
:10307C0010B582B08A206B46991D400009F05AFFAA
:10308C00002800D078E06B469A1DDB881178564AF0
:10309C0011701B0A53708E206B46991D400009F06D
:1030AC0049FF002800D06EE06B46DB88DA0B4E49F6
:1030BC000A715B08CB8016206B46991DFF3009F016
:1030CC0039FF002800D065E06B46DA88474B1A8040
:1030DC008B206B46991D400009F02CFF00285ED117
:1030EC006B46DA88414B5A8018206B46991DFF308D
:1030FC0009F020FF002857D16B469A1DDB88117808
:10310C003A4A11711B0A53718C206B46991D400071
:10311C0009F010FF04001A2001A9FF3009F00AFF82
:10312C000443A4B2002C46D16B4606331B8801AA7B
:10313C001288120413432D4A93608D206B46991DFF
:10314C00400009F0F7FE002843D16B469A1DDB883E
:10315C001178264A11731B0A53731C206B46991D58
:10316C00FF3009F0E7FE002839D16B469A791F4BE6
:10317C009A76002002B010BD1D4A11781A4B1970B6
:10318C0052785A7087E71A4A1179174B1971D288FD
:10319C00DA8090E7174B1A88144B1A8098E7154B76
:1031AC005A88124B5A809FE7124A11790F4B1971AA
:1031BC0052795A71A8E7104B1B78002B04D00B4B9B
:1031CC00E12252029A60B8E70A4B9A68074B9A6060
:1031DC00B3E7064B18225A7300221A73BDE7054B4E
:1031EC009A7E024B9A76C4E714030020F802002062
:1031FC00000000200800002099030020F0B589B0E1
:10320C001E236B4400221A80002401E00134E4B236
:10321C00052C5DD825003B35AD00ADB21E216944AF
:10322C00280009F087FE0028F0D11E236B441B8870
:10323C00180A190B621C9142E8D10F210F000740AC
:10324C000142E3D0D600B218234EB6187770337211
:10325C00681C80B21E236B44190009F06BFE6B4690
:10326C00DB8B1A0AB2707371A81C80B21E236B44DC
:10327C00190009F05FFE6B46DB8B1A0AF270B37112
:10328C000335A8B21E236B44190009F053FE6B469C
:10329C00DB8B1A0A3271F371651CEDB27078290060
:1032AC000AF022FB317A4A08B3780120024001402F
:1032BC0000200590F0790490B07903907079029019
:1032CC0030790190F078009028000AF025FC9DE7F9
:1032DC00002009B0F0BDC0464C200020F0B5D64609
:1032EC004F4680B583B0322011F02AFA061E68D002
:1032FC00364B1B78FE2B66D10027344C4AE02278E3
:10330C00F2540133DBB20134132BF8D9BA46BB00AB
:10331C00DB199B002E4A99469144711C1422484695
:10332C0011F030FA14220021300011F034FA143468
:10333C00002503E0735501340135EDB20194237877
:10334C00FD2B01D8312DF5D97319013B1B78002BBE
:10335C0001D00135EDB2280011F0F2F953469B0073
:10336C0053449B001A4AD318D860002816D02A0060
:10337C00310011F007FA174A1378013313702A0041
:10338C000021300011F007FA019B1B78FE2B0FD1A6
:10339C000137FFB2042F0BD80023B5E7142200210C
:1033AC00484611F0F8F9300011F0D4F90E2003E082
:1033BC00300011F0CFF9002003B0C0BCBA46B146C2
:1033CC00F0BDFB20F8E7FF20F6E7C04600DC010863
:1033DC00FC100020C710002010B5FFF7A9FCFFF768
:1033EC00F5FCFFF70FFDFFF749FDFFF795FDFFF724
:1033FC003FFEFFF703FFFFF771FF10BD70B501240F
:10340C00002505E0601C09F047FE0BE00134E4B236
:10341C00074B1B78A34209D3631E5B00054A995ADC
:10342C000029EFD1192CF1D90A25EFE7280070BD3E
:10343C0024000020CC210020F8B50025002617E040
:10344C00601EBA00D2195100114B5B18195C0902AD
:10345C001B5DC91889B230001C3080B209F01CFE0B
:10346C000136B6B20234E4B2092CE9D90135EDB219
:10347C00084B1B78AB4209D32F00AB005B195A00E9
:10348C00034BD35C002BF1D00124EDE70020F8BDF9
:10349C00100E002024000020F8B5DE4657464E469C
:1034AC004546E0B50F0016001C000AAB1B789B4686
:1034BC000BAB1B789A460CAB1B7899460DAB1D7861
:1034CC000EAB1B7898460100E42009F0E5FD390AA3
:1034DC0089B2E52009F0E0FDB9B2E62009F0DCFD87
:1034EC00310A89B2E72009F0D7FDB1B2E82009F022
:1034FC00D3FD2102594489B2E92009F0CDFD534690
:10350C001902494489B2EA2009F0C6FD2902414456
:10351C0089B2EB2009F0C0FD0020F0BCBB46B246DE
:10352C00A946A046F8BD000010B51F4C63785B019E
:10353C00217819438A20400009F0AEFD2379DB0382
:10354C000622A15E194389B28E20400009F0A4FD29
:10355C00164C21881620FF3009F09EFD61888B20C7
:10356C00400009F099FD63791B02217B1943182057
:10357C00FF3009F091FD21898C20400009F08CFD71
:10358C0061891A20FF3009F087FD637B1B022179CA
:10359C0019438D20400009F07FFDA17E1C20FF30D7
:1035AC0009F07AFD002010BD14030020F802002061
:1035BC0070B5342200210E4811F0EDF801240025DD
:1035CC0005E0601C09F068FD0BE00134E4B2094B26
:1035DC001B78A34209D3631E5B00054A995A002944
:1035EC00EFD1192CF1D90A25EFE7280070BDC046A0
:1035FC00CC2100202400002010B5074B1A68074B83
:10360C009A4200D110BD09F05DFD0028FAD1024BA1
:10361C00024A1A60F6E7C046F07F0020ADDEEFBE2E
:10362C0030B58FB004AB009307AB12226A4408A9E3
:10363C0001200AF013F803AC009405AB0E226A4487
:10364C0006A902200AF00AF801230A9300250B951B
:10365C006B465B8A099309A908980FF013FA0A952F
:10366C0002230B932388099309A905980FF00AFAF2
:10367C006B46598A002208980FF059FB05200BF075
:10368C00C1FC218805980FF04BFB041E03D00024CD
:10369C0020000FB030BD12236B441988012208980A
:1036AC000FF045FB05200BF0ADFC03AB198805981A
:1036BC000FF036FB0128EBD10400E9E770B50500EB
:1036CC000024032C10D863001B199B00074AD31845
:1036DC0099682800FCF710FD002802D00134E4B2F0
:1036EC00EFE70134E0B200E0002070BD8C00002058
:1036FC0070B504000025052D26D81A492000FCF7CA
:10370C00FBFC002822D018492000FCF7F5FC00280F
:10371C001ED016492000FCF7EFFC00281AD01449E3
:10372C002000FCF7E9FC002816D012492000FCF719
:10373C00E3FC002812D010492000FCF7DDFC002827
:10374C000ED00135EDB2D6E7002070BD0120FCE7AC
:10375C000220FAE70320F8E70420F6E70520F4E757
:10376C000620F2E770950108749501087895010818
:10377C007C950108809501088495010870B50BF0C3
:10378C00F3FA0BF097FB09F001FD09F0EBFE08F0E2
:10379C009BFC0BF0C3FB09F0DBFA0BF0F1FB09F01F
:1037AC00B9FF002811D1FFF73BFF002843D0364B5F
:1037BC0001221A7032200BF025FC07F053FC334B1E
:1037CC00E12252029A60012411E0FFF715FFBFF3CA
:1037DC004F8F2F4B2F4ADA60BFF34F8FC046FDE758
:1037EC002A4B996820000BF01BFE0134E4B2052C27
:1037FC00F6D9FFF7F1FD0BF09FFE09F00DFA264B01
:10380C001B78002B1DD180252D019024E40501226D
:10381C00290020000FF08BFAFA2040000BF0F2FB8D
:10382C000022290020000FF082FA03F05BFD1B4BF5
:10383C0001221A7070BD32200BF0E4FB07F012FC71
:10384C00D7E780252D019024E405012229002000D2
:10385C000FF06DFAFA2040000BF0D4FB0022290087
:10386C0020000FF064FA64200BF0CCFB012229003D
:10387C0020000FF05CFA64200BF0C4FB002229003E
:10388C0020000FF054FAD0E799030020F802002032
:10389C0000ED00E00400FA051E0F00201C030020C0
:1038AC0010B50DF065FE07F007FAFFF767FF03F0A0
:1038BC0035FD0BF0E4FE10BD30B583B005000124DE
:1038CC0013E00E4B1A88110A0D4B19705A709C702C
:1038DC0003230093073300220021200004F056F943
:1038EC000A200BF0D1FE0134E4B2052C02D8AC4214
:1038FC00E7D1F8E7002003B030BDC04658000020E7
:10390C00E00D0020F0B5DE4657464E464546E0B584
:10391C0083B000AF444B1B780733DB08DB006A46EF
:10392C00D31A9D466D46002306E00022EA545C0043
:10393C003E4962520133DBB23B4A12789342F4D3D4
:10394C00013801232B54012201E00132D2B2062AA4
:10395C0019D883001B185B001B189B185B0034499B
:10396C005B5A002BF1D0541E0121A1400C002F4EAC
:10397C0041008C46895B21436446A153DB08013B23
:10398C000221E954E1E702239B465E460136F3B27D
:10399C009B4600239C4600222EE00130C0B2062834
:1039AC0028D8A3001B195B001B191B185B002049AE
:1039BC005B5A002BF1D0DB08013B7B60E95C0029F2
:1039CC00EBD10100013901268E40B04617498946DA
:1039DC0061008A4649465646715A464631434E4620
:1039EC00534699537B685946E95463460133DBB21D
:1039FC009C46D2E70132D2B20B4B1B789A4207D2CB
:103A0C001400A95C5B46013B9942F3D10120C6E747
:103A1C006346002BB9D10020BD4603B0F0BCBB46B9
:103A2C00B246A946A046F0BD240000206C0B002035
:103A3C002C09002070B504000B78002B03D10578FD
:103A4C000023002002E0FF25FAE70133064A127832
:103A5C009A4208DDE25CAA42F7D2CE5C002EF4D189
:103A6C00D8B21500F1E770BD24000020010000233E
:103A7C00012002E0CA5C10400133024A12789A42DB
:103A8C00F8DC704724000020F0B58FB005000E0064
:103A9C00002401942E22002102A810F07CFE1A2290
:103AAC000021484810F077FE2900013D464B5C553B
:103ABC00464B5C55012000E00130062816DCAB00BB
:103ACC005B195B005B191B185B00414A9B5A002B6E
:103ADC00F2D0DB08B2B29342EED1731E3A4A012106
:103AEC00D154384B1E70C0B20FB0F0BD012300E0B2
:103AFC000133384A12789A4209DB9942F8D05A1E9F
:103B0C003148FF248454314800248454F0E70024C5
:103B1C0001A8FFF7ABFF00280CD101A92A48FFF739
:103B2C0089FF0130C4B2B44204D0611E01AB012242
:103B3C005A5403E0002225E00132D2B2062AE7D81B
:103B4C008B005B185B005B189B185B0020481B5AB2
:103B5C00002BF1D0DB08DBB2013B01A8C05C0028D4
:103B6C00EAD1194F785C0130C0B2FF5C8742E3D9CF
:103B7C00154FF8541548C454DEE7531C11498C54A6
:103B8C00DAB20400631E1149C85C0028F5D1012289
:103B9C0000E00132062AA7DCAB005B195B005B1965
:103BAC009B185B000A495B5A002BF2D0DB08711E94
:103BBC00054C615C0139034C615C8B42E9D1D0B29C
:103BCC0092E7C046B4170020BC0F0020D80F00208D
:103BDC002C09002024000020F0B5C64600B582B0A8
:103BEC000600574C574B220023CB23C21968116097
:103BFC009B8893802000FCF789FA82B201235B42F8
:103C0C0000933333210030000BF0BAFB012413E096
:103C1C004B4D22004C49280011F07CFD2800FCF78C
:103C2C0075FA82B201235B420093333329003000D2
:103C3C000BF0A6FB0134E4B2052CE9D901235B425D
:103C4C00009333330322414930000BF099FB0027DA
:103C5C0032E007231340D2083D49394811F05AFD90
:103C6C00374B98461800FCF751FA82B201235B429D
:103C7C0000933333414630000BF082FB0134E4B245
:103C8C00052C0ED8AB005B195B005B191B195B0094
:103C9C00304A9A5A002ADCD12F49294811F03AFDB2
:103CAC00DEE701235B420093333302222B493000C1
:103CBC000BF066FB0137FFB2294B1B78BB4232D9A4
:103CCC003D007A1C1E4C2749200011F023FD2000DA
:103CDC00FCF71CFA82B201235B4298460093333303
:103CEC00210030000BF04CFB16237B43194A9B5AE6
:103CFC005900C91849001C4BC9180522200011F0A5
:103D0C005EFD4346009333330522210030000BF057
:103D1C0037FB4346009333330122144930000BF038
:103D2C002FFB0124ACE701235B42009333330122C8
:103D3C000F4930000BF024FB02B080BCB846F0BD3C
:103D4C004C0F0020889501089C950108E0A50108FE
:103D5C00B49501082C090020B0950108C096010803
:103D6C0024000020A4950108C89C0108989501081E
:103D7C00DCC70108F0B583B006002C4C2C4B22009C
:103D8C0023CB23C223CB23C21B6813602000FCF778
:103D9C00BDF982B201235B42009333332100300022
:103DAC000BF0EEFA012523E00134E4B20A2C1DD805
:103DBC006B1E5B001F4A9A5A611E80231B020B412B
:103DCC001342F1D0194F23002A001B49380011F07F
:103DDC00A1FC3800FCF79AF982B201235B420093F4
:103DEC003333390030000BF0CBFADDE70135EDB29F
:103DFC00124B1B78AB4201D30124D7E70B4C104B71
:103E0C00220023CB23C223CB23C203CB03C220002B
:103E1C00FCF77CF982B201235B420093333321001F
:103E2C0030000BF0ADFA03B0F0BDC0464C0F0020D3
:103E3C00BC950108CC210020D89501082400002055
:103E4C00EC950108F0B5C64600B582B080460BF083
:103E5C0037FD060000230370914B1A78914C924960
:103E6C00200011F057FC2100300011F073FC8F4B37
:103E7C001A788F49200011F04DFC2100300011F010
:103E8C0069FC06230093043B00228A49200011F0B0
:103E9C0041FC2100300011F05DFC874A874920006D
:103EAC0011F038FC2100300011F054FC844A854993
:103EBC00200011F02FFC2100300011F04BFC824B44
:103ECC00220023CB23C219681160998891809B79B9
:103EDC0093712100300011F03DFC01240DE0714B79
:103EEC007A4A116819609188998092799A716D4912
:103EFC00300011F02FFC0134E4B2052C38D8694D98
:103F0C0022007349280011F005FC2900300011F043
:103F1C0021FC704B1B5D042BE9D89B006E4AD358D7
:103F2C009F4660496D4B0A0023CB23C203CB03C2CF
:103F3C001B781370DBE75B4A694B23CB23C2D6E7B4
:103F4C005849684B0A0023CB23C223CB23C21B88BE
:103F5C001380CCE75349644B0A0023CB23C223CBF9
:103F6C0023C219681160998891809B799371BEE77F
:103F7C004C495E4B0A0031CB31C231CB31C23000DF
:103F8C0011F0E8FB01241BE0EB005B1BDB00584A43
:103F9C00D318586A07F0D0F80700AD00554BE85815
:103FAC0007F0CAF83F4D00903B0022005249280010
:103FBC0011F0B0FB2900300011F0CCFB0134E4B25D
:103FCC00062C12D8651EEB005B1BDB00484A9B5885
:103FDC00002BD9D1334D22004849280011F09AFB0F
:103FEC002900300011F0B6FBE8E73000FCF78EF842
:103FFC0030180322424910F0C5FB3000FCF786F85C
:10400C0030181D223F4910F0BDFB3000FCF77EF844
:10401C000700012401E00134E4B2052C16D8204B32
:10402C001B78013B5B00384A9A5A611E80231B02A5
:10403C000B411342EFD01B4D22003449280011F0E4
:10404C0069FB2900300011F085FBE4E73000FCF738
:10405C005DF83D042D0CA8420ED03000FCF756F84C
:10406C0030180322264910F08DFB4346002B09D152
:10407C0002B080BCB846F0BD30180522244910F0BF
:10408C0081FBEAE73000FCF741F882B201235B4286
:10409C0000933333310040460BF072F9E8E7C04629
:1040AC001E0F00204C0F00200C9601082109002047
:1040BC002896010844960108649601087096010838
:1040CC008896010894960108B0960108CC960108D0
:1040DC00C49601089C0F0020C8970108D4960108CB
:1040EC00EC960108F896010814970108349701081A
:1040FC00E81E002030160020689701084C97010834
:10410C00C096010898970108CC210020B8970108A7
:10411C00C097010870B506002949FBF7EDFF002890
:10412C000AD028493000FBF7E7FF002846D0357845
:10413C00232D04D0002418E0234B187870BD701C7C
:10414C0010F0D3FAC0B2002803D0204B1B78834266
:10415C0005D21D4B1C78844203D06620EEE700B2DA
:10416C00ECE720B2EAE70134E4B2184B1B78A34227
:10417C000DD9A10009194900154BC9183000FBF7DE
:10418C00BBFF0028EFD1002DEDD020B2D6E70025E3
:10419C00092D11D8A900491949000E4B59183000A6
:1041AC00FBF7AAFF002802D00135EDB2F0E72C0294
:1041BC00FE20204300B2C1E76420BFE7FF20BDE72B
:1041CC00DC970108E09701081E0F00202400002056
:1041DC00100E0020D80C0020F8B504000E000025AD
:1041EC00032D09DCAB002949C9183000FBF784FF0B
:1041FC00002845D00135F3E70125254B1B78AB4250
:10420C000BDDA90049194900224BC9183000FBF7F6
:10421C0073FF002836D00135EFE7002500E00135AB
:10422C00092D0BDCA900491949001B4B591830000A
:10423C00FBF762FF0028F2D1072024E0174B184A45
:10424C001A60164B1D68002D0FD02B681F683800A4
:10425C00FBF75CFF02003900300011F09EFA0028D9
:10426C0012D06A680D4B1A60EBE7A00000194000F1
:10427C00084C0019310011F088FAFFF7DDF802E064
:10428C00062000E00720F8BD0820FCE7A49C0108EC
:10429C0024000020100E0020D80C0020A80F0020B5
:1042AC00E8000020F8B504000D000026092E14DCEF
:1042BC00B10089194900344B59182800FBF71CFF31
:1042CC00002801D00136F1E7013C0122B2402F4910
:1042DC006400635A13436352F8BD0026032E09DCB5
:1042EC00B3002B49C9182800FBF706FF002845D05E
:1042FC000136F3E70126274B1B78B3420BDDB100E7
:10430C0089194900244BC9182800FBF7F5FE002831
:10431C0036D00136EFE7214B214A1A601F4B1E683D
:10432C00002E20D033681F683800FBF7EFFE020028
:10433C003900280011F031FA002823D07268174B8D
:10434C001A60EBE7B000801940001018290011F03A
:10435C001CFA013C0122B2400C496400635A13431D
:10436C0063520020B8E7092EF3DCB3009B195B0005
:10437C00054A9B5C002BE5D00136F4E70620ABE741
:10438C000720A9E70820A7E7D80C00203C0D002047
:10439C00A49C010824000020100E0020A40F002073
:1043AC00E800002030B583B01E2010F0C9F90400DD
:1043BC001E22002110F0EFF908490A7D013A8B7D8D
:1043CC00487D098B9200064D525901910090054988
:1043DC00200011F09FF9200003B030BDF80200203E
:1043EC00AC9D0108B49C010800B585B00A00074BD0
:1043FC00197801230393023B029301930333009337
:10440C000B0003F041FE05B000BDC0461E0F00209E
:10441C0030B587B005000C0000230493039302937E
:10442C0001930093002200210020FFF735F86A1E4B
:10443C00D3009B1ADB00154A9A58002A07D0611E3C
:10444C00CB005B1ADB0011495B58002B0FD1002A03
:10445C0015D1621ED3009B1ADB000C4A9B58002B13
:10446C0012D0200008F01EFC002007B030BD280040
:10447C0008F018FC200008F015FC0020F5E72800D7
:10448C0008F010FC0020F0E76820EEE7E81E0020A2
:10449C0030B5002201E0237001328418835C002BBC
:1044AC0007D00449CD5C032129400129F3D12033E5
:1044BC00F1E730BDE5CE0108F0B5CE46474680B5F4
:1044CC0089B00400DB4B1D78052D00D115E2DA48CC
:1044DC00AB005A199200002111548018417002301F
:1044EC00042210F058F92378622B02D1A3782E2BDA
:1044FC0056D0D24D2100280011F047F9D04E310092
:10450C00280011F0B3FF04003100002011F0AEFFC1
:10451C0005003100002011F0A9FF0600002C00D18D
:10452C00EFE12000FFF7CAF8041E02D0002D00D1E5
:10453C00B5E1002D00D1E6E1002E00D1E5E130001F
:10454C00FFF7BCF8002800D1BAE1BA4B1E78BA4A82
:10455C00B3009919890004278F54991989005118AF
:10456C00CC70C871B34C26782800FFF7C1F8B24A5A
:10457C00B3009B199B00D318587021788B005B18E3
:10458C009B00D3185B78002B00D1C0E10131A94B03
:10459C0019700026300009B0C0BCB946B046F0BD59
:1045AC006778303FFFB2052F00D9A8E1A24AAB00D3
:1045BC005919890001208854531800225A709F7091
:1045CC00E61C07329F49300011F0E7F8002824D18F
:1045DC00AB005D19AD00984B5D190523EB70FA002B
:1045EC00D219994B9B181B7A012216001E401A42B5
:1045FC0005D000268F4A137801331370CAE70123C4
:10460C0005930023049303930293019300930022D8
:10461C000121380009F080FAECE70E228B493000BA
:10462C0011F0BBF8002820D1AB005D19AD00824B16
:10463C005D190623EB70FA00D219834B9B181B7A79
:10464C00022216001E401A4201D00026D2E7012396
:10465C000593002304930393029301930093013A6F
:10466C000021380009F058FAC4E70C2278493000D0
:10467C0011F093F800287BD1FA00D219724B9B18D9
:10468C009E78002E0FD0FA00D2196F4B9B18DE7853
:10469C00002E29D0FA00D2196B4B9B181E79002ED4
:1046AC0044D00C26A6E7644B9846AB005B199B00E4
:1046BC0043440922DA7020000F3010F010F85D4BE3
:1046CC001978C3B28A005218920042441371012225
:1046DC000592002204920392029201920092002110
:1046EC00380009F019FA85E7534B9846AB005B1973
:1046FC009B0043440A22DA7020000F300FF0EFFFCA
:10470C004C4B1A78C0B293009B189B004344187111
:10471C0001230593002304930393029301930090C8
:10472C0000220021380009F0F7F963E7424B984664
:10473C00AB005B199B0043440B22DA7020000F3056
:10474C000FF0CDFF3B4B1A78C0B293009B189B0027
:10475C00434418710123059300230493039302939C
:10476C000190009300220021380009F0D5F941E7AF
:10477C000D223849300011F010F8002800D08CE0E0
:10478C00FA00D219304B9B185E79002E0FD0FA002C
:10479C00D2192D4B9B189E79002E2AD0FA00D219D3
:1047AC00294B9B18DE79002E56D00D2622E7224B82
:1047BC009846AB005B199B0043440C22DA70200036
:1047CC0010300FF08CFF1B4B1A78C0B293009B1863
:1047DC009B00434418710123059300230493039316
:1047EC0002900193009300220021380009F094F903
:1047FC0000E7114B9846142399465D434544073B0B
:10480C00EB70200010300FF06AFF0A4B1B78C0B21F
:10481C004A465343434418710123059300210491E4
:10482C0003900291019100910B000A00380009F0ED
:10483C0073F9DFE6C7100020FC1000202C100020BC
:10484C00C896010814A601084C200020C89D010838
:10485C00D89D0108E89D01082E4B984614239946D3
:10486C005D434544063BEB70200010300FF037FFE2
:10487C00294B1B78C0B24A46534343441871012359
:10488C0005930490002103910291019100910B007A
:10489C000A00380009F040F9ACE60026AAE6002E22
:1048AC0000D046E61C4D2B781A499A00D01880008F
:1048BC00023646540A18D47001332B70002669E670
:1048CC00154B98461A78134F9300991889000320BA
:1048DC00C8557B18DC7030000FF0FCFEFEF7F4F8C6
:1048EC00079043461B789800C01880003818063093
:1048FC00042207A90FF046FF34E60E264AE60026EE
:10490C0048E6672646E6672644E6672642E66726BB
:10491C0040E6C046FC100020C7100020F8B50C0083
:10492C00022817D0032803D001280FD00020F8BD8F
:10493C00354B1A78013A93009B189B00334AD318D5
:10494C0001221A7406F010FA0020F0E70800FFF7B5
:10495C00B3FDECE72C4B1D78013DAB005B199B00C4
:10496C002A4AD318DF68002F34D03800FBF7CEFB6F
:10497C0006002000FBF7CAFB31180231380010F09A
:10498C00A9FE224FAB005D19AD007D19E8601E4DEC
:10499C002A78013A93009B189B00FB18D868731C6B
:1049AC00C018210010F0F1FE2A78013A93009B18F0
:1049BC009B00FF18FB6813229A55134B1A78013A87
:1049CC0093009B189B001149CB18DB68002B11D06E
:1049DC000020ACE70800FBF799FB01300FF0B0FEAC
:1049EC00AB005D19AD00094B5D19E860210010F0BA
:1049FC00CCFEE2E7900080188000081814220021F9
:104A0C000FF0C9FE0E2092E7C7100020FC1000200A
:104A1C00F0B5DE4657464E464546E0B589B082466F
:104A2C00894615001C00002305930522002106A8C9
:104A3C000FF0B1FE2EE1E91C0120FFF76FFF0028FB
:104A4C0006D1D34B02221A700D232370B8460FE106
:104A5C005222D04920000FF095FECD4B00221A7047
:104A6C00B84605E1CA4B00221A70CB490320FFF768
:104A7C0055FF4122C94920000FF084FEB846F7E0EB
:104A8C0029000220FFF74AFF002804D10D232370D0
:104A9C0000239846ECE05222BE4920000FF072FE33
:104AAC0000239846E4E0701C9922920021000AF041
:104ABC009FFE8046DCE02722B94920000FF062FE01
:104ACC0000239846D4E02522B64920000FF05AFE68
:104ADC0000239846CCE01A220021B3480FF05BFE6D
:104AEC0001362800FBF712FB070005A8FBF70EFBAD
:104AFC003A1A013A3100AD4810F061FE2800FBF77C
:104B0C0005FB070005A8FBF701FB3B1A9BB217221C
:104B1C00FF21584603F06AFA9922920021003000D6
:104B2C000AF066FE80462000FBF7F0FA20181D22E2
:104B3C009F490FF027FE9BE0029B1F12FBB29D4F7B
:104B4C0003933B701A22002197480FF024FE721C2D
:104B5C0002922800FBF7DAFA060005A8FBF7D6FA52
:104B6C00321A013A0299914810F029FE2800FBF7FD
:104B7C00CDFA060005A8FBF7C9FA331A9BB2172227
:104B8C000399584603F032FA8B4B1B78013B5B00C0
:104B9C008A4A9B5A3A781341DB0706D405AB2200AC
:104BAC008749200010F0B6FD62E0992292002100A6
:104BBC0002980AF01DFE8046F0E72800FBF7A6FAE3
:104BCC00804605A8FBF7A2FA43461A1A013A3100AF
:104BDC00764810F0F4FD2800FBF798FA060005A8BB
:104BEC00FBF794FA321A92B2013A92B217213800BA
:104BFC0003F024FA029A7349200010F08BFD2378FD
:104C0C00002B02D04B46002B08D12000FBF77EFA7C
:104C1C000200002120000FF0BEFDA1E02000FBF7F8
:104C2C0075FA82B2012300933133210050460AF009
:104C3C00A7FBEAE7FA21890001200CF00FFA624B7E
:104C4C001B78002B00D193E0604A1388013313804A
:104C5C00029B22005E49200010F05CFD0023984668
:104C6C0006E099229200210028000AF0C1FD80463E
:104C7C002378002B02D04B46002B7CD12000FBF775
:104C8C0045FA0200002120000FF085FD4346002B61
:104C9C0000D1ADE02800FFF7FBFB3D4B1E78002E4A
:104CAC0007D103224B49280010F077FD071E00D1D5
:104CBC00C1E6002E07D006224749280010F06DFDF2
:104CCC00071E00D1CEE6022E00D1D9E62E212800F7
:104CDC0010F04DFD061EC4D0033803223F4910F0DE
:104CEC005CFD0028BDD073783D4AD35C5B07B8D41B
:104CFC00721B290005A810F062FD05A8FFF70AFA3F
:104D0C0002902D4A12789346904200D1CBE664284B
:104D1C0000D1D0E6662800D1D5E6FF2800D1DAE62E
:104D2C006B461F7AFE2F00D106E7013606222D496D
:104D3C00300010F032FD002800D03EE72A4B002254
:104D4C001A701921380003F079F964200AF09CFCE0
:104D5C00264B1A78184B18780023390006F026F9E0
:104D6C00214B1B78602B00D164E7002398467FE72A
:104D7C00002398467CE72000FBF7C8F982B2012398
:104D8C005B4200933333210050460AF0F9FA75E781
:104D9C00F8100020FC9D0108A0950108589E010800
:104DAC00A09E0108C89E0108A00B0020E00D002069
:104DBC00F09E0108C61000201E0F00203C0D0020A4
:104DCC00109F0108449F0108B80F0020101A002002
:104DDC00689F0108F89D0108509E01089C9E0108DF
:104DEC00E5CE01083C9F0108140300202109002096
:104DFC000922002105A80FF0CEFC0C4B1B78002BD0
:104E0C0002D14B46002B06D109B0F0BCBB46B246D2
:104E1C00A946A046F0BD01235B42009333333822F0
:104E2C00034950460AF0ACFAEEE7C046F8100020F1
:104E3C00889F010870B584B00F236B4400221A7050
:104E4C000121494201200CF009F90AF039FD060054
:104E5C004F4B9A68E1231B039A420FD0012401E0C7
:104E6C000134E4B2052C09D84A4B1B78A342F7D085
:104E7C00E121090320000AF0D3FAF1E7464B1A8826
:104E8C0053009B185B00454A9B18454A1278454CC9
:104E9C00404D297800914449200010F03BFCA4229D
:104EAC0028780A23920041490AF09AFA2000FBF76D
:104EBC002DF982B228780A2321000AF091FA0025F4
:104ECC0024E03B4B19780F226A44117000221A70AF
:104EDC0030E0304B18780A230B3A36490AF080FA46
:104EEC00002D48D0344C2B4B187833002200012174
:104EFC00FFF78EFD2100314810F047FC32220021D3
:104F0C0020000FF048FC00250AF026FE2C4A1278EF
:104F1C00012AF9D1204B1878FDF77CFE4728D0D018
:104F2C001C4B1A78013A274B985C0F216944087086
:104F3C0000219954224B00221A700F246C44154BFB
:104F4C0018780A23013221000AF04AFA22780D2A35
:104F5C00BFD00A2AD8D0082A12D07F2A10D013002A
:104F6C00203BDBB25E2BCFD8312DCDDC124B5A550A
:104F7C0001356DB2C8E711490F4810F006FCB1E7D6
:104F8C00002DC1DD013D6DB20B4B00225A55BBE724
:104F9C00F80200202109002058000020C89C0108BC
:104FAC001E0F0020C8100020C49F0108F09F0108AC
:104FBC009803002020B801086010002094100020F5
:104FCC002B0900201412002070B50C001D4B1A7810
:104FDC00013A93009B189B001B4AD318DB68002BEB
:104FEC002ED01A4B1B68002B16D0184B1E6833782A
:104FFC00002B14D01321300010F0B9FB051E144BFC
:10500C00186011D0821B3100200010F0D8FB013544
:10501C000E4B1D60012070BD0C4B1860E5E70B4B6F
:10502C0000221A600020F6E73100200010F0ADFBE2
:10503C002000FBF76BF83618044B1E600120EAE7E2
:10504C000020E8E7C7100020FC100020F41000201E
:10505C00F0100020F0B583B0040083001B189B00F7
:10506C00424A9B5C012B04D0032B13D0002003B0CD
:10507C00F0BD3E4A800003199B00D3189978DA786A
:10508C00CB005B183A495B5C9A4201D00020EEE7FA
:10509C000120ECE7354E8500291889007118CA7873
:1050AC00013A53009B189B00324A9B581F680631EB
:1050BC00042201A80FF066FB2D19AD0075196B7851
:1050CC00062B45D89B002C4AD3589F46391C019877
:1050DC00FBF7F8F90028CAD00120C8E7391C019861
:1050EC00FBF7F6F90028C2D00120C0E7391C019863
:1050FC00FBF702FA00282DD00021381CFBF7E2F94F
:10510C00002829D00020B2E7391C0198FBF7EAF9F6
:10511C000028ACD00120AAE7391C0198FBF7F6F95E
:10512C0000281BD00021381CFBF7CCF9002817D025
:10513C0000209CE7391C0198FBF7C4F9002811D119
:10514C000021381CFBF7BEF900280DD000208EE79B
:10515C0000208CE700208AE7012088E7002086E702
:10516C00012084E7002082E7012080E7FC1000206A
:10517C004C2000208C00002084A2010870B50AF09D
:10518C009FFB060000241BE0194B18783300194ACA
:10519C000021FFF73DFC3000FAF7B8FF02000021B8
:1051AC0030000FF0F8FAAA0052199200124B9A181C
:1051BC00D0681049FFF708FF0028E5D10134A4B2EC
:1051CC000E4B1B78A34211D92500A2001219920094
:1051DC00094B9A18137C002BF0D0E0B2FFF73AFF82
:1051EC000028EBD0064B20221A70DCE7002070BDA3
:1051FC0021090020F80F0020FC100020C71000200F
:10520C0014030020BFF34F8F034B044ADA60BFF343
:10521C004F8FC046FDE7C04600ED00E00400FA05E4
:10522C000020704710B5FFF7EDFF0000F0B583B01C
:10523C000600140000250195009501AA012120000B
:10524C000AF042FB0023C356702B17D068276A461E
:10525C00022120000AF038FB0FF047FA0400682FF7
:10526C0012D0010028000AF0DBF82B0022000949BB
:10527C00300010F04FFA002003B0F0BD01300FF0F9
:10528C0034FAC5B20027E2E71322034930000FF0CD
:10529C0079FAF0E7B4A20108A0A2010810B5044BFA
:1052AC001A681204120C034910F034FA002010BDD5
:1052BC00CCF7FF1FDCA2010810B582B0040010006F
:1052CC00002301930023009301AA01210AF0FCFAA8
:1052DC000023C356323BDBB2012B07D915220B49F5
:1052EC0020000FF04FFA002002B010BD0FF0FDF9B6
:1052FC00C0B2694608F0EAFE0098FDF79DFB02007B
:10530C000B000349200010F005FAECE720A301087C
:10531C00FCA2010810B582B0040000230193009395
:10532C00694601A808F012FE01A9200010F02DFA20
:10533C000098FDF781FB02000B000349200010F0E0
:10534C00E9F9002002B010BD38A3010810B582B0F5
:10535C000400002301930093694601A808F0F6FDB0
:10536C0001A9200010F011FA0198FDF765FB02006D
:10537C000B000349200010F0CDF9002002B010BD45
:10538C0060A3010870B584B00600140000230393D9
:10539C0002930023019303AA012120000AF094FA3E
:1053AC00050002AA022120000AF08EFA0400002354
:1053BC00EB56323BDBB2012B07D9152219493000D1
:1053CC000FF0E0F9002004B070BD28000FF08DF94B
:1053DC00C5B215492000FAF78FFE002805D01349F5
:1053EC002000FAF789FE002816D10F4C2100280066
:1053FC0008F054FF01AA2100280008F081FF01A940
:10540C00300010F0C2F90198FBF7C2F882B20849DB
:10541C00300010F07FF9D5E71222064930000FF06A
:10542C00B1F9CFE720A3010884A3010888A30108E0
:10543C0090A30108A0A3010870B584B0050010006A
:10544C00002303935E4B1A7802AB1A7003AA012156
:10545C000AF03AFA04005B49FAF74EFE002869D1CB
:10546C00594B1B78013B594AD65C012423E022009E
:10547C005749280010F04EF92800FAF747FE82B27F
:10548C00514B1878642300935A3B290009F078FF9C
:10549C003EE001200CF08AF84B4B1A78013A711C53
:1054AC0053009B189B014B4AD3185B5C002BF0D02C
:1054BC000E000134E4B2052C45D8434B1B78A342B3
:1054CC00F7D010F0C9F86B461872642300935A3B5E
:1054DC00012202A9200009F053FF200009F032FF3D
:1054EC0003689B8CDBB26A46127A9342BFD02200CF
:1054FC003949280010F00EF92800FAF707FE82B29D
:10550C00314B1878642300935A3B290009F038FF7B
:10551C005422324928000FF035F92800FAF7F6FD2D
:10552C0082B2294B1878642300935A3B290009F066
:10553C0027FFB1E70023E356702B07D00F22284931
:10554C0028000FF01FF9002004B070BD601C0FF094
:10555C00CCF80400C6B2731EDBB2042B0BD9662345
:10556C00662B27D0062BEED1FF2222401A492800A9
:10557C0010F0D0F8E7E710F06FF86B461872642360
:10558C000093323B012202A9300009F0F9FE002001
:10559C0009F0D8FE03689B8CDBB26A46127A934200
:1055AC0001D00623DCE7FF2222400949280010F035
:1055BC00B1F8C8E71B220B4928000FF0E3F8C2E74B
:1055CC0064A40108E097010821090020DC150020E3
:1055DC00B4A301081C120020D0A30108E4A3010805
:1055EC0054A4010838A40108F0B5C64600B582B031
:1055FC0005001400002600270196009601AA01213F
:10560C0020000AF061F90023C356702B19D06723D0
:10561C0098466A46022120000AF056F90023C35628
:10562C00702B15D06720002820D0672825D0192290
:10563C00154928000FF0A6F8002002B080BCB8462F
:10564C00F0BD01300FF051F8C6B200239846E0E7E8
:10565C0001300FF04AF8C7B24346002B01D0672047
:10566C00E3E739003000FEF7D3FEDCE73B00320005
:10567C000649280010F04EF8DEE70F2204492800F6
:10568C000FF080F8D8E7C04688A4010868A4010888
:10569C0054A40108F0B5C64600B582B0050014004C
:1056AC00002600270196009601AA012120000AF08D
:1056BC000BF90023C356702B19D0672398466A4602
:1056CC00022120000AF000F90023C356702B15D0DC
:1056DC006720002820D0672825D0172215492800DC
:1056EC000FF050F8002002B080BCB846F0BD01307D
:1056FC000EF0FBFFC6B200239846E0E701300EF037
:10570C00F4FFC7B24346002B01D06720E3E7390012
:10571C003000FEF769FEDCE73B003200064928004A
:10572C000FF0F8FFDEE70F22044928000FF02AF8EB
:10573C00D8E7C046C8A40108A4A4010854A40108D1
:10574C00F0B5D6464F464646C0B582B005001000AF
:10575C000023019301AA01210AF0B6F80EF0BFFF55
:10576C00C4B2002C4BD0304B1B78A34201D2FF2388
:10577C0046E0FF260640013E2C4B9946B300984666
:10578C009B199B00002292464A4651469954434627
:10579C009F19BF004F447970B81C04220EF0FBFF18
:1057AC0053463B74F8680EF0D5FF5346FB6001E09E
:1057BC000134E4B21C4B1B78A34219D9A3001B196A
:1057CC009B001A4A9B5C002BF2D0631E9800C018F9
:1057DC0080008018A6003619B600B61814223100C5
:1057EC000EF0D0FF1422002130000EF0D4FFDFE7C2
:1057FC00013B0D4A137005F0B7FA002300E0FF23BC
:10580C00002B0BD136220A4928000EF0BBFF0020DA
:10581C0002B0E0BCBA46B146A846F0BD2322054909
:10582C0028000EF0AFFFF2E7C7100020FC1000209C
:10583C00E0A4010818A5010810B582B004001000FE
:10584C000023019301AA01210AF03EF80EF047FF54
:10585C00C3B2002B03D00F4A12789A4207D22322EC
:10586C000D4920000EF08EFF002002B010BDFF236A
:10587C0018400138830018188000084B18180023B2
:10588C00037405F071FA3522054920000EF07AFFF9
:10589C00EAE7C046C710002018A50108FC1000203C
:1058AC003CA5010810B582B0040010000023019340
:1058BC0001AA01210AF008F80EF011FFC3B2002B67
:1058CC0003D00F4A12789A4207D223220D492000A6
:1058DC000EF058FF002002B010BDFF231840013815
:1058EC00830018188000084B18180123037405F066
:1058FC003BFA3822054920000EF044FFEAE7C04687
:10590C00C710002018A50108FC10002074A5010880
:10591C00F0B5D6464F464646C0B58AB0050006AA35
:10592C00794B13CB13C21B881380784B1878012347
:10593C005B42009333333722754909F021FD002671
:10594C0001239A4692E0B3009B199B00D3181A7C52
:10595C00D3009B1A06AA9446634452466D4928000C
:10596C000FF0D8FE8FE0A3001B199B006A4AD318D6
:10597C00DB780B2B13D8092B33D2052B23D0062B1A
:10598C004ED1A3001B199B00634AD2189378D2689E
:10599C0000922A00614928000FF0BCFE40E00C3B4D
:1059AC00DBB2022B3CD8A200121993005A4AD2182F
:1059BC0093781179D268019200912A0058492800F5
:1059CC000FF0A8FE2CE0A3001B199B00524AD21822
:1059DC009378D26800922A00524928000FF09AFE60
:1059EC001EE0A200121993004B4AD2189378117939
:1059FC00D268019200912A004B4928000FF08AFED0
:105A0C000EE04A4F3B002A00494928000FF082FE65
:105A1C003800FAF77BFB0200002138000EF0BBFEC9
:105A2C00A3001B199B003C4AD318D8683F49FFF7C9
:105A3C00CBFA0028E5D12800FAF768FB28180C22CD
:105A4C003C490EF09FFE2800FAF760FB82B22F4B08
:105A5C00187801235B4200933333290009F090FC42
:105A6C0057460137FBB29A460136F6B2324B1B78D9
:105A7C00B3423DD93400B3009B199B00264A9B5C72
:105A8C00002B00D05FE7A3001B199B00224A9B5CF4
:105A9C00012B00D167E7032BC2D1A3001B199B007C
:105AAC001D4A984690444346991D042205A80EF0C1
:105ABC0069FE4346DA78013A5B78013B5900CB1812
:105ACC001E498846984453009B189B001C4AD318C7
