:020000040800F2
:100000000080002099FC000825FD000849F2000846
:1000100000000000000000000000000000000000E0
:100020000000000000000000000000004102010884
:100030000000000000000000D90201083DF20008A5
:1000400025FD000825FD000825FD000825FD000808
:1000500025FD000825FD000825FD000819F400080D
:1000600025FD000825FD000891F20008D1F20008E6
:1000700025FD000825FD000825FD000825FD0008D8
:1000800025FD000825FD000825FD000825FD0008C8
:1000900025FD000825FD000825FD000825FD0008B8
:1000A00025FD000825FD000825FD00084DF200088B
:0C00B0005DF200086DF2000825FD00085C
:1000BC0010B5064C2378002B07D1054B002B02D032
:1000CC00044800E000BF0123237010BDD0020020C3
:1000DC0000000000DC9D0108044B10B5002B03D080
:1000EC000349044800E000BF10BDC04600000000FA
:1000FC00D4020020DC9D010802780B78002A03D082
:10010C00013001319A42F7D0D01A70470023C25CFB
:10011C000133002AFBD1581E7047000002B471460F
:10012C0049084900095C49008E4402BC7047C0462E
:10013C0003B47146490840004900095E49008E44E9
:10014C0003BC7047002243088B4274D303098B42D3
:10015C005FD3030A8B4244D3030B8B4228D3030C8B
:10016C008B420DD3FF22090212BA030C8B4202D32D
:10017C001212090265D0030B8B4219D300E0090A55
:10018C00C30B8B4201D3CB03C01A5241830B8B425E
:10019C0001D38B03C01A5241430B8B4201D34B0347
:1001AC00C01A5241030B8B4201D30B03C01A5241AC
:1001BC00C30A8B4201D3CB02C01A5241830A8B4231
:1001CC0001D38B02C01A5241430A8B4201D34B021A
:1001DC00C01A5241030A8B4201D30B02C01A52417E
:1001EC00CDD2C3098B4201D3CB01C01A5241830932
:1001FC008B4201D38B01C01A524143098B4201D36C
:10020C004B01C01A524103098B4201D30B01C01A96
:10021C005241C3088B4201D3CB00C01A5241830810
:10022C008B4201D38B00C01A524143088B4201D33D
:10023C004B00C01A5241411A00D20146524110469D
:10024C007047FFE701B5002000F0F0F802BDC04692
:10025C000029F7D076E7704703460B437FD4002282
:10026C0043088B4274D303098B425FD3030A8B423E
:10027C0044D3030B8B4228D3030C8B420DD3FF22A8
:10028C00090212BA030C8B4202D31212090265D076
:10029C00030B8B4219D300E0090AC30B8B4201D329
:1002AC00CB03C01A5241830B8B4201D38B03C01A70
:1002BC005241430B8B4201D34B03C01A5241030BE7
:1002CC008B4201D30B03C01A5241C30A8B4201D398
:1002DC00CB02C01A5241830A8B4201D38B02C01A43
:1002EC005241430A8B4201D34B02C01A5241030ABA
:1002FC008B4201D30B02C01A5241CDD2C3098B429F
:10030C0001D3CB01C01A524183098B4201D38B011B
:10031C00C01A524143098B4201D34B01C01A5241BE
:10032C0003098B4201D30B01C01A5241C3088B4203
:10033C0001D3CB00C01A524183088B4201D38B00EE
:10034C00C01A524143088B4201D34B00C01A524190
:10035C00411A00D201465241104670475DE0CA0F67
:10036C0000D04942031000D34042534000229C4627
:10037C0003098B422DD3030A8B4212D3FC22890131
:10038C0012BA030A8B420CD3890192118B4208D307
:10039C00890192118B4204D389013AD0921100E069
:1003AC008909C3098B4201D3CB01C01A524183097D
:1003BC008B4201D38B01C01A524143098B4201D3AA
:1003CC004B01C01A524103098B4201D30B01C01AD5
:1003DC005241C3088B4201D3CB00C01A524183084F
:1003EC008B4201D38B00C01A5241D9D243088B42A5
:1003FC0001D34B00C01A5241411A00D20146634648
:10040C0052415B10104601D34042002B00D54942AB
:10041C00704763465B1000D3404201B5002000F0EA
:10042C0005F802BD0029F8D016E770477047C046A2
:10043C008446101C62468C46191C634600E0C0467C
:10044C001FB501F023FC002801D40021C8421FBDB8
:10045C0010B501F06DFB4042013010BD10B501F03C
:10046C0015FC002801DB002010BD012010BDC0468A
:10047C0010B501F00BFC002801DD002010BD01209F
:10048C0010BDC04610B501F08FFB002801DC002028
:10049C0010BD012010BDC04610B501F085FB002831
:1004AC0001DA002010BD012010BDC0468446081C96
:1004BC006146FFE71FB500F061F9002801D4002167
:1004CC00C8421FBD10B500F0E5F84042013010BD28
:1004DC0010B500F053F9002801DB002010BD0120FD
:1004EC0010BDC04610B500F049F9002801DD002010
:1004FC0010BD012010BDC04610B500F0F3F8002867
:10050C0001DC002010BD012010BDC04610B500F06C
:10051C00E9F8002801DA002010BD012010BDC0460A
:10052C00994201D1801A04D002D201204042704776
:10053C0001207047F0B515042D0C0F0001002E00A2
:10054C00C64684460004140C000C090C46434D436B
:10055C00604361434019340C241800B5A54203D9FB
:10056C008020400280464144250C6D186146594359
:10057C007A43300449192404000C2018891880BCD3
:10058C00B846F0BD9E2110B5C905041CFFF7BEFF8F
:10059C00002803D1201C00F01DFC10BD9E21201C46
:1005AC00C90500F04FFA00F015FC80231B069C4691
:1005BC006044F2E770B500220C4B04000D00FFF70D
:1005CC006BFF002804D12000290002F0EBF970BD6C
:1005DC00064B00222000290001F034FE02F0E2F963
:1005EC0080231B069C466044F1E7C0460000E041B6
:1005FC0070B505000C000022002328002100FFF735
:10060C002DFF002808D12800210000F00FF802006F
:10061C000B001000190070BD80231B06E118280088
:10062C0000F004F8002342428B41F2E770B500223F
:10063C000B4B0D00040001F099FBFFF7BBFF06000C
:10064C0002F016FA0022074B01F090FB02000B009F
:10065C002000290001F0F6FDFFF7ACFF310070BD62
:10066C000000F03D0000F04170B50600080002F0FB
:10067C00CFF90022064B01F079FB0D00040030008D
:10068C0002F0F6F92B00220000F000FC70BDC04611
:10069C000000F04170B542004E024C0045026D0A5C
:1006AC00120EC30F760A240EC90FFF2A0FD0FF2C8F
:1006BC0011D00120A24200D070BDB542FCD18B42BA
:1006CC000DD0002AF8D12800451EA841F4E70120DE
:1006DC00002DF1D1EBE70120002EEDD1E9E7002050
:1006EC00EAE7C046F0B5420046024D024C00C30F8B
:1006FC00760A120E6D0A240EC80FFF2A1FD0FF2C8B
:10070C0010D0002A1FD171427141002C01D1002D53
:10071C001ED000290ED183421ED00221581E084043
:10072C000138F0BD002D26D1002AF4D1714271415F
:10073C000029F0D00028F4D101204042F1E7002E2E
:10074C0019D1FF2CEED0002CE5D1002DE3D1E4E73C
:10075C000020002EE5D0E0E7A24205DCEADBAE4249
:10076C0002D8E7D30020DCE7414241414842022154
:10077C0008400138D5E702204042D2E7F0B54200EC
:10078C0046024D024C00C30F760A120E6D0A240E5F
:10079C00C80FFF2A0DD0FF2C0FD0002A23D1714295
:1007AC007141002C0FD1002D0DD10020002E14D042
:1007BC000DE0002E10D1FF2C15D1002D0CD1002AEC
:1007CC0003D171427141002908D1834210D002211A
:1007DC00581E0840013800E00220F0BD0028FCD172
:1007EC0001204042F9E7002CEFD1002DEDD1EEE7CE
:1007FC00A24205DCF2DBAE4202D8EFD30020ECE7DC
:10080C00414241414842022108400138E5E7C046D7
:10081C00F8B557464E464546DE464402E0B545001F
:10082C000F1C640A2D0EC60F002D47D0FF2D4DD086
:10083C00002380209A469B46E400C00404437F3D7D
:10084C007802430A99467A00FB0F9846120E4B46E3
:10085C0044D0FF2A11D0D8008023DB0403439946EF
:10086C0000207F3AAD18474653467740691C0F2B42
:10087C003FD8724A9B00D3589F46FF35002B00D0BF
:10088C0079E0524602231A4392460220EBE7474690
:10089C004C4683465B46022B28D0032B00D1C6E086
:1008AC00012B4FD100200024C005FF072043384303
:1008BC00F0BCBB46B246A946A046F8BD002C71D18F
:1008CC0004239A46033B00259B46B9E7002C63D1D1
:1008DC0008239A46063BFF259B46B1E7002B50D1D7
:1008EC00524601331A4392460120BCE7FF200024F4
:1008FC00DAE74846260C2404220C0404240C4B464C
:10090C0020001B0C504374435A435E431219030CD2
:10091C009B189C4203D980225202944666440004E0
:10092C001A04000C12189401601E84411B0C920EC8
:10093C009B1914439B011C431B0172D501206308B6
:10094C0004401C4308007F3000283CDD630704D0C2
:10095C000F232340042B00D00434230103D5803112
:10096C000800374B1C40FE28C0DCA401640AC0B24E
:10097C009AE737008EE7524603231A439246032028
:10098C0071E7484602F06AF94A46431F9A402D1A0D
:10099C0091460020763D66E70C239A46093BFF25DD
:1009AC009B464DE7200002F059F97625431F9C40E9
:1009BC0000236D429A469B462D1A41E7802400275E
:1009CC00FF20E40370E701231B1A1B2B00DD69E7F2
:1009DC009E3120008C40D840631E9C410443630729
:1009EC0004D00F232340042B00D0043463011AD508
:1009FC000120002458E78020C003044209D04B4654
:100A0C00034206D14C46044364024746FF20640A65
:100A1C004AE78020C003044364023700FF20640AC5
:100A2C0042E729008EE7A4010020640A3CE78020FD
:100A3C00C00304436402FF20640A35E7089E0108E2
:100A4C00FFFFFFF7F0B54646D6464F4643025B0A1A
:100A5C00DA0094464A02C0B54400560A051CB0465A
:100A6C00240E4E0092091F0020009246ED0F360E08
:100A7C00C90FFF2E00D17FE0012251408D4251D091
:100A8C00A21B9146002A00DC7EE0002E00D199E0EA
:100A9C00FF2C00D18CE080235246DB041A43924693
:100AAC004A4601231B2A08DC53462021D340891ACD
:100ABC0052468A40511E8A4113436246D31A5A0148
:100ACC0000D4F3E09B019E09300002F0C7F8053812
:100ADC008640844200DDF7E03200041B2020013404
:100AEC00E240041BA64033005E1EB34100241343B6
:100AFC005A0704D00F221A40042A00D004335A019A
:100B0C0000D4D6E0621CFE2C00D1DAE09B015F0A17
:100B1C00D0B2C0053843ED072843E0BCBA46B14615
:100B2C00A846F0BDA21B9146002A63DD002E00D121
:100B3C0099E0FF2C3CD080235246DB041A439246AA
:100B4C004A4601231B2A08DC53462021D340891A2C
:100B5C0052468A40511E8A41134363445A0100D4C1
:100B6C00A4E00134FF2C00D1ABE0012297491A40DC
:100B7C005B080B401343BBE7002A32D08D4235D0C3
:100B8C00FF2252429146A1444A46002A51D0301BC2
:100B9C00002C00D09CE06346002B00D1DFE0013834
:100BAC00002800D1F7E0FF2E00D099E00D0043465D
:100BBC00002B00D185E08027FF031F437F02FF201D
:100BCC007F0AA6E75246002A74D001225242904670
:100BDC00C1444A46002A00D1C8E0FF2C00D05FE790
:100BEC00E6E701225140A94200D049E7FF225242D8
:100BFC009146A1444A46002A43D0311B002C00D117
:100C0C008CE0FF2E00D192E080236246DB041A4375
:100C1C00944601231B2909DC202063466246CB4005
:100C2C00411A8A401100481E81410B433400534441
:100C3C0094E7FE22661C324264D1002C00D082E084
:100C4C006346002B00D1ABE05346002B00D160E78C
:100C5C00634652469B1A5A0100D4AAE06346524698
:100C6C000D00D31A44E75246002A23D001225242E7
:100C7C009046C1444A46002A75D0FF2C00D05FE74D
:100C8C0096E7FE260134264253D1002872D16346E2
:100C9C00002B00D193E05346002B00D139E763447D
:100CAC0000245A0102D54A4A013413405A0700D095
:100CBC0020E7DB08FF2C00D17AE75B025F0AE0B289
:100CCC0027E7FF20002724E7414B241A33400FE786
:100CDC00FF2E00D16AE780236246DB041A43944658
:100CEC0001231B2809DC202463466246C340201ADA
:100CFC0082401000441EA041034352460D003400B4
:100D0C00D31ADCE6634652469E1A730117D4002EA2
:100D1C0000D0D9E6002500200027FAE66346002B18
:100D2C0044D0013900294CD0FF2E00D071E7434646
:100D3C003EE7FF2CC5D0524662445308B6E76346E3
:100D4C000D00D61AC0E66246002A16D15346002B77
:100D5C0000D02BE780270025FF20FF03D9E60D00EC
:100D6C0043463400A6E753466344F7E663465246CF
:100D7C009B1AA4E66246002AD9D05246002A00D11A
:100D8C0016E78022D203134200D111E740461042ED
:100D9C0000D00DE70AE752460D003400D31A8EE658
:100DAC005346002B08D00D004746B2E643463400AC
:100DBC0080E7002B00D079E700250027A9E64746FD
:100DCC00A7E6534634006344C8E6C046FFFFFF7DE8
:100DDC00FFFFFFFB41024200C30F490A0020120E25
:100DEC007E2A03D99D2A02D9094A98187047802077
:100DFC0000040143952A07DC9620821AD140484210
:100E0C00002BF3D10800F1E7963A9140F7E7C04682
:100E1C00FFFFFF7F70B5051E0ED001F01FFF9E2354
:100E2C0004001B1A962B0CDC082801DD083CA5409D
:100E3C006D026D0AD8B201E000200025C0052843E0
:100E4C0070BD992B09DD020029001B3291404A1E0E
:100E5C0091410522121AD5400D43052C01DD621F6C
:100E6C0095402900084E31406A0709D00F202840D0
:100E7C00042805D004314A0102D59F2331401B1BA5
:100E8C0089014D0AD8B2D9E7FFFFFFFBF0B54F46F9
:100E9C00D64646460D0001001800C0B517002B03BE
:100EAC005A0A4B0F1343CA00914602036E004100CD
:100EBC00520AEC0F7D0F1543760D490DC00F82467B
:100ECC00AC46FF00721A844200D198E0002A00DC84
:100EDC0081E0002900D1B6E0C9498E4200D172E10F
:100EEC0080212800090408438446382A00DD5EE18D
:100EFC001F2A00DDEEE1202039006546801A87406C
:100F0C00D14085400D4339004F1EB9416746D7404B
:100F1C002943DB1B4A46551AA945894149425B1AAC
:100F2C00984643461B0200D4CCE043465B025B0A66
:100F3C0098464346002B00D12CE1404601F08EFE32
:100F4C0001000839202228004346521A8B40D04019
:100F5C008D4003438E4200DD17E18E1B721C1F2A4D
:100F6C0000DDA7E1202118002E00891A8D40884051
:100F7C00D640D340691E8D41304398460026054328
:100F8C006B0709D00F232B40042B05D02B1DAB4234
:100F9C00AD416D42A8441D0043461B0200D494E0B1
:100FAC00974B721C9A4200D19DE04146954BED083F
:100FBC0019400B00520549075B0229431B0B520DCC
:100FCC0012051343E407234308001900E0BCBA469A
:100FDC00B146A846F0BD002A43D08A1B002E00D093
:100FEC002AE14C461C4300D1D1E1541E012A00D108
:100FFC001FE2834DAA4200D172E2220023E1002AB3
:10100C0000DC98E0002942D07D498E4200D1DAE024
:10101C0080212800090408438446382A00DD29E190
:10102C001F2A00DC87E1110065462039CD40202ABB
:10103C0004D040206146821A91400F4339004F1E64
:10104C00B9410D431BE12900394300D1B5E0511ED4
:10105C00012A00D1ABE16A48824200D1B2E10A0018
:10106C0043E76949751C0D4200D0CFE0002E00D03B
:10107C0093E14946194300D1D1E16146394300D08F
:10108C00E3E149465807C9080143DB0826E029007B
:10109C00394300D191E0511E012A05D058488242B3
:1010AC0000D18FE10A00B8E73D004D444D45894120
:1010BC006344984649428844434602261B0200D5A5
:1010CC00EBE0013E6B0700D05CE74346E9085A07AA
:1010DC0011433200DB084A48824221D01B035205DF
:1010EC001B0B520D6CE70023002169E72A003A43E1
:1010FC0069D04A465807D108DA0880231B030843F5
:10110C001A4207D02900ED081D4203D12A00FF081E
:10111C0048073843430FC1005B07C9081943130044
:10112C000A001A4300D113E28022120313431B035B
:10113C00334A1B0B44E7002A4BD08A1B002E00D1EC
:10114C00E7E02F48814200D195E180200004034361
:10115C00382A00DD43E11F2A00DDDBE120201D00E1
:10116C004E46801A8540D64035434E468640300068
:10117C00D340461EB0419C440543ED19BD429B41F2
:10118C005B42634498460E007FE01E4A761A134079
:10119C009846F5E6280001F061FD010018311F2981
:1011AC0000DCCFE62B00083883400025D2E66246EF
:1011BC003A4311004F1EB941ACE649465807C908DD
:1011CC000143DB0887E749465A07C9081143DB0886
:1011DC00A6E70D49701C084200D0BBE0002E00D0E1
:1011EC0014E14946194300D175E12900394300D077
:1011FC007EE149465807C9080143DB086EE7C04643
:10120C00FF070000FFFF7FFFFE0700004946CD1BD4
:10121C006146581AA9458941494288460100404611
:10122C00091A8846090200D5A6E04146294300D098
:10123C007FE60023002451E7C74CA14200D1C7E050
:10124C00802424042343382A54DC1F2A00DDCCE0FC
:10125C0020244846A41A1D004E46A040D640A54066
:10126C000400D34062463543661EB441D31A9C46F3
:10127C00254344E062463A4315006F1EBD414D4480
:10128C004D45894149428846984443461B0200D447
:10129C0018E7B14B01369E4249D04246AF4B012173
:1012AC001A4013006A080D401543D9075B0898468D
:1012BC000D4365E618001F3EF040202A03D0402164
:1012CC008A1A93401D43691E8D41002300269846BF
:1012DC000543F7E6110065462039CD40202A04D09D
:1012EC0040206146821A91400F4339004F1EB9418C
:1012FC0029430FE64A4613431D006B1E9D417D1B7F
:10130C00AF429B4162465B42D31A984654460E004C
:10131C0007E64846184300D1B3E0501E012A00D11D
:10132C000DE18D4DAA4200D1A5E0020010E732007C
:10133C000023002144E620213800891A65468F409D
:10134C008D40D040791E8F4105433D436746D740C1
:10135C00DB1994E7804A904200D1ECE03900494413
:10136C0049459241634452429B18DD0749085B088A
:10137C00984606000D43A5E64A46BD1AAF42894180
:10138C0062464942D31A5B1A98465446D1E56C071B
:10139C00F9082143EB0804009DE64A461A4375D12F
:1013AC006146394314D1802300241B03BCE64A4612
:1013BC00D51BA9458941624649429B1A5B1A98463E
:1013CC000126AEE54A46D1085A071143DB08A7E6C9
:1013DC006346F9085A0754461143DB08A0E64A460F
:1013EC0013431D006B1E9D41C7E614001E00203CDC
:1013FC00E640202A05D04024A21A93404A461A43BC
:10140C0091464D466B1E9D41354378E74A461A433B
:10141C0000D06BE66B07F9081943EB0880E66146D0
:10142C00394354D06346F9085C072143DB080400B8
:10143C0054E64A46BD1AAF42894162464942D31A24
:10144C005B1A9846040001266BE54A46D51BA94554
:10145C008941624649429A1A521A9046120232D572
:10146C004A46BD1AAF42894162464942D31A5B1AB9
:10147C009846040084E56346F9085A071143DB08D3
:10148C004EE6F90868070143EB0824E662463A4346
:10149C0000D198E64A46D1085A071143DA0880234E
:1014AC001B031A4208D06046C5081D4204D154469D
:1014BC002A00F908430719434B0FC9005B07C908F9
:1014CC00194313002CE64146294300D0FAE50023CA
:1014DC000A00002402E66B07F9081943EB08FDE546
:1014EC006346F9085B07194363460400DB0817E6FB
:1014FC003D004D4463444D458941984649428844DA
:10150C0043461B0200D4DDE54246144B01261A402B
:10151C009046D7E510001E002038C640202A05D082
:10152C004020821A93404A461A4391464D466B1E00
:10153C009D41354321E602000023002140E54A4647
:10154C00D519BD4289416344984649428844B3E564
:10155C000021014A0B0033E5FF070000FFFF7FFF6E
:10156C00F0B557464E464546DE46E0B58146050089
:10157C000C03480092461F0085B0240B400DCE0F83
:10158C00002859D0874B984200D198E06B0FE400AB
:10159C001C4380231B0423439846834BED009B463E
:1015AC0000239946834400933C037B005046240B54
:1015BC005B0DFF0F002B67D07A4A934218D07A4903
:1015CC00420F8C46E40059461443802263441204B3
:1015DC00CB1A14439B46C200002033007B409A4632
:1015EC004B460F2B00D9EFE070499B00CB589F4620
:1015FC006F4B52469C462243E344002A00D095E0B0
:10160C00494602231943894600240220E5E70023BA
:10161C000024002552461B052343D2071343280000
:10162C00190005B0F0BCBB46B246A946A046F0BDB9
:10163C00002400255B4BEDE74B462343984600D135
:10164C0089E0002C00D1E0E1200001F007FB010053
:10165C0002000B391D235B1A49461000D94008388B
:10166C0084400B004D4623439846854051483C032B
:10167C00831A9B460023994600937B005046240B0B
:10168C005B0DFF0F002B97D15246224355D0002CF7
:10169C0000D1CAE1200001F0E1FA02000B3A1D234F
:1016AC0001009B1A52460839DA408C4014435246CA
:1016BC008A40414B58449B46834400208DE74B465F
:1016CC002343984640D108239946063B0025834680
:1016DC00009369E7B246009B022BA9D0032B00D1E3
:1016EC0011E2012B93D0354A5A44002A00DC3CE12C
:1016FC006B0700D0A7E1ED084346DB0106D5424657
:10170C002F4B1A4090468022D2005A442D4B9A42BD
:10171C008EDC4346520558075C020543240B530DDF
:10172C0078E7BA46A04615000090D4E74A46032352
:10173C001A439146032052464FE749460123194369
:10174C0089460024012048E70C239946093BA04612
:10175C008346009328E70423994600239B460133D4
:10176C000025009320E7002380249A4600250D4B8A
:10177C0024034FE7802341461B03194208D01C4227
:10178C0006D11C432403BA461500064B240B41E733
:10179C008024434624031C432403B246014B240BF0
:1017AC0038E7C046FF07000001FCFFFF489E010818
:1017BC0001F8FFFF0DFCFFFFF3030000FF03000027
:1017CC00FFFFFFFEFE070000444500D216E100D1EA
:1017DC0011E101235B429C462E0040460025E34468
:1017EC002302140E1C431B0C994623041F0C1202DB
:1017FC00494600920197FEF72BFD02007A430B0439
:10180C00310C804619438A420BD901235B429C461A
:10181C000919E0448C4204D88A4202D9831E9846A6
:10182C000919881A4946FEF713FD09048C46310440
:10183C006646019A090C4243030031438A4204D99B
:10184C000919013B8C4200D811E1891A4246009ECD
:10185C0012041A43330C1F00100C9046029313040D
:10186C003204160C32001B0C5A4303967B4346433E
:10187C007843170CBC469B1963449E4203D98026BF
:10188C007602B44660441E0C301816041B04360C49
:10189C009E19814200D29CE000D197E0AE1B091A40
:1018AC00B54280414042081A844200D111E14946B8
:1018BC00FEF7CEFC019A0B044243310C0500194390
:1018CC008A4207D90919013D8C4203D88A4201D9B1
:1018DC00851E0919881A4946FEF7BAFC09048C467C
:1018EC0031046646019A090C4243030031438A4293
:1018FC0007D90919013B8C4203D88A4201D9831EAE
:10190C000919039E891A32002D041D43029F2B04D2
:10191C001B0C5A437B439C46280C4643130CB44483
:10192C00634478439E4203D980267602B4466044D1
:10193C001E0C12041B04120C30189B18814206D387
:10194C0002D001231D43CEE6002B00D1CBE661185B
:10195C006E1EA14200D2A4E0814200D2C9E000D1A7
:10196C00D9E03500EDE701256D420121891A3829AE
:10197C0000DD4CE61F2900DC7FE01F235B429A1A36
:10198C004346D340202904D04446654A5A449440E7
:10199C0025436A1E954107222B43150000241D4048
:1019AC001A4200D1A1E00F2200241A40042A00D1CF
:1019BC0098E01A1D9A429B415B42E41813002202E4
:1019CC0000D48FE001230024002523E6B54200D388
:1019DC0064E743465A1E009B9C4665441F009D428B
:1019EC009B415B421B19C9188C423AD2884263D87E
:1019FC0060D0904652E7AA4200D9EAE64346DE0799
:101A0C0058086B081E43ED07EAE6484601F026F934
:101A1C0001000200153120321C2900DC1AE64B466D
:101A2C00083883400025984620E601F017F903009A
:101A3C001A00153220301C2A00DC30E65446083BD4
:101A4C0000229C4035E60F232B40042B00D152E69C
:101A5C0005235B42AB429B4104355B42ED08984445
:101A6C004AE68C42C5D1AF42C0D9904616E78A42AD
:101A7C0000D8EAE6831E0919E7E62A4A28005A44E8
:101A8C00434695409340C8406A1E954144460343E3
:101A9C002B43CC405A0792D00F221A40042A88D1EB
:101AAC008DE73500814200D04BE7009A934200D07D
:101ABC0047E718E6AE429CD902235B429C46009B4A
:101ACC00E0449C4665449D429B415B421B19C918EE
:101ADC00E4E6154A5A44002A00DC44E701230025B9
:101AEC00984409E665076402240BDB081D430023B8
:101AFC0090E5009E023D7200B242BF417F423C190C
:101B0C0009190092CEE78024434624031C43240386
:101B1C00064B240B7EE5009A9A42EAD33500C4E7C3
:101B2C003E0400001E040000FF030000FF0700003D
:101B3C00F0B54F464646D646944691461A03120BCC
:101B4C00184DC0B54C000F0392465A000600804653
:101B5C003F0B0120640DC90F520DDB0FAC420AD0B4
:101B6C00AA4203D0944201D157450DD0E0BCBA46ED
:101B7C00B146A846F0BD3D003543F7D1A242F5D1A0
:101B8C00524665462A43F1D10120C845EED199420F
:101B9C0006D0002CEAD13E433000461EB041E5E7AA
:101BAC000020E3E7FF070000F0B54E4645465746D8
:101BBC00DE4604001800E0B516001B031B0B324D6B
:101BCC000F034A0099464300A446B0463F0B520D02
:101BDC00C90F5B0DC00FAA4229D0AB4218D0002A06
:101BEC002AD13C43A34665426541002B02D14C46A9
:101BFC00264327D0002D15D1814228D0022001394F
:101C0C0008400138F0BCBB46B246A946A046F0BD20
:101C1C004D462E432FD1002AEED13C4365426541FF
:101C2C00002DE9D00028EDD101204042EAE73D002B
:101C3C00254320D19342EBD0002BDDD14C462643DB
:101C4C00DAD1DBE75B460020002BDBD0D6E79A42EB
:101C5C000ADCE7DB4F45D1D810D000204F45D1D25C
:101C6C000029E1D00800CDE743425841022340420D
:101C7C0018400138C6E702204042C3E7C445BDD82E
:101C8C000020C445BED2EBE7FF070000F0B54E467E
:101C9C0045465746DE4604001800E0B516001B0307
:101CAC001B0B314D0F034A0099464300A446B04626
:101CBC003F0B520DC90F5B0DC00FAA4211D0AB42A6
:101CCC0014D0002A2FD13C43A34665426541002B1A
:101CDC0014D14C46264311D15B460020002B17D063
:101CEC0010E03D00254312D193421CD14D462E43AA
:101CFC000DD1002A04D13C4365426541002D0DD124
:101D0C00814216D0022001390840013800E002203F
:101D1C00F0BCBB46B246A946A046F0BD0028F7D1A0
:101D2C0001204042F4E7002BEAD14C462643E7D190
:101D3C00E8E79A4206DD43425841022340421840EC
:101D4C000138E5E79A42E9DB4F45DBD806D00020A5
:101D5C004F45DDD20029E3D00800D9E7C445D1D8DE
:101D6C000020C445D4D2F5E7FF070000F0B5574674
:101D7C004E464546DE46E0B598460C034B00060041
:101D8C00924687B0240B5B0DCF0F002B6CD0DD4A35
:101D9C00934200D186E0420FE400144380221204E7
:101DAC001443D94AC50094466344009300239946D2
:101DBC009B46434642461E03D20F5B00504690465C
:101DCC00360B5B0D00D178E0CE4A93421DD0CE4944
:101DDC00420F8C4600996344F6008C4616438022D1
:101DEC009C44120463461643C200002000930099E1
:101DFC00434601318C4649467B4001930F2900D95B
:101E0C007EE0C24B890059588F465246009B3243A4
:101E1C0000D056E1BB4900268C46634449460093EA
:101E2C000223194389460220E1E74346019334001B
:101E3C00150083465B46022B5ED0032B00D1F3E1E9
:101E4C00012B00D018E1002200240025019B120573
:101E5C002243DB071A432800110007B0F0BCBB4635
:101E6C00B246A946A046F0BD2500054300D141E18C
:101E7C00002C00D1ADE1200000F0F0FE01000200CA
:101E8C000B391D2310005B1A3100350008388440D3
:101E9C00D94085400C439E48831A009300239946F1
:101EAC009B4686E70500254300D01CE108220093E1
:101EBC000223002491469B467BE75246324300D1D5
:101ECC000AE1002E00D176E1300000F0C7FE0200DE
:101EDC000B3A1D2301009B1A52460839DA408E40FA
:101EEC00164352468A40009B8949181A03008C46B7
:101EFC006344002000937AE700240025814AA5E77B
:101F0C002F0C2D042D0C2B00110C1204120C53430E
:101F1C009846130028007B4399464843484483461F
:101F2C0040460B00000C824658467B4350440293BB
:101F3C00814506D99A4680235B029946CA4453468A
:101F4C000293030C9B4643461B0400041B0C98464F
:101F5C00030043440493330C99462B003604360C8F
:101F6C007343984633007B439A464B465D435F432D
:101F7C0043465544180C4019824503D980235B0213
:101F8C009A465744050CEB19059343461D042D0C3A
:101F9C0000044019250C2404240C270057436A43E1
:101FAC0090462A003B0C9A464A43614341445144B3
:101FBC008344884503D980235B02984642443F04FE
:101FCC000B0C3F0C0904C919270098464B46774364
:101FDC005C436E435D433B0C9946A4194C4442440C
:101FEC000395A64204D980235B0298464544039589
:101FFC00029B3F045B441E008342804123049846AD
:10200C00059B3F0C4744984676188E4289414744BD
:10201C0040423D18A846934649428A46C3449F42D3
:10202C00BF4180458041039BDA4498465346404269
:10203C007F420743240C934592418A4589413F19BD
:10204C00DC0D049B75021D43681E854153465242AC
:10205C0049420A43BF184744F60D7F0235435A02E2
:10206C003C431543FB0100D4C1E001216A080D403B
:10207C001543E2071543640826496144002956DDDF
:10208C006B0709D00F222A40042A05D02A1DAA4228
:10209C00AD416D4264191500E30104D580211E4A3F
:1020AC00C900144061441D4A914200DD24E76207D7
:1020BC00ED08640249051543240B4A0DC6E6019749
:1020CC00B8E6104A0320944663444A46009303231F
:1020DC001A43914652468AE64946012319438946DA
:1020EC000026012083E60C22009303230500914671
:1020FC009B465EE60423994600230093013300249B
:10210C009B4656E6FF07000001FCFFFF889E010876
:10211C000DFCFFFFFF030000FFFFFFFEFE070000AA
:10212C00002380240025444A019324038EE60120D9
:10213C00401A382800DD86E61F285BDD1F222300AD
:10214C005242511ACB401900202803D03B4A62441A
:10215C00944025436A1E95412A000A4307210D002D
:10216C000024154011425BD00F210024114004299A
:10217C0053D0111D914292415242A4180A002302DD
:10218C004BD501220024002560E680231B031C4252
:10219C0009D01E4207D133431C0343461500240BC0
:1021AC00254A019352E68022120314432403224A47
:1021BC00240B01974AE600F051FD03001A0015327A
:1021CC0020301C2A00DC84E65646083B00229E4048
:1021DC0089E600F043FD01000200153120321C2974
:1021EC0000DC4EE6340008380025844053E6009BA2
:1021FC009C4641E71249220061442E008D408A40E2
:10220C00C640691E8D4132432A43C4405307B6D0A1
:10221C000F2111400429ACD1B1E765076402240BEE
:10222C00D2081543002211E6802212031443240322
:10223C00014A240B0AE6C046FF0700003E040000DA
:10224C001E040000F8B557464E464546DE460400CF
:10225C00E0B51F0010000B03620F4E00CD0F5B0AA0
:10226C0039031343490AE200440F2143C24C9146FF
:10227C009246C0007A008046760D520DFF0FA242A6
:10228C0000D1B4E001246740BB46BD4200D188E0D8
:10229C00B41AA446002C00DCB2E0002A00D1C5E040
:1022AC00B54A964200D18BE2802212041143624659
:1022BC00382A00DDA1E11F2A00DD16E220270C00E0
:1022CC00BF1ABC400200A0466446B840E2404446F7
:1022DC0014430200501E82416046C14022435B1AE7
:1022EC0049468C1AA145924152429B1A9846434644
:1022FC001B0200D417E143465B025B0A9846434637
:10230C00002B00D16CE1404600F0A8FC0200083A1A
:10231C00202120004346891A9340C840944003432F
:10232C00964200DD57E1961B711C1F2900DDCBE1A5
:10233C00202218002600521A94409040CE40CB40E8
:10234C00621E94413043984600260443630709D02B
:10235C000F232340042B05D0231DA342A441644228
:10236C00A0441C0043461B0200D4DFE0824B013624
:10237C009E4200D1FBE04246804BE4081A40130019
:10238C00710552075B0222431B0B490D0905ED0732
:10239C00194329431000F0BCBB46B246A946A046DF
:1023AC00F8BDB41AA446002C58DD002A00D19EE0DA
:1023BC00714A964200D13BE18022120411436246DD
:1023CC00382A00DDC1E01F2A00DCBBE10C00203AFA
:1023DC00D44022006446202C04D040273F1BB94037
:1023EC00084380464446611E8C411443B1E00C0006
:1023FC0004432AD0BB46BD422DD0614CA446B44404
:10240C006446002C5CD0941BA446002E00D015E131
:10241C004D461D4300D1C3E1651E012C00D10CE2D9
:10242C00554EB44200D1F8E1AC460EE10A0002432D
:10243C0000D136E12200013A012C00D1C6E14E4C0C
:10244C00A44500D1F4E0944631E701246740BB4633
:10245C00BD4200D01CE74A4CA446B4446446002C50
:10246C0000D1CFE0941BA446002E00D15CE1424E7B
:10247C00B24200D1ECE18026360433436446382C5A
:10248C0000DDB3E11F2C00DD38E22026361B1C00DA
:10249C00B4404F46A0466446E74044463C434F4652
:1024AC00B7403E00771EBE4134436646F340C91820
:1024BC00241884429B415B429846160088444EE0A7
:1024CC00304A741C144200D0D6E04A461A43002EFF
:1024DC0000D05BE1002A00D1A5E10A00024300D044
:1024EC00BBE14A465907D2080A43DB0827E00A0039
:1024FC00024300D174E12200013A012C05D01E4C9C
:10250C00A44500D194E0944659E74844484592418B
:10251C005B189846040052429044434602261B0224
:10252C0000D5C4E0013E630700D011E74346B44632
:10253C005907E2080A43DB080F498C4540D0614635
:10254C001B0349051B0B490D20E701430C00611EC1
:10255C008C414C444C4592415242904698444346DF
:10256C001B02E0D5044B01369E4200D09FE03100A7
:10257C00002300220AE7C046FF070000FFFF7FFF91
:10258C0001F8FFFFFE070000002A00D160E10A00FD
:10259C0002434DD04A465C07D20822438024DB0814
:1025AC002403234207D0CE08264204D15D463300D3
:1025BC00C20849070A43510FD200D20849070A43FF
:1025CC001100194300D1C8E1802109030B431B03FF
:1025DC00D5491B0BDAE6D549B61A0B409846B5E639
:1025EC00200000F03BFB020018321F2A00DC8FE6B3
:1025FC00230008388340002492E608430200501E52
:10260C0082416DE6CA4C721C224200D0ADE04A46B3
:10261C001A43002EB8D1002A00D158E10A00024317
:10262C0000D059E14A465907D2080A43DB0886E72D
:10263C004A465907D2080A43DB08C1E7BA4DAA42F9
:10264C0000D11EE180252D042B436446382C5DDC23
:10265C001F2C00DDD0E0202567462D1B4E461C00AC
:10266C00FE40AC4034434E46AE403500FB406E1E3F
:10267C00B541C91A2C434EE04A46141AA145924161
:10268C00524290465F1A3A004746D21B90461202BD
:10269C0000D58BE04246224300D030E600230025D3
:1026AC004DE74A465907D2080A43DB0844E742463D
:1026BC009E4B61081A401300012214400C43DA07A8
:1026CC005B089846144341E61A001F3EF240160080
:1026DC00202903D04022511A8B401C43621E944186
:1026EC0000233443984600261DE70C00203AD440C2
:1026FC0022006446202C04D040273F1BB9400843DD
:10270C0080464446611E8C412243E9E54C462343F6
:10271C001C00631E9C41041BA0429B415B42CB1AD4
:10272C0098465D461600E2E54E461E4300D1AEE0EB
:10273C00661E012C00D1FDE07B4FBC4200D107E1AD
:10274C00B4469BE664462022121B0C009440070002
:10275C009040A0466446421E90416246E740444683
:10276C00D1403C4304435B18F3E66F4CA24200D1CA
:10277C00D5E048445B184845894149425B18DC0761
:10278C0040085B08984616000443CCE6002A00D0AB
:10279C0082E00A00024340D1802300251B0313E78B
:1027AC004B07C2081A435D46CB08C5E64A46841A55
:1027BC00A0429241CB1A52429B1A98465D469EE526
:1027CC004A465907D2080A43DB08F9E64A46141A66
:1027DC00A14592415B1A52429B1A9846012686E506
:1027EC004A465907D2080A43DB08A5E64C46234360
:1027FC001C00631E9C415BE665461E00203DEE40BE
:10280C00202C05D040252D1BAB404C461C43A2462A
:10281C005446631E9C4134437DE74B07C2081A4360
:10282C005D46CB08CCE60A00024300D136E74B07E5
:10283C00C2081A435D46CB0881E64A46841AA04278
:10284C009241CB1A52429B1A98465D4601264EE5A0
:10285C004B07C2081A43CB08B2E64A46141AA145E4
:10286C0092415F1A5242BA1A904612026BD54A46EE
:10287C00841AA0429241CB1A52429B1A98465D464A
:10288C0064E54B07C2081A435D46CB0898E64B0734
:10289C00C2081A43CB084FE60A00024390D04A46BE
:1028AC005C07D20814438022DB081203134208D0C1
:1028BC00CE08164205D1C0084907084304005D46FE
:1028CC003300610FE2004907D2080A4378E64B0750
:1028DC00C2081A43CB0832E648445B18484592417B
:1028EC00984652429044434604001B0200D41AE618
:1028FC0042460E4B01261A40904614E666461F00CF
:10290C00203EF740202C05D04026361BB3404C46C9
:10291C001C43A2465446631E9C413C43C8E511002F
:10292C000023002232E5C046FF070000FFFF7FFFB7
:10293C00FE0700004A461418844292415B189846E0
:10294C0052429044E9E54246224300D1A6E6EAE52C
:10295C004B07C2081A43CB0832E600220149130088
:10296C0014E5C046FF07000070B505000C480C03C9
:10297C00160049001A035B00240B490D120B5B0D6A
:10298C00814208D0064900208B4203D1324310000B
:10299C00421E904170BD01202C43FBD1F2E7C04692
:1029AC00FF0700000A0030B5134C53000903050063
:1029BC00090B00205B0DD20FA34204DD0F488342AC
:1029CC0002DD0F4BD01830BD8020400301430D4871
:1029DC00C01A1F2808DD0C48C31AD9400B005842F6
:1029EC00002AF0D11800EEE7084CC540A446634419
:1029FC0099400B002B43F2E7FE0300001D0400007E
:102A0C00FFFFFF7F3304000013040000EDFBFFFF0A
:102A1C0070B5002816D0C317C5185D40C40F280028
:102A2C0000F01CF9114A121A0A2816DC03002E00B9
:102A3C0015339E400B23181AC54053052D032D0B3F
:102A4C005B0D03E000240023002500261B052B430F
:102A5C00E40723433000190070BD0B388540530543
:102A6C002D0300262D0B5B0DF0E7C0461E04000065
:102A7C0010B5041E10D000F0F1F80F4B1B1A0A28E9
:102A8C0011DC0B222100121AD14015300A035B0510
:102A9C008440120B5B0D01E0002300221B05134345
:102AAC002000190010BD22000B3882405B05120378
:102ABC000024120B5B0DF1E71E04000070B54300FF
:102ACC004602C40FFE201B0E591C750A08420CD07E
:102ADC00E022920094466D07360B63441B0533438A
:102AEC00E40723432800190070BD002B14D1002DDE
:102AFC001BD0280000F0B2F80A281CDC0B232A009B
:102B0C001B1ADA40030015339D400E4B12031B1A9F
:102B1C005B05160B5B0DE1E7002D09D0320B80260F
:102B2C003603094B6D071643D8E700230026D5E77B
:102B3C000026054BD2E703002A000B3B9A400025E8
:102B4C00E3E7C04689030000FF07000002004B00CA
:102B5C00F0B508035B0D3D4ECC0F400A510F5F1CC6
:102B6C000843D50037420AD039495E18FE2E16DDCF
:102B7C00FF230021DB050B43E0071843F0BD002BBE
:102B8C0006D1284327D005218901490ADBB2F1E798
:102B9C000543EDD08021C903FF230143EAE7002E52
:102BAC001CDD920111004A1E9141C0006D0F0143C2
:102BBC0029434B0748D00F230B40042B00D0043182
:102BCC008023DB040B403FD0721CFE2ED0D0890139
:102BDC00490AD3B2CEE700230021CBE732001732EB
:102BEC0022DB80211E2209040843921B1F2A1DDDB3
:102BFC00022149428E1B0100F1400E00202A04D014
:102C0C00144A944663449840054329004D1EA9413B
:102C1C00314300264B07CED180200B00C00401228B
:102C2C0003400142D3D1AFE70023ACE70A498C46FD
:102C3C0029006344D1409D400A00290098404D1E54
:102C4C00A94101431143E4E733009DE7FE0700006F
:102C5C0080FCFFFFA2FCFFFF82FCFFFF1C21012375
:102C6C001B04984201D3000C10391B0A984201D363
:102C7C00000A08391B09984201D30009043902A241
:102C8C00105C40187047C0460403020201010101A8
:102C9C00000000000000000070B582B0204B1B88C3
:102CAC009BB2204A93420BD01A0A1F490A7002D1D8
:102CBC000A00012111701D4A13700124022023E027
:102CCC00194B01221A70194B00221A70FA2024E0B9
:102CDC00134BC318651E6A46D1791E88AB005B196D
:102CEC005B005B19CB185B001149CE52023080B2ED
:102CFC00D3790133DBB2D3716B4607331B78DBB26C
:102D0C000A2BE5D90134E4B2074B1B78A34203D359
:102D1C006B460022DA71EFE7002002B070BDC046AE
:102D2C0000D80108FFFF000024000020BA08002092
:102D3C00F402002070B50124002501E00134E4B256
:102D4C00084B1B78A3420AD3611E4900064BC918D5
:102D5C00601C04F0D9FC192CF0D90A25EEE72800E8
:102D6C0070BDC04624000020F4690020F0B583B08B
:102D7C006B460022DA800026002508E0B3009B1980
:102D8C005A00164B9B1800225A720136F6B2144B9D
:102D9C001B78B3421FD30124092CEFD828001C3018
:102DAC0080B26B46991D04F0AFFC6B46D8889B79BA
:102DBC009C460A4AB3009F197900511867460F5573
:102DCC00671E010A9B1958001218D1550135ADB276
:102DDC000234E4B2E0E7002003B0F0BDAC07002001
:102DEC0024000020F0B583B06B460022DA8000246A
:102DFC0000250BE063001F49C9182800CB3080B2B6
:102E0C0004F082FC0135ADB20134E4B21A4B1B78EC
:102E1C00A342EFD8002608E0B3009B195A00174BC9
:102E2C009B1800225A720136F6B2092E1FD80124C3
:102E3C00092CF1D82800993080B26B46991D04F00A
:102E4C0063FC6B46D8889B799C460C4AB3009F194F
:102E5C007900511867460F55671E010A9B195800D7
:102E6C001218D1550135ADB20234E4B2E0E70020BE
:102E7C0003B0F0BD0407002024000020A0060020B1
:102E8C0070B584B00E21694400230B8003AA138013
:102E9C00E42004F039FC002800D075E00E236B44CC
:102EAC001D780E216944E52004F02EFC040003A9D2
:102EBC00E62004F029FC0443A4B2002C00D065E009
:102ECC000E236B441E88360403AB1B88F6180E21A8
:102EDC006944E72004F018FC040003A9E82004F07E
:102EEC0013FC0443A4B2002C52D10E236B441C8857
:102EFC00240403AB1B88E4180E216944E92004F078
:102F0C0003FC002807D10E236B441B88190A2C4A9A
:102F1C0011702C4A13700E216944EA2004F0F4FB62
:102F2C00002807D10E236B441B88190A264A1170FE
:102F3C00264A13700E216944EB2004F0E5FB0028AF
:102F4C0007D10E236B441B88190A214A1170214AA0
:102F5C0013701B4B1B78002B03D01A4A1278002AD3
:102F6C0018D1194B1B78002B03D0184A1278002A61
:102F7C0017D1174B1B78002B03D0164A1278002A56
:102F8C0016D1002004B070BD00258AE700269EE70C
:102F9C000024B1E7009222003100280006F0EAF983
:102FAC00DFE7009222003100280006F0E3F9E0E7A9
:102FBC00009222003100280006F0DCF9E1E7C0465F
:102FCC008A0900209D0600208B0900209E06002007
:102FDC008C0900209F06002010B582B08A206B4619
:102FEC00991D400004F090FB002800D078E06B465F
:102FFC009A1DDB881178564A11701B0A53708E206B
:10300C006B46991D400004F07FFB002800D06EE059
:10301C006B46DB88DA0B4E490A715B08CB801620B5
:10302C006B46991DFF3004F06FFB002800D065E063
:10303C006B46DA88474B1A808B206B46991D4000F3
:10304C0004F062FB00285ED16B46DA88414B5A8053
:10305C0018206B46991DFF3004F056FB002857D101
:10306C006B469A1DDB8811783A4A11711B0A537111
:10307C008C206B46991D400004F046FB04001A207E
:10308C0001A9FF3004F040FB0443A4B2002C46D14C
:10309C006B4606331B8801AA1288120413432D4A6F
:1030AC0093608D206B46991D400004F02DFB002889
:1030BC0043D16B469A1DDB881178264A11731B0A83
:1030CC0053731C206B46991DFF3004F01DFB002828
:1030DC0039D16B469A791F4B9A76002002B010BDFD
:1030EC001D4A11781A4B197052785A7087E71A4A90
:1030FC001179174B1971D288DA8090E7174B1A881F
:10310C00144B1A8098E7154B5A88124B5A809FE73C
:10311C00124A11790F4B197152795A71A8E7104B59
:10312C001B78002B04D00B4BE12252029A60B8E7BB
:10313C000A4B9A68074B9A60B3E7064B18225A73EE
:10314C0000221A73BDE7054B9A7E024B9A76C4E7B0
:10315C00C064002040650020000000200800002012
:10316C00EF020020F0B589B01E236B4400221A80B8
:10317C00002401E00134E4B2052C5DD825003B3578
:10318C00AD00ADB21E216944280004F0BDFA002840
:10319C00F0D11E236B441B88180A190B621C914238
:1031AC00E8D10F210F0007400142E3D0D600B2183E
:1031BC00234EB61877703372681C80B21E236B4492
:1031CC00190004F0A1FA6B46DB8B1A0AB27073710A
:1031DC00A81C80B21E236B44190004F095FA6B46B0
:1031EC00DB8B1A0AF270B3710335A8B21E236B4441
:1031FC00190004F089FA6B46DB8B1A0A3271F371F1
:10320C00651CEDB27078290005F0F8F8317A4A089F
:10321C00B37801200240014000200590F079049021
:10322C00B07903907079029030790190F078009029
:10323C00280005F0FBF99DE7002009B0F0BDC04661
:10324C006C100020F0B5D6464F4680B583B03220C6
:10325C0011F064FF061E67D0354B1B78FE2B65D131
:10326C000027334C49E02278F2540133DBB20134AD
:10327C00132BF8D9BA46BB00DB199B002D4A994693
:10328C009144711C1422484611F06AFF142200214B
:10329C00300011F06EFF002501942378FD2B06D829
:1032AC00312D04D8735501340135EDB2F4E773199F
:1032BC00013B1B78002B01D00135EDB2280011F039
:1032CC002DFF53469B0053449B001A4AD318D860D9
:1032DC00002816D02A00310011F042FF164A13784C
:1032EC00013313702A000021300011F042FF019BC2
:1032FC001B78FE2B0FD10137FFB2042F0BD8002304
:10330C00B6E714220021484611F033FF300011F0CB
:10331C000FFF0E2003E0300011F00AFF002003B075
:10332C00C0BCBA46B146F0BDFB20F8E7FF20F6E77B
:10333C0000DC01085C6500205F0A002010B5FFF777
:10334C00ABFCFFF7F7FCFFF711FDFFF74BFDFFF7A9
:10335C0097FDFFF741FEFFF705FFFFF773FF10BD69
:10336C0070B50124002505E0601C04F07FFA0BE029
:10337C000134E4B2074B1B78A34209D3631E5B00F4
:10338C00054A995A0029EFD1192CF1D90A25EFE7F2
:10339C00280070BD24000020F4690020F8B5002539
:1033AC00002601E00135EDB2124B1B78AB421FD366
:1033BC002F00AB005B195A000F4BD35C002BF1D0E4
:1033CC000124092CEED8601EBA00D21951000A4B08
:1033DC005B18195C09021B5DC91889B230001C30DE
:1033EC0080B204F043FA0136B6B20234E4B2E8E734
:1033FC000020F8BD24000020AC070020F8B5DE4604
:10340C0057464E464546E0B50F0016001C000AAB69
:10341C001B789B460BAB1B789A460CAB1B789946DA
:10342C000DAB1D780EAB1B7898460100E42004F020
:10343C001DFA390A89B2E52004F018FAB9B2E6206F
:10344C0004F014FA310A89B2E72004F00FFAB1B291
:10345C00E82004F00BFA24025C44A1B2E92004F049
:10346C0005FA53461902494489B2EA2004F0FEF9E0
:10347C002D024544A9B2EB2004F0F8F90020F0BC71
:10348C00BB46B246A946A046F8BD000010B51F4C7D
:10349C0063785B01217819438A20400004F0E6F937
:1034AC002379DB030622A15E194389B28E204000EA
:1034BC0004F0DCF9164C21881620FF3004F0D6F904
:1034CC0061888B20400004F0D1F963791B02217BC9
:1034DC0019431820FF3004F0C9F921898C204000D1
:1034EC0004F0C4F961891A20FF3004F0BFF9637B42
:1034FC001B02217919438D20400004F0B7F9A17EFD
:10350C001C20FF3004F0B2F9002010BDC064002074
:10351C004065002070B5342200210E4811F029FEC0
:10352C000124002505E0601C04F0A0F90BE0013437
:10353C00E4B2094B1B78A34209D3631E5B00054A16
:10354C00995A0029EFD1192CF1D90A25EFE7280057
:10355C0070BDC046F46900202400002010B5074B54
:10356C001A68074B9A4200D110BD04F095F9002857
:10357C00FAD1024B024A1A60F6E7C046F07F0020EF
:10358C00ADDEEFBE30B58FB004AB009307AB1222AB
:10359C006A4408A901200BF075FD03AC009405AB3F
:1035AC000E226A4406A902200BF06CFD01230A933B
:1035BC0000250B956B465B8A099309A908980FF0B7
:1035CC00DFFE0A9502230B932388099309A905981A
:1035DC000FF0D6FE6B46598A0022089810F025F899
:1035EC0005200CF0E1F82188059810F017F8041E5E
:1035FC0003D0002420000FB030BD12236B44198877
:10360C000122089810F011F805200CF0CDF803AB4E
:10361C001988059810F002F80128EBD10400E9E7AD
:10362C0010B50CF061FA0400E1231B024360802307
:10363C00DB00036180235B01836011F0DDFB2268FA
:10364C00136820210B43136010BD000070B50500FA
:10365C000024032C10D863001B199B00074AD318B5
:10366C0099682800FCF748FD002802D00134E4B228
:10367C00EFE70134E0B200E0002070BD8C000020C8
:10368C0070B50400002501E00135EDB2052D25D8FB
:10369C0018492000FCF730FD002821D016492000E5
:1036AC00FCF72AFD00281DD014492000FCF724FD4E
:1036BC00002819D012492000FCF71EFD002815D057
:1036CC0010492000FCF718FD002811D00E492000ED
:1036DC00FCF712FD0028D7D1062000E0002070BDB9
:1036EC000120FCE70220FAE70320F8E70420F6E7C4
:1036FC000520F4E7C89E0108CC9E0108D09E010865
:10370C00D49E0108D89E0108DC9E010830B583B018
:10371C000500012401E00134E4B2052C14D8AC42BC
:10372C00F9D00B4B1A88110A0A4B19705A709C70FD
:10373C0003230093073300220021200005F02EFF05
:10374C000A200CF025FBE6E7002003B030BDC04694
:10375C00580000207C070020F0B5DE4657464E4648
:10376C004546E0B583B000AF444B1B780733DB080C
:10377C00DB006A46D31A9D466D4600233F4A1278F9
:10378C00934207D20022EA545C003D496252013355
:10379C00DBB2F3E7013801232B54012201E00132A3
:1037AC00D2B2062A19D883001B185B001B189B1871
:1037BC005B0034495B5A002BF1D0541E0121A1400F
:1037CC000C002F4E41008C46895B21436446A1536B
:1037DC00DB08013B0221E954E1E702239B465E46EC
:1037EC000136F3B29B4600239C4600222EE00130AA
:1037FC00C0B2062828D8A3001B195B001B191B1884
:10380C005B0020495B5A002BF1D0DB08013B7B604D
:10381C00E95C0029EBD10100013901268E40B0464C
:10382C001749894661008A4649465646715A4646AA
:10383C0031434E46534699537B685946E954634687
:10384C000133DBB29C46D2E70132D2B20B4B1B7870
:10385C009A4207D21400A95C5B46013B9942F3D112
:10386C000120C6E76346002BB9D10020BD4603B04A
:10387C00F0BCBB46B246A946A046F0BD24000020D1
:10388C0034050020F402002070B504000B78002BE6
:10389C0003D105780023002002E0FF25FAE701336D
:1038AC00064A12789A4208DDE25CAA42F7D2CE5C54
:1038BC00002EF4D1D8B21500F1E770BD2400002021
:1038CC00010000230120044A12789A4203DDCA5CED
:1038DC0010400133F7E7704724000020F0B58FB09B
:1038EC0005000E00002401942E22002102A811F0E4
:1038FC0040FC1A220021484811F03BFC2900013DF4
:10390C00464B5C55464B5C55012000E001300628C7
:10391C0016DCAB005B195B005B191B185B00414AA2
:10392C009B5A002BF2D0DB08B2B29342EED1731E3D
:10393C003A4A0121D154384B1E70C0B20FB0F0BDC1
:10394C00012300E00133384A12789A4209DB99428C
:10395C00F8D05A1E3148FF24845431480024845432
:10396C00F0E7002401A8FFF7ABFF00280CD101A958
:10397C002A48FFF789FF0130C4B2B44204D0611E5B
:10398C0001AB01225A5403E0002225E00132D2B2ED
:10399C00062AE7D88B005B185B005B189B185B0052
:1039AC0020481B5A002BF1D0DB08DBB2013B01A8ED
:1039BC00C05C0028EAD1194F785C0130C0B2FF5CC2
:1039CC008742E3D9154FF8541548C454DEE7531C0D
:1039DC0011498C54DAB20400631E1149C85C0028EA
:1039EC00F5D1012200E00132062AA7DCAB005B19FD
:1039FC005B005B199B185B000A495B5A002BF2D0E9
:103A0C00DB08711E054C615C0139034C615C8B4217
:103A1C00E9D1D0B292E7C046546600205409002088
:103A2C0070090020F402002024000020F0B5CE46DE
:103A3C00474680B585B080460F0016001D00354BFB
:103A4C001878FFF74BFF0400002D04D0314B1B7886
:103A5C009946BB420FD0002D0FD17B1E2E4AD35C52
:103A6C00012B04D0013B2D4AD35C994607E0294B2E
:103A7C001B78994603E02C0001E000239946254B66
:103A8C001B7843451CD03000FFF7CAFD2000FFF720
:103A9C00C7FD204B1B784B4535D01E4B19780023A6
:103AAC000393013B02930193033300930B00220019
:103ABC00300005F0EBFF05B0C0BCB946B046F0BD18
:103ACC000CF086FA8046002D16D1154B19683A0079
:103ADC0012F0E0FA134B1968404612F0FBFA40461C
:103AEC00FCF714FB82B23223414630000CF04AF84A
:103AFC0064200EF0D9F9C6E70B4B19682B003A007D
:103B0C0012F0C8FAE6E720000BF0EEFF01210CF0F2
:103B1C0085F8C2E7BA08002054090020546600203A
:103B2C00800000208800002084000020F0B5C646EC
:103B3C0000B582B00600574C574B220023CB23C252
:103B4C00196811609B8893802000FCF7DFFA82B221
:103B5C0001235B4200933333210030000BF0E2FF72
:103B6C00012413E04B4D22004C49280012F092FA2C
:103B7C002800FCF7CBFA82B201235B42009333336B
:103B8C00290030000BF0CEFF0134E4B2052CE9D94A
:103B9C0001235B42009333330322414930000BF085
:103BAC00C1FF002732E007231340D2083D493948B2
:103BBC0012F070FA374B98461800FCF7A7FA82B24D
:103BCC0001235B4200933333414630000BF0AAFFD4
:103BDC000134E4B2052C0ED8AB005B195B005B1909
:103BEC001B195B00304A9A5A002ADCD12F4929480C
:103BFC0012F050FADEE701235B42009333330222CA
:103C0C002B4930000BF08EFF0137FFB2294B1B788C
:103C1C00BB4232D93D007A1C1E4C2749200012F0C1
:103C2C0039FA2000FCF772FA82B201235B42984603
:103C3C0000933333210030000BF074FF16237B43C9
:103C4C00194A9B5A5900C91849001C4BC91805221E
:103C5C00200012F073FA43460093333305222100FF
:103C6C0030000BF05FFF43460093333301221449BD
:103C7C0030000BF057FF0124ACE701235B420093AB
:103C8C00333301220F4930000BF04CFF02B080BCE3
:103C9C00B846F0BDE4080020E09E0108F49E01083F
:103CAC0084AC01080C9F0108F4020020089F010855
:103CBC0018A0010824000020FC9E0108A8A30108FC
:103CCC00F09E0108D4D10108F0B583B006002C4C4D
:103CDC002C4B220023CB23C223CB23C21B681360A3
:103CEC002000FCF713FA82B201235B4200933333BA
:103CFC00210030000BF016FF012523E0204F23009C
:103D0C002A002149380012F0C5F93800FCF7FEF9F9
:103D1C0082B201235B4200933333390030000BF045
:103D2C0001FF0134E4B20A2C0AD86B1E5B00174A5F
:103D3C009A5A611E80231B020B411342F1D0DDE71E
:103D4C000135EDB2124B1B78AB4201D30124EAE7EB
:103D5C000B4C104B220023CB23C223CB23C203CB0F
:103D6C0003C22000FCF7D2F982B201235B4200931C
:103D7C003333210030000BF0D5FE03B0F0BDC0464C
:103D8C00E4080020149F0108309F0108F46900200A
:103D9C0024000020449F0108F0B5C64600B582B04F
:103DAC0080460CF015F9060000230370914B1A782D
:103DBC00914C9249200012F06DF92100300012F064
:103DCC0089F98F4B1A788F49200012F063F9210082
:103DDC00300012F07FF906230093043B00228A493D
:103DEC00200012F057F92100300012F073F9874AC5
:103DFC008749200012F04EF92100300012F06AF9C8
:103E0C00844A8549200012F045F92100300012F057
:103E1C0061F9824B220023CB23C219681160998867
:103E2C0091809B7993712100300012F053F9012499
:103E3C000DE0714B7A4A11681960918899809279DA
:103E4C009A716D49300012F045F90134E4B2052C39
:103E5C0038D8694D22007349280012F01BF929004B
:103E6C00300012F037F9704B1B5D042BE9D89B0026
:103E7C006E4AD3589F4660496D4B0A0023CB23C230
:103E8C0003CB03C21B781370DBE75B4A694B23CB74
:103E9C0023C2D6E75849684B0A0023CB23C223CB55
:103EAC0023C21B881380CCE75349644B0A0023CBF5
:103EBC0023C223CB23C219681160998891809B7906
:103ECC009371BEE74C495E4B0A0031CB31C231CB0A
:103EDC0031C2300012F0FEF801240BE0464D2200F6
:103EEC005849280012F0D6F82900300012F0F2F8E8
:103EFC000134E4B2062C22D8651EEB005B1BDB0000
:103F0C00514A9B58002BE9D0EB005B1BDB004E4A5F
:103F1C00D318586A08F0C6FD0700AD004B4BE858A3
:103F2C0008F0C0FD344D00903B00220048492800A9
:103F3C0012F0B0F82900300012F0CCF8D8E73000BD
:103F4C00FCF7E4F830180322424911F009F930006B
:103F5C00FCF7DCF830181D223F4911F001F9300054
:103F6C00FCF7D4F8050001240BE0234F22003B4959
:103F7C00380012F08FF83900300012F0ABF8013431
:103F8C00E4B2052C0CD81B4B1B78013B5B00344A6C
:103F9C009A5A611E80231B020B411342EFD0E4E7B7
:103FAC003000FCF7B3F82D042D0CA8420ED03000D5
:103FBC00FCF7ACF830180322264911F0D1F843462F
:103FCC00002B09D102B080BCB846F0BD30180522D8
:103FDC00244911F0C5F8EAE73000FCF797F882B2F3
:103FEC0001235B4200933333310040460BF09AFDC2
:103FFC00E8E7C046BA080020E4080020649F0108E6
:10400C00F0020020809F01089C9F0108BC9F0108C2
:10401C00C89F0108E09F0108EC9F010808A0010857
:10402C0024A001081CA001083409002020A10108CB
:10403C002CA0010844A0010850A001086CA00108A4
:10404C008CA00108A4A0010834150020240F002026
:10405C00C0A0010818A00108F0A0010810A10108D7
:10406C00F469002018A1010870B506002949FCF775
:10407C0043F800280AD028493000FCF73DF8002806
:10408C0046D03578232D04D0002418E0234B187823
:10409C0070BD701C11F017F8C0B2002803D0204B73
:1040AC001B78834205D21D4B1C78844203D06620BA
:1040BC00EEE700B2ECE720B2EAE70134E4B2184BC9
:1040CC001B78A3420DD9A10009194900154BC91839
:1040DC003000FCF711F80028EFD1002DEDD020B204
:1040EC00D6E70025092D11D8A900491949000E4B16
:1040FC0059183000FCF700F8002802D00135EDB259
:10410C00F0E72C02FE20204300B2C1E76420BFE799
:10411C00FF20BDE734A1010838A10108BA0800202E
:10412C0024000020AC070020A0060020F8B50400F5
:10413C000E000025032D09DCAB002949C9183000FD
:10414C00FBF7DAFF002843D00135F3E70125254BB7
:10415C001B78AB420BDDA90049194900224BC91849
:10416C003000FBF7C9FF002834D00135EFE70025FC
:10417C00092D0BDCA900491949001C4B59183000BA
:10418C00FBF7BAFF002827D00135F1E7184B194A85
:10419C001A60174B1D68002D0FD02B681F68380054
:1041AC00FBF7B4FF02003900300011F0B6FF002815
:1041BC0014D06A680E4B1A60EBE7A000001940009F
:1041CC00094C0019310011F0A0FFFFF7E7F802E0ED
:1041DC00062000E00720F8BD0720FCE70820FAE7DE
:1041EC0084A3010824000020AC070020A0060020B6
:1041FC003C090020E4000020F8B504000D00002666
:10420C00092E14DCB10089194900344B59182800C7
:10421C00FBF772FF002801D00136F1E7013C0122C7
:10422C00B2402F496400635A13436352F8BD002611
:10423C00032E09DCB3002B49C9182800FBF75CFFDF
:10424C00002845D00136F3E70126274B1B78B342F3
:10425C000BDDB10089194900244BC9182800FBF764
:10426C004BFF002836D00136EFE7214B214A1A606C
:10427C001F4B1E68002E20D033681F683800FBF7D8
:10428C0045FF02003900280011F047FF002823D019
:10429C007268174B1A60EBE7B000801940001018D9
:1042AC00290011F032FF013C0122B2400C4964009C
:1042BC00635A134363520020B8E7092EF3DCB300B2
:1042CC009B195B00054A9B5C002BE5D00136F4E79B
:1042DC000620ABE70720A9E70820A7E7A0060020E7
:1042EC000407002084A3010824000020AC07002050
:1042FC0040090020E400002070B5012500261DE0D7
:10430C000134E4B2052C17D820000BF0EDFB426B06
:10431C0080231B029A42F3D1144B1B78013B611E84
:10432C00802212020A41110011485B001A5A0A43FA
:10433C001A52E5E70124E5E70135EDB20D4B1B7888
:10434C00AB4211D3094B1B78AB42F3D000221321A3
:10435C00280005F075FB32200BF026FA064B1B7873
:10436C00002BE9D00226E7E7300070BDBA08002028
:10437C00F4690020240000205009002010B501240D
:10438C0007E020000BF0B0FB01210BF047FC0134DF
:10439C00E4B2052C12D80A4B1B78013B5B00094A8E
:1043AC009A5A611E80231B020B411342E9D1200053
:1043BC000BF09AFB00210BF031FCE8E7002010BD5C
:1043CC00BA080020F469002070B50BF0A5F80BF0CA
:1043DC0043F903F0C5FA0AF0D9FD09F05DFB0BF0C7
:1043EC006FF90AF081FD0BF09DF90AF0A7FE002889
:1043FC001AD1FFF7C7F8002821D0364B01221A70CA
:10440C0032200BF0D1F908F0E3FA334BE1225202DF
:10441C009A600124052C17D82F4B996820000BF0BB
:10442C00F3FB0134E4B2F5E7FFF798F8BFF34F8FD5
:10443C002A4B2B4ADA60BFF34F8FC046FDE7322080
:10444C000BF0B2F908F0C4FAFEF778FFFFF796FF0D
:10445C000AF08EF8234B1B78002B17D180252D01E9
:10446C009024E4050122290020000FF0DEF8FA2048
:10447C0040000BF099F90022290020000FF0D5F82C
:10448C0003F0A4F8184B01221A7070BD80252D0181
:10449C009024E4050122290020000FF0C6F8FA2030
:1044AC0040000BF081F90022290020000FF0BDF82C
:1044BC0064200BF079F90122290020000FF0B5F8E7
:1044CC0064200BF071F90022290020000FF0ADF8E8
:1044DC00D6E7C046EF0200204065002000ED00E06A
:1044EC000400FA05BA080020EE02002010B50DF009
:1044FC00BDFC08F009F9FFF767FF03F0F3FB0BF0C5
:10450C0042FC10BD30B583B01E2010F007FE040035
:10451C001E22002110F02DFE08490A7D013A8B7DE8
:10452C00487D098B9200064D525901910090054926
:10453C00200011F0AFFD200003B030BD406500201D
:10454C0050A4010894A3010800B585B00A00074BDC
:10455C00197801230393023B0293019303330093D5
:10456C000B0005F093FA05B000BDC046BA08002058
:10457C0030B587B005000C0000230493039302931D
:10458C0001930093002200210020FEF737FF6A1EE2
:10459C00D3009B1ADB00154A9A58002A07D0611EDB
:1045AC00CB005B1ADB0011495B58002B0FD1002AA2
:1045BC0015D1621ED3009B1ADB000C4A9B58002BB2
:1045CC0012D0200002F06EFF002007B030BD280092
:1045DC0002F068FF200002F065FF0020F5E72800DC
:1045EC0002F060FF0020F0E76820EEE734150020B1
:1045FC0030B5002201E0237001328418835C002B5B
:10460C0007D00449CD5C032129400129F3D1203383
:10461C00F1E730BD65D80108F0B5CE46474680B508
:10462C0089B00400DB4B1D78052D00D115E2DA486A
:10463C00AB005A19920000211154801841700230BD
:10464C00042210F096FD2378622B02D1A3782E2B36
:10465C0056D0D24D2100280011F057FDD04E31001C
:10466C00280012F0D1FB04003100002012F0CCFB2A
:10467C0005003100002012F0C7FB0600002C00D111
:10468C00EFE12000FEF7E2FF041E02D0002D00D166
:10469C00B5E1002D00D1E6E1002E00D1E5E13000BE
:1046AC00FEF7D4FF002800D1BAE1BA4B1E78BA4A03
:1046BC00B3009919890004278F549919890051184E
:1046CC00CC70C871B34C26782800FEF7D9FFB24ADB
:1046DC00B3009B199B00D318587021788B005B1882
:1046EC009B00D3185B78002B00D1C0E10131A94BA2
:1046FC0019700026300009B0C0BCB946B046F0BDF8
:10470C006778303FFFB2052F00D9A8E1A24AAB0071
:10471C005919890001208854531800225A709F702F
:10472C00E61C07329F49300011F0F7FC002824D119
:10473C00AB005D19AD00984B5D190523EB70FA00C9
:10474C00D219994B9B181B7A012216001E401A4253
:10475C0005D000268F4A137801331370CAE7012362
:10476C000593002304930393029301930093002277
:10477C000121380003F05AFFECE70E228B49300080
:10478C0011F0CBFC002820D1AB005D19AD00824BA1
:10479C005D190623EB70FA00D219834B9B181B7A18
:1047AC00022216001E401A4201D00026D2E7012335
:1047BC000593002304930393029301930093013A0E
:1047CC000021380003F032FFC4E70C227849300096
:1047DC0011F0A3FC00287BD1FA00D219724B9B1864
:1047EC009E78002E0FD0FA00D2196F4B9B18DE78F2
:1047FC00002E29D0FA00D2196B4B9B181E79002E73
:10480C0044D00C26A6E7644B9846AB005B199B0082
:10481C0043440922DA7020000F3010F04EFC5D4B3F
:10482C001978C3B28A0052189200424413710122C3
:10483C0005920022049203920292019200920021AE
:10484C00380003F0F3FE85E7534B9846AB005B1939
:10485C009B0043440A22DA7020000F3010F02DFC2C
:10486C004C4B1A78C0B293009B189B0043441871B0
:10487C000123059300230493039302930193009067
:10488C0000220021380003F0D1FE63E7424B98462A
:10489C00AB005B199B0043440B22DA7020000F30F5
:1048AC0010F00BFC3B4B1A78C0B293009B189B008A
:1048BC00434418710123059300230493039302933B
:1048CC000190009300220021380003F0AFFE41E775
:1048DC000D223849300011F020FC002800D08CE06B
:1048EC00FA00D219304B9B185E79002E0FD0FA00CB
:1048FC00D2192D4B9B189E79002E2AD0FA00D21972
:10490C00294B9B18DE79002E56D00D2622E7224B20
:10491C009846AB005B199B0043440C22DA702000D4
:10492C00103010F0CAFB1B4B1A78C0B293009B18C6
:10493C009B004344187101230593002304930393B4
:10494C0002900193009300220021380003F06EFEC8
:10495C0000E7114B9846142399465D434544073BA9
:10496C00EB702000103010F0A8FB0A4B1B78C0B283
:10497C004A46534343441871012305930021049183
:10498C0003900291019100910B000A00380003F092
:10499C004DFEDFE65F0A00205C650020C4090020A4
:1049AC0020A00108B8AC01086C1000206CA4010810
:1049BC007CA401088CA401082E4B9846142399461C
:1049CC005D434544063BEB702000103010F075FB46
:1049DC00294B1B78C0B24A465343434418710123F8
:1049EC0005930490002103910291019100910B0019
:1049FC000A00380003F01AFEACE60026AAE6002EE8
:104A0C0000D046E61C4D2B781A499A00D01880002D
:104A1C00023646540A18D47001332B70002669E60E
:104A2C00154B98461A78134F930099188900032058
:104A3C00C8557B18DC70300010F03AFBFEF786F896
:104A4C00079043461B789800C0188000C0190630A8
:104A5C00042207A910F084FB34E60E264AE6002651
:104A6C0048E6672646E6672644E6672642E667265A
:104A7C0040E6C0465C6500205F0A0020F8B50C00DB
:104A8C00022817D0032803D001280FD00020F8BD2E
:104A9C00354B1A78013A93009B189B00334AD31874
:104AAC0001221A7407F088FE0020F0E70800FFF7D7
:104ABC00B3FDECE72C4B1D78013DAB005B199B0063
:104ACC002A4AD318DF68002F34D03800FBF71EFBBE
:104ADC0006002000FBF71AFB31180231380011F0E8
:104AEC00B9FA224FAB005D19AD007D19E8601E4D7F
:104AFC002A78013A93009B189B00FB18D868731C0A
:104B0C00C018210011F001FB2A78013A93009B1880
:104B1C009B00FF18FB6813229A55134B1A78013A25
:104B2C0093009B189B001149CB18DB68002B11D00C
:104B3C000020ACE70800FBF7E9FA013010F0EEFAC0
:104B4C00AB005D19AD00094B5D19E860210011F057
:104B5C00DCFAE2E790008018800040181422002153
:104B6C0010F007FB0E2092E75F0A00205C65002026
:104B7C00F0B5DE4657464E464546E0B589B082460E
:104B8C00894615001C00002305930522002106A868
:104B9C0010F0EFFA2EE1E91C0120FFF76FFF00285F
:104BAC0006D1D34B02221A700D232370B8460FE1A5
:104BBC005222D049200010F0D3FACD4B00221A70AB
:104BCC00B84605E1CA4B00221A70CB490320FFF707
:104BDC0055FF4122C949200010F0C2FAB846F7E04F
:104BEC0029000220FFF74AFF002804D10D2323706F
:104BFC0000239846ECE05222BE49200010F0B0FA97
:104C0C0000239846E4E0701C9922920021000BF0DE
:104C1C0077F98046DCE02722B949200010F0A0FA91
:104C2C0000239846D4E02522B649200010F098FACB
:104C3C0000239846CCE01A220021B34810F099FAD0
:104C4C0001362800FBF762FA070005A8FBF75EFAAD
:104C5C003A1A013A3100AD4811F070FA2800FBF70E
:104C6C0055FA070005A8FBF751FA3B1A9BB217221D
:104C7C00FF21584604F0BCFE99229200210030001E
:104C8C000BF03EF980462000FBF740FA20181D225D
:104C9C009F4910F065FA9BE0029B1F12FBB29D4FDF
:104CAC0003933B701A220021974810F062FA721C91
:104CBC0002922800FBF72AFA060005A8FBF726FA51
:104CCC00321A013A0299914811F038FA2800FBF790
:104CDC001DFA060005A8FBF719FA331A9BB2172226
:104CEC000399584604F084FE8B4B1B78013B5B0008
:104CFC008A4A9B5A3A781341DB0706D405AB22004B
:104D0C008749200011F0C6F962E099229200210037
:104D1C0002980BF0F5F88046F0E72800FBF7F6F95F
:104D2C00804605A8FBF7F2F943461A1A013A3100FE
:104D3C00764811F003FA2800FBF7E8F9060005A8FD
:104D4C00FBF7E4F9321A92B2013A92B21721380009
:104D5C0004F076FE029A7349200011F09BF9237837
:104D6C00002B02D04B46002B08D12000FBF7CEF9CC
:104D7C0002000021200010F0FCF9A1E02000FBF75C
:104D8C00C5F982B2012300933133210050460AF059
:104D9C00C9FEEAE7FA21890001200CF0B7FD624B4D
:104DAC001B78002B00D193E0604A138801331380E9
:104DBC00029B22005E49200011F06CF900239846FA
:104DCC0006E099229200210028000BF099F8804609
:104DDC002378002B02D04B46002B7CD12000FBF714
:104DEC0095F902000021200010F0C3F94346002B76
:104DFC0000D1ADE02800FFF7FBFB3D4B1E78002EE9
:104E0C0007D103224B49280011F087F9071E00D166
:104E1C00C1E6002E07D006224749280011F07DF983
:104E2C00071E00D1CEE6022E00D1D9E62E21280095
:104E3C0011F05DF9061EC4D0033803223F4911F06E
:104E4C006CF90028BDD073783D4AD35C5B07B8D4AD
:104E5C00721B290005A811F071F905A8FFF704F9D8
:104E6C0002902D4A12789346904200D1CBE66428EA
:104E7C0000D1D0E6662800D1D5E6FF2800D1DAE6CD
:104E8C006B461F7AFE2F00D106E7013606222D490C
:104E9C00300011F042F9002800D03EE72A4B0022E6
:104EAC001A701921380004F0CBFD64200AF070FF51
:104EBC00264B1A78184B187800233900FEF7B6FDEC
:104ECC00214B1B78602B00D164E7002398467FE7C9
:104EDC00002398467CE72000FBF718F982B20123E7
:104EEC005B4200933333210050460AF01BFE75E7FA
:104EFC008C0A0020A0A40108F89E0108FCA401085B
:104F0C0044A501086CA50108680500207C07002059
:104F1C0094A501085E0A0020BA08002004070020AE
:104F2C00B4A50108E8A5010850090020EA120020E8
:104F3C000CA601089CA40108F4A4010840A50108D2
:104F4C0065D80108E0A50108C0640020F00200202B
:104F5C000922002105A810F00CF90C4B1B78002B32
:104F6C0002D14B46002B06D109B0F0BCBB46B24671
:104F7C00A946A046F0BD01235B420093333338228F
:104F8C00034950460AF0CEFDEEE7C0468C0A0020DD
:104F9C002CA60108F0B585B00F236B4400221A70C3
:104FAC000121494201200CF0B1FC0BF011F8050075
:104FBC00514B9A68E1231B039A420FD0012401E064
:104FCC000134E4B2052C09D84C4B1B78A342F7D022
:104FDC00E121090320000AF017FEF1E7484B1A887B
:104FEC0053009B185B00474A9B18474A1278474C62
:104FFC00424E317800914649200011F04BF8A42222
:10500C0030780A23920043490AF0BCFD2000FBF7DC
:10501C007DF882B230780A2321000AF0B3FD002417
:10502C0057E00F266E4432707A00D21992013A4E34
:10503C00B2180026D654394AD3550F266E440A238B
:10504C00012231000AF09EFD33780D2B24D00A2B5F
:10505C003DD0082B48D07F2B46D01A00203AD2B234
:10506C005E2A34D8312C32DC2D4A1355013464B20B
:10507C002DE001339BB2BF2BDFD87A00D2199201FD
:10508C00254EB218D25C002ACBD1BF2BF1D1234BC9
:10509C000022DA550023ECE7184B18780A23022279
:1050AC0020490AF06FFD002C19D01D4C134B1878B9
:1050BC002B0022000121FFF75BFD21001A4811F0A3
:1050CC0024F832220021200010F053F800240BF0B9
:1050DC00CDF80A4B1878471E104BDB5DCBE7124915
:1050EC000F4811F012F8E0E7002CF0DD013C64B23F
:1050FC000B4B00221A55EAE740650020F002002015
:10510C0058000020A8A30108BA080020600A00205B
:10511C0068A6010894A60108100B0020D00E0020F0
:10512C0090090020C4BE01082C0A002070B50C00A8
:10513C001C4B1A78013A93009B189B001A4AD318FF
:10514C00DB68002B2CD0194B1B68002B14D0174B91
:10515C001E683378002B12D01321300010F0C7FFDB
:10516C00051E11D0821B3100200010F0E7FF013525
:10517C000E4B1D60012070BD0C4B1860E7E70B4B0C
:10518C0000221A600020F6E73100200010F0BDFF6D
:10519C002000FAF7BBFF3618044B1E600120EAE72B
:1051AC000020E8E75F0A00205C650020880A0020E8
:1051BC00F0B583B0040083001B189B00424A9B5C33
:1051CC00012B04D0032B13D0002003B0F0BD3E4ABA
:1051DC00800003199B00D3189978DA78CB005B1800
:1051EC003A495B5C9A4201D00020EEE70120ECE7E3
:1051FC00354E8500291889007118CA78013A530078
:10520C009B189B00324A9B581F680631042201A848
:10521C000FF0A6FF2D19AD0075196B78062B45D82C
:10522C009B002C4AD3589F46391C0198FBF74AF92E
:10523C000028CAD00120C8E7391C0198FBF748F9AF
:10524C000028C2D00120C0E7391C0198FBF754F9A3
:10525C0000282DD00021381CFBF734F9002829D068
:10526C000020B2E7391C0198FBF73CF90028ACD0C0
:10527C000120AAE7391C0198FBF748F900281BD03C
:10528C000021381CFBF71EF9002817D000209CE7E2
:10529C00391C0198FBF716F9002811D10021381C94
:1052AC00FBF710F900280DD000208EE700208CE7CA
:1052BC0000208AE7012088E7002086E7012084E7A8
:1052CC00002082E7012080E75C6500206C10002044
:1052DC008C00002028A9010870B50AF079FE0600A0
:1052EC0000241BE0194B18783300194A0021FFF7F2
:1052FC003FFC3000FAF70AFF0200002130000FF0EB
:10530C0038FFAB005B199B00124AD318D8681049C0
:10531C00FFF70CFF0028E5D10134A4B20E4B1B782B
:10532C00A34211D92500A3001B199B00094AD318CD
:10533C001B7C002BF0D0E0B2FFF73AFF0028EBD03B
:10534C00064B20221A70DCE7002070BDF002002012
:10535C00F80900205C6500205F0A0020C064002072
:10536C0000207047F0B583B00500160000240194AE
:10537C000094002820D001AA012130000AF02CFE54
:10538C000023C356702B19D068276A4602213000BF
:10539C000AF022FE0FF097FE0600682F14D00100D1
:1053AC0020000AF031FC230032000A49280010F0DA
:1053BC0071FE002003B0F0BD72B6FEE701300FF0B5
:1053CC0082FEC4B20027E0E71322034928000FF045
:1053DC00C7FEEEE758A9010844A9010810B500283A
:1053EC0008D0054B1A681204120C044910F052FE36
:1053FC00002010BD72B6FEE7CCF7FF1F80A9010894
:10540C0010B582B004001000002301930023009318
:10541C00002C11D001AA01210AF0DEFD0023C35695
:10542C00323BDBB2012B09D915220C4920000FF0BD
:10543C0097FE002002B010BD72B6FEE70FF043FEDF
:10544C00C0B2694603F0CAFB0098FDF737FB0200B7
:10545C000B000349200010F01DFEEAE7C4A9010867
:10546C00A0A9010810B582B0040000230193009399
:10547C00002813D0694601A803F0F0FA01A9200016
:10548C0010F043FE0098FDF719FB02000B000449D5
:10549C00200010F0FFFD002002B010BD72B6FEE738
:1054AC00DCA9010810B582B004000023019300931D
:1054BC00002813D0694601A803F0D0FA01A92000F6
:1054CC0010F023FE0198FDF7F9FA02000B000449D5
:1054DC00200010F0DFFD002002B010BD72B6FEE718
:1054EC0004AA010870B584B00400160000230393CD
:1054FC00029300230193002819D003AA0121300044
:10550C000AF06AFD050002AA022130000AF064FDCF
:10551C0006000023EB56323BDBB2012B09D91522D6
:10552C001A4920000FF01CFE002004B070BD72B6AA
:10553C00FEE728000FF0C7FDC5B215493000FAF799
:10554C00DBFD002805D013493000FAF7D5FD002803
:10555C0016D10F4E3100280003F026FC01AA3100B1
:10556C00280003F053FC01A9200010F0CEFD019897
:10557C00FBF708F882B20849200010F08BFDD3E746
:10558C001222064920000FF0EBFDCDE7C4A901085B
:10559C0028AA01082CAA010834AA010844AA010867
:1055AC0070B584B00400100000230393604B1A788C
:1055BC0002AB1A70002C10D003AA01210AF00CFDCA
:1055CC0005005C49FAF798FD00286BD15A4B1B7803
:1055DC00013B5A4AD65C012525E072B6FEE72A004B
:1055EC005749200010F056FD2000FAF78FFD82B2CB
:1055FC00514B1878642300935A3B21000AF092FA1D
:10560C003EE001200CF050FC4B4B1A78013A711C17
:10561C0053009B189B014B4AD3185B5C002BF0D0BA
:10562C000E000135EDB2052D45D8434B1B78AB422E
:10563C00F7D010F0D1FC6B461872642300935A3BE0
:10564C00012202A928000AF06DFA28000AF04CFA8F
:10565C0003689B8CDBB26A46127A9342BFD02A0055
:10566C003949200010F016FD2000FAF74FFD82B2E8
:10567C00314B1878642300935A3B21000AF052FAFC
:10568C005422324920000FF06BFD2000FAF73EFD4A
:10569C0082B2294B1878642300935A3B21000AF0FC
:1056AC0041FAB1E70023EB56702B07D00F222849A3
:1056BC0020000FF055FD002004B070BD681C0FF0E9
:1056CC0002FD0500C6B2731EDBB2042B0BD9662398
:1056DC00662B27D0062BEED1FF222A401A49200038
:1056EC0010F0D8FCE7E710F077FC6B4618726423D7
:1056FC000093323B012202A930000AF013FA300069
:10570C000AF0F2F903689B8CDBB26A46127A934278
:10571C0001D00623DCE7FF222A400949200010F0C3
:10572C00B9FCC8E71B220B4920000FF019FDC2E79A
:10573C0008AB010838A10108F0020020D00E0020AF
:10574C0058AA0108100B002074AA010888AA0108A5
:10575C00F8AA0108DCAA0108F0B5C64600B582B06B
:10576C00050017000024002601940094002822D084
:10577C0001AA012138000AF02FFC0023C356702B1C
:10578C001BD0672398466A46022138000AF024FC95
:10579C000023C356702B17D06720002822D067280F
:1057AC0027D01922164928000FF0DAFC002002B08D
:1057BC0080BCB846F0BD72B6FEE701300FF083FC3A
:1057CC00C4B200239846DEE701300FF07CFCC6B271
:1057DC004346002B01D06720E1E731002000FEF7A3
:1057EC00C7FEDAE7330022000649280010F052FC0D
:1057FC00DCE70F22044928000FF0B2FCD6E7C046C4
:10580C002CAB01080CAB0108F8AA0108F0B5C64690
:10581C0000B582B005001700002400260194009406
:10582C00002822D001AA012138000AF0D5FB002360
:10583C00C356702B1BD0672398466A46022138004A
:10584C000AF0CAFB0023C356702B17D06720002820
:10585C0022D0672827D01722164928000FF080FC89
:10586C00002002B080BCB846F0BD72B6FEE7013035
:10587C000FF029FCC4B200239846DEE701300FF08C
:10588C0022FCC6B24346002B01D06720E1E7310071
:10589C002000FEF759FEDAE7330022000649280003
:1058AC0010F0F8FBDCE70F22044928000FF058FC3D
:1058BC00D6E7C0466CAB010848AB0108F8AA010852
:1058CC00F0B5D6464F464646C0B582B0804610006D
:1058DC00002301934346002B0ED001AA01210AF0AC
:1058EC007BFB0FF0EAFBC4B2002C4AD02F4B1B7889
:1058FC00A34203D2FF2345E072B6FEE7FF25054025
:10590C00013D2B4B9946AF007B199B000022924620
:10591C004A46514699541E004E447170B01C0422E4
:10592C000FF027FC53463374F0680FF001FC53461C
:10593C00F36001E00134E4B21C4B1B78A34219D98B
:10594C00A3001B199B001A4A9B5C002BF2D0631E10
:10595C009800C01880008018A5002D19AD00AD1856
:10596C00142229000FF0FCFB1422002128000FF058
:10597C0000FCDFE7013B0D4A137006F01DFF00230E
:10598C0000E0FF23002B0BD136220A4940460FF0D2
:10599C00E7FB002002B0E0BCBA46B146A846F0BD19
:1059AC002322054940460FF0DBFBF2E75F0A00209B
:1059BC005C65002084AB0108BCAB010810B582B05B
:1059CC000400100000230193002C14D001AA012123
:1059DC000AF002FB0FF071FBC3B2002B03D0104A8C
:1059EC0012789A4209D223220E4920000FF0B8FBFC
:1059FC00002002B010BD72B6FEE7FF230340013B4E
:105A0C009A00D3189B00084AD31800221A7406F087
:105A1C00D3FE3522054920000FF0A2FBE8E7C04673
:105A2C005F0A0020BCAB01085C650020E0AB0108FC
:105A3C0010B582B00400100000230193002C14D088
:105A4C0001AA01210AF0C8FA0FF037FBC3B2002BF0
:105A5C0003D0104A12789A4209D223220E49200010
:105A6C000FF07EFB002002B010BD72B6FEE7FF23E4
:105A7C000340013B9A00D3189B00084AD31801221B
:105A8C001A7406F099FE3822054920000FF068FBC5
:105A9C00E8E7C0465F0A0020BCAB01085C6500204B
:105AAC0018AC0108F0B5D6464F464646C0B58AB08C
:105ABC00040006AA7B4B23CB23C21B881380002C2B
:105ACC000DD0794B187801235B4200933333372286
