:020000040800F2
:10000000008000203DF70008C9F7000821EC000837
:1000100000000000000000000000000000000000E0
:10002000000000000000000000000000DDFC0008EF
:10003000000000000000000069FD000815EC000849
:10004000C9F70008C9F70008C9F70008C9F7000890
:10005000C9F70008C9F70008C9F70008F1ED000862
:10006000C9F70008C9F7000869EC0008A9EC000806
:10007000C9F70008C9F70008C9F70008C9F7000860
:10008000C9F70008C9F70008C9F70008C9F7000850
:10009000C9F70008C9F70008C9F70008C9F7000840
:1000A000C9F70008C9F70008C9F7000825EC0008DF
:0C00B00035EC000845EC0008C9F700081A
:1000BC0010B5064C2378002B07D1054B002B02D032
:1000CC00044800E000BF0123237010BDD0020020C3
:1000DC000000000054870108044B10B5002B03D01E
:1000EC000349044800E000BF10BDC04600000000FA
:1000FC00D40200205487010802780B78002A03D020
:10010C00013001319A42F7D0D01A70470023C25CFB
:10011C000133002AFBD1581E7047000002B471460F
:10012C0049084900095C49008E4402BC7047C0462E
:10013C00002243088B4274D303098B425FD3030A1A
:10014C008B4244D3030B8B4228D3030C8B420DD32D
:10015C00FF22090212BA030C8B4202D312120902BB
:10016C0065D0030B8B4219D300E0090AC30B8B42F9
:10017C0001D3CB03C01A5241830B8B4201D38B03A7
:10018C00C01A5241430B8B4201D34B03C01A52414C
:10019C00030B8B4201D30B03C01A5241C30A8B428F
:1001AC0001D3CB02C01A5241830A8B4201D38B027A
:1001BC00C01A5241430A8B4201D34B02C01A52411E
:1001CC00030A8B4201D30B02C01A5241CDD2C30990
:1001DC008B4201D3CB01C01A524183098B4201D30C
:1001EC008B01C01A524143098B4201D34B01C01AF7
:1001FC00524103098B4201D30B01C01A5241C3086F
:10020C008B4201D3CB00C01A524183088B4201D3DD
:10021C008B00C01A524143088B4201D34B00C01AC9
:10022C005241411A00D20146524110467047FFE735
:10023C0001B5002000F0F0F802BDC0460029F7D04F
:10024C0076E7704703460B437FD4002243088B426A
:10025C0074D303098B425FD3030A8B4244D3030B41
:10026C008B4228D3030C8B420DD3FF22090212BA06
:10027C00030C8B4202D31212090265D0030B8B4282
:10028C0019D300E0090AC30B8B4201D3CB03C01A6C
:10029C005241830B8B4201D38B03C01A5241430B47
:1002AC008B4201D34B03C01A5241030B8B4201D337
:1002BC000B03C01A5241C30A8B4201D3CB02C01AA2
:1002CC005241830A8B4201D38B02C01A5241430A1A
:1002DC008B4201D34B02C01A5241030A8B4201D309
:1002EC000B02C01A5241CDD2C3098B4201D3CB01B0
:1002FC00C01A524183098B4201D38B01C01A52415F
:10030C0043098B4201D34B01C01A524103098B4262
:10031C0001D30B01C01A5241C3088B4201D3CB004D
:10032C00C01A524183088B4201D38B00C01A524130
:10033C0043088B4201D34B00C01A5241411A00D2E0
:10034C0001465241104670475DE0CA0F00D0494249
:10035C00031000D34042534000229C4603098B42B9
:10036C002DD3030A8B4212D3FC22890112BA030A41
:10037C008B420CD3890192118B4208D389019211C3
:10038C008B4204D389013AD0921100E08909C30948
:10039C008B4201D3CB01C01A524183098B4201D34A
:1003AC008B01C01A524143098B4201D34B01C01A35
:1003BC00524103098B4201D30B01C01A5241C308AD
:1003CC008B4201D3CB00C01A524183088B4201D31C
:1003DC008B00C01A5241D9D243088B4201D34B0037
:1003EC00C01A5241411A00D20146634652415B1079
:1003FC00104601D34042002B00D54942704763465A
:10040C005B1000D3404201B5002000F005F802BD9E
:10041C000029F8D016E770477047C0468446101C78
:10042C0062468C46191C634600E0C0461FB501F0BD
:10043C00B1FB002801D40021C8421FBD10B501F04A
:10044C0009FB4042013010BD10B501F0A3FB0028A0
:10045C0001DB002010BD012010BDC04610B501F01D
:10046C0099FB002801DD002010BD012010BDC04605
:10047C0010B501F02BFB002801DC002010BD012081
:10048C0010BDC04610B501F021FB002801DA002098
:10049C0010BD012010BDC0468446081C6146FFE714
:1004AC001FB500F013F9002801D40021C8421FBD6C
:1004BC0010B500F095F84042013010BD10B500F0B9
:1004CC0005F9002801DB002010BD012010BDC0463D
:1004DC0010B500F0FBF8002801DD002010BD012054
:1004EC0010BDC04610B500F0A3F8002801DC0020B8
:1004FC0010BD012010BDC04610B500F099F80028C1
:10050C0001DA002010BD012010BDC046994201D176
:10051C00801A04D002D2012040427047012070475B
:10052C00F0B5CE46474615042D0C2E0080B50704B9
:10053C00140C3F0C9946030C7E435D4367436343A5
:10054C007F19340CE4199C46A54203D980235B0225
:10055C009846C4444B4643435143250C36046544EA
:10056C00360C2404A4195B19591820000CBC9046B5
:10057C009946F0BD9E2110B5C905041CFFF7BCFFC0
:10058C00002803D1201C00F0E7FB10BD9E21201C8D
:10059C00C90500F01DFA00F0DFFB80231B069C460A
:1005AC006044F2E770B500220C4B04000D00FFF71D
:1005BC0069FF002804D12000290002F029F970BD40
:1005CC00064B00222000290001F0BEFD02F020F9AC
:1005DC0080231B069C466044F1E7C0460000E041C6
:1005EC0070B542004E024C0045026D0A120EC30F4C
:1005FC00760A240EC90FFF2A0FD0FF2C11D0012030
:10060C00A24200D070BDB542FCD18B420DD0002A65
:10061C00F8D12800451EA841F4E70120002DF1D1A6
:10062C00EBE70120002EEDD1E9E70020EAE7C04618
:10063C0070B54A004E02450244006D0A240EC30FE9
:10064C00760A120EC90FFF2C15D0FF2A0ED0002CE3
:10065C0015D1002A01D1002E1CD0002D14D08B42B4
:10066C0027D00220013B1840013870BD002EEED07F
:10067C0002204042F9E7002DFAD1FF2A0ED0002AC1
:10068C000ED1002EEDD00BE0012301399943080067
:10069C000130EAE70020002DE7D0E2E7002EE7D199
:1006AC008B42DED1944205DD0221581E08400138F0
:1006BC00DBE70024A24204DCB542D2D80020B542CC
:1006CC00D3D2581E012398430130CEE730B54200F7
:1006DC0044024D02C30F4800640A120E6D0A000E4C
:1006EC00C90FFF2A12D0FF280CD0002A12D10028E3
:1006FC0019D1002D17D1002C2BD00220013B184012
:10070C00013826E0002DF0D0022022E0002CFBD195
:10071C00FF281FD000281FD1002D1DD10220013B26
:10072C001840013815E0002C0ED08B42E5D1002288
:10073C00904204DCAC42E0D80020AC4209D2581EF6
:10074C0001239843013004E0012301399943080047
:10075C00013030BD002DD7D18B42CED18242E7DDA6
:10076C000221581E08400138F3E7C046F0B54E464A
:10077C0057464546DE46E0B543025B0A450083B06A
:10078C000F1C99462D0EC60F002D57D0FF2D24D0CF
:10079C008020DB00C0041843002381469A469B4608
:1007AC007F3D7C027A00FB0F640A120E984623D020
:1007BC00FF2A4BD0E30080240020E4047F3A1C4342
:1007CC00AD186B1C47460193534677403A000F2BEC
:1007DC0048D87D499B00CB589F46002B00D085E024
:1007EC0008339A46063B9B467C027A00FB0FFF259A
:1007FC00640A120E9846DBD1002C00D090E05246D1
:10080C0001231A4392460120DBE74C465846170059
:10081C00022824D0032800D1CFE000220023012895
:10082C004DD15802D205400AFF071043384303B09C
:10083C003CBC90469946A246AB46F0BD002B5BD122
:10084C0004239A46033B00259B46AAE7FF35002C60
:10085C0060D1524602231A4392460220B1E7FF228E
:10086C000023DEE74B461B0C9C464B462604360CFD
:10087C00180461463300220C6446000C43434E437B
:10088C005043544380191A0C1218964203D98021F4
:10089C0049028C4664441B041B0C1004C0188301D1
:1008AC005E1EB341800E1843130C1B199B010343AE
:1008BC001C00230179D5012362081C401443019AC2
:1008CC007F32002A4DDD630704D00F232340042B15
:1008DC0000D00434230103D53C4B019A1C408032D8
:1008EC00FE2ABCDCA3015B0AD2B29AE70C239A461F
:1008FC00093BFF259B4654E7180002F001F94A46D4
:10090C00431F76259A4000236D4291462D1A9A4634
:10091C009B4646E7524603231A439246032050E770
:10092C00200002F0EDF8431F2D1A9C40763D00206C
:10093C0047E780230027DB03FF2272E7424666E786
:10094C004C463200584662E780234A46DB031A4283
:10095C0022D01C4220D123435B025B0A4746FF2274
:10096C005FE701239A1A1B2A21DC23000199D3404B
:10097C009E318C401A0023005C1EA34113435A077E
:10098C0004D00F221A40042A00D004335A0111D487
:10099C009B015B0A002244E780234A46DB03134396
:1009AC005B025B0A3700FF223BE7019587E70022D9
:1009BC00002336E70122002333E78023DB032343A4
:1009CC005B025B0AFF222CE7A4870108FFFFFFF7FD
:1009DC00F8B54746CE464400C20F80B547024802E0
:1009EC00400A8446664648007F0A240EF60025001D
:1009FC009046FB00000EC90FB146FF2800D185E0E0
:100A0C0001267140261A914257D0002E43DD002852
:100A1C0000D07FE04946002900D1AAE0013E002E1B
:100A2C0000D0F7E05B1A5A0100D48BE09B019C09C3
:100A3C00200002F065F805388440854200DDD3E0E3
:100A4C00451B230020200135EB40451BAC40621EAA
:100A5C0094412343072400251C40012241460A40AF
:100A6C00002C04D00F211940042900D00433590163
:100A7C0000D480E00135ECB2FF2D00D0A3E0FF24C0
:100A8C0000235B02E405580AD207204310430CBC38
:100A9C0090469946F8BD002E74D1601CC0B2012856
:100AAC0000DCA7E04A469C1A620100D5B6E0002C97
:100ABC00BED1002200240023E3E7002E00DC85E0F9
:100ACC00002846D0FF2C49D080224846D20410433F
:100ADC00814601221B2E09DC20204C46801B8440C1
:100AEC004A462000F240441EA04102439B185A0182
:100AFC0028D50135FF2D00D1A8E001220724944907
:100B0C001A405B080B4013431C40A6E7002E00D094
:100B1C0078E775E7FF2C54D080224946D204114364
:100B2C00894601221B2E09DC20214846891B88405E
:100B3C004A460100F240481E81410A439B1A5A0161
:100B4C0000D573E7012241460A40590700D089E7D6
:100B5C0011E04846002858D1FF2C0CD1DB08002BA3
:100B6C0000D18CE78020C00303435B025B0AFF24A7
:100B7C0087E7FF2C25D0DB08FF2DF0D05B025B0A4A
:100B8C00ECB27EE7002C4DD0FF2818D08024E40472
:100B9C00724223431B2A00DDC4E01C002025D440F4
:100BAC00AA1A93405A1E934123434A460500D31A6E
:100BBC00884638E7721CF8D0F243FF28EAD10A00C5
:100BCC004B46FF25D7E79B015B0A5AE7002E41D124
:100BDC00651CE9B2012945DDFF2D00D14FE7072443
:100BEC004B445B081C4038E707225A4B2D1A234014
:100BFC00144032E7002C1DD1002B7AD14B46002B30
:100C0C0000D191E00A000025B5E7013E002E19D174
:100C1C004B446CE7FF2C84D1FF25ACE74A46884651
:100C2C00D41A05E7002BC5D10A00FF28C8D005004F
:100C3C004B46A0E7002B49D14B46002B77D00A003E
:100C4C00FF2598E7FF2C00D043E787E70A00FF2435
:100C5C00002316E7002C15D1002B57D1FF28E6D125
:100C6C004B467BE7002C20D1002B57D0494600295E
:100C7C0053D04B445A0168D50724364A1C400125F1
:100C8C001340EAE6FF28EBD08022D20476421343CD
:100C9C001B2E53DC2025AD1B1A00AB40F2405C1E12
:100CAC00A34113434B44050021E7002BD8D0494600
:100CBC00002900D152E78021C9030F4200D14DE732
:100CCC006046084200D049E74B4647E74846FF25B7
:100CDC00002800D14FE78022D203174204D060468F
:100CEC00104201D14B46884601224146FF250A405D
:100CFC0041E7484600281FD01A1A500120D54A4611
:100D0C000724D31A1C4088460025A6E6741CC9D0BB
:100D1C00F643FF28BCD14B4620E799464B460025AD
:100D2C00DB082BE7012340E700220023A9E6802300
:100D3C000022DB03FF24A4E600251CE70123B1E716
:100D4C00002AF1D013000025FCE60025FAE6C04687
:100D5C00FFFFFF7DFFFFFFFB41024200C30F490A6B
:100D6C00120E00207E2A0DD99D2A0CD8802000045A
:100D7C000143952A0ADC9620821AD1404842002B66
:100D8C0000D108007047034A9818FBE7963A914047
:100D9C00F4E7C046FFFFFF7F70B5041E34D001F0AE
:100DAC00AFFE9E22121A962A07DCD2B208282EDD3C
:100DBC00083884406002400A21E0992A09DD0300CA
:100DCC0021001B3399404B1E994105231B1ADC4013
:100DDC000C43052801DD431F9C4023000D490B40AB
:100DEC00650709D00F252C40042C05D004335C0179
:100DFC0002D59F220B40121A9B01580AD2B2400214
:100E0C00D205400A104370BD00220020F7E76002B3
:100E1C00400AF4E7FFFFFFFBF0B54F464646D646C7
:100E2C000C000903C0B5490A470F5E0039431F0384
:100E3C00DB0F9C4665007B0A570F1F436D0DE40FBB
:100E4C00760DA146C000B846D200AB1B64457BD0E2
:100E5C00002B5FDD002E00D0A4E03E00164300D135
:100E6C0012E15E1E002E00D09EE1871A4346B84266
:100E7C0080410125C91A4042091A0B0200D431E104
:100E8C0049024E0A002E00D16EE1300001F038FE0E
:100E9C000300083B1F2B00DD61E120223900D21A30
:100EAC009E40D1409F400E439D4200DD51E15D1BB1
:100EBC006B1C1F2B00DD7CE12021C91A3D0030008A
:100ECC008F408840DD40791E8F4131000722284336
:100EDC00D940002507433A40002A09D00F233B4054
:100EEC00042B05D03B1DBB42BF417F42C9191F00DB
:100EFC000B0200D426E26A1CC64B55056D0D9A42B6
:100F0C0000D106E1C44AFF080A40530752023B4392
:100F1C00120B8EE0002B00D0B8E06B1C5B055B0D58
:100F2C00012B00DC30E1871A4346B842B641CB1A9C
:100F3C0076429E1B330200D54CE13B003343A1D1DA
:100F4C0000220024002570E0002B00DCE5E0002EE0
:100F5C0000D183E0AF4EB54260D0802636043743D3
:100F6C00B846382B00DC3EE1434613431F007A1E83
:100F7C0097413F1887428041404209180B0200D428
:100F8C00B0E0A44B01359D4200D1C3E0A24A7B08DE
:100F9C000A4001210F401F435108D30707221F436A
:100FAC003A4099E79B4EB54238D0802636043743F9
:100FBC00B846382B00DDDCE01F2B00DC30E11E00D6
:100FCC004746203EF740BC46202B04D04026F31A5F
:100FDC0046469E403243170063467A1E97411F4394
:100FEC00CCE0002B00D104E24346134300D159E17D
:100FFC004B07C00818438023C9081B03194208D0AB
:10100C004546ED081D4204D14346D0085907084314
:10101C002900420FC9007F4D1143C0004B07CA087D
:10102C007C49C00803438D4268D012036D05120B36
:10103C006D0D002112031800130B0A0D12051A4333
:10104C00764B2D0513402B435B00E4075B082343D1
:10105C0019001CBC90469946A246F0BD3E001643B2
:10106C0012D05E1E002E00D000E18718874280410E
:10107C0041444042091801250B0233D5022585E76E
:10108C0064463300414610001D00C7E7002D00D018
:10109C00DAE00C000443F3D05C1C00D19FE15D4C02
:1010AC00A64200D12FE1DB43382B00DD66E11F2B7C
:1010BC0000DD83E120240500E41A0F00DD40D94057
:1010CC00A0404346A7405B1A441EA04198462F43BC
:1010DC003843171ABA42924143465242991A64460F
:1010EC003500CAE607223A40002A00D0F6E64B0744
:1010FC00CA084849FF083B438D4296D11900114359
:10110C0000D19EE1802109030A431203120B414DC9
:10111C008FE71500002200238BE7002B00D0C7E0DF
:10112C006B1C5F057F0D012F00DCF1E0394DAB42EC
:10113C0000D1B9E085180A008542894142444942F0
:10114C0051180722CF076D082F4349083A401D005C
:10115C00C2E607223049ED1A31403A40BCE63E0067
:10116C002838864000279FE6380001F0C9FC203063
:10117C008EE6434613431F007A1E9741C71BB842A5
:10118C0080414042091A78E60E003B0006431343A7
:10119C00002D61D1002E00D0F4E0002B00D11BE11A
:1011AC0064463900100039E71A4FBB427AD033003D
:1011BC00FFE630001F3DE840202B03D04021CB1A26
:1011CC009E4037437B1E9F41072207433A40002134
:1011DC00002589E7171A4346BA42B641591A764296
:1011EC008E1B64464EE61F2B00DDADE020264746E5
:1011FC00F61AB740B9461700B246DF404E463E439A
:10120C0037005646B240561EB24117434246DA40AA
:10121C008918AEE6FF070000FFFF7FFFFFFF0F807E
:10122C0020264746F61AB740B9461700B246DF40AB
:10123C004E463E4337005646B240561EB241174307
:10124C004246DA40891A99E77F4CA6425BD080244B
:10125C0024045B42214327E7002E0CD1002B00D144
:10126C00CBE0644639001000774DD7E6764FBB4291
:10127C0018D0330075E6002B14D04B07C008184368
:10128C008023C9081B03194207D0FC081C4204D157
:10129C007907D0080843E14621004C46420FC900AB
:1012AC001143C000684DB9E61D0000220023C0E6C2
:1012BC00002D5BD10D00054300D1E2E65D1C00D191
:1012CC00B0E0614DAE421FD0DB43382B71DC1F2BDD
:1012DC0000DD96E020250F00ED1AAF40B94607005F
:1012EC00AA46DF404D463D432F005546A840D94005
:1012FC00451EA84188440743BF189742924151426A
:10130C00414435003AE6644635004146100085E616
:10131C000B000343002D00D063E6002BF5D04346B1
:10132C00134300D17AE68718874280410722414453
:10133C00404209183A400B0200D4D5E6434B013524
:10134C001940C9E5380069E61E004746203EF740C3
:10135C00BC46202B04D04026F31A46469E4032430E
:10136C00170063467A1E97411F4302E6364DAE4284
:10137C00CAD080252D045B422943A6E70843411EB1
:10138C008841A6E6002B00D148E6871A4346B842AE
:10139C00B641CB1A76429E1B33024BD5171A4346E5
:1013AC00BA429241591A5242891A072264463A406B
:1013BC0092E501430F00791E8F419DE71C000F0041
:1013CC00203CE740202B03D04024E31A99400843EB
:1013DC00411E884138437CE60022002425E6171A7A
:1013EC004346BA429241591A5242891A6446350010
:1013FC0043E541461000144D10E6802200241203F0
:10140C0080E61D000F00203DEF40BC46202B03D092
:10141C004025EB1A9940084307006346781E874124
:10142C001F4369E7871897429B4141445B42C918A7
:10143C003500A3E53B003343CED0072231003A40C0
:10144C0052E600231A00F4E5FF070000FFFF7FFFC0
:10145C00F0B55746DE464E464546E0B58346070096
:10146C000E03480085B092461C00360B400DCD0F84
:10147C00002800D19DE0954B984239D08023F6008E
:10148C001B041E43924A7B0F334399469446030038
:10149C006344009300230026FF00029323031B0BDD
:1014AC0098466300E40F52465B0D019400D1B3E003
:1014BC0086498B4200D19EE04246D1008022120424
:1014CC000A435146490F11438B46814952468C467B
:1014DC0000996344CB1A0021D20000932B00634087
:1014EC009A460F2E00D905E17A4BB6009B599F46C0
:1014FC005B463343994600D0B8E002230826002708
:10150C0000900293CAE7CB463A0002990195019BE1
:10151C009A46022927D0032900D180E2012944D020
:10152C006D49009B8C4663441C00002C38DD53072E
:10153C0000D013E2D2085B46DB0109D55946674B54
:10154C0019408B468021C9008C46009B63441C00CB
:10155C00634B9C4207DC5B4664055F075B021743E9
:10156C001B0B620D02E000230027584A00211B03CD
:10157C001C0B0B0D1B05234314055A4A3800134052
:10158C001C4353466400DB0764081C43210005B070
:10159C003CBC90469946A246AB46F0BD0122524255
:1015AC0001231B1B382B00DCADE10022002300279C
:1015BC00DCE75B46334399465ED0002E00D18AE1CE
:1015CC00300001F09DFA03000B3B1C2B00DD7BE18E
:1015DC001D22D31A5A460100DA4008398E401300F6
:1015EC005F46334399468F403F4B00261B1A0093AE
:1015FC000023029352E7414653460B433B499B461B
:10160C008C46009B634400935B46002B3BD102232A
:10161C0000221E43022161E7434613439B4637D009
:10162C004346002B00D162E1404601F069FA030009
:10163C000B3B1C2B00DD53E102004146083A914064
:10164C0088461D21CB1A5146D9400B0041460B430D
:10165C009B46534693401A00009B25499C46604488
:10166C0003008C4663440093002137E70323B14603
:10167C0000900C26029311E70023009301330426FB
:10168C00002702930AE70323C3461E43032125E7E1
:10169C0001331E430022012120E700239A468023B8
:1016AC0000271B03094A61E7802349461B031942A3
:1016BC0000D1E2E05946194200D0DEE00B431B0397
:1016CC0017001B0BA246014A50E7C046FF0700005B
:1016DC0001FCFFFFE4870108FF030000FFFFFFFE92
:1016EC00FE070000FFFF0F800DFCFFFF01F8FFFF5E
:1016FC00F3030000D94500D9CBE000D1C6E03C0093
:10170C0048460027009B013B00935B46160E1B02CC
:10171C001E431302984633041B0C9946310C01915D
:10172C00FEF78CFD4A4642430B04210C050019437D
:10173C008A4207D98919013D8E4203D88A4201D9C0
:10174C00851E8919881A0199FEF778FD09048C46C3
:10175C004A46210464464243090C030021438A4251
:10176C0004D98919013B8E4200D8F1E02D041D43A8
:10177C00AB464346891A4246280C12041D0C5B46A4
:10178C00140C22001B041B0C5A4303946B4344435C
:10179C00029568431B19150CEB189C4203D9802445
:1017AC006402A44660441C0C15041B042D0C201868
:1017BC005D19814277D373D00C1AA24A7D1BAF42BC
:1017CC00BF419446009B7F426344E01B1C00864251
:1017DC0000D1DBE00199FEF731FD4A4642430B0490
:1017EC00290C070019438A4207D98919013F8E42F7
:1017FC0003D88A4201D9871E8919881A0199FEF7E4
:10180C001DFD09044A46894629044D464243090CEC
:10181C00030029438A4207D98919013B8E4203D818
:10182C008A4201D9831E89193F04891A3A00039F01
:10183C001A43380013041B0C584381460298150CAC
:10184C006F43434345434846000C8446DB196344CD
:10185C009F4203D9802040028446654448461F0CB1
:10186C0000041B04000C7D191818A94200D284E056
:10187C0000D17FE001231A4357E680234A461B031D
:10188C0013431B031B0BAA466F4A6FE6BA4200D9DF
:10189C0035E74B46DC0758087B081C43FF0734E749
:1018AC000024AF4289D247444745A4415B46644279
:1018BC00A4196418013BA6421ED2A0426DD800D1D7
:1018CC00B6E0241A9B4678E703005A46283B9A4018
:1018DC000027914688E6584601F012F9203072E64E
:1018EC0003005246283B9A4093460022B4E65046E9
:1018FC0001F006F920309AE6A642E2D1B845DCD9CF
:10190C00341A9B4659E71F2B65DC504C0099A446B2
:10191C005C46614408008C4011008240D940501E46
:10192C0082410C4314435A46DA401300620709D033
:10193C000F222240042A05D02200141D9442894112
:10194C0049425B181A0262D50122002300270DE6DA
:10195C008A4200D80AE7831E891907E70F23134030
:10196C00042B00D1E6E5171D9742924153429B444C
:10197C00FA08E0E5002800D1D7E57118531EB142F2
:10198C0027D3A94215D358D01A0073E7002B00DCDB
:10199C0004E6012300229B44CDE50223474447453E
:1019AC0089415B429C46494289190C19E344241A2B
:1019BC0003E743465F0047459B41B8465B429E198F
:1019CC00023A8919A94200D054E7404500D051E7AA
:1019DC00ABE51A00F6E71F215F4649420C1BE740B6
:1019EC00202B07D01A49009B8C46634418005B4699
:1019FC0083401A43501E82413A4307270023174065
:101A0C0009D00F21002311401400042995D1220084
:101A1C005F075B021B0BD20817430022A6E580234D
:101A2C0059461B030B431B0317001B0B064A9DE572
:101A3C00BD42B2D89B460024BFE68045B9D31A00FC
:101A4C00C3E7C046FF030000FF0700001E040000B0
:101A5C003E040000F0B54F464646D6468446C0B517
:101A6C008046194E18030F034D00000B5C00824694
:101A7C003F0B6D0DC90F9146640DDB0F0120B54274
:101A8C000AD0B44203D0A54201D157450CD01CBC9E
:101A9C0090469946A246F0BD66463E43F7D1AC420D
:101AAC00F5D154461443F2D10120C845EFD19942E7
:101ABC0007D0002DEBD163461F433800471EB841B9
:101ACC00E5E70020E3E7C046FF070000F0B54F460E
:101ADC004646D6464D00C0B50E03C90F8A462C4962
:101AEC001F035C008046360B6D0D91463F0B640D59
:101AFC00DB0F8D421ED08C4216D0002D1ED13043F0
:101B0C008446002C01D13A4323D06246002A1AD0D5
:101B1C009A4529D0514602200139084001381CBC95
:101B2C0090469946A246F0BD39001143E5D00220FB
:101B3C004042F4E73043FAD1AC420FD0002C0FD125
:101B4C003A43E7D00CE00122013B934318000130EB
:101B5C00E5E763460020002BE1D0DBE73A43E6D112
:101B6C009A45D7D1A542D5DCA54205DBBE42D1D8DA
:101B7C0008D00020BE42D2D25046012301389843EF
:101B8C000130CCE7C845C5D80020C845F4D3C6E71A
:101B9C00FF070000F0B54F464646D6464D00C0B58F
:101BAC000E03C90F8A462E491F035C008046360B74
:101BBC006D0D91463F0B640DDB0F8D4218D08C429E
:101BCC0011D0002D18D130438446002C1ED13A433D
:101BDC001CD163460020002B30D051460220013925
:101BEC00084001382AE039001143EAD0022025E0F0
:101BFC003043FBD1AC4226D0002C26D13A4324D121
:101C0C005146022001390840013817E06246002A8B
:101C1C000FD09A45E1D1A54205DBBE42DDD819D0E3
:101C2C000020BE420AD250460123013898430130AD
:101C3C0004E00122013B9343180001301CBC904688
:101C4C009946A246F0BD3A43D0D19A45C5D1A5429A
:101C5C00C3DCE0E7C845C0D80020C845E3D3EDE7B6
:101C6C00FF070000F0B55746DE464E464546E0B548
:101C7C00834606000F03480087B092461D003F0BB9
:101C8C00400DCC0F002800D16FE0DE4B984238D0CD
:101C9C008023FF001B041F43730F3B430193DA4B5C
:101CAC000027994600239B46F60081442B036900CC
:101CBC001B0B52469846490DED0F002900D185E0CB
:101CCC00D04B994200D173E04346DA0080231B04C9
:101CDC0013435246CC48520F8446134352460020BD
:101CEC006144D20089442100694000918C46012155
:101CFC0049448A460F2F00D990E0C449BF00CF5900
:101D0C00BF465B463B43019300D06AE102230827A0
:101D1C00002681469B46C9E732005846019B614626
:101D2C000091022800D175E0032800D1FEE10128C2
:101D3C0000D02CE100230027002600253F032A0DAC
:101D4C003F0BB34812053A4302401B051343009A5C
:101D5C005B00D1075B080B433000190007B03CBC9B
:101D6C0090469946A246AB46F0BD5B463B43019379
:101D7C0000D12FE1002F00D1A5E1380000F0C0FE0A
:101D8C0003000B3B1C2B00DD96E11D22D31A5A4697
:101D9C000100DA405E4608398F4013008E403B4309
:101DAC0001939C4B00271B1A994600239B467DE709
:101DBC00414653460B4393498C46E144002B00D0DB
:101DCC001AE102220220174300228CE7134300D1B0
:101DDC000DE14346002B00D181E1404600F090FE1E
:101DEC0002000B3A1C2A00DD72E10100434608395F
:101DFC008B4098461D239A1A5346D3401A004346EB
:101E0C00134352468A404946081A824989468144FE
:101E1C00002068E77B4B002700268EE7140C120489
:101E2C00120C1100370C3604350C794328008C4603
:101E3C002E0060436044834656432100300C80469C
:101E4C005846794340440291844506D988468021FE
:101E5C0049028C46E044414602913604010C360C92
:101E6C0000048B4681191E0C1B041B0C03911900DA
:101E7C0079438C46280075436544A8465843050CA5
:101E8C0045447743A94203D9802149028C466744D3
:101E9C00290C8C4639000004000C2D042D186144CB
:101EAC00AB4405915946049101990F043F0C080C61
:101EBC00390051434243904602008C46090C8B4634
:101ECC0062437C4344445C44A04503D980214902CD
:101EDC0088464244210C884661460904090C8C460C
:101EEC0039005943434370437E430F0CF6182404C6
:101EFC00BE19644442448C46B34203D980235B022E
:101F0C0098464044029B61469846049B37044344E0
:101F1C009B46AB45AD416B420D0405992D0C8C468F
:101F2C007F196744FD18A8465D462D19A542A441AA
:101F3C0093466442A446C344DC448F42BF41984557
:101F4C009B4193459241A445A4415B427F421F4370
:101F5C00360C52426442BF192243BF1862463818ED
:101F6C004302D20D039913436A020A43501E824165
:101F7C006146ED0D2A434E023243D90100D4B3E041
:101F8C000126500832400243DE0732435B08224CE4
:101F9C005444002C62DD510709D00F201040042856
:101FAC0005D0101D9042924152429B180200D9015B
:101FBC0004D580241948E400034054441848844252
:101FCC0000DD27E75E075B02D2081F0B6305164393
:101FDC005B0DB2E6002399460133042700269B468D
:101FEC0064E60323019781460C279B465EE601229B
:101FFC0001201743002276E6032303201F434346A8
:10200C0071E6C046FF07000001FCFFFF24880108B1
:10201C00FFFF0F800DFCFFFFFF030000FFFFFFFE23
:10202C00FE0700000023802700933F030026434B4C
:10203C0083E6019B3200A446584670E6AC466EE639
:10204C00802701993F0339422DD03B422BD11F43AE
:10205C003F033F0B00951600384B6EE601252D1BF8
:10206C00382D00DD66E61F2D40DC35481C00504441
:10207C00160082408440EE40501E8241344314438B
:10208C00EB40620709D00F222240042A05D022001F
:10209C00141D9442804140421B181A023ED5012364
:1020AC000027002649E68027019B3F031F433F037F
:1020BC003F0B0094214B40E603005A46283B9A40C4
:1020CC00002601926DE6584600F01AFD203057E6C6
:1020DC0003005246283B9A401300002293E65046D8
:1020EC0000F00EFD20307BE6CA4650E71F201E0094
:1020FC004042041BE640202D03D0124C5444A34014
:10210C001A43501E8241324307260027164009D03D
:10211C000F200023104014000428B9D122005E07C0
:10212C005B021F0BD2081643002306E680273F03F1
:10213C001F433F033F0B1600004BFEE5FF0700005B
:10214C001E0400003E040000F8B557464E464546B6
:10215C00DE460C000903E0B5490A460F5F00314327
:10216C001E03DB0F760A9B46530F3343C84E6500A4
:10217C00C000E40FD2006D0DA24681467F0D9C4637
:10218C009046B74200D1B9E05B46012673409B46AE
:10219C00EE1BA34500D183E0002E63DD002F00D0A1
:1021AC00B1E06346134300D123E1731E002B00D032
:1021BC00BAE1861A6346B04280410125C91A4042F1
:1021CC00091A0B0200D447E149024B0A98464346D0
:1021DC00002B00D189E1404600F092FC0300083B43
:1021EC001F2B00DD7CE120223000D21A4146D0406A
:1021FC00994002009E400A439D4200DD6AE15D1B4E
:10220C006B1C1F2B00DD94E1202110003500C91A36
:10221C008E40DA408840DD40711E8E41110007224D
:10222C002843002506433240002A09D00F233340AF
:10223C00042B05D0331DB342B641764289191E00DA
:10224C000B0200D43DE26A1C914B55056D0D9A4270
:10225C0000D119E18F4AF6080A405707520237435A
:10226C00120B9BE0002E00D0C5E06E1C7605760D9F
:10227C00012E00DC48E16746861ACB1BB042BF41F9
:10228C007F42B8461F004346FF1A3B00B8461B026C
:10229C0000D55FE137439AD100220024002579E074
:1022AC00002E00DCFAE0002F00D18DE0784B9D422F
:1022BC0067D0802367461B041F43BC46382E00DCC6
:1022CC0052E1634613435A1E93411E1886428041C5
:1022DC00404209180B0200D4BEE06D4B01359D4203
:1022EC0000D1D2E06B4A73080A4001210E401E4314
:1022FC005108D30707221E43324095E71E001643B0
:10230C0000D045E740E7624B9D423AD080236746B8
:10231C001B041F43BC46382E00DDEBE01F2E00DCF7
:10232C003AE133006746203BDF403B00202E05D0CE
:10233C004027BF1B6646BE40324390464646721E3F
:10234C0096413343DAE0002B00D114E26346134389
:10235C0000D168E180234E07C008C9081B0306435F
:10236C00194208D06046C008184204D163460100E7
:10237C00D2085E071643F3009946C900720F444D0C
:10238C0011434B46DE08424B4F073743CA089D4268
:10239C0000D16EE012036D05120B6D0D00211203BE
:1023AC00130B0A0D12051A433B4B2D0513402B43FF
:1023BC005B00E4075B082343380019003CBC9046E3
:1023CC009946A246AB46F8BD6346134311D0731E23
:1023DC00002B00D007E186188642804161444042C0
:1023EC00091801250B0237D502257BE73E00614613
:1023FC0091463500C5E75C46002D00D0E1E00B00AE
:10240C000343F3D0731C00D1ACE1214B9F4200D1AC
:10241C003AE1F343382B00DD6FE11F2B00DD8CE13B
:10242C0020250E00ED1AAE40B0460600AA46DE404E
:10243C00454635432E005546D940A8406346451EB7
:10244C00A8415B1A9C463043161AB242924163462D
:10245C005242991A3D00B4E607223240002A00D0BD
:10246C00E4E60B4BF6084F073743CA089D4200D0F1
:10247C0090E73B00134300D1A6E180231B031A43D2
:10248C001203120B024D89E715000022002785E785
:10249C00FF070000FFFF7FFFFFFF0F80002E00D023
:1024AC00C7E06B1C5E05760D012E00DCF0E0C84D1C
:1024BC00AB4200D1B9E085180A00854289416244DB
:1024CC00494251180722CE076D082E434908324065
:1024DC001D00A9E6BF49ED1A114007223240A3E6C0
:1024EC00320028388240002686E6300000F008FBD7
:1024FC00203073E6634613435A1E9341C61AB0420A
:10250C0080414042091A5CE60E00674606431743B9
:10251C00002D5ED1002E00D0F3E0002F00D11EE183
:10252C005C46614691462CE7A94FBE427BD01E000B
:10253C00F1E610001F3DE840202B03D04021CB1AC0
:10254C009A401643731E9E410722064332400021D7
:10255C00002583E7161A6346B2428041591A40425D
:10256C000B1A98465C4632E61F2E00DDABE02027A6
:10257C00BB1B9A4663465746BB40994613004F46D1
:10258C00F3401F433B005746BA40571EBA41134312
:10259C006246F240891898E62027BB1B9A46634690
:1025AC005746BB40994613004F46F3401F433B0030
:1025BC005746BA40571EBA4113436246F240891A35
:1025CC009CE7834B9F425FD080252D0473422943A7
:1025DC0020E7002E0CD1002F00D1D0E05C466146E4
:1025EC0091467B4DCDE67A4FBE421CD01E0065E66F
:1025FC00002F18D0C0084E0706438020C9080003DE
:10260C00014208D06346DC08044204D12100DA46BA
:10261C00D2085E071643F300994601245346C900BD
:10262C00720F11431C406A4DABE61D0000220027BF
:10263C00B4E6002D59D10B00034300D1D6E6731C30
:10264C0000D1B2E0624B9F421ED0F343382B6FDCBB
:10265C001F2B00DD97E020250E00ED1AAE40B04692
:10266C000600AA46DE40454635432E005546A84096
:10267C00D940451EA8418C440643B6189642924157
:10268C00514261443D0025E63D006146914678E6A5
:10269C000B000343002D00D055E6002BF5D063460C
:1026AC00134300D16DE68618864280416144404256
:1026BC00091800220B0200D4D0E6464B0135194014
:1026CC00B2E5B1465DE633006746203BDF403B0098
:1026DC00202E05D04027BF1B6646BE403243904695
:1026EC004646721E96413343EFE5394B9F42CBD0A1
:1026FC0080252D0473422943A8E70843411E8841D5
:10270C00A2E6002F00D13CE66346861ACF1AB042EF
:10271C009B415B42FB1A98461B024ED5161A634628
:10272C00B2429241591A5242891A5C4600227BE508
:10273C0001430E00711E8E419FE71D000E00203DCF
:10274C00EE40B046202B04D04025EB1A99400843AC
:10275C00814648464346411E8841184374E6002290
:10276C00002417E6161A6346B2429241591A524295
:10277C00891A3D0025E561469146154D01E68022FA
:10278C000024120379E61D000E00203DEE40B046F9
:10279C00202B04D04025EB1A9940084381464E4625
:1027AC004346711E8E411E4367E7861896429B4135
:1027BC0061445B42C9183D008CE547463743CED097
:1027CC0007224146324049E600273A00E6E5C0467A
:1027DC00FF070000FFFF7FFF70B50C4E0D031C03BD
:1027EC0049005B002D0B490D240B5B0DB14208D049
:1027FC00064900208B4203D114432000441EA04103
:10280C0070BD05430120002DFAD1F1E7FF07000050
:10281C0030B5144D0A034B00120B5B0DC90F00248D
:10282C00AB4211DD104CA34210DC80246403224324
:10283C000E4CE41A1F2C0CDD0D48C31ADA401300A1
:10284C005C42002900D11C00200030BD094BCC1883
:10285C00FAE7094DE040AC4663449A401300034349
:10286C00EEE7C046FE0300001D0400003304000028
:10287C0013040000FFFFFF7FEDFBFFFF70B5002886
:10288C002DD0C317C5185D40C40F280000F038F9CF
:10289C00154B1B1A5B055B0D0A2815DD0B388540A3
:1028AC0000222D032D0B002110002D030A0D2D0BE2
:1028BC0012052A430D4D1B052A4013435B00E40708
:1028CC005B082343190070BD0200290015329140AA
:1028DC000A000B21081AC5402D032D0BE3E7002439
:1028EC00002300250022DEE71E040000FFFF0F80FE
:1028FC0010B5041E25D000F003F9144B1B1A5B0510
:10290C005B0D0A2812DD0B38844000222403240BB3
:10291C000021100024030A0D240B120522430C4C39
:10292C001B05224013435B00590810BD0200210017
:10293C00153291400A000B21081AC4402403240BC1
:10294C00E6E7002300240022E2E7C0461E04000054
:10295C00FFFF0F804100090E4B1C70B5DBB2460225
:10296C00750AC40F012B14DDE0239B006D07360B99
:10297C00CB1800210A0D280012051C4D32435B05B3
:10298C002A405B0813435B00E4075B0823431900F0
:10299C0070BD002914D1002D1ED0280000F0B0F815
:1029AC000A281CDC0B232A001B1ADA4003001533FF
:1029BC009D400F4B12031B1A5B05160B5B0DD8E7E2
:1029CC00002D06D0320B802636036D071643094BBB
:1029DC00CFE7084B0026CCE700230026C9E703000D
:1029EC002A000B3B9A400025E3E7C046FFFF0F800F
:1029FC0089030000FF070000F0B54C00640D0B03C9
:102A0C00621C5B0A460F5205C90F1E43C500520DCE
:102A1C00012A29DD374BE718FE2F1CDC002F3BDD8C
:102A2C008001431E98410722F3006D0F03432B4393
:102A3C001A40002A04D00F221A40042A00D0043372
:102A4C008022D2041A4024D00137FAB2FF2F02D0D0
:102A5C009B01580A01E0FF2200204002D205400AE7
:102A6C00C90710430843F0BD3543002C04D1002D99
:102A7C000AD100220020F0E7002DECD08020C0030A
:102A8C003043FF22E9E7002400235B02580AE2B23C
:102A9C00E3E7DB083C00F8E73B001733F3DB80236C
:102AAC001B0433431E26F61B1F2E14DD022252423A
:102ABC00D71B1A00FA401700202E04D00E4A944659
:102ACC006444A3401D432B005D1EAB4107223B43D6
:102ADC001A400027ADE7094A2800A21895409340F8
:102AEC006C1EA541F04007222B4303431A400027DC
:102AFC009FE7C04680FCFFFFA2FCFFFF82FCFFFFAC
:102B0C001C2101231B04984201D3000C10391B0A11
:102B1C00984201D3000A08391B09984201D30009D5
:102B2C00043902A2105C40187047C046040302022C
:102B3C0001010101000000000000000070B582B02E
:102B4C00204B1B889BB2204A93420BD01A0A1F4978
:102B5C000A7002D10A00012111701D4A1370012460
:102B6C00022023E0194B01221A70194B00221A7013
:102B7C00FA2024E0134BC318651E6A46D1791E88CF
:102B8C00AB005B195B005B19CB185B001149CE5293
:102B9C00023080B2D3790133DBB2D3716B46073389
:102BAC001B78DBB20A2BE5D90134E4B2074B1B7856
:102BBC00A34203D36B460022DA71EFE7002002B088
:102BCC0070BDC04600D80108FFFF000024000020A3
:102BDC00BA080020F402002070B50124002501E0A1
:102BEC000134E4B2084B1B78A3420BD3611E49009D
:102BFC00064BC918601C0AF08BFBA31C1B2BEFDDCA
:102C0C000A25EDE7280070BD24000020F0690020A3
:102C1C00F0B583B06B460022DA800026002523E055
:102C2C006B469F1D28001C3080B239000AF070FBE7
:102C3C003988124AB3009F19780010180155671E85
:102C4C00090A9B1958001218D1550135ADB202343E
:102C5C00E4B2092CE4D9B3009B195A00074B9B181A
:102C6C0000225A720136F6B2054B1B78B34201D3DF
:102C7C000124EEE7002003B0F0BDC046AC070020F5
:102C8C0024000020F0B583B06B460022DA800024CB
:102C9C0000250BE063001E49C9182800CB3080B218
:102CAC000AF036FB0135ADB20134E4B2194B1B7896
:102CBC00A342EFD8002623E06B469F1D28009930D5
:102CCC0080B239000AF024FB3988134AB3009F19EB
:102CDC00780010180155671E090A9B195800121824
:102CEC00D1550135ADB20234E4B2092CE4D9B300AC
:102CFC009B195A00084B9B1800225A720136F6B2E7
:102D0C00092E01D80124F0E7002003B0F0BDC04625
:102D1C000407002024000020A006002070B584B019
:102D2C000E21694400230B8003AA1380E4200AF0CF
:102D3C00EFFA002800D075E00E236B441E780E21AC
:102D4C006944E5200AF0E4FA040003A9E6200AF03D
:102D5C00DFFA0443A4B2002C00D065E00E236B44D0
:102D6C001D882D0403AB1B88ED180E216944E72048
:102D7C000AF0CEFA040003A9E8200AF0C9FA0443C9
:102D8C00A4B2002C52D10E236B441C88240403AB38
:102D9C001B88E4180E216944E9200AF0B9FA0028CE
:102DAC0007D10E236B441B88190A2C4A11702C4A2C
:102DBC0013700E216944EA200AF0AAFA002807D100
:102DCC000E236B441B88190A264A1170264A13706D
:102DDC000E216944EB200AF09BFA002807D10E2340
:102DEC006B441B88190A214A1170214A13701B4B22
:102DFC001B78002B03D01A4A1278002A18D1194BD1
:102E0C001B78002B03D0184A1278002A17D1174BC5
:102E1C001B78002B03D0164A1278002A16D10020FA
:102E2C0004B070BD00268AE700259EE70024B1E7B8
:102E3C00009222002900300004F01CFCDFE7009215
:102E4C0022002900300004F015FCE0E7009222007B
:102E5C002900300004F00EFCE1E7C0468A0900208E
:102E6C009D0600208B0900209E0600208C09002066
:102E7C009F06002010B582B08A206B46991D400039
:102E8C000AF046FA002800D075E06B4606331B8822
:102E9C00554A13701B0A53708E206B46991D4000C7
:102EAC000AF036FA002800D06CE06B4606331B881B
:102EBC00D90B4D4A11715B08D38016206B46991DB6
:102ECC00FF300AF025FA002863D16B46DA88474BAD
:102EDC001A808B206B46991D40000AF019FA0028C5
:102EEC005CD16B46DA88414B5A8018206B46991D91
:102EFC00FF300AF00DFA002855D16B4606331B88BB
:102F0C003A4A13711B0A53718C206B46991D400071
:102F1C000AF0FEF904001A2001A9FF300AF0F8F9B2
:102F2C000443A4B2002C45D16B4606331B8801AA7E
:102F3C001288120413432D4A93608D206B46991D01
:102F4C0040000AF0E5F9002842D16B4606331B8895
:102F5C00264A13731B0A53731C206B46991DFF30B2
:102F6C000AF0D6F9002839D0214B9A7E1F4B9A765D
:102F7C00002002B010BD1F4A11781B4B19705278FB
:102F8C005A7089E71B4A1179174B1971D288DA806C
:102F9C0093E7174B1A88154B1A809AE7144B5A88EB
:102FAC00124B5A80A1E7124A1179104B19715279C0
:102FBC005A71A9E7104B1B78002B04D00B4BE12264
:102FCC0052029A60B9E70A4B9A68084B9A60B4E7C8
:102FDC00064B18225A7300221A73BDE76B469A7976
:102FEC00024B9A76C4E7C046BC6400203C650020C6
:102FFC000800002000000020EF020020F0B589B08E
:10300C001E236B4400221A80002401E00134E4B238
:10301C00052C54D825003B35AD00ADB21E216944BA
:10302C0028000AF075F90028F0D11E236B4419888A
:10303C000B0A1809621C9042E8D10F200340E5D01E
:10304C00D700BA181F4FBF187B7039721E266E44FA
:10305C00681C80B231000AF05BF933881A0ABA7026
:10306C007B71A81C80B231000AF052F933881A0A1D
:10307C00FA70BB710335A8B231000AF049F93388F4
:10308C001A0A3A71FB71651CEDB2787829000AF0C6
:10309C001BFE397A4A08BB7801200240014000200F
:1030AC000590F8790490B879039078790290387982
:1030BC000190F878009028000AF01EFFA6E7002087
:1030CC0009B0F0BDF8150020F0B5D6464F4680B5D6
:1030DC0083B0322011F060FC071E65D0364B1B7894
:1030EC00FE2B63D10026344C4BE02278FA5401338A
:1030FC00DBB20134132BF8D9B246B3009B199A00FA
:10310C002E4B91469944791C1422484611F079FCB7
:10311C0014220021380011F07DFC002503E07A55C3
:10312C0001340135EDB201942278931CDBB2012BF2
:10313C0001D9312DF3D97B19013B1B78002B01D020
:10314C000135EDB2280011F027FC53469B00534487
:10315C009A001A4B9B18D860002816D02A00390008
:10316C0011F04FFC164A1378013313702A0000211A
:10317C00380011F04FFC019B1B78FE2B0FD1013650
:10318C00F6B2042E0BD80023B4E7142200214846D3
:10319C0011F040FC380011F009FC0E2007E038005B
:1031AC0011F004FC002002E0FB2000E0FF2003B043
:1031BC000CBC91469A46F0BD00DC01085865002015
:1031CC005F0A002010B5FFF7B9FCFFF705FDFFF70C
:1031DC001FFDFFF757FDFFF7A1FDFFF74BFEFFF7B4
:1031EC000DFFFFF771FF10BD70B50124002605E03F
:1031FC00601C0AF03FF90CE00134E4B2084B1B7878
:10320C00A3420BD32500631E5B00064A995A002982
:10321C00EED102351B2DEFDD0A26EDE7300070BD37
:10322C0024000020F0690020F8B50026002517E0E6
:10323C00601EBA00D2195100114B5B18195C0902BF
:10324C001B5DC91889B228001C3080B20AF012F933
:10325C000135ADB20234E4B2092CE9D90136F6B22B
:10326C00084B1B78B34209D33700B3009B195A00A3
:10327C00034BD35C002BF1D00124EDE70020F8BD0B
:10328C00AC07002024000020F8B5DE4657464E4619
:10329C004546E0B50F00160099460AAB1B789B46D5
:1032AC000BAB1D780CAB1B789A460DAB1C780EAB98
:1032BC001B78984681B2E4200AF0DCF8390A89B20E
:1032CC00E5200AF0D7F8B9B2E6200AF0D3F8310AB3
:1032DC0089B2E7200AF0CEF8B1B2E8200AF0CAF8B9
:1032EC004B461902594489B2E9200AF0C3F82D0261
:1032FC005544A9B2EA200AF0BDF824024444A1B214
:10330C00EB200AF0B7F800203CBC90469946A24648
:10331C00AB46F8BD10B51F4C63785B01217819439F
:10332C008A2040000AF0A6F82379DB030622A15E6E
:10333C00194389B28E2040000AF09CF8164C218863
:10334C001620FF300AF096F861888B2040000AF0B6
:10335C0091F863791B02217B19431820FF300AF086
:10336C0089F821898C2040000AF084F861891A20A0
:10337C00FF300AF07FF8637B1B02217919438D2003
:10338C0040000AF077F8A17E1C20FF300AF072F89A
:10339C00002010BDBC6400203C65002070B53422B8
:1033AC0000210F4811F036FB0124002605E0601CBB
:1033BC000AF060F80CE00134E4B20A4B1B78A3422B
:1033CC000BD32500631E5B00054A995A0029EED1E8
:1033DC0002351B2DEFDD0A26EDE7300070BDC0462F
:1033EC00F06900202400002010B5064B1A68064B2B
:1033FC009A4206D00AF054F8002802D1014B024A36
:10340C001A6010BDF07F0020ADDEEFBE70B58EB03F
:10341C0012256D4404AB009307AB2A0008A90120C8
:10342C000AF00AFB03AC009405AB0E226A4406A911
:10343C0002200AF001FB01230A9300260B962B882D
:10344C00099309A908980FF0E3FB0A9602230B9342
:10345C002388099309A905980FF0DAFB2988002223
:10346C0008980FF026FD05200BF08CFE218805989E
:10347C000FF018FD002802D000200EB070BD1223F2
:10348C006B441988012208980FF013FD05200BF0EE
:10349C0079FE03AB198805980FF004FD0128ECD0D8
:1034AC000020EAE770B505000024032C10D8630057
:1034BC001B199A00074B9B1899682800FCF71CFEF7
:1034CC00002802D00134E4B2EFE70134E0B200E0AE
:1034DC00002070BD8C00002070B50400002501E0B8
:1034EC000135EDB2052D25D818492000FCF704FE56
:1034FC00002821D016492000FCF7FEFD00281DD025
:10350C0014492000FCF7F8FD002819D012492000BE
:10351C00FCF7F2FD002815D010492000FCF7ECFD5B
:10352C00002811D00E492000FCF7E6FD0028D7D169
:10353C00062000E0002070BD0120FCE70220FAE725
:10354C000320F8E70420F6E70520F4E7D08A010809
:10355C00D48A0108D88A0108DC8A0108E08A0108AB
:10356C00E48A010870B50BF0C5FC0BF063FD09F0A3
:10357C00FBFF0AF0E5F908F071FB0BF08FFD09F089
:10358C0003FE0BF0BDFD0AF0B3FA002811D1FFF7D2
:10359C003DFF002853D0364B01221A7032200BF01D
:1035AC00F1FD07F0EFFA334BE12252029A6001244D
:1035BC0011E0FFF719FFBFF34F8F2F4B2F4ADA6043
:1035CC00BFF34F8FC046FDE72A4B996820000BF0E4
:1035DC00FDFF0134E4B2052CF6D9FFF7F3FD0CF036
:1035EC0081F809F0E3F8264B1B78002B2DD08025B1
:1035FC002D019024E4050122290020000FF059FC34
:10360C00FA2040000BF0BEFD0022290020000FF034
:10361C0050FC64200BF0B6FD0122290020000FF0B5
:10362C0048FC64200BF0AEFD0022290020000FF0B6
:10363C0040FC03F0DDFC134B01221A7070BD3220EC
:10364C000BF0A0FD07F09EFAC7E780252D01902412
:10365C00E4050122290020000FF02BFCFA20400089
:10366C000BF090FD0022290020000FF022FCE0E777
:10367C00EF0200203C65002000ED00E00400FA059C
:10368C00BA080020EE02002010B50EF03DF807F04D
:10369C00AFF8FFF767FF03F0C7FC0CF0C6F810BDDE
:1036AC0030B583B00500012401E00134E4B2052CEF
:1036BC0014D8AC42F9D00B4B1A88110A0A4B19706A
:1036CC005A709C70032300930733002200212000C2
:1036DC0004F0E4F80A200CF0ADF8E6E7002003B0A3
:1036EC0030BDC046580000207C070020F0B5DE46F7
:1036FC0057464E464546E0B583B000AF444B1B7869
:10370C000733DB08DB006A46D31A9D466D4600235F
:10371C0006E00022EA545C003E4962520133DBB2FF
:10372C003B4A12789342F4D3013801232B540122E3
:10373C0001E00132D2B2062A19D883001B185B00B3
:10374C001B189B185B0034495B5A002BF1D0541E9C
:10375C000121A1400C002F4E41008C46895B214376
:10376C006446A153DB08013B0221E954E1E7022343
:10377C009B465E460136F3B29B4600239C460020D6
:10378C002EE00132D2B2062A28D8A3001B195B0006
:10379C001B199B185B0020495B5A002BF1D0DB08EE
:1037AC00013B7B60E95C0029EBD11100013901265A
:1037BC008E40B0461749894661008A4649465646AE
:1037CC00715A464631434E46534699537B68594687
:1037DC00E95463460133DBB29C46D2E70130C0B2F8
:1037EC000B4B1B78984207D204002A5C5B46013BCA
:1037FC009A42F3D10122C6E76346002BB9D10020CF
:10380C00BD4603B03CBC90469946A246AB46F0BDC3
:10381C002400002034050020F402002070B50B7841
:10382C00002B03D104780023002602E0FF24FAE7E2
:10383C000133074A12789A4208DDC25CA242F7D2E1
:10384C00CD5C002DF4D1DEB21400F1E7300070BD78
:10385C00240000200023012202E0C15C0A40013355
:10386C00024909789942F8DC1000704724000020C6
:10387C00F0B58FB005000E003222002101A811F026
:10388C00C9F81A220021484811F0C4F82A00013D59
:10389C00002346494B5546494B55012000E0013069
:1038AC00062816DCAB005B195B005B191B185B0070
:1038BC0040495B5A002BF2D0DB08B1B28B42EED1FF
:1038CC00731E3A4A0121D154374B1E70C0B20FB04F
:1038DC00F0BD012300E0013337490978994209DB37
:1038EC009A42F8D0591E3148FF24445430480024E1
:1038FC004454F0E7002401A8FFF7ACFF00280CD1DA
:10390C0001A92A48FFF78AFF0130C4B2B44204D09F
:10391C00611E01AB01225A5403E0002225E0013262
:10392C00D2B2062AE7D88B005B185B005B189B1899
:10393C005B0020481B5A002BF1D0DB08DBB2013BAB
:10394C0001A8C05C0028EAD1184F785C0130C0B2E5
:10395C00FF5C8742E3D9154FF8541548C454DEE791
:10396C00531C11498C54DAB20400631E1049C85C14
:10397C000028F5D1012200E00132062AA7DCAB00B9
:10398C005B195B005B199B185B000A495B5A002BA7
:10399C00F2D0DB08711E054C615C0139024C615C94
:1039AC008B42E9D1D0B292E7046600205409002082
:1039BC0070090020F402002024000020F0B585B02E
:1039CC0004000390554D564B2A0043CB43C21900BB
:1039DC001B6813608B8893802800FCF797FB82B2DE
:1039EC0001235B4200933333290020000BF07EFD52
:1039FC00012513E0494E2A004A49300011F068FFB6
:103A0C003000FCF783FB82B201235B42009333331B
:103A1C00310003980BF06AFD0135EDB2052DE9D9A3
:103A2C0001235B420093333303223F4903980BF08D
:103A3C005DFD002431E007231340D2083B49374891
:103A4C0011F046FF354F3800FCF760FB82B20123C2
:103A5C005B4200933333390003980BF047FD01357B
:103A6C00EDB2052D0ED8B3009B195B009B195B19A9
:103A7C005B002F4A9A5A002ADDD12E49274811F0B3
:103A8C0027FFDFE701235B420093333302222A49ED
:103A9C0003980BF02BFD0134E4B2284B1B78A342A6
:103AAC0030D92600621C1D4D2549280011F010FF4D
:103ABC002800FCF72BFB82B201277F4200973223B0
:103ACC00290003980BF012FD16236343184A9A5AE7
:103ADC0053009B1859001B4BC9180522280011F0E4
:103AEC004CFF0097322305222900039D28000BF080
:103AFC00FDFC009732230122134928000BF0F6FC41
:103B0C000125AEE701235B420093333301220F49B9
:103B1C0003980BF0EBFC05B0F0BDC046E4080020A8
:103B2C00948A0108A88A0108B8A10108C08A010872
:103B3C00F4020020BC8A01083C8901082400002002
:103B4C00B08A0108FC8A0108A48A0108E0BA0108BD
:103B5C00F0B583B005002D4C2D4923000A0043CA53
:103B6C0043C343CA43C312681A602000FCF7CEFA61
:103B7C0082B201235B4200933333210028000BF007
:103B8C00B5FC012623E00134E4B20A2C1DD8731EC7
:103B9C005B00204A9A5A611E80231B020B41134280
:103BAC00F1D01A4F230032001B49380011F090FE5F
:103BBC003800FCF7ABFA82B201235B42009333333B
:103BCC00390028000BF092FCDDE70136F6B2134BFE
:103BDC001B78B34201D30124D7E70C4C10492300C6
:103BEC000A0043CA43C343CA43C303CA03C32000E6
:103BFC00FCF78CFA82B201235B4200933333210031
:103C0C0028000BF073FC03B0F0BDC046E4080020A4
:103C1C00448A0108F0690020608A01082400002011
:103C2C00748A0108F0B5C64600B584B007000BF0E5
:103C3C001FFF040000230370934B1A78934D944993
:103C4C00280011F045FE2900200011F061FE914B77
:103C5C001A789149280011F03BFE2900200011F040
:103C6C0057FE06230093043B00228C49280011F0D8
:103C7C002FFE2900200011F04BFE894A89492800AB
:103C8C0011F026FE2900200011F042FE864A8749D9
:103C9C00280011F01DFE2900200011F039FE844B84
:103CAC002A0043CB43C219001B6813608B88938096
:103CBC008B7993712900200011F02AFE01250DE06B
:103CCC00724B7C4A116819609188998092799A712B
:103CDC006E49200011F01CFE0135EDB2052D3BD8CC
:103CEC006A4E2A007449300011F0F2FD31002000B8
:103CFC0011F00EFE714B5B5D042BE9D89B00704AF2
:103D0C00D3589F4661496F480B00020043CA43C316
:103D1C0003CA03C312781A70DAE75C4A6A4B43CBC6
:103D2C0043C2D5E7594969480B00020043CA43C353
:103D3C0043CA43C312881A80CAE7544964480B002B
:103D4C00020043CA43C343CA43C311681960918834
:103D5C00998092799A71BBE74C495E480B0002003E
:103D6C0061CA61C361CA61C3200011F0D1FD012693
:103D7C000BE0464D32005849280011F0A9FD2900EE
:103D8C00200011F0C5FD0136F6B2062E22D8751EA4
:103D9C00EB005B1BDA00514BD358002BE9D0EB0046
:103DAC005B1BDA004D4B9B18586A06F055FF0390CD
:103DBC00AD004B4BE85806F04FFF344D0090039B81
:103DCC0032004849280011F083FD2900200011F031
:103DDC009FFDD8E72000FCF799F9201803224249EF
:103DEC0010F00FFE2000FCF791F920181D223F491E
:103DFC0010F007FE2000FCF789F98046012501E050
:103E0C000135EDB2052D16D81F4B1B78013B5B001D
:103E1C00374A9A5A691E80231B020B411342EFD07A
:103E2C001A4E2A003349300011F052FD31002000A7
:103E3C0011F06EFDE4E72000FCF768F943461B0423
:103E4C001B0C98420DD02000FCF760F920180322BF
:103E5C00254910F0D6FD002F09D104B004BC9046C2
:103E6C00F0BD20180522244910F0CBFDEBE7200013
:103E7C00FCF74CF982B201235B42009333332100EF
:103E8C0038000BF033FBE8E7BA080020E408002008
:103E9C0088880108F0020020A4880108C088010865
:103EAC00E0880108EC8801080489010810890108E0
:103EBC002C8901084889010840890108340900202F
:103ECC00648801085089010868890108748901080F
:103EDC0090890108B0890108C88901089414002050
:103EEC00240F0020E48901083C890108148A010888
:103EFC00F0690020348A01083C8A010870B505007D
:103F0C002949FCF7F9F800280AD028492800FCF7C1
:103F1C00F3F8002844D02E78232E04D0002416E089
:103F2C00234B187870BD681C10F0F9FCC0B2002847
:103F3C0003D0204B1B78834205D21D4B1C78844246
:103F4C0030D120B2EEE700B2ECE70134E4B2194B09
:103F5C001B78A3420DD9A3001B195900164BC91885
:103F6C002800FCF7C9F80028EFD1002EEDD020B2C4
:103F7C00D8E70026092E11D8B3009B195A000F4917
:103F8C0089182800FCF7B8F8002802D00136F6B2E0
:103F9C00F0E73402FE20204300B2C3E76420C1E7FF
:103FAC00FF20BFE76620BDE7C88A0108CC8A01085C
:103FBC00BA08002024000020AC070020A006002036
:103FCC00F8B506000D000024032C09DCA3002949D8
:103FDC00C9182800FCF790F8002843D00134F3E707
:103FEC000124254B1B78A3420BDDA3001B195900A0
:103FFC00224BC9182800FCF77FF8002834D0013474
:10400C00EFE70024092C0BDCA3001B195A001C49F8
:10401C0089182800FCF770F8002827D00134F1E744
:10402C00184B194A1A60174B1C68002C0FD02368C8
:10403C001F683800FCF76AF802003900280011F0FC
:10404C008BFC002814D062680E4B1A60EBE7B300AF
:10405C009E197000094BC018290011F075FCFFF770
:10406C00E3F802E0062000E00720F8BD0720FCE79B
:10407C000820FAE77888010824000020AC0700200B
:10408C00A00600203C090020E4000020F8B5060042
:10409C000D000024092C14DCA3001B195A00334911
:1040AC0089182800FCF728F8002801D00134F1E722
:1040BC00013E0122A2402E497600735A13437352DB
:1040CC00F8BD0024032C09DCA3002A49C9182800D8
:1040DC00FCF712F8002845D00134F3E70124264BF5
:1040EC001B78A3420BDDA3001B195900234BC918E5
:1040FC002800FCF701F8002836D00134EFE7204BFC
:10410C00204A1A6002E062681D4B1A601C4B1C6846
:10411C00002C1CD023681F683800FBF7F7FF020047
:10412C003900280011F018FC0028ECD10820C7E752
:10413C000E488018290011F007FC013E0122A24014
:10414C000B497600735A134373520020B8E7092CBD
:10415C00F3DCA3001B195A00044BD35C002BE7D0F3
:10416C000134F4E70620ABE70720A9E7A0060020FE
:10417C00040700207888010824000020AC070020E8
:10418C0040090020E400002030B583B01E2010F060
:10419C0003FC04001E22002110F03CFC08490A7D9F
:1041AC00013A8B7D487D098B9200064D5259019145
:1041BC0000900549200011F08BFB200003B030BDAE
:1041CC003C6500206C900108E88A010800B585B0B8
:1041DC000A00074B197801230393023B02930193C6
:1041EC00033300930B0003F0D7FD05B000BDC046B0
:1041FC00BA08002030B587B004000D0000230493EA
:10420C000393029301930093002200210020FFF7F7
:10421C003BF8621ED3009B1ADA00154BD258002AC9
:10422C0007D0691ECB005B1AD900114BCB58002B61
:10423C000ED1002A15D16A1ED3009B1ADA000C4B42
:10424C00D358002B12D0280008F0F6FA002006E014
:10425C00200008F0F1FA280008F0EEFA002007B070
:10426C0030BD200008F0E8FA0020F8E76820F6E7F7
:10427C0094140020F8B50700002501E034700135D6
:10428C007E193478002C09D010F078FB0019427894
:10429C0003231340012BF1D12034EFE7F8BD0000CC
:1042AC00F0B5C64600B588B00500D74B1C78052C78
:1042BC0000D10DE2D548A3001A19910000220A542E
:1042CC004018427002300432002110F0A3FB2B780E
:1042DC00622B02D1AB782E2B4FD0CD4E2900300063
:1042EC0011F032FBCB4C2100300012F0BBF9050071
:1042FC002100002012F0B6F906002100002012F077
:10430C00B1F90400002D00D1E9E12800FFF7CAF84B
:10431C00051E02D0002E00D1ACE1002E00D1E0E150
:10432C00002C00D1DFE12000FFF7BCF8002800D101
:10433C00B1E1B54B1978B54A8B005F18BC00042766
:10434C00A7541419E570E071AF4D2C783000FFF7CD
:10435C00C3F8AE4AA10009198B00D31858702B78FA
:10436C009900C918880012185278002A00D1BCE1B3
:10437C000133A54A13700020ABE16E78303EF6B2E3
:10438C00052E00D9A9E1A14BA20010198100012032
:10439C00C8545B1800225A709E70EF1C07329E495D
:1043AC00380011F0D9FA002822D1A3001C19A20060
:1043BC00964B9B180522DA70F2009219974B9B18BA
:1043CC001B7ADB0705D500208F4A13780133137055
:1043DC007FE101230593002304930393029301933C
:1043EC00009300220121300009F086FD0020EBE74C
:1043FC000E228B49380011F0AFFA00281ED1A30011
:10440C001C19A200814B9B180622DA70F20092193B
:10441C00824B9B181B7A9B0701D50020D4E7012304
:10442C0005930023049303930293019300930122B9
:10443C000021300009F060FD0020C5E70C2279490D
:10444C00380011F089FA00287BD1F2009219734BD5
:10445C009B189B78002B0FD0F20092196F4B9B1876
:10446C00DB78002B29D0F20092196C4B9B181B792E
:10447C00002B44D00C20A7E7644FA3001C19A30009
:10448C00FB180922DA7028000F3010F042FA5E4B4C
:10449C001978C3B28A00521891007F183B7101221F
:1044AC000592002204920392029201920092002142
:1044BC00300009F021FD002086E7544FA3001C19A1
:1044CC00A300FB180A22DA7028000F3010F021FA32
:1044DC004D4B1A78C0B293009B189A00BF183871D4
:1044EC0001230593002304930393029301930090FB
:1044FC0000220021300009F0FFFC002064E7434F4C
:10450C00A3001C19A300FB180B22DA7028000F3033
:10451C0010F0FFF93C4B1A78C0B293009B189A002C
:10452C00BF1838710123059300230493039302935E
:10453C000190009300220021300009F0DDFC0020E6
:10454C0042E70D223849380011F006FA002800D055
:10455C008EE0F2009219314B9B185B79002B0FD037
:10456C00F20092192D4B9B189B79002B2AD0F2004C
:10457C0092192A4B9B18DB79002B57D00D2023E77F
:10458C00224FA3001C19A300FB180C22DA70280080
:10459C00103010F0BEF91C4B1A78C0B293009B1867
:1045AC009A00BF18387101230593002304930393D9
:1045BC0002900193009300220021300009F09CFC32
:1045CC00002001E7114FA3001C19A300FB180D22BA
:1045DC00DA702800103010F09CF90B4B1A78C0B22E
:1045EC0093009B189A00BF18387101230593002380
:1045FC000493039002930193009300220021300056
:10460C0009F07AFC0020DFE65F0A002058650020E4
:10461C00C409002044890108ECA10108F815002008
:10462C00709201088092010890920108304F143367
:10463C0098465C433C19063BE3702800103010F0A0
:10464C0068F92C4B1B78C0B242465343FF183871A3
:10465C000123059304900024039402940194009484
:10466C00230022002100300009F046FC2000ABE6BC
:10467C000020A9E6002C00D04FE61E4803781C4908
:10468C009A00D618B400022666540919CD7001336D
:10469C00037000201DE0174B98461A78144F9300B6
:1046AC00981881000320C8557A18D570200010F096
:1046BC002BF9FEF7A1F9079043461A7893009B1843
:1046CC009800C0190630042207A910F09AF93BE6AD
:1046DC000E2008B004BC9046F0BD0020F9E767201E
:1046EC00F7E76720F5E76720F3E76720F1E7C046B7
:1046FC00586500205F0A0020F8B50C00022817D07E
:10470C00032803D001280FD000200CE0344B1A787A
:10471C00013A93009B189A00324B9B1801221A7491
:10472C0006F0BEF80020F8BD0800FFF7B9FDFAE767
:10473C002B4B1D78013DAB005B199A00294B9B1844
:10474C00DE68002E34D03000FBF7E0FC07002000C0
:10475C00FBF7DCFC39180231300011F099F8214ECE
:10476C00AB005D19AB00F318D8601D4D2B78013BE5
:10477C009A00D2189300F318D8687B1CC01821003B
:10478C0011F0E2F82A78013A93009B189A00B618B7
:10479C00F3681322DA55124B1B78013B9A00D2189E
:1047AC009100104A5218D268002A11D00020BAE7A2
:1047BC000800FBF7ABFC013010F0EEF8AB005D1914
:1047CC00AA00084B9B18D860210011F0BDF8E2E755
:1047DC00044BC8181422002110F01CF90E20A2E77B
:1047EC005F0A002058650020F0B5DE4657464E465D
:1047FC004546E0B58BB00490039115001C000922CE
:10480C00002107A810F006F960E1E91C0130FFF760
:10481C0073FF002806D1CF4B02221A700D23237090
:10482C00002784E15222CC49200010F0EAF8C94B51
:10483C0000221A7000277AE1C64B00221A70C74971
:10484C000330FFF759FF4122C549200010F0D9F879
:10485C0000276CE129000220FFF74EFF002803D14E
:10486C000D232370002762E15222BB49200010F077
:10487C00C8F800275BE110F081F87378C018437812
:10488C005B0700D54CE1721B290007A811F075F8E5
:10489C0007A8FFF733FB0590B24A12789146904275
:1048AC002CD0642832D0662837D0FF283CD06B46F9
:1048BC001B7D9A46FE2B68D001360622AA49300091
:1048CC0011F04AF8002800D0A3E0A84B00221A707F
:1048DC001921504603F03AFA64200AF0ABFFA44BBE
:1048EC001A78A04B18780023514606F0F1F89F4B2C
:1048FC001B78602B00D1C8E0002718E1701C9922AE
:10490C00920021000BF04EF8070010E12722994984
:10491C00200010F076F8002709E1252296492000A6
:10492C0010F06FF8002702E11A220021934810F0D2
:10493C0071F801362800FBF7E9FB070007A8FBF725
:10494C00E5FB3A1A013A31008D4811F016F82800AF
:10495C00FBF7DCFB070007A8FBF7D8FB3B1A9BB265
:10496C001722FF21484603F0C9F999229200210031
:10497C0030000BF017F807002000FBF7C7FB2018DE
:10498C001D22804910F03DF8D1E0059B1B12DBB2D3
:10499C009A467D4B9B4652461A701A220021774844
:1049AC0010F038F8731C98462800FBF7AFFB060094
:1049BC0007A8FBF7ABFB321A013A4146704810F0DE
:1049CC00DCFF2800FBF7A2FB060007A8FBF79EFB09
:1049DC00331A9BB217225146484603F08FF9614BAC
:1049EC001B78013B5B00694A9B5A5A46127813416B
:1049FC00DB0706D407AB22006549200010F068FFE6
:104A0C0095E099229200210040460AF0CBFF070066
:104A1C00F0E72800FBF77AFB070007A8FBF776FB0B
:104A2C003A1A013A3100564810F0A7FF2800FBF75C
:104A3C006DFB060007A8FBF769FB321A92B2013A2C
:104A4C0092B21721504603F081F9059A5149200082
:104A5C0010F03EFF2378002B02D0039B002B08D1D3
:104A6C002000FBF753FB0200002120000FF0D2FFC7
:104A7C003DE72000FBF74AFB82B201230093313360
:104A8C00210004980AF032FDEAE7FA21890001209E
:104A9C000CF0AEFB404B1B78002B0BD03F4A13881D
:104AAC0001331380059B22003D49200010F010FFBC
:104ABC0000273CE000273AE02000FBF727FB020030
:104ACC00002120000FF0A6FF002F71D02800FFF767
:104ADC00D1FB204B1E78002E07D103223149280030
:104AEC0010F03AFF002800D18FE6002E07D00622E6
:104AFC002D49280010F030FF002800D19CE6022E32
:104B0C0000D1A7E62E21280010F010FF061E07D0BA
:104B1C0003380322254910F01FFF002800D0AAE615
:104B2C0099229200210028000AF03CFF070023780C
:104B3C00002BC1D0039B002BBED02000FBF7E6FA64
:104B4C0082B201235B4200933333210004980AF0B4
:104B5C00CDFCB1E78C0A0020A8900108AC8A0108B2
:104B6C0004910108BA080020E8910108BC640020F7
:104B7C00F00200204C910108749101086805002096
:104B8C007C0700209C9101085E0A0020040700208D
:104B9C00BC910108F0910108500900204A12002034
:104BAC0014920108A4900108FC9001084891010896
:104BBC000922002107A80FF02DFF0C4B1B78002BAE
:104BCC0002D1039B002B06D10BB03CBC90469946FE
:104BDC00A246AB46F0BD01235B420093333338222F
:104BEC00034904980AF082FCEEE7C0468C0A0020C8
:104BFC0034920108F0B585B00F236B4400221A7073
:104C0C000121494201200CF0F3FA0AF031FF0400B3
:104C1C00514B9A68E1231B039A4222D14F4B1B88BC
:104C2C005A00D21853004E4A9B184E4A12784E4DD9
:104C3C004E4E317800914E49280010F049FEA422C6
:104C4C0030780A2392004B490AF07EFC2800FBF7CF
:104C5C005DFA82B230780A2329000AF075FC00252F
:104C6C0066E00125052DD9D8404B1B78AB4204D00A
:104C7C00E121090328000AF0A9FC0135EDB2F1E7A6
:104C8C000F266E4432707A00D21996013A4A921964
:104C9C000026D654394AD3550F266E440A230122D6
:104CAC0031000AF051FC33780D2B24D00A2B3DD067
:104CBC00082B48D07F2B46D01A00203AD2B25E2A5D
:104CCC0034D8312D32DC2E4A535501356DB22DE0DE
:104CDC0001339BB2BF2BDFD87A00D2199601264A3A
:104CEC009219D25C002ACBD1BF2BF1D1234B0022DD
:104CFC00DA550023ECE71D4B18780A2302222149D0
:104D0C000AF022FC002D19D01D4D184B18782300E9
:104D1C002A000121FFF768FD29001B4810F014FE42
:104D2C003222002128000FF075FE00250AF0ECFF5E
:104D3C000E4B1878471E114BDB5DCBE71249104820
:104D4C0010F002FEE0E7002DF0DD013D6DB20C4BE2
:104D5C0000225A55EAE7C0463C6500205800002066
:104D6C00FC8A0108BA080020600A0020F00200202A
:104D7C00A0920108CC920108100B0020D00E00204C
:104D8C009009002088AB01082C0A002070B50C009B
:104D9C001C4B1A78013A93009B189A001A4B9B18DB
:104DAC00DB68002B2CD0194B1B68002B14D0174B35
:104DBC001D682B78002B12D01321280010F0B6FDA3
:104DCC00061E11D0421B2900200010F0D6FD013622
:104DDC000E4B1E60012006E00C4B1860E7E70B4BF6
:104DEC0000221A60002070BD2900200010F0ACFDDC
:104DFC002000FBF78BF92D18044B1D600120F2E706
:104E0C000020F0E75F0A002058650020880A002087
:104E1C00F0B583B0040083001B189A00464BD35C9A
:104E2C00012B04D0032B15D0002003B0F0BD424A57
:104E3C008300181881000800511889781218D2784C
:104E4C00CB005B183D495B5C9A4201D00020ECE73B
:104E5C000120EAE7384E85002B1899007118CA78A2
:104E6C00013A53009B189A00354BD3581F680631F2
:104E7C00042201A80FF0C5FD2C19A300F6187378B5
:104E8C00062B47D89B002F4AD3589F46391C0198B4
:104E9C00FBF70EFB00283FD00120C6E7391C019818
:104EAC00FBF70CFB002801D10020BEE70120BCE77A
:104EBC00391C0198FBF716FB00282FD00021381C59
:104ECC00FBF7F6FA00282BD10130AEE7391C01981C
:104EDC00FBF7FEFA002825D00120A6E7391C019823
:104EEC00FBF70AFB00281FD00021381CFBF7E0FA67
:104EFC0000281BD1013098E7391C0198FBF7D8FA30
:104F0C00002815D10021381CFBF7D2FA002811D14A
:104F1C0001308AE7002088E7002086E7002084E73C
:104F2C00002082E7002080E700207EE700207CE75D
:104F3C0000207AE7002078E758650020F81500205B
:104F4C008C0000208890010870B50AF091FD0500D6
:104F5C0000241BE0194B18782B00194A0021FFF78D
:104F6C0043FC2800FBF7D2F80200002128000FF0C8
:104F7C0051FDB3009B199A00124B9B18D86810492D
:104F8C00FFF704FF0028E5D10134A4B20E4B1B78C7
:104F9C00A34211D92600A3001B199A00094B9B1898
:104FAC001B7C002BF0D0E0B2FFF732FF0028EBD0D7
:104FBC00064B20221A70DCE7002070BDF0020020A6
:104FCC00F8090020586500205F0A0020BC6400200E
:104FDC0000207047F0B583B0050014000023019346
:104FEC00009301AA012120000AF046FD0023C356BC
:104FFC00702B17D068276A46022120000AF03CFD6E
:10500C000FF08DFC0400682F12D0010030000AF064
:10501C00DDFA330022000949280010F059FC002069
:10502C0003B0F0BD01300FF07AFCC6B20027E2E706
:10503C001322034928000FF0E4FCF0E7449F010819
:10504C00309F010810B5044B1A681204120C034966
:10505C0010F03EFC002010BDCCF7FF1F2499010876
:10506C0010B582B0040010000023019300230093BC
:10507C0001AA01210AF000FD0023C356323BDBB22A
:10508C00012B07D915220B4920000FF0BAFC002088
:10509C0002B010BD0FF043FCC0B2694609F0F6F93E
:1050AC000098FDF757FC02000B000349200010F09C
:1050BC000FFCECE720960108FC95010810B582B0B6
:1050CC000400002301930093694601A809F022F91A
:1050DC0001A9200010F038FC0098FDF73BFC020001
:1050EC000B000349200010F0F3FB002002B010BDB0
:1050FC006C96010810B582B0040000230193009354
:10510C00694601A809F006F901A9200010F01CFC61
:10511C000198FDF71FFC02000B000349200010F062
:10512C00D7FB002002B010BD3896010870B584B0D2
:10513C00050016000023039302930023019303AA96
:10514C00012130000AF098FC040002AA0221300070
:10515C000AF092FC06000023E356323BDBB2012B33
:10516C0007D91522194928000FF04BFC002004B078
:10517C0070BD20000FF0D3FBC4B215493000FAF714
:10518C00BBFF002805D013493000FAF7B5FF002803
:10519C0016D10F4E3100200009F05EFA01AA310041
:1051AC00200009F08BFA01A9280010F0CDFB019822
:1051BC00FBF7E0F982B20849280010F089FBD5E72B
:1051CC001222064928000FF01CFCCFE7209601089C
:1051DC00AC950108B0950108B8950108C89501086F
:1051EC00F0B585B004001000002303935D4B1A78D2
:1051FC0002AB1A7003AA01210AF03EFC05005A49C1
:10520C00FAF77AFF002868D1584B1B78013B584AB3
:10521C00D65C012523E02A005649200010F058FBEB
:10522C002000FAF773FF82B2504B18786423009376
:10523C005A3B21000AF05AF93DE001200CF082FAA9
:10524C004A4B1A78013A711C53009B189B014A4A2D
:10525C00D3185B5C002BF0D00E000135EDB2052DA0
:10526C0044D8424B1B78AB42F7D010F0DFFA02AFB8
:10527C003870642300935A3B0122390028000AF04D
:10528C0035F928000AF014F903689B8CDBB23A78E4
:10529C009342C0D02A003949200010F019FB20009D
:1052AC00FAF734FF82B2314B1878642300935A3BDF
:1052BC0021000AF01BF95422314920000FF0A1FB08
:1052CC002000FAF723FF82B2284B1878642300934E
:1052DC005A3B21000AF00AF9B2E70023EB56702B77
:1052EC0007D00F22274920000FF08BFB002005B0C0
:1052FC00F0BD681C0FF013FB0500C6B2731EDBB2C9
:10530C00042B0BD96623662B26D0062BEED1FF225D
:10531C002A401A49200010F0DBFAE7E710F086FA71
:10532C0002AF387064230093323B01223900300005
:10533C000AF0DCF800200AF0BBF803689B8CDBB2A7
:10534C003A78934201D00623DDE7FF222A4009492F
:10535C00200010F0BDFAC9E71B220B4920000FF00A
:10536C0050FBC3E770870108CC8A0108F0020020CB
:10537C00D00E0020A0AF0108100B0020BCAF01081C
:10538C00D0AF010840B0010824B00108F0B585B0D9
:10539C000500140000230393029303AA01212000AB
:1053AC000AF06AFB0023C356702B16D0672602AA9C
:1053BC00022120000AF060FB0023C356702B13D08F
:1053CC00672000281DD0672822D0192213492800F5
:1053DC000FF017FB002005B0F0BD01300FF09FFA65
:1053EC00C3B201930026E2E701300FF098FAC7B27E
:1053FC00002E01D06720E6E739000198FEF7FAFE8F
:10540C00DFE73B00019A0649280010F061FAE1E75A
:10541C000F22044928000FF0F4FADBE7ECB0010886
:10542C00CCB0010840B00108F0B585B005001400FF
:10543C0000230393029303AA012120000AF01CFB12
:10544C000023C356702B16D0672602AA0221200017
:10545C000AF012FB0023C356702B13D067200028D0
:10546C001DD0672822D01722134928000FF0C9FA43
:10547C00002005B0F0BD01300FF051FAC3B201931A
:10548C000026E2E701300FF04AFAC7B2002E01D035
:10549C006720E6E739000198FEF798FEDFE73B004E
:1054AC00019A0649280010F013FAE1E70F2204498B
:1054BC0028000FF0A6FADBE7C09701089C970108BB
:1054CC0040B00108F0B5D6464F4680B585B0019086
:1054DC0010000023039303AA01210AF0CDFA0FF068
:1054EC0018FAC4B2002C49D02E4B1B78A34201D21F
:1054FC00FF2344E0FF260640013E2B4B9946B300A8
:10550C009A469A19930000254A469D5453469B1976
:10551C009F004F447D70B81C042200210FF07AFAD2
:10552C003D74F8680FF042FAFD6001E00134E4B21A
:10553C001C4B1B78A3421AD9A3001B199A001A4BB7
:10554C00D35C002BF2D0621E93009B189800164A75
:10555C008018A3001B199E00B618142231000FF0FE
:10556C0050FA1422002130000FF054FADEE7013B10
:10557C000C4A137005F094F9002300E0FF23002B74
:10558C000AD02322094901980FF03BFA002005B0FC
:10559C000CBC91469A46F0BD3622054901980FF095
:1055AC0030FAF3E75F0A002058650020E098010804
:1055BC00A898010810B582B00400100000230193D4
:1055CC0001AA01210AF058FA0FF0A3F9C3B2002B7B
:1055DC0003D00F4A12789A4207D223220D49200099
:1055EC000FF00FFA002002B010BDFF231840013855
:1055FC00830018188200084B9B1800221A7405F0BF
:10560C004FF93522054920000FF0FBF9EAE7C046B7
:10561C005F0A0020E098010858650020F09C010802
:10562C0010B582B0040010000023019301AA0121DF
:10563C000AF022FA0FF06DF9C3B2002B03D00F4A17
:10564C0012789A4207D223220D4920000FF0D9F983
:10565C00002002B010BDFF23184001388300181839
:10566C008200084B9B1801221A7405F019F9382294
:10567C00054920000FF0C5F9EAE7C0465F0A002093
:10568C00E098010858650020A4960108F0B5CE46B4
:10569C00474680B58BB0040006AA744B043323CB69
:1056AC0023C21B881380724B187801235B42009332
:1056BC00333337226F4909F019FF0027012398462D
:1056CC008CE06D4B9B181A7CD3009B1A06AA94464F
:1056DC00634442466949200010F0FAF88BE0B300AD
:1056EC009B199A00644B9B18DB78053BDAB2092AAC
:1056FC004ED89300624AD3589F46B3009B19990029
:10570C005D4A52189378D268009222005D492000BD
:10571C0010F0DEF83CE0B3009B199900564A521881
:10572C009378D268009222005749200010F0D0F8EC
:10573C002EE0B3009B1999004F4A521893781179B7
:10574C00D2680192009122005049200010F0C0F85C
:10575C001EE0B3009B199900474A521893781179AF
:10576C00D2680192009122004949200010F0B0F853
:10577C000EE0484D2B0022004749200010F0A8F8FD
:10578C002800FAF7C3FC0200002128000FF042F9B0
:10579C00B3009B199A00384B9B18D8683D49FFF70A
:1057AC00F5FA0028E5D12000FAF7B0FC20180C22FD
:1057BC003A490FF026F92000FAF7A8FC82B22C4BDC
:1057CC00187801235B4200933333210009F08EFEDD
:1057DC0043460133DBB298460137FFB2304B1B789E
:1057EC00BB4238D93E00BB00DB199A00224BD35C7C
:1057FC00002B00D065E7B3009B199A001E4BD35CBD
:10580C00012B00D16BE7032BC2D1B3009B199D0078
:10581C00194BED18A91D042205A80FF0F2F8EA782F
:10582C00013A6B78013B5D00EB181E4DED185300EF
:10583C009B189A001C4B9B189B6899460598FDF782
:10584C0089F80290039100954B46220017492000DD
:10585C0010F03EF89CE7B522154920000FF0D1F866
:10586C0000200BB00CBC90469946F0BD7087010827
:10587C00F002002084A1010858650020BCA1010899
:10588C0060950108C8A10108DCA10108F4A1010878
:10589C000CA20108900A002038A2010840A20108BD
:1058AC005F0A0020B49C01088C00002028A201088B
:1058BC004CA2010810B504000BF058FF0004000CBA
:1058CC001A4B9C46604408282AD88000184B1B5859
:1058DC009F46184A184920000FF0FAFF0BF040FFC2
:1058EC00030B2200154920000FF0F2FF002010BD21
:1058FC00134A114920000FF0EBFFEFE7114A0E4954
:10590C0020000FF0E5FFE9E70F4A0B4920000FF0EC
:10591C00DFFFE3E70D4A084920000FF0D9FFDDE770
:10592C000B4A054920000FF0D3FFD7E7C0FBFFFF60
:10593C0088950108B09B0108BC9B0108089C0108D4
:10594C00D09B0108DC9B0108E89B0108F49B010833
:10595C00009C010870B505000E220E490FF051F89D
:10596C0000240AE00C4BE3189B001B682A000B492F
:10597C0028000FF0ADFF0134E4B2022CF2D928005C
:10598C00FAF7C4FB2818032205490FF03AF8002057
:10599C0070BDC04618B10108EBFDFF0728B1010826
:1059AC0088AB010830B585B0040009F043FB1B4BF4
:1059BC005B7B182B04D00C2B0ED0002005B030BD17
:1059CC0016498A7C4B7C087CC9890191009014494A
:1059DC0020000FF07DFFF0E7104BDB7C012B0FD08C
:1059EC00022BEAD10D498A7C4B7C087CC9890D4D70
:1059FC000295019100900C4920000FF069FFDCE743
:105A0C0006498A7C4B7C087CC989084D029501911A
:105A1C000090054920000FF05BFFCEE73C650020AD
:105A2C0060B00108B8B0010888B00108B4B0010832
:105A3C0010B5040009F0FEFAFEF7A6FB02000349BC
:105A4C0020000FF045FF002010BDC046E89701086C
:105A5C00F0B583B00500160000230193009301AA52
:105A6C00012130000AF008F804007C4B1860042275
:105A7C007B490FF071FF002800D09EE00434019B9D
:105A8C001E1F3200774920000FF066FF002823D13B
:105A9C00754B1B78602B0AD0202B0FD0002B14D009
:105AAC006823682B00D1D2E0002003B0F0BD6F4A10
:105ABC006F4928000FF00CFF0023F2E76D4A6C4988
:105ACC0028000FF005FF0023EBE76B4A684928001C
