:020000040800F2
:100000000080002009E0000895E00008CDD5000838
:1000100000000000000000000000000000000000E0
:10002000000000000000000000000000A9FE000821
:10003000000000000000000041FF0008C1D50008DA
:1000400095E0000895E0000895E0000895E00008BC
:1000500095E0000895E0000895E000089DD70008AD
:1000600095E0000895E0000815D6000855D6000870
:1000700095E0000895E0000895E0000895E000088C
:1000800095E0000895E0000895E0000895E000087C
:1000900095E0000895E0000895E0000895E000086C
:1000A00095E0000895E0000895E00008D1D500082B
:0C00B000E1D50008F1D5000895E000083B
:1000BC0010B5064C2378002B07D1054B002B02D032
:1000CC00044800E000BF0123237010BDB0020020E3
:1000DC000000000018710108044B10B5002B03D070
:1000EC000349044800E000BF10BDC04600000000FA
:1000FC00B40200201871010802780B78002A03D092
:10010C00013001319A42F7D0D01A70470023C25CFB
:10011C000133002AFBD1581E7047000002B471460F
:10012C0049084900095C49008E4402BC7047C0462E
:10013C00002243088B4274D303098B425FD3030A1A
:10014C008B4244D3030B8B4228D3030C8B420DD32D
:10015C00FF22090212BA030C8B4202D312120902BB
:10016C0065D0030B8B4219D300E0090AC30B8B42F9
:10017C0001D3CB03C01A5241830B8B4201D38B03A7
:10018C00C01A5241430B8B4201D34B03C01A52414C
:10019C00030B8B4201D30B03C01A5241C30A8B428F
:1001AC0001D3CB02C01A5241830A8B4201D38B027A
:1001BC00C01A5241430A8B4201D34B02C01A52411E
:1001CC00030A8B4201D30B02C01A5241CDD2C30990
:1001DC008B4201D3CB01C01A524183098B4201D30C
:1001EC008B01C01A524143098B4201D34B01C01AF7
:1001FC00524103098B4201D30B01C01A5241C3086F
:10020C008B4201D3CB00C01A524183088B4201D3DD
:10021C008B00C01A524143088B4201D34B00C01AC9
:10022C005241411A00D20146524110467047FFE735
:10023C0001B5002000F0F0F802BDC0460029F7D04F
:10024C0076E7704703460B437FD4002243088B426A
:10025C0074D303098B425FD3030A8B4244D3030B41
:10026C008B4228D3030C8B420DD3FF22090212BA06
:10027C00030C8B4202D31212090265D0030B8B4282
:10028C0019D300E0090AC30B8B4201D3CB03C01A6C
:10029C005241830B8B4201D38B03C01A5241430B47
:1002AC008B4201D34B03C01A5241030B8B4201D337
:1002BC000B03C01A5241C30A8B4201D3CB02C01AA2
:1002CC005241830A8B4201D38B02C01A5241430A1A
:1002DC008B4201D34B02C01A5241030A8B4201D309
:1002EC000B02C01A5241CDD2C3098B4201D3CB01B0
:1002FC00C01A524183098B4201D38B01C01A52415F
:10030C0043098B4201D34B01C01A524103098B4262
:10031C0001D30B01C01A5241C3088B4201D3CB004D
:10032C00C01A524183088B4201D38B00C01A524130
:10033C0043088B4201D34B00C01A5241411A00D2E0
:10034C0001465241104670475DE0CA0F00D0494249
:10035C00031000D34042534000229C4603098B42B9
:10036C002DD3030A8B4212D3FC22890112BA030A41
:10037C008B420CD3890192118B4208D389019211C3
:10038C008B4204D389013AD0921100E08909C30948
:10039C008B4201D3CB01C01A524183098B4201D34A
:1003AC008B01C01A524143098B4201D34B01C01A35
:1003BC00524103098B4201D30B01C01A5241C308AD
:1003CC008B4201D3CB00C01A524183088B4201D31C
:1003DC008B00C01A5241D9D243088B4201D34B0037
:1003EC00C01A5241411A00D20146634652415B1079
:1003FC00104601D34042002B00D54942704763465A
:10040C005B1000D3404201B5002000F005F802BD9E
:10041C000029F8D016E770477047C0468446101C78
:10042C0062468C46191C634600E0C0461FB501F0BD
:10043C0083F8002801D40021C8421FBD10B500F07C
:10044C00DBFF4042013010BD10B501F075F80028FB
:10045C0001DB002010BD012010BDC04610B501F01D
:10046C006BF8002801DD002010BD012010BDC04636
:10047C0010B500F0FDFF002801DC002010BD0120AC
:10048C0010BDC04610B500F0F3FF002801DA0020C3
:10049C0010BD012010BDC0468446081C6146FFE714
:1004AC001FB500F0FBF8002801D40021C8421FBD85
:1004BC0010B500F07DF84042013010BD10B500F0D1
:1004CC00EDF8002801DB002010BD012010BDC04656
:1004DC0010B500F0E3F8002801DD002010BD01206C
:1004EC0010BDC04610B500F08BF8002801DC0020D0
:1004FC0010BD012010BDC04610B500F081F80028D9
:10050C0001DA002010BD012010BDC046994201D176
:10051C00801A04D002D2012040427047012070475B
:10052C00F0B5CE46474615042D0C2E0080B50704B9
:10053C00140C3F0C9946030C7E435D4367436343A5
:10054C007F19340CE4199C46A54203D980235B0225
:10055C009846C4444B4643435143250C36046544EA
:10056C00360C2404A4195B19591820000CBC9046B5
:10057C009946F0BD70B500220C4B04000D00FFF73E
:10058C0081FF002804D12000290001F013FE70BD6A
:10059C00064B00222000290001F0A8FA01F00AFE07
:1005AC0080231B069C466044F1E7C0460000E041F6
:1005BC0070B542004E024C0045026D0A120EC30F7C
:1005CC00760A240EC90FFF2A0FD0FF2C11D0012060
:1005DC00A24200D070BDB542FCD18B420DD0002A96
:1005EC00F8D12800451EA841F4E70120002DF1D1D7
:1005FC00EBE70120002EEDD1E9E70020EAE7C04649
:10060C0070B54A004E02450244006D0A240EC30F19
:10061C00760A120EC90FFF2C15D0FF2A0ED0002C13
:10062C0015D1002A01D1002E1CD0002D14D08B42E4
:10063C0027D00220013B1840013870BD002EEED0AF
:10064C0002204042F9E7002DFAD1FF2A0ED0002AF1
:10065C000ED1002EEDD00BE0012301399943080097
:10066C000130EAE70020002DE7D0E2E7002EE7D1C9
:10067C008B42DED1944205DD0221581E0840013820
:10068C00DBE70024A24204DCB542D2D80020B542FC
:10069C00D3D2581E012398430130CEE730B5420027
:1006AC0044024D02C30F4800640A120E6D0A000E7C
:1006BC00C90FFF2A12D0FF280CD0002A12D1002813
:1006CC0019D1002D17D1002C2BD00220013B184042
:1006DC00013826E0002DF0D0022022E0002CFBD1C6
:1006EC00FF281FD000281FD1002D1DD10220013B57
:1006FC001840013815E0002C0ED08B42E5D10022B9
:10070C00904204DCAC42E0D80020AC4209D2581E26
:10071C0001239843013004E0012301399943080077
:10072C00013030BD002DD7D18B42CED18242E7DDD6
:10073C000221581E08400138F3E7C04670B5041E6C
:10074C0034D001F0AFFE9E22121A962A07DCD2B2E8
:10075C0008282EDD083884406002400A21E0992ADE
:10076C0009DD030021001B3399404B1E99410523E1
:10077C001B1ADC400C43052801DD431F9C40230061
:10078C000D490B40650709D00F252C40042C05D0D2
:10079C0004335C0102D59F220B40121A9B01580AAC
:1007AC00D2B24002D205400A104370BD0022002094
:1007BC00F7E76002400AF4E7FFFFFFFBF0B54F4696
:1007CC004646D6460C000903C0B5490A470F5E00E1
:1007DC0039431F03DB0F9C4665007B0A570F1F43F1
:1007EC006D0DE40F760DA146C000B846D200AB1BD0
:1007FC0064457BD0002B5FDD002E00D0A4E03E00D2
:10080C00164300D112E15E1E002E00D09EE1871A25
:10081C004346B84280410125C91A4042091A0B02CD
:10082C0000D431E149024E0A002E00D16EE13000B5
:10083C0001F038FE0300083B1F2B00DD61E1202294
:10084C003900D21A9E40D1409F400E439D4200DD9C
:10085C0051E15D1B6B1C1F2B00DD7CE12021C91AB3
:10086C003D0030008F408840DD40791E8F413100C3
:10087C0007222843D940002507433A40002A09D0D3
:10088C000F233B40042B05D03B1DBB42BF417F4295
:10089C00C9191F000B0200D426E26A1CC64B550571
:1008AC006D0D9A4200D106E1C44AFF080A40530775
:1008BC0052023B43120B8EE0002B00D0B8E06B1CB5
:1008CC005B055B0D012B00DC30E1871A4346B84217
:1008DC00B641CB1A76429E1B330200D54CE13B004D
:1008EC003343A1D100220024002570E0002B00DC52
:1008FC00E5E0002E00D183E0AF4EB54260D08026FB
:10090C0036043743B846382B00DC3EE143461343EC
:10091C001F007A1E97413F188742804140420918B8
:10092C000B0200D4B0E0A44B01359D4200D1C3E0D2
:10093C00A24A7B080A4001210F401F435108D307EC
:10094C0007221F433A4099E79B4EB54238D0802688
:10095C0036043743B846382B00DDDCE01F2B00DCB7
:10096C0030E11E004746203EF740BC46202B04D009
:10097C004026F31A46469E403243170063467A1EC1
:10098C0097411F43CCE0002B00D104E243461343B4
:10099C0000D159E14B07C00818438023C9081B0339
:1009AC00194208D04546ED081D4204D14346D008F3
:1009BC00590708432900420FC9007F4D1143C0005D
:1009CC004B07CA087C49C00803438D4268D0120308
:1009DC006D05120B6D0D002112031800130B0A0D7F
:1009EC0012051A43764B2D0513402B435B00E4078D
:1009FC005B08234319001CBC90469946A246F0BDE7
:100A0C003E00164312D05E1E002E00D000E1871867
:100A1C008742804141444042091801250B0233D5DD
:100A2C00022585E764463300414610001D00C7E7E8
:100A3C00002D00D0DAE00C000443F3D05C1C00D194
:100A4C009FE15D4CA64200D12FE1DB43382B00DD4A
:100A5C0066E11F2B00DD83E120240500E41A0F0062
:100A6C00DD40D940A0404346A7405B1A441EA0413C
:100A7C0098462F433843171ABA4292414346524282
:100A8C00991A64463500CAE607223A40002A00D07B
:100A9C00F6E64B07CA084849FF083B438D4296D1FE
:100AAC001900114300D19EE1802109030A4312036E
:100ABC00120B414D8FE71500002200238BE7002B12
:100ACC0000D0C7E06B1C5F057F0D012F00DCF1E04F
:100ADC00394DAB4200D1B9E085180A0085428941F5
:100AEC004244494251180722CF076D082F43490849
:100AFC003A401D00C2E607223049ED1A31403A4017
:100B0C00BCE63E002838864000279FE6380001F0FE
:100B1C00C9FC20308EE6434613431F007A1E9741D2
:100B2C00C71BB84280414042091A78E60E003B00D0
:100B3C0006431343002D61D1002E00D0F4E0002BAE
:100B4C0000D11BE164463900100039E71A4FBB4253
:100B5C007AD03300FFE630001F3DE840202B03D055
:100B6C004021CB1A9E4037437B1E9F4107220743EF
:100B7C003A400021002589E7171A4346BA42B6418C
:100B8C00591A76428E1B64464EE61F2B00DDADE0F3
:100B9C0020264746F61AB740B9461700B246DF4042
:100BAC004E463E4337005646B240561EB24117439E
:100BBC004246DA408918AEE6FF070000FFFF7FFFD0
:100BCC00FFFF0F8020264746F61AB740B94617009C
:100BDC00B246DF404E463E4337005646B240561EA4
:100BEC00B24117434246DA40891A99E77F4CA64234
:100BFC005BD0802424045B42214327E7002E0CD1D8
:100C0C00002B00D1CBE0644639001000774DD7E6BD
:100C1C00764FBB4218D0330075E6002B14D04B072F
:100C2C00C00818438023C9081B03194207D0FC08CD
:100C3C001C4204D17907D0080843E14621004C46F8
:100C4C00420FC9001143C000684DB9E61D000022D7
:100C5C000023C0E6002D5BD10D00054300D1E2E678
:100C6C005D1C00D1B0E0614DAE421FD0DB43382B90
:100C7C0071DC1F2B00DD96E020250F00ED1AAF4034
:100C8C00B9460700AA46DF404D463D432F00554666
:100C9C00A840D940451EA84188440743BF18974235
:100CAC0092415142414435003AE664463500414692
:100CBC00100085E60B000343002D00D063E6002BEB
:100CCC00F5D04346134300D17AE68718874280411A
:100CDC0007224144404209183A400B0200D4D5E6A1
:100CEC00434B01351940C9E5380069E61E004746FB
:100CFC00203EF740BC46202B04D04026F31A464633
:100D0C009E403243170063467A1E97411F4302E60A
:100D1C00364DAE42CAD080252D045B422943A6E74E
:100D2C000843411E8841A6E6002B00D148E6871AED
:100D3C004346B842B641CB1A76429E1B33024BD582
:100D4C00171A4346BA429241591A5242891A07223B
:100D5C0064463A4092E501430F00791E8F419DE7AE
:100D6C001C000F00203CE740202B03D04024E31A4A
:100D7C0099400843411E884138437CE600220024F8
:100D8C0025E6171A4346BA429241591A5242891A19
:100D9C006446350043E541461000144D10E68022B0
:100DAC000024120380E61D000F00203DEF40BC46DE
:100DBC00202B03D04025EB1A9940084307006346CB
:100DCC00781E87411F4369E7871897429B4141442E
:100DDC005B42C9183500A3E53B003343CED0072254
:100DEC0031003A4052E600231A00F4E5FF070000F8
:100DFC00FFFF7FFFF0B55746DE464E464546E0B551
:100E0C00834607000E03480085B092461C00360B43
:100E1C00400DCD0F002800D19DE0954B984239D064
:100E2C008023F6001B041E43924A7B0F33439946E2
:100E3C00944603006344009300230026FF000293B2
:100E4C0023031B0B98466300E40F52465B0D019481
:100E5C0000D1B3E086498B4200D19EE04246D100DE
:100E6C00802212040A435146490F11438B46814993
:100E7C0052468C4600996344CB1A0021D200009351
:100E8C002B0063409A460F2E00D905E17A4BB60031
:100E9C009B599F465B463343994600D0B8E00223EA
:100EAC000826002700900293CAE7CB463A00029925
:100EBC000195019B9A46022927D0032900D180E293
:100ECC00012944D06D49009B8C4663441C00002CC6
:100EDC0038DD530700D013E2D2085B46DB0109D59D
:100EEC005946674B19408B468021C9008C46009BA4
:100EFC0063441C00634B9C4207DC5B4664055F0744
:100F0C005B0217431B0B620D02E000230027584ABB
:100F1C0000211B031C0B0B0D1B05234314055A4A04
:100F2C00380013401C4353466400DB0764081C4321
:100F3C00210005B03CBC90469946A246AB46F0BD9C
:100F4C000122524201231B1B382B00DCADE1002295
:100F5C0000230027DCE75B46334399465ED0002E26
:100F6C0000D18AE1300001F09DFA03000B3B1C2BF1
:100F7C0000DD7BE11D22D31A5A460100DA40083904
:100F8C008E4013005F46334399468F403F4B0026FB
:100F9C001B1A00930023029352E7414653460B431E
:100FAC003B499B468C46009B634400935B46002B5D
:100FBC003BD1022300221E43022161E74346134327
:100FCC009B4637D04346002B00D162E1404601F0EE
:100FDC0069FA03000B3B1C2B00DD53E10200414678
:100FEC00083A914088461D21CB1A5146D9400B0036
:100FFC0041460B439B46534693401A00009B2549A0
:10100C009C46604403008C4663440093002137E700
:10101C000323B14600900C26029311E700230093A2
:10102C0001330426002702930AE70323C3461E4319
:10103C00032125E701331E430022012120E7002371
:10104C009A46802300271B03094A61E780234946FF
:10105C001B03194200D1E2E05946194200D0DEE0F0
:10106C000B431B0317001B0BA246014A50E7C0465B
:10107C00FF07000001FCFFFF64710108FF03000083
:10108C00FFFFFFFEFE070000FFFF0F800DFCFFFFC0
:10109C0001F8FFFFF3030000D94500D9CBE000D1E4
:1010AC00C6E03C0048460027009B013B00935B4692
:1010BC00160E1B021E431302984633041B0C994652
:1010CC00310C0191FFF7BAF84A4642430B04210C4C
:1010DC00050019438A4207D98919013D8E4203D86C
:1010EC008A4201D9851E8919881A0199FFF7A6F839
:1010FC0009048C464A46210464464243090C030009
:10110C0021438A4204D98919013B8E4200D8F1E06F
:10111C002D041D43AB464346891A4246280C120443
:10112C001D0C5B46140C22001B041B0C5A4303942D
:10113C006B434443029568431B19150CEB189C42F6
:10114C0003D980246402A44660441C0C15041B04BF
:10115C002D0C20185D19814277D373D00C1AA24A3A
:10116C007D1BAF42BF419446009B7F426344E01B12
:10117C001C00864200D1DBE00199FFF75FF84A467C
:10118C0042430B04290C070019438A4207D98919D9
:10119C00013F8E4203D88A4201D9871E8919881AC9
:1011AC000199FFF74BF809044A46894629044D4634
:1011BC004243090C030029438A4207D98919013B90
:1011CC008E4203D88A4201D9831E89193F04891A99
:1011DC003A00039F1A43380013041B0C58438146F2
:1011EC000298150C6F43434345434846000C844614
:1011FC00DB1963449F4203D9802040028446654436
:10120C0048461F0C00041B04000C7D191818A94239
:10121C0000D284E000D17FE001231A4357E68023FB
:10122C004A461B0313431B031B0BAA466F4A6FE66C
:10123C00BA4200D935E74B46DC0758087B081C43FB
:10124C00FF0734E70024AF4289D247444745A44105
:10125C005B466442A4196418013BA6421ED2A0420C
:10126C006DD800D1B6E0241A9B4678E703005A46A5
:10127C00283B9A400027914688E6584601F012F91F
:10128C00203072E603005246283B9A4093460022D7
:10129C00B4E6504601F006F920309AE6A642E2D1B7
:1012AC00B845DCD9341A9B4659E71F2B65DC504CEA
:1012BC000099A4465C46614408008C4011008240B1
:1012CC00D940501E82410C4314435A46DA40130055
:1012DC00620709D00F222240042A05D02200141DD7
:1012EC009442894149425B181A0262D501220023BB
:1012FC0000270DE68A4200D80AE7831E891907E702
:10130C000F231340042B00D1E6E5171D97429241A1
:10131C0053429B44FA08E0E5002800D1D7E5711848
:10132C00531EB14227D3A94215D358D01A0073E7E4
:10133C00002B00DC04E6012300229B44CDE50223B4
:10134C004744474589415B429C46494289190C19DF
:10135C00E344241A03E743465F0047459B41B846E4
:10136C005B429E19023A8919A94200D054E74045C4
:10137C0000D051E7ABE51A00F6E71F215F46494262
:10138C000C1BE740202B07D01A49009B8C4663446A
:10139C0018005B4683401A43501E82413A4307278C
:1013AC000023174009D00F210023114014000429F9
:1013BC0095D122005F075B021B0BD208174300225A
:1013CC00A6E5802359461B030B431B0317001B0B7D
:1013DC00064A9DE5BD42B2D89B460024BFE6804537
:1013EC00B9D31A00C3E7C046FF030000FF07000093
:1013FC001E0400003E040000F0B54F464646D6469B
:10140C008446C0B58046194E18030F034D00000BDF
:10141C005C0082463F0B6D0DC90F9146640DDB0FCE
:10142C000120B5420AD0B44203D0A54201D15745A0
:10143C000CD01CBC90469946A246F0BD66463E4375
:10144C00F7D1AC42F5D154461443F2D10120C84532
:10145C00EFD1994207D0002DEBD163461F433800E2
:10146C00471EB841E5E70020E3E7C046FF07000050
:10147C00F0B54F464646D6464D00C0B50E03C90FD3
:10148C008A462C491F035C008046360B6D0D914635
:10149C003F0B640DDB0F8D421ED08C4216D0002DFD
:1014AC001ED130438446002C01D13A4323D06246EE
:1014BC00002A1AD09A4529D05146022001390840F9
:1014CC0001381CBC90469946A246F0BD3900114328
:1014DC00E5D002204042F4E73043FAD1AC420FD0C1
:1014EC00002C0FD13A43E7D00CE00122013B93438F
:1014FC0018000130E5E763460020002BE1D0DBE764
:10150C003A43E6D19A45D7D1A542D5DCA54205DBB5
:10151C00BE42D1D808D00020BE42D2D250460123C0
:10152C00013898430130CCE7C845C5D80020C845E0
:10153C00F4D3C6E7FF070000F0B54F464646D64643
:10154C004D00C0B50E03C90F8A462E491F035C001F
:10155C008046360B6D0D91463F0B640DDB0F8D42B3
:10156C0018D08C4211D0002D18D130438446002C59
:10157C001ED13A431CD163460020002B30D051467B
:10158C0002200139084001382AE039001143EAD021
:10159C00022025E03043FBD1AC4226D0002C26D1D2
:1015AC003A4324D15146022001390840013817E052
:1015BC006246002A0FD09A45E1D1A54205DBBE4216
:1015CC00DDD819D00020BE420AD250460123013882
:1015DC009843013004E00122013B93431800013091
:1015EC001CBC90469946A246F0BD3A43D0D19A45D0
:1015FC00C5D1A542C3DCE0E7C845C0D80020C8452A
:10160C00E3D3EDE7FF070000F0B55746DE464E4644
:10161C004546E0B5834606000F03480087B0924666
:10162C001D003F0B400DCC0F002800D16FE0DE4BAE
:10163C00984238D08023FF001B041F43730F3B4399
:10164C000193DA4B0027994600239B46F600814410
:10165C002B0369001B0B52469846490DED0F0029D0
:10166C0000D185E0D04B994200D173E04346DA00BB
:10167C0080231B0413435246CC48520F8446134319
:10168C00524600206144D2008944210069400091F7
:10169C008C46012149448A460F2F00D990E0C44959
:1016AC00BF00CF59BF465B463B43019300D06AE174
:1016BC0002230827002681469B46C9E7320058467C
:1016CC00019B61460091022800D175E0032800D1EE
:1016DC00FEE1012800D02CE1002300270026002584
:1016EC003F032A0D3F0BB34812053A4302401B053A
:1016FC001343009A5B00D1075B080B4330001900C1
:10170C0007B03CBC90469946A246AB46F0BD5B4642
:10171C003B43019300D12FE1002F00D1A5E138000C
:10172C0000F0C0FE03000B3B1C2B00DD96E11D22DC
:10173C00D31A5A460100DA405E4608398F4013002E
:10174C008E403B4301939C4B00271B1A9946002368
:10175C009B467DE7414653460B4393498C46E144F7
:10176C00002B00D01AE102220220174300228CE742
:10177C00134300D10DE14346002B00D181E14046DB
:10178C0000F090FE02000B3A1C2A00DD72E1010011
:10179C00434608398B4098461D239A1A5346D3402A
:1017AC001A004346134352468A404946081A824956
:1017BC0089468144002068E77B4B002700268EE792
:1017CC00140C1204120C1100370C3604350C79432E
:1017DC0028008C462E00604360448346564321000B
:1017EC00300C80465846794340440291844506D9D2
:1017FC008846802149028C46E044414602913604D9
:10180C00010C360C00048B4681191E0C1B041B0C9E
:10181C000391190079438C46280075436544A8460A
:10182C005843050C45447743A94203D9802149020A
:10183C008C466744290C8C4639000004000C2D049E
:10184C002D186144AB4405915946049101990F043C
:10185C003F0C080C390051434243904602008C4621
:10186C00090C8B4662437C4344445C44A04503D939
:10187C008021490288464244210C8846614609046D
:10188C00090C8C4639005943434370437E430F0C7B
:10189C00F6182404BE19644442448C46B34203D95E
:1018AC0080235B0298464044029B61469846049B09
:1018BC00370443449B46AB45AD416B420D0405993F
:1018CC002D0C8C467F196744FD18A8465D462D19D2
:1018DC00A542A44193466442A446C344DC448F42CF
:1018EC00BF4198459B4193459241A445A4415B421D
:1018FC007F421F43360C52426442BF192243BF1829
:10190C00624638184302D20D039913436A020A4304
:10191C00501E82416146ED0D2A434E023243D901DD
:10192C0000D4B3E00126500832400243DE073243B4
:10193C005B08224C5444002C62DD510709D00F2067
:10194C001040042805D0101D9042924152429B1821
:10195C000200D90104D580241948E4000340544402
:10196C001848844200DD27E75E075B02D2081F0B94
:10197C00630516435B0DB2E6002399460133042739
:10198C0000269B4664E60323019781460C279B4661
:10199C005EE6012201201743002276E60323032092
:1019AC001F43434671E6C046FF07000001FCFFFFE2
:1019BC00A4710108FFFF0F800DFCFFFFFF03000067
:1019CC00FFFFFFFEFE0700000023802700933F036C
:1019DC000026434B83E6019B3200A446584670E632
:1019EC00AC466EE6802701993F0339422DD03B422D
:1019FC002BD11F433F033F0B00951600384B6EE66F
:101A0C0001252D1B382D00DD66E61F2D40DC3548E9
:101A1C001C005044160082408440EE40501E82410F
:101A2C0034431443EB40620709D00F222240042AAE
:101A3C0005D02200141D9442804140421B181A020A
:101A4C003ED501230027002649E68027019B3F0352
:101A5C001F433F033F0B0094214B40E603005A46C3
:101A6C00283B9A40002601926DE6584600F01AFD7C
:101A7C00203057E603005246283B9A4013000022C0
:101A8C0093E6504600F00EFD20307BE6CA4650E748
:101A9C001F201E004042041BE640202D03D0124C98
:101AAC005444A3401A43501E824132430726002758
:101ABC00164009D00F200023104014000428B9D17F
:101ACC0022005E075B021F0BD2081643002306E6BA
:101ADC0080273F031F433F033F0B1600004BFEE5DF
:101AEC00FF0700001E0400003E040000F8B5574636
:101AFC004E464546DE460C000903E0B5490A460F42
:101B0C005F0031431E03DB0F760A9B46530F3343B2
:101B1C00C84E6500C000E40FD2006D0DA246814690
:101B2C007F0D9C469046B74200D1B9E05B4601263A
:101B3C0073409B46EE1BA34500D183E0002E63DD72
:101B4C00002F00D0B1E06346134300D123E1731E94
:101B5C00002B00D0BAE1861A6346B04280410125C1
:101B6C00C91A4042091A0B0200D447E149024B0A38
:101B7C0098464346002B00D189E1404600F092FC88
:101B8C000300083B1F2B00DD7CE120223000D21A21
:101B9C004146D040994002009E400A439D4200DDE0
:101BAC006AE15D1B6B1C1F2B00DD94E120211000F2
:101BBC003500C91A8E40DA408840DD40711E8E41D6
:101BCC00110007222843002506433240002A09D081
:101BDC000F233340042B05D0331DB342B64176425C
:101BEC0089191E000B0200D43DE26A1C914B55056D
:101BFC006D0D9A4200D119E18F4AF6080A40570739
:101C0C0052023743120B9BE0002E00D0C5E06E1C35
:101C1C007605760D012E00DC48E16746861ACB1B53
:101C2C00B042BF417F42B8461F004346FF1A3B00FB
:101C3C00B8461B0200D55FE137439AD1002200243D
:101C4C00002579E0002E00DCFAE0002F00D18DE0B9
:101C5C00784B9D4267D0802367461B041F43BC46CC
:101C6C00382E00DC52E1634613435A1E93411E1872
:101C7C0086428041404209180B0200D4BEE06D4BF5
:101C8C0001359D4200D1D2E06B4A73080A40012114
:101C9C000E401E435108D30707221E43324095E7DE
:101CAC001E00164300D045E740E7624B9D423AD0F8
:101CBC00802367461B041F43BC46382E00DDEBE037
:101CCC001F2E00DC3AE133006746203BDF403B002F
:101CDC00202E05D04027BF1B6646BE40324390469F
:101CEC004646721E96413343DAE0002B00D114E2D3
:101CFC006346134300D168E180234E07C008C9082E
:101D0C001B030643194208D06046C008184204D190
:101D1C0063460100D2085E071643F3009946C900DA
:101D2C00720F444D11434B46DE08424B4F0737436D
:101D3C00CA089D4200D16EE012036D05120B6D0DA9
:101D4C0000211203130B0A0D12051A433B4B2D05F0
:101D5C0013402B435B00E4075B0823433800190056
:101D6C003CBC90469946A246AB46F8BD634613432D
:101D7C0011D0731E002B00D007E1861886428041DB
:101D8C0061444042091801250B0237D502257BE737
:101D9C003E00614691463500C5E75C46002D00D0FB
:101DAC00E1E00B000343F3D0731C00D1ACE1214BF9
:101DBC009F4200D13AE1F343382B00DD6FE11F2B3A
:101DCC0000DD8CE120250E00ED1AAE40B046060079
:101DDC00AA46DE40454635432E005546D940A8401C
:101DEC006346451EA8415B1A9C463043161AB24204
:101DFC00924163465242991A3D00B4E607223240A2
:101E0C00002A00D0E4E60B4BF6084F073743CA080C
:101E1C009D4200D090E73B00134300D1A6E1802304
:101E2C001B031A431203120B024D89E71500002203
:101E3C00002785E7FF070000FFFF7FFFFFFF0F80F4
:101E4C00002E00D0C7E06B1C5E05760D012E00DC69
:101E5C00F0E0C84DAB4200D1B9E085180A008542CC
:101E6C0089416244494251180722CE076D082E431E
:101E7C00490832401D00A9E6BF49ED1A114007225E
:101E8C003240A3E6320028388240002686E6300035
:101E9C0000F008FB203073E6634613435A1E93414F
:101EAC00C61AB04280414042091A5CE60E006746F1
:101EBC0006431743002D5ED1002E00D0F3E0002F17
:101ECC0000D11EE15C46614691462CE7A94FBE420B
:101EDC007BD01E00F1E610001F3DE840202B03D004
:101EEC004021CB1A9A401643731E9E41072206438B
:101EFC0032400021002583E7161A6346B242804126
:101F0C00591A40420B1A98465C4632E61F2E00DDE9
:101F1C00ABE02027BB1B9A4663465746BB4099460D
:101F2C0013004F46F3401F433B005746BA40571E21
:101F3C00BA4113436246F240891898E62027BB1B2E
:101F4C009A4663465746BB40994613004F46F340AA
:101F5C001F433B005746BA40571EBA4113436246D3
:101F6C00F240891A9CE7834B9F425FD080252D0459
:101F7C007342294320E7002E0CD1002F00D1D0E072
:101F8C005C46614691467B4DCDE67A4FBE421CD0F5
:101F9C001E0065E6002F18D0C0084E0706438020AF
:101FAC00C9080003014208D06346DC08044204D18E
:101FBC002100DA46D2085E071643F3009946012445
:101FCC005346C900720F11431C406A4DABE61D000D
:101FDC0000220027B4E6002D59D10B00034300D199
:101FEC00D6E6731C00D1B2E0624B9F421ED0F34385
:101FFC00382B6FDC1F2B00DD97E020250E00ED1A2F
:10200C00AE40B0460600AA46DE40454635432E009B
:10201C005546A840D940451EA8418C440643B618E5
:10202C0096429241514261443D0025E63D00614695
:10203C00914678E60B000343002D00D055E6002BAB
:10204C00F5D06346134300D16DE686188642804175
:10205C0061444042091800220B0200D4D0E6464BE2
:10206C0001351940B2E5B1465DE633006746203BC9
:10207C00DF403B00202E05D04027BF1B6646BE40EC
:10208C00324390464646721E96413343EFE5394B38
:10209C009F42CBD080252D0473422943A8E70843E7
:1020AC00411E8841A2E6002F00D13CE66346861A09
:1020BC00CF1AB0429B415B42FB1A98461B024ED58D
:1020CC00161A6346B2429241591A5242891A5C4618
:1020DC0000227BE501430E00711E8E419FE71D001F
:1020EC000E00203DEE40B046202B04D04025EB1ACC
:1020FC0099400843814648464346411E884118434F
:10210C0074E60022002417E6161A6346B242924186
:10211C00591A5242891A3D0025E561469146154DE2
:10212C0001E680220024120379E61D000E00203DFA
:10213C00EE40B046202B04D04025EB1A99400843C2
:10214C0081464E464346711E8E411E4367E78618F4
:10215C0096429B4161445B42C9183D008CE5474661
:10216C003743CED007224146324049E600273A0099
:10217C00E6E5C046FF070000FFFF7FFF70B50C4E81
:10218C000D031C0349005B002D0B490D240B5B0D4B
:10219C00B14208D0064900208B4203D114432000E1
:1021AC00441EA04170BD05430120002DFAD1F1E77A
:1021BC00FF07000030B5144D0A034B00120B5B0DEA
:1021CC00C90F0024AB4211DD104CA34210DC80245B
:1021DC00640322430E4CE41A1F2C0CDD0D48C31A69
:1021EC00DA4013005C42002900D11C00200030BDF5
:1021FC00094BCC18FAE7094DE040AC4663449A40D1
:10220C0013000343EEE7C046FE0300001D0400006C
:10221C003304000013040000FFFFFF7FEDFBFFFF02
:10222C0070B500282DD0C317C5185D40C40F280009
:10223C0000F038F9154B1B1A5B055B0D0A2815DDF0
:10224C000B38854000222D032D0B002110002D038F
:10225C000A0D2D0B12052A430D4D1B052A40134365
:10226C005B00E4075B082343190070BD02002900E2
:10227C00153291400A000B21081AC5402D032D0B75
:10228C00E3E70024002300250022DEE71E04000003
:10229C00FFFF0F8010B5041E25D000F003F9144B7E
:1022AC001B1A5B055B0D0A2812DD0B3884400022DB
:1022BC002403240B0021100024030A0D240B120507
:1022CC0022430C4C1B05224013435B00590810BDE4
:1022DC0002002100153291400A000B21081AC4405B
:1022EC002403240BE6E7002300240022E2E7C04687
:1022FC001E040000FFFF0F804100090E4B1C70B53F
:10230C00DBB24602750AC40F012B14DDE0239B00DF
:10231C006D07360BCB1800210A0D280012051C4D39
:10232C0032435B052A405B0813435B00E4075B0800
:10233C002343190070BD002914D1002D1ED0280094
:10234C0000F0B0F80A281CDC0B232A001B1ADA4018
:10235C00030015339D400F4B12031B1A5B05160B24
:10236C005B0DD8E7002D06D0320B802636036D07A7
:10237C001643094BCFE7084B0026CCE70023002679
:10238C00C9E703002A000B3B9A400025E3E7C0464F
:10239C00FFFF0F8089030000FF070000F0B54C0021
:1023AC00640D0B03621C5B0A460F5205C90F1E43DA
:1023BC00C500520D012A29DD374BE718FE2F1CDC16
:1023CC00002F3BDD8001431E98410722F3006D0F67
:1023DC0003432B431A40002A04D00F221A40042A2C
:1023EC0000D004338022D2041A4024D00137FAB230
:1023FC00FF2F02D09B01580A01E0FF22002040026F
:10240C00D205400AC90710430843F0BD3543002CE0
:10241C0004D1002D0AD100220020F0E7002DECD0D1
:10242C008020C0033043FF22E9E7002400235B0235
:10243C00580AE2B2E3E7DB083C00F8E73B0017334D
:10244C00F3DB80231B0433431E26F61B1F2E14DDE7
:10245C0002225242D71B1A00FA401700202E04D039
:10246C000E4A94466444A3401D432B005D1EAB41B1
:10247C0007223B431A400027ADE7094A2800A2185F
:10248C00954093406C1EA541F04007222B4303431B
:10249C001A4000279FE7C04680FCFFFFA2FCFFFF0D
:1024AC0082FCFFFF1C2101231B04984201D3000C6A
:1024BC0010391B0A984201D3000A08391B099842AB
:1024CC0001D30009043902A2105C40187047C046C1
:1024DC0004030202010101010000000000000000E1
:1024EC0070B50B78002B03D104780023002602E092
:1024FC00FF24FAE70133074A12789A4208DDC25CDE
:10250C00A242F7D2CD5C002DF4D1DEB21400F1E77B
:10251C00300070BD1C0000200023012202E0C15CD1
:10252C000A400133024909789942F8DC10007047DF
:10253C001C000020F0B5D6464F4680B583B0322043
:10254C0010F00CFF071E65D0364B1B78FE2B63D1A9
:10255C000026344C4BE02278FA540133DBB20134C0
:10256C00132BF8D9B246B3009B199A002E4B914607
:10257C009944791C1422484610F025FF142200219E
:10258C00380010F029FF002503E07A55013401359D
:10259C00EDB201942278931CDBB2012B01D9312DC1
:1025AC00F3D97B19013B1B78002B01D00135EDB21F
:1025BC00280010F0D3FE53469B0053449A001A4B4C
:1025CC009B18D860002816D02A00390010F0FBFEAA
:1025DC00164A1378013313702A000021380010F0CA
:1025EC00FBFE019B1B78FE2B0FD10136F6B2042E9D
:1025FC000BD80023B4E714220021484610F0ECFE5F
:10260C00380010F0B5FE0E2007E0380010F0B0FED8
:10261C00002002E0FB2000E0FF2003B00CBC914640
:10262C009A46F0BD00DC010864610020370A0020E6
:10263C0070B582B0204B1B889BB2204A93420BD0C2
:10264C001A0A1F490A7002D10A00012111701D4A91
:10265C0013700124022023E0194B01221A70194B2C
:10266C0000221A70FA2024E0134BC318651E6A4628
:10267C00D1791E88AB005B195B005B19CB185B0032
:10268C001149CE52023080B2D3790133DBB2D3710F
:10269C006B4607331B78DBB20A2BE5D90134E4B265
:1026AC00074B1B78A34203D36B460022DA71EFE78A
:1026BC00002002B070BDC04600D80108FFFF00002A
:1026CC001C00002096080020D002002070B50124C8
:1026DC00002605E0601C04F051FB0CE00134E4B270
:1026EC00084B1B78A3420BD32500631E5B00064AE4
:1026FC00995A0029EED102351B2DEFDD0A26EDE7A4
:10270C00300070BD1C000020D065002070B5342254
:10271C0000210F4810F060FE0124002605E0601C2B
:10272C0004F02CFB0CE00134E4B20A4B1B78A342FE
:10273C000BD32500631E5B00054A995A0029EED184
:10274C0002351B2DEFDD0A26EDE7300070BDC046CB
:10275C00D06500201C00002070B50124002501E08C
:10276C000134E4B2084B1B78A3420BD3611E490021
:10277C00064BC918601C04F04FFAA31C1B2BEFDD91
:10278C000A25EDE7280070BD1C000020D065002054
:10279C00F8B50026002517E0601EBA00D2195100CA
:1027AC00114B5B18195C09021B5DC91889B2280012
:1027BC001C3080B204F0E2FA0135ADB20234E4B25E
:1027CC00092CE9D90136F6B2084B1B78B34209D370
:1027DC003700B3009B195A00034BD35C002BF1D08C
:1027EC000124EDE70020F8BD880700201C00002024
:1027FC00F0B583B06B460022DA800026002523E07A
:10280C006B469F1D28001C3080B2390004F004FA7E
:10281C003988124AB3009F19780010180155671EA9
:10282C00090A9B1958001218D1550135ADB2023462
:10283C00E4B2092CE4D9B3009B195A00074B9B183E
:10284C0000225A720136F6B2054B1B78B34201D303
:10285C000124EEE7002003B0F0BDC046880700203D
:10286C001C000020F0B583B06B460022DA800024F7
:10287C0000250BE063001E49C9182800CB3080B23C
:10288C0004F0CAF90135ADB20134E4B2194B1B782E
:10289C00A342EFD8002623E06B469F1D28009930F9
:1028AC0080B2390004F0B8F93988134AB3009F1983
:1028BC00780010180155671E090A9B195800121848
:1028CC00D1550135ADB20234E4B2092CE4D9B300D0
:1028DC009B195A00084B9B1800225A720136F6B20B
:1028EC00092E01D80124F0E7002003B0F0BDC0464A
:1028FC00E00600201C0000207C06002070B584B08F
:10290C000E21694400230B8003AA1380E42004F0F9
:10291C0083F9002800D075E00E236B441E780E213D
:10292C006944E52004F078F9040003A9E62004F0DA
:10293C0073F90443A4B2002C00D065E00E236B4461
:10294C001D882D0403AB1B88ED180E216944E7206C
:10295C0004F062F9040003A9E82004F05DF90443D3
:10296C00A4B2002C52D10E236B441C88240403AB5C
:10297C001B88E4180E216944E92004F04DF9002865
:10298C0007D10E236B441B88190A2C4A11702C4A50
:10299C0013700E216944EA2004F03EF9002807D197
:1029AC000E236B441B88190A264A1170264A137091
:1029BC000E216944EB2004F02FF9002807D10E23D7
:1029CC006B441B88190A214A1170214A13701B4B46
:1029DC001B78002B03D01A4A1278002A18D1194BF5
:1029EC001B78002B03D0184A1278002A17D1174BEA
:1029FC001B78002B03D0164A1278002A16D100201F
:102A0C0004B070BD00268AE700259EE70024B1E7DC
:102A1C00009222002900300005F0BEFADFE7009298
:102A2C0022002900300005F0B7FAE0E700922200FE
:102A3C002900300005F0B0FAE1E7C0466209002039
:102A4C0079060020630900207A0600206409002022
:102A5C007B060020F8B5DE4657464E464546E0B5A7
:102A6C000F00160099460AAB1B789B460BAB1D78E2
:102A7C000CAB1B789A460DAB1C780EAB1B789846AA
:102A8C0081B2E42004F07AF9390A89B2E52004F025
:102A9C0075F9B9B2E62004F071F9310A89B2E72070
:102AAC0004F06CF9B1B2E82004F068F94B46190255
:102ABC00594489B2E92004F061F92D025544A9B2B8
:102ACC00EA2004F05BF924024444A1B2EB2004F0A8
:102ADC0055F900203CBC90469946A246AB46F8BD41
:102AEC0010B582B08A206B46991D400004F094F812
:102AFC00002800D064E06B4606331B88494A93716A
:102B0C001B0AD37116206B46991DFF3004F084F814
:102B1C0000285CD16B46DA88424B1A808B206B46BE
:102B2C00991D400004F078F8002855D16B46DA88DE
:102B3C003C4B5A8018206B46991DFF3004F06CF802
:102B4C0000284ED16B4606331B88364A13711B0A7C
:102B5C0053718C206B46991D400004F05DF8040005
:102B6C001A2001A9FF3004F057F80443A4B2002C3A
:102B7C003ED16B4606331B8801AA128812041343FC
:102B8C00284A93608D206B46991D400004F044F850
:102B9C0000283BD16B4606331B88224A13731B0A51
:102BAC0053731C206B46991DFF3004F035F8002838
:102BBC0032D01D4BDA7E1B4BDA76002002B010BDF2
:102BCC00194A9179174B9971D279DA719AE7164BA8
:102BDC001A88144B1A80A1E7134B5A88114B5A8050
:102BEC00A8E7114A11790F4B197152795A71B0E754
:102BFC000E4B1B78002B04D00A4BE12252029A6038
:102C0C00C0E7094B9A68074B9A60BBE7054B182243
:102C1C005A7300221A73C4E76B469A79014BDA7621
:102C2C00CBE7C0464861002000000020CE02002007
:102C3C0010B51A4CE3795B01A17919438A20400045
:102C4C0004F09CF821881620FF3004F097F8618876
:102C5C008B20400004F092F863791B02217B19430E
:102C6C001820FF3004F08AF821898C20400004F0F1
:102C7C0085F861891A20FF3004F080F8637B1B0211
:102C8C00217919438D20400004F078F8E17E1C2056
:102C9C00FF3004F073F8002010BDC04648610020DE
:102CAC00F0B589B01E236B4400221A80002401E089
:102CBC000134E4B2052C54D825003B35AD00ADB23F
:102CCC001E216944280003F0A7FF0028F0D11E2321
:102CDC006B4419880B0A1809621C9042E8D10F202A
:102CEC000340E5D0D700BA181F4FBF187B7039725C
:102CFC001E266E44681C80B2310003F08DFF3388B1
:102D0C001A0ABA707B71A81C80B2310003F084FFE0
:102D1C0033881A0AFA70BB710335A8B2310003F07C
:102D2C007BFF33881A0A3A71FB71651CEDB2787817
:102D3C00290004F089FE397A4A08BB780120024048
:102D4C00014000200590F8790490B87903907879C7
:102D5C00029038790190F8780090280004F08CFFEC
:102D6C00A6E7002009B0F0BDD00C002010B5FFF78D
:102D7C005FFCFFF7F1FCFFF73BFDFFF773FDFFF77F
:102D8C00BDFDFFF7ADFEFFF78BFFFFF7D3FB10BDCB
:102D9C0070B58EB012256D4404AB009307AB2A00BE
:102DAC0008A901200AF030FB03AC009405AB0E22FD
:102DBC006A4406A902200AF027FB01230A93002685
:102DCC000B962B88099309A908980EF07DFC0A969E
:102DDC0002230B932388099309A905980EF074FC20
:102DEC002988002208980EF03EFD05200AF0A0FE6E
:102DFC00218805980EF030FD002802D000200EB07E
:102E0C0070BD12236B441988012208980EF02BFD1B
:102E1C0005200AF08DFE03AB198805980EF01CFDF9
:102E2C000128ECD00020EAE710B5064B1A68064BD7
:102E3C009A4206D003F0B8FF002802D1014B024A97
:102E4C001A6010BDF07F0020ADDEEFBE10B50BF0A8
:102E5C0005F80400E1231B0243608023DB000361BF
:102E6C0080235B01836010F0CDF822681368202169
:102E7C000B43136010BD000070B505000024032C3B
:102E8C0010D863001B199A00074B9B1899682800EF
:102E9C00FDF732F9002802D00134E4B2EFE7013437
:102EAC00E0B200E0002070BD8400002070B504008A
:102EBC00002501E00135EDB2052D25D8184920007B
:102ECC00FDF71AF9002821D016492000FDF714F956
:102EDC0000281DD014492000FDF70EF9002819D048
:102EEC0012492000FDF708F9002815D010492000E0
:102EFC00FDF702F9002811D00E492000FDF7FCF86F
:102F0C000028D7D1062000E0002070BD0120FCE78E
:102F1C000220FAE70320F8E70420F6E70520F4E79F
:102F2C005074010854740108587401085C74010849
:102F3C00607401086474010830B583B00500012485
:102F4C0001E00134E4B2052C14D8AC42F9D00B4B9F
:102F5C001A88110A0A4B19705A709C70032300933B
:102F6C00073300220021200005F02AF90A200BF07B
:102F7C00C7F8E6E7002003B030BDC0465000002083
:102F8C0058070020F0B5DE4657464E464546E0B59C
:102F9C0083B000AF444B1B780733DB08DB006A4679
:102FAC00D31A9D466D46002306E00022EA545C00CD
:102FBC003E4962520133DBB23B4A12789342F4D35E
:102FCC00013801232B54012201E00132D2B2052A2F
:102FDC0019D883001B185B001B189B185B00344925
:102FEC005B5A002BF1D0541E0121A1400C002F4E36
:102FFC0041008C46895B21436446A153DB08013BAD
:10300C000221E954E1E702239B465E460136F3B206
:10301C009B4600239C4600202EE00132D2B2052AAA
:10302C0028D8A3001B195B001B199B185B002049B7
:10303C005B5A002BF1D0DB08013B7B60E95C00297B
:10304C00EBD11100013901268E40B0461749894653
:10305C0061008A4649465646715A464631434E46A9
:10306C00534699537B685946E95463460133DBB2A6
:10307C009C46D2E70130C0B20B4B1B78984207D26A
:10308C0004002A5C5B46013B9A42F3D10122C6E75D
:10309C006346002BB9D10020BD4603B03CBC904622
:1030AC009946A246AB46F0BD1C000020100500203E
:1030BC00D0020020F0B58FB005000E0032220021A6
:1030CC0001A810F089F91A220021484810F084F95F
:1030DC002A00013D002346494B5546494B550120DA
:1030EC0000E00130062816DCAB005B195B005B19B5
:1030FC001B185B0040495B5A002BF2D0DB08B1B2C5
:10310C008B42EED1731E3A4A0121D154374B1E70BB
:10311C00C0B20FB0F0BD012300E00133374909788C
:10312C00994209DB9A42F8D0591E3148FF24445485
:10313C00304800244454F0E7002401A8FFF7ECF9D0
:10314C0000280CD101A92A48FFF7CAF90130C4B2F2
:10315C00B44204D0611E01AB01225A5403E0002298
:10316C0025E00132D2B2062AE7D88B005B185B004F
:10317C005B189B185B0020481B5A002BF1D0DB0816
:10318C00DBB2013B01A8C05C0028EAD1184F785C87
:10319C000130C0B2FF5C8742E3D9154FF854154893
:1031AC00C454DEE7531C11498C54DAB20400631E7C
:1031BC001049C85C0028F5D1012200E00132062A32
:1031CC00A7DCAB005B195B005B199B185B000A4921
:1031DC005B5A002BF2D0DB08711E054C615C013987
:1031EC00024C615C8B42E9D1D0B292E700620020C4
:1031FC002C09002048090020D00200201C000020CF
:10320C00F0B587B007000E0005921C00314B187802
:10321C00FFF750FF0490002C03D02E4B1D78B542C5
:10322C000DD0002C0DD1731E2B4AD35C012B03D077
:10323C00013B2A4AD55C05E0264B1D7802E004943C
:10324C0000E00025234B1B78BB4219D00598FFF7F3
:10325C00FDFD0498FFF7FAFD1E4B1B78AB4232D0F4
:10326C001C4B197800230393013B02930193033306
:10327C0000930B00049A059805F0D8F907B0F0BD3F
:10328C000BF060F80700002C16D1154B19683200B2
:10329C0011F000F8134B1968380011F01BF83800C6
:1032AC00FCF734FF82B23223390005980AF022FE73
:1032BC0064200CF0A3FFC9E70B4B19682300320004
:1032CC0010F0E8FFE6E704980AF0C8FD01210AF0C7
:1032DC005DFEC5E7960800202C0900200062002046
:1032EC0078000020800000207C000020F0B585B024
:1032FC0004000390554D564B2A0043CB43C2190092
:10330C001B6813608B8893802800FCF7FFFE82B249
:10331C0001235B4200933333290020000AF0BCFDEB
:10332C00012513E0494E2A004A49300010F0B2FF43
:10333C003000FCF7EBFE82B201235B420093333387
:10334C00310003980AF0A8FD0135EDB2052DE9D93D
:10335C0001235B420093333303223F4903980AF065
:10336C009BFD002431E007231340D2083B4937482A
:10337C0010F090FF354F3800FCF7C8FE82B20123E5
:10338C005B4200933333390003980AF085FD013515
:10339C00EDB2052D0ED8B3009B195B009B195B1980
:1033AC005B002F4A9A5A002ADDD12E49274810F08B
:1033BC0071FFDFE701235B420093333302222A497A
:1033CC0003980AF069FD0134E4B2284B1B78A34240
:1033DC0030D92600621C1D4D2549280010F05AFFDB
:1033EC002800FCF793FE82B201277F42009732231C
:1033FC00290003980AF050FD16236343184A9A5A81
:10340C0053009B1859001B4BC9180522280010F0BB
:10341C0096FF0097322305222900039D28000AF00D
:10342C003BFD009732230122134928000AF034FD9A
:10343C000125AEE701235B420093333301220F4990
:10344C0003980AF029FD05B0F0BDC046C008002065
:10345C0014740108287401082C7C010840740108BC
:10346C00D00200203C740108BC7201081C00002032
:10347C00307401087C740108247401080890010858
:10348C00F0B583B005002D4C2D4923000A0043CA2A
:10349C0043C343CA43C312681A602000FCF736FECC
:1034AC0082B201235B4200933333210028000AF0DF
:1034BC00F3FC012623E00134E4B20A2C1DD8731E60
:1034CC005B00204A9A5A611E80231B020B41134257
:1034DC00F1D01A4F230032001B49380010F0DAFEED
:1034EC003800FCF713FE82B201235B4200933333A6
:1034FC00390028000AF0D0FCDDE70136F6B2134B98
:10350C001B78B34201D30124D7E70C4C104923009C
:10351C000A0043CA43C343CA43C303CA03C32000BC
:10352C00FCF7F4FD82B201235B420093333321009C
:10353C0028000AF0B1FC03B0F0BDC046C008002062
:10354C00C4730108D0650020E07301081C00002042
:10355C00F4730108F0B5C64600B584B007000AF054
:10356C00F1FE040000230370934B1A78934D944999
:10357C00280010F08FFE2900200010F0ABFE914BBC
:10358C001A789149280010F085FE2900200010F0CF
:10359C00A1FE04230093023B00228C49280010F06A
:1035AC0079FE2900200010F095FE894A89492800EF
:1035BC0010F070FE2900200010F08CFE864A87491E
:1035CC00280010F067FE2900200010F083FE844BC9
:1035DC002A0043CB43C219001B6813608B8893806D
:1035EC008B7993712900200010F074FE01250DE0F9
:1035FC00724B7C4A116819609188998092799A7102
:10360C006E49200010F066FE0135EDB2052D3BD859
:10361C006A4E2A007449300010F03CFE3100200044
:10362C0010F058FE714B5B5D042BE9D89B00704A7F
:10363C00D3589F4661496F480B00020043CA43C3ED
:10364C0003CA03C312781A70DAE75C4A6A4B43CB9D
:10365C0043C2D5E7594969480B00020043CA43C32A
:10366C0043CA43C312881A80CAE7544964480B0002
:10367C00020043CA43C343CA43C31168196091880B
:10368C00998092799A71BBE74C495E480B00020015
:10369C0061CA61C361CA61C3200010F01BFE012620
:1036AC000BE0464D32005849280010F0F3FD29007C
:1036BC00200010F00FFE0136F6B2062E22D8751E31
:1036CC00EB005B1BDA00514BD358002BE9D0EB001D
:1036DC005B1BDA004D4B9B18586A07F099FC039062
:1036EC00AD004B4BE85807F093FC344D0090039B16
:1036FC0032004849280010F0CDFD2900200010F0C0
:10370C00E9FDD8E72000FCF701FD2018032242490F
:10371C000FF059FE2000FCF7F9FC20181D223F4940
:10372C000FF051FE2000FCF7F1FC8046012501E072
:10373C000135EDB2052D16D81F4B1B78013B5B00F4
:10374C00374A9A5A691E80231B020B411342EFD051
:10375C001A4E2A003349300010F09CFD3100200035
:10376C0010F0B8FDE4E72000FCF7D0FC43461B0446
:10377C001B0C98420DD02000FCF7C8FC201803222B
:10378C0025490FF020FE002F09D104B004BC90464F
:10379C00F0BD2018052224490FF015FEEBE72000A0
:1037AC00FCF7B4FC82B201235B420093333321005B
:1037BC0038000AF071FBE8E796080020C0080020EA
:1037CC0008720108CF02002024720108407201081F
:1037DC00607201086C720108847201089072010811
:1037EC00AC720108C8720108C072010810090020EF
:1037FC00E4710108D0720108E8720108F472010842
:10380C00107301083073010848730108441100203B
:10381C007C0C002064730108BC72010894730108CD
:10382C00D0650020B4730108BC73010870B50500A5
:10383C002949FCF761FC00280AD028492800FCF72C
:10384C005BFC002844D02E78232E04D0002416E0F4
:10385C00234B187870BD681C0FF043FDC0B20028D4
:10386C0003D0204B1B78834205D21D4B1C7884421D
:10387C0030D120B2EEE700B2ECE70134E4B2194BE0
:10388C001B78A3420DD9A3001B195900164BC9185C
:10389C002800FCF731FC0028EFD1002EEDD020B22F
:1038AC00D8E70026092E11D8B3009B195A000F49EE
:1038BC0089182800FCF720FC002802D00136F6B24B
:1038CC00F0E73402FE20204300B2C3E76420C1E7D6
:1038DC00FF20BFE76620BDE7487401084C7401085F
:1038EC00960800201C000020880700207C06002081
:1038FC00F8B506000D000024032C09DCA3002949AF
:10390C00C9182800FCF7F8FB002843D00134F3E772
:10391C000124254B1B78A3420BDDA3001B19590076
:10392C00224BC9182800FCF7E7FB002834D00134DF
:10393C00EFE70024092C0BDCA3001B195A001C49CF
:10394C0089182800FCF7D8FB002827D00134F1E7B0
:10395C00184B194A1A60174B1C68002C0FD023689F
:10396C001F683800FCF7D2FB02003900280010F069
:10397C00D5FC002814D062680E4B1A60EBE7B3003C
:10398C009E197000094BC018290010F0BFFCFEF7FF
:10399C00FFFE02E0062000E00720F8BD0720FCE750
:1039AC000820FAE7F87101081C00002088070020A5
:1039BC007C06002018090020D0000020F8B5060075
:1039CC000D000024092C14DCA3001B195A003349E8
:1039DC0089182800FCF790FB002801D00134F1E78E
:1039EC00013E0122A2402E497600735A13437352B2
:1039FC00F8BD0024032C09DCA3002A49C9182800AF
:103A0C00FCF77AFB002845D00134F3E70124264B60
:103A1C001B78A3420BDDA3001B195900234BC918BB
:103A2C002800FCF769FB002836D00134EFE7204B67
:103A3C00204A1A6002E062681D4B1A601C4B1C681D
:103A4C00002C1CD023681F683800FCF75FFB0200B9
:103A5C003900280010F062FC0028ECD10820C7E7E0
:103A6C000E488018290010F051FC013E0122A240A2
:103A7C000B497600735A134373520020B8E7092C94
:103A8C00F3DCA3001B195A00044BD35C002BE7D0CA
:103A9C000134F4E70620ABE70720A9E77C060020F9
:103AAC00E0060020F87101081C00002088070020A7
:103ABC001C090020D000002070B5012600251DE057
:103ACC000134E4B2052C17D820000AF0C7F9426B78
:103ADC0080231B029A42F3D1144B1B78013B611ECD
:103AEC00802212020A41110011485B001A5A0A4343
:103AFC001A52E5E70124E5E70136F6B20D4B1B78C7
:103B0C00B34211D3094B1B78B342F3D000221321DB
:103B1C00300004F065FD32200AF00AF8064B1B78E1
:103B2C00002BE9D00225E7E7280070BD960800209D
:103B3C00D06500201C0000202809002010B50124AD
:103B4C0007E020000AF08AF901210AF01FFA01347B
:103B5C00E4B2052C12D80A4B1B78013B5B00094AD6
:103B6C009A5A611E80231B020B411342E9D120009B
:103B7C000AF074F900210AF009FAE8E7002010BDF8
:103B8C0096080020D065002070B509F089FE09F078
:103B9C0027FF03F06DF909F0BBFB08F045F909F0BC
:103BAC0053FF09F063FB09F081FF09F089FC002841
:103BBC0011D1FFF7EDF8002863D03E4B01221A70AB
:103BCC00322009F0B5FF07F0CBF93B4BE122520252
:103BDC009A60012411E0FFF727F9BFF34F8F374BA1
:103BEC00374ADA60BFF34F8FC046FDE7324B996816
:103BFC0020000AF0C1F90134E4B2052CF6D9FFF724
:103C0C00B5F8FFF79BFF08F075FE2E4B1B78002BC9
:103C1C003DD080252D019024E405012229002000AF
:103C2C000DF021FEFA20400009F082FF002229004D
:103C3C0020000DF018FE642009F07AFF0122290003
:103C4C0020000DF010FE642009F072FF0022290004
:103C5C0020000DF008FE642009F06AFF0122290003
:103C6C0020000DF000FE642009F062FF0022290004
:103C7C0020000DF0F8FD02F02FFF134B01221A70FB
:103C8C0070BD322009F054FF07F06AF9B7E78025C0
:103C9C002D019024E4050122290020000DF0E3FD04
:103CAC00FA20400009F044FF0022290020000DF00A
:103CBC00DAFDE0E7CE0200204861002000ED00E0D4
:103CCC000400FA0596080020CD02002030B583B020
:103CDC001E200FF043FB04001E2200210FF07CFB82
:103CEC0008490A7D013A8B7D487D098B9200064D6F
:103CFC005259019100900549200010F0CBFA200098
:103D0C0003B030BD486100203C770108687401089D
:103D1C0000B585B00A00074B197801230393023BC9
:103D2C0002930193033300930B0004F07FFC05B066
:103D3C0000BDC0469608002030B587B004000D00C9
:103D4C000023049303930293019300930022002118
:103D5C000020FEF77FFE621ED3009B1ADA00154B83
:103D6C00D258002A07D0691ECB005B1AD900114B20
:103D7C00CB58002B0ED1002A15D16A1ED3009B1AEA
:103D8C00DA000C4BD358002B12D0280002F014FE92
:103D9C00002006E0200002F00FFE280002F00CFECE
:103DAC00002007B030BD200002F006FE0020F8E72E
:103DBC006820F6E744110020F8B50700002501E063
:103DCC00347001357E193478002C09D00FF0B8FA14
:103DDC000019427803231340012BF1D12034EFE773
:103DEC00F8BD0000F0B5C64600B588B00500D74B4D
:103DFC001C78052C00D10DE2D548A3001A199100AE
:103E0C0000220A54401842700230043200210FF094
:103E1C00E3FA2B78622B02D1AB782E2B4FD0CD4E00
:103E2C002900300010F072FACB4C2100300011F058
:103E3C00FBF805002100002011F0F6F80600210027
:103E4C00002011F0F1F80400002D00D1E9E1280068
:103E5C00FFF712F8051E02D0002E00D1ACE1002EA7
:103E6C0000D1E0E1002C00D1DFE12000FFF704F8E5
:103E7C00002800D1B1E1B54B1978B54A8B005F1819
:103E8C00BC000427A7541419E570E071AF4D2C78D1
:103E9C003000FFF70BF8AE4AA10009198B00D318BC
:103EAC0058702B789900C918880012185278002A7B
:103EBC0000D1BCE10133A54A13700020ABE16E7850
:103ECC00303EF6B2052E00D9A9E1A14BA200101983
:103EDC0081000120C8545B1800225A709E70EF1CA0
:103EEC0007329E49380010F019FA002822D1A3009D
:103EFC001C19A200964B9B180522DA70F20092193D
:103F0C00974B9B181B7ADB0705D500208F4A13783B
:103F1C00013313707FE10123059300230493039372
:103F2C0002930193009300220121300003F0A4FEC0
:103F3C000020EBE70E228B49380010F0EFF9002837
:103F4C001ED1A3001C19A200814B9B180622DA700B
:103F5C00F2009219824B9B181B7A9B0701D500200B
:103F6C00D4E7012305930023049303930293019355
:103F7C00009301220021300003F07EFE0020C5E7F3
:103F8C000C227949380010F0C9F900287BD1F200D5
:103F9C009219734B9B189B78002B0FD0F20092193F
:103FAC006F4B9B18DB78002B29D0F20092196C4BCD
:103FBC009B181B79002B44D00C20A7E7644FA3005F
:103FCC001C19A300FB180922DA7028000F300FF01F
:103FDC0082F95E4B1978C3B28A00521891007F188F
:103FEC003B710122059200220492039202920192EB
:103FFC0000920021300003F03FFE002086E7544F72
:10400C00A3001C19A300FB180A22DA7028000F3039
:10401C000FF061F94D4B1A78C0B293009B189A00BF
:10402C00BF18387101230593002304930393029363
:10403C000193009000220021300003F01DFE0020AF
:10404C0064E7434FA3001C19A300FB180B22DA7082
:10405C0028000F300FF03FF93C4B1A78C0B2930098
:10406C009B189A00BF183871012305930023049301
:10407C00039302930190009300220021300003F07F
:10408C00FBFD002042E70D223849380010F046F9BC
:10409C00002800D08EE0F2009219314B9B185B790E
:1040AC00002B0FD0F20092192D4B9B189B79002BF3
:1040BC002AD0F20092192A4B9B18DB79002B57D08F
:1040CC000D2023E7224FA3001C19A300FB180C2280
:1040DC00DA70280010300FF0FEF81C4B1A78C0B2C2
:1040EC0093009B189A00BF18387101230593002385
:1040FC00049303930290019300930022002130005B
:10410C0003F0BAFD002001E7114FA3001C19A30016
:10411C00FB180D22DA70280010300FF0DCF80B4B76
:10412C001A78C0B293009B189A00BF1838710123FB
:10413C0005930023049303900293019300930022B0
:10414C000021300003F098FD0020DFE6370A002044
:10415C00646100209C090020C4720108D08701080A
:10416C00D00C0020407901085079010860790108D1
:10417C00304F143398465C433C19063BE3702800DF
:10418C0010300FF0A8F82C4B1B78C0B242465343AA
:10419C00FF183871012305930490002403940294B2
:1041AC0001940094230022002100300003F064FDF0
:1041BC002000ABE60020A9E6002C00D04FE61E48FC
:1041CC0003781C499A00D618B400022666540919C3
:1041DC00CD700133037000201DE0174B98461A7800
:1041EC00144F9300981881000320C8557A18D57085
:1041FC0020000FF06BF8FEF7D1F8079043461A78C1
:10420C0093009B189800C0190630042207A90FF0E0
:10421C00DAF83BE60E2008B004BC9046F0BD002056
:10422C00F9E76720F7E76720F5E76720F3E76720F2
:10423C00F1E7C04664610020370A0020F8B50C0095
:10424C00022817D0032803D001280FD000200CE03F
:10425C00344B1A78013A93009B189A00324B9B18F6
:10426C0001221A7406F07AFD0020F8BD0800FFF751
:10427C00B9FDFAE72B4B1D78013DAB005B199A0099
:10428C00294B9B18DE68002E34D03000FBF73EFF24
:10429C0007002000FBF73AFF3918023130000FF00D
:1042AC00D9FF214EAB005D19AB00F318D8601D4D42
:1042BC002B78013B9A00D2189300F318D8687B1C1A
:1042CC00C018210010F022F82A78013A93009B18AC
:1042DC009A00B618F3681322DA55124B1B78013B7F
:1042EC009A00D2189100104A5218D268002A11D0A4
:1042FC000020BAE70800FBF709FF01300FF02EF899
:10430C00AB005D19AA00084B9B18D86021000FF078
:10431C00FDFFE2E7044BC818142200210FF05CF8F3
:10432C000E20A2E7370A002064610020F0B5DE46BB
:10433C0057464E464546E0B58BB0049003911500A8
:10434C001C000922002107A80FF046F860E1E91CC7
:10435C000130FFF773FF002806D1CF4B02221A70F1
:10436C000D232370002784E15222CC4920000FF04A
:10437C002AF8C94B00221A7000277AE1C64B00229A
:10438C001A70C7490330FFF759FF4122C549200075
:10439C000FF019F800276CE129000220FFF74EFFFF
:1043AC00002803D10D232370002762E15222BB4960
:1043BC0020000FF008F800275BE10EF0C1FF7378C6
:1043CC00C01843785B0700D54CE1721B290007A885
:1043DC000FF0B5FF07A8FFF729FA0590B24A12783B
:1043EC00914690422CD0642832D0662837D0FF28D2
:1043FC003CD06B461B7D9A46FE2B68D001360622BC
:10440C00AA4930000FF08AFF002800D0A3E0A84B87
:10441C0000229A711921504604F0E2F8642009F048
:10442C006FFEA44B1A78A04B187800235146FEF768
:10443C00E7FE9F4B9B79602B00D1C8E0002718E169
:10444C00701C99229200210009F016FF070010E160
:10445C002722994920000EF0B6FF002709E12522FA
:10446C00964920000EF0AFFF002702E11A2200212E
:10447C0093480EF0B1FF01362800FBF747FE07000A
:10448C0007A8FBF743FE3A1A013A31008D480FF0AA
:10449C0056FF2800FBF73AFE070007A8FBF736FE8D
:1044AC003B1A9BB21722FF21484604F071F899225F
:1044BC0092002100300009F0DFFE07002000FBF71E
:1044CC0025FE20181D2280490EF07DFFD1E0059BB2
:1044DC001B12DBB29A467D4B9B4652461A701A222F
:1044EC00002177480EF078FF731C98462800FBF7E4
:1044FC000DFE060007A8FBF709FE321A013A4146E9
:10450C0070480FF01CFF2800FBF700FE060007A800
:10451C00FBF7FCFD331A9BB217225146484604F0B8
:10452C0037F8614B1B78013B5B00694A9B5A5A4632
:10453C0012781341DB0706D407AB22006549200033
:10454C000FF0A8FE95E0992292002100404609F058
:10455C0093FE0700F0E72800FBF7D8FD070007A83B
:10456C00FBF7D4FD3A1A013A310056480FF0E7FE3A
:10457C002800FBF7CBFD060007A8FBF7C7FD321A96
:10458C0092B2013A92B21721504604F029F8059ADA
:10459C00514920000FF07EFE2378002B02D0039BA4
:1045AC00002B08D12000FBF7B1FD020000212000F8
:1045BC000EF012FF3DE72000FBF7A8FD82B20123AD
:1045CC00009331332100049809F066FCEAE7FA21E4
:1045DC00890001200BF08AF9404B1B78002B0BD083
:1045EC003F4A138801331380059B22003D4920006C
:1045FC000FF050FE00273CE000273AE02000FBF7CC
:10460C0085FD0200002120000EF0E6FE002F71D087
:10461C002800FFF7D1FB204B1E78002E07D1032278
:10462C00314928000FF07AFE002800D18FE6002EC9
:10463C0007D006222D4928000FF070FE002800D16B
:10464C009CE6022E00D1A7E62E2128000FF050FE8A
:10465C00061E07D00338032225490FF05FFE002801
:10466C0000D0AAE6992292002100280009F004FE4D
:10467C0007002378002BC1D0039B002BBED0200059
:10468C00FBF744FD82B201235B42009333332100DC
:10469C00049809F001FCB1E7640A0020787701085E
:1046AC002C740108D477010896080020B87801080A
:1046BC0048610020CF0200201C78010844780108D2
:1046CC0044050020580700206C780108360A0020A9
:1046DC00E00600208C780108C07801082809002029
:1046EC00120F0020E478010874770108CC770108D8
:1046FC00187801080922002107A80EF06DFE0C4B5A
:10470C001B78002B02D1039B002B06D10BB03CBCB9
:10471C0090469946A246AB46F0BD01235B420093FE
:10472C00333338220349049809F0B6FBEEE7C04650
:10473C00640A00200479010870B584B00121494253
:10474C0001200BF0D3F80F236B4400221A7009F0F0
:10475C00F9FD0500514B9A68E1231B039A4221D1C4
:10476C004F4B1B885A00D21853004E4A9B184E4A86
:10477C0012784E4C4E4E317800914E4920000FF07D
:10478C0089FD30780A234C4A4C4909F0B3FB2000D0
:10479C00FBF7BCFC82B230780A23210009F0AAFB9B
:1047AC00002667E00124052CDAD8414B1B78A34284
:1047BC0004D0E1210903200009F0DEFB0134E4B24E
:1047CC00F1E70F206844027098013D4A121800204E
:1047DC0010553C4AD4540F246C44354B18780A239A
:1047EC000122210009F086FB23780D2B25D00A2B02
:1047FC003ED0082B49D01A00203AD2B25E2A37D8C4
:10480C00312E35DC304A9355013676B230E00BF060
:10481C0061FB0134A4B23F2CDDD8254B1B78013B46
:10482C009801274A1218125D002ACAD13F2CEED1EA
:10483C00244A0021D1540024E9E71D4B18780A239F
:10484C000222224909F056FB002E19D01E4C184B9F
:10485C0018782B0022000121FFF768FD21001C486D
:10486C000FF054FD3222002120000EF0B5FD002681
:10487C000BF030FB0E4B1B78013B124AD45CCAE7A1
:10488C00134911480FF042FDE0E7002EF0DD013E28
:10489C0076B20D4B00229A55EAE7C04648610020DB
:1048AC00500000207C74010896080020380A002073
:1048BC00CF02002070790108930200009C79010856
:1048CC00E80A0020280C0020680900207C8D0108D3
:1048DC00040A002070B50C001C4B1A78013A9300A6
:1048EC009B189A001A4B9B18DB68002B2CD0194B89
:1048FC001B68002B14D0174B1D682B78002B12D083
:10490C00132128000FF0F4FC061E11D0421B2900C5
:10491C0020000FF014FD01360E4B1E60012006E046
:10492C000C4B1860E7E70B4B00221A60002070BD9F
:10493C00290020000FF0EAFC2000FBF7E7FB2D1804
:10494C00044B1D600120F2E70020F0E7370A00203D
:10495C0064610020600A0020F0B583B0040083007D
:10496C001B189A00464BD35C012B04D0032B15D09B
:10497C00002003B0F0BD424A8300181881000800E3
:10498C00511889781218D278CB005B183D495B5CC2
:10499C009A4201D00020ECE70120EAE7384E85006E
:1049AC002B1899007118CA78013A53009B189A0079
:1049BC00354BD3581F680631042201A80EF003FDB5
:1049CC002C19A300F6187378062B47D89B002F4A96
:1049DC00D3589F46391C0198FBF76AFD00283FD03D
:1049EC000120C6E7391C0198FBF768FD002801D1AE
:1049FC000020BEE70120BCE7391C0198FBF772FDD3
:104A0C0000282FD00021381CFBF752FD00282BD199
:104A1C000130AEE7391C0198FBF75AFD002825D070
:104A2C000120A6E7391C0198FBF766FD00281FD072
:104A3C000021381CFBF73CFD00281BD1013098E706
:104A4C00391C0198FBF734FD002815D10021381CC6
:104A5C00FBF72EFD002811D101308AE7002088E7F2
:104A6C00002086E7002084E7002082E7002080E712
:104A7C0000207EE700207CE700207AE7002078E722
:104A8C0064610020D00C00208400002058770108BD
:104A9C0070B509F057FC050000241BE0194B187881
:104AAC002B00194A0021FFF741FC2800FBF72EFBD5
:104ABC000200002128000EF08FFCB3009B199A0015
:104ACC00124B9B18D8681049FFF704FF0028E5D15A
:104ADC000134A4B20E4B1B78A34211D92600A300BB
:104AEC001B199A00094B9B181B7C002BF0D0E0B2D1
:104AFC00FFF732FF0028EBD0064B20229A71DCE73F
:104B0C00002070BDCF020020D0090020646100207D
:104B1C00370A00204861002000207047F0B583B0B0
:104B2C0005001600002301930093002801D172B6F2
:104B3C00FEE701AA0121300009F008FC0023C3564E
:104B4C00702B17D068276A460221300009F0FEFB53
:104B5C000EF0C7FB0600682F12D00100200009F0F0
:104B6C000BFA23003200094928000FF093FB0020B8
:104B7C0003B0F0BD01300EF0B4FBC4B20027E2E785
:104B8C001322034928000EF01EFCF0E738850108BB
:104B9C002485010810B5002801D172B6FEE7044B3C
:104BAC001A681204120C03490FF074FB002010BD9C
:104BBC00CCF7FF1FFC7E0108F0B585B00400100097
:104BCC00002303935F4B1A7802AB1A70002C01D1AF
:104BDC0072B6FEE703AA012109F0B8FB05005A4999
:104BEC00FBF78AFA002800D06AE0584B1B78013B8F
:104BFC00574AD65C012505E0544B1B78AB4206D1D5
:104C0C000135EDB2052DF7D9002005B0F0BD0FF040
:104C1C00EFFA02AF3870642300935A3B012239003B
:104C2C00280009F039F9280009F018F903689B8C61
:104C3C00DBB23A78934222D02A00464920000FF08A
:104C4C0029FB2000FBF762FA82B2404B18786423F0
:104C5C0000935A3B210009F01FF954223E492000D1
:104C6C000EF0B1FB2000FBF751FA82B2374B1878EB
:104C7C00642300935A3B210009F00EF914E02A003A
:104C8C00364920000FF006FB2000FBF73FFA82B2FA
:104C9C002E4B1878642300935A3B210009F0FCF842
:104CAC00DBE701200BF0AAFA284B1B78013B711CA7
:104CBC009B012B4AD3185B5C002BF2D00E009FE7B4
:104CCC000023EB56702B05D00F22264920000EF046
:104CDC007AFB99E7681C0EF004FB0500C7B27B1E3B
:104CEC00DBB2042B1AD80FF083FA02AE30706423B7
:104CFC000093323B01223100380009F0CDF8380026
:104D0C0009F0ACF803689B8CDBB2327893420ED17D
:104D1C00EAB2124920000FF0BDFA75E76623662B44
:104D2C0007D11B22104920000EF04DFB6CE7062327
:104D3C00F5E7062B00D067E7EAB2064920000FF032
:104D4C00A9FA61E7307101084C740108CF02002008
:104D5C00280C0020789601088C9601085C960108B6
:104D6C00E80A0020FC960108E0960108F0B585B031
:104D7C0004000192002303930293002801D172B620
:104D8C00FEE703AA0121019809F0E0FA0023C356BB
:104D9C00702B16D0672702AA0221019809F0D6FAC7
:104DAC000023C356702B12D0672000281AD0672816
:104DBC0021D01922134920000EF005FB002005B06C
:104DCC00F0BD01300EF08DFAC5B20027E3E70130DB
:104DDC000EF087FAC6B2002F0BD131002800FEF777
:104DEC00ABFFE2E733002A00074920000FF052FA2C
:104DFC00E4E76720DBE70F22044920000EF0E3FA1A
:104E0C00DCE7C046A897010888970108FC960108C2
:104E1C00F0B585B00400019200230393029300289F
:104E2C0001D172B6FEE703AA0121019809F08EFAAE
:104E3C000023C356702B16D0672702AA02210198B3
:104E4C0009F084FA0023C356702B12D06720002877
:104E5C001AD0672821D01722134920000EF0B3FA7C
:104E6C00002005B0F0BD01300EF03BFAC5B20027B2
:104E7C00E3E701300EF035FAC6B2002F0BD131004A
:104E8C002800FEF745FFE2E733002A00074920001F
:104E9C000FF000FAE4E76720DBE70F22044920005B
:104EAC000EF091FADCE7C046987D0108747D01088C
:104EBC00FC960108F0B583B00600100000230193A6
:104ECC00002E01D172B6FEE701AA012109F03EFACB
:104EDC000EF001FAC4B2002C3FD0284B1B78A34231
:104EEC0001D2FF233AE0C0B20138254D14235843B8
:104EFC00002747552D186F70A81C042239000EF09E
:104F0C006BFA2F74E8680EF033FAEF6008E0A30038
:104F1C001B199A001A4BD35C002B0CD10134E4B250
:104F2C00164B1B78A342F2D8013B144A137005F0C0
:104F3C0015FF002312E0601E14277843104BC01895
:104F4C003D006543ED183A0029000EF03CFA3A009A
:104F5C00002128000EF040FAE0E7FF23002B05D0DB
:104F6C002322084930000EF02EFA04E036220649BE
:104F7C0030000EF028FA002003B0F0BD370A0020F4
:104F8C0064610020B87E0108807E010810B582B0F3
:104F9C000400100000230193002C01D172B6FEE72F
:104FAC0001AA012109F0D2F90EF095F9C3B2002B38
:104FBC0003D00E4A12789A4207D223220C492000C1
:104FCC000EF001FA002002B010BDC0B2013814235B
:104FDC0043430848C0180023037405F0BFFE352274
:104FEC00054920000EF0EFF9ECE7C046370A002027
:104FFC00B87E010864610020C882010810B582B037
:10500C000400100000230193002C01D172B6FEE7BE
:10501C0001AA012109F09AF90EF05DF9C3B2002B37
:10502C0003D00E4A12789A4207D223220C49200050
:10503C000EF0C9F9002002B010BDC0B20138142323
:10504C0043430848C0180123037405F087FE382237
:10505C00054920000EF0B7F9ECE7C046370A0020EE
:10506C00B87E0108646100207C7C0108F0B5CE4656
:10507C00474680B58BB0040006AA744B043323CB8F
:10508C0023C21B881380002C01D172B6FEE7704B33
:10509C00187801235B420093333337226D4908F0B3
:1050AC00FBFE00270123984688E06B4B9B181A7C6B
:1050BC00D3009B1A06AA94466344424667492000D3
:1050CC000FF0E8F887E0AB005B199A00624B9B1875
:1050DC00DB78053BDAB2092A4AD89300604AD358E8
:1050EC009F4614236B435C4AD2189378D268009283
:1050FC0022005C4920000FF0CDF839E014236B43FB
:10510C00554AD2189378D268009222005649200052
:10511C000FF0C0F82CE014236B434F4AD21893784D
:10512C001179D268019200912200504920000FF0B1
:10513C00B1F81DE014236B43474AD21893781179C8
:10514C00D268019200912200494920000FF0A2F888
:10515C000EE0484E33002200474920000FF09AF829
:10516C003000FAF7D3FF0200002130000EF034F9C2
:10517C00AB005B199A00384B9B18D8683D49FFF778
:10518C00A9FB0028E5D12000FAF7C0FF20180C225B
:10519C003A490EF018F92000FAF7B8FF82B22C4BFE
:1051AC00187801235B4200933333210008F074FE1E
:1051BC0043460133DBB298460137FFB2304B1B78C4
:1051CC00BB4238D93D00BB00DB199A00224BD35CA3
:1051DC00002B00D069E7AB005B199A001E4BD35C27
:1051EC00012B00D16FE7032BC2D1AB005B199E00E2
:1051FC00194BF618B11D042205A80EF0E4F8F2784C
:10520C00013A7378013B5E00F3181E4EF6185300FA
:10521C009B189A001C4B9B189B6899460598FDF7A8
:10522C006BF80290039100964B4622001749200020
:10523C000FF030F89CE7A722154920000EF0C3F8B8
:10524C0000200BB00CBC90469946F0BD30710108A3
:10525C00CF0200206887010864610020A087010844
:10526C00307C0108AC870108C0870108D887010889
:10527C00F0870108680A00201C88010824880108AE
:10528C00370A00208C820108840000200C88010859
:10529C003088010810B5041E01D172B6FEE70AF081
:1052AC00C1FF03041B0C1B4A94466344082B2AD8E9
:1052BC009B00194AD3589F46184A194920000EF0F2
:1052CC00E9FF0AF0A9FF030B2200164920000EF09B
:1052DC00E1FF002010BD144A114920000EF0DAFF46
:1052EC00EFE7124A0E4920000EF0D4FFE9E7104A0E
:1052FC000B4920000EF0CEFFE3E70E4A08492000D0
:10530C000EF0C8FFDDE70C4A054920000EF0C2FF85
:10531C00D7E7C046C0FBFFFF587C01088881010815
:10532C0094810108E0810108A8810108B481010879
:10533C00C0810108CC810108D881010870B5041E18
:10534C0001D172B6FEE70E220D490EF03CF8002595
:10535C00022D0BD80B4BEB189B001B6822000A4943
:10536C0020000EF097FF0135EDB2F1E72000FAF7BF
:10537C00CDFE2018032205490EF025F8002070BD43
:10538C00D4970108EBFDFF07E49701087C8D010819
:10539C0030B585B0041E01D172B6FEE708F020FBD3
:1053AC001B4B5B7B182B04D00C2B0ED0002005B0B4
:1053BC0030BD17498A7C4B7C087CC98901910090CF
:1053CC00144920000EF066FFF0E7114BDB7C012B3B
:1053DC000DD10F498A7C4B7C087CC9890E4D0295F6
:1053EC00019100900D4920000EF054FFDEE7022BD6
:1053FC00DCD107498A7C4B7C087CC989084D029515
:10540C0001910090054920000EF044FFCEE7C04604
:10541C00486100201C970108709701084497010807
:10542C007497010810B5041E01D172B6FEE708F09E
:10543C00D7FAFEF74BFC0200024920000EF02AFFBF
:10544C00002010BDC07D0108F0B583B0040016002B
:10545C00002301930093002801D172B6FEE701AA44
:10546C000121300008F072FF05007D4B186004220A
:10547C007C490EF053FF002800D09CE00435019BC2
:10548C001E1F3200784928000EF048FF002822D158
:10549C00764B9B79602B0BD1754A764920000EF028
:1054AC00F9FE0023682B00D1D3E0002003B0F0BD3F
:1054BC00202B06D1704A6F4920000EF0EBFE002322
:1054CC00F0E7002B00D0C0E06C4A6A4920000EF0D7
:1054DC00E1FE0023E6E73200694928000EF01EFFCA
:1054EC0000281DD1614BDB79032B06D1604A614941
:1054FC0020000EF0CFFE0023D4E7012B06D15E4A2C
:10550C005C4920000EF0C6FE0023CBE7002B00D038
:10551C009DE05A4A574920000EF0BCFE0023C1E71B
:10552C003200584928000EF0F9FE002807D14F4BE5
:10553C009A68554920000EF0ADFE0023B2E7320008
:10554C00524928000EF0EAFE002807D1474B1A8872
:10555C004D4920000EF09EFE0023A3E732004C497B
:10556C0028000EF0DBFE002807D1404B5A88464934
:10557C0020000EF08FFE002394E7320045492800EE
:10558C000EF0CCFE002807D1384B1A793E4920008A
:10559C000EF080FE002385E732003F4928000EF014
:1055AC00BDFE00280ED1314B5A79374920000EF040
:1055BC0071FE002376E70522384928000EF0AEFE76
:1055CC00002805D01322364920000DF0FCFE6CE7B4
:1055DC006A460221300008F0B9FE070000260BE0F5
:1055EC00B3009B1959002F4BC9183800FAF784FDEA
:1055FC0000280CD00136F6B2092EF1D90025002D69
:10560C0007D13A00284920000EF044FE4DE7012551
:10561C00F5E73A00254920000EF03CFE08E06B1E31
:10562C005B00234A9B5A3341DB0707D40135EDB2AB
:10563C00204B1B78AB42F2D2002333E72B00220025
:10564C001D4920000EF026FEF0E768232AE76823A8
:10565C0028E7034B1A68194920000EF01BFE24E7BB
:10566C00A80A00202C7F0108347F01084861002023
:10567C004C740108A4720108407F0108447F0108A2
:10568C004C7F0108547F0108DC780108607F010819
:10569C006C7F01087C7F0108907F0108A47F0108C2
:1056AC00E47F01087C060020AC7F0108C87F01085C
:1056BC00E00600201C000020DC7F0108F87F0108B8
:1056CC0070B582B00400100000230193002C01D1AE
:1056DC0072B6FEE701AA012108F038FE0500019E12
:1056EC0032001F490EF01AFE00281ED032001D4950
:1056FC0028000EF013FE00282BD100221621FF20CB
:10570C0002F06EFF184B02221A70642008F0F8FCAD
:10571C00FCF7FCFF05F00EFC642008F0F1FC4022C5
:10572C00124920000DF04FFE10E0114911480B00FA
:10573C00020023CA23C323CA23C312681A60FDF7CD
:10574C0077FA27220C4920000DF03DFE002002B014
:10575C0070BD0F22094920000DF035FEF6E7C0465A
:10576C00E87D0108187E010814070020307E01082E
:10577C004861002000000020F07D0108207E010817
:10578C00F0B5CE46474680B58FB007901400002385
:10579C000D930C930B930A930993002801D172B6C5
:1057AC00FEE70DAA0121200008F0D0FD0500BA4B40
:1057BC0018600422B9490EF0B1FD00281CD0042257
:1057CC00B74928000EF0AAFD002800D18CE1042274
:1057DC00B44928000EF0A2FD002800D1E2E16724B4
:1057EC00672C00D1DAE3682C00D1DDE300200FB088
:1057FC000CBC90469946F0BD0CAA0221200008F082
:10580C00A5FD0400A84B1860A34B1D6804350D9B27
:10581C001F1F3A00A54928000EF080FD002862D118
:10582C000C9D2A00A24920000EF078FD002822D100
:10583C00A04B60219971DB791B0219438A3040001F
:10584C0001F09CFA0024944B1A680D9BD31800218C
:10585C001970954B1B68984907980EF01BFD012C8D
:10586C00C4D19649079C20000EF034FD94492000C9
:10587C000EF030FDBAE72A00924920000EF04EFDE2
:10588C0000280BD18B4B20219971DB791B0219431A
:10589C008A30400001F072FA0024D4E72A008A49C9
:1058AC0020000EF03BFD00280BD1824B402199715A
:1058BC00DB791B0219438A30400001F05FFA0024A7
:1058CC00C1E72A00814920000EF028FD002800D0F5
:1058DC0048E3784B00249C71D97909028A30400046
:1058EC0001F04CFAAFE73A00794928000EF016FDAA
:1058FC0000284DD10C9D2A006D4920000EF00EFDA4
:10590C0000280CD16B4B0322DA719B79C0218900E2
:10591C0019438A30400001F031FA002493E72A0041
:10592C00684920000EF0FAFC00280CD1614B0122D2
:10593C00DA719B798021490019438A30904001F03B
:10594C001DFA00247FE72A00584920000EF0E6FCDF
:10595C0000280CD1574B0222DA719B7980218900E7
:10596C0019438A30400001F009FA00246BE72A0041
:10597C00564920000EF0D2FC002800D0F4E24D4B2A
:10598C000024DC7199798A30400001F0F7F95AE76C
:10599C003A00504928000EF0C1FC002816D1200016
:1059AC000DF099FCE1231B03984200D9DEE2414C37
:1059BC00A06081B28C20400001F0E0F9A168090CD4
:1059CC001A20FF3001F0DAF901243CE73A00424991
:1059DC0028000EF0A3FC00280ED120000DF07BFC5B
:1059EC0081B2002900D1C3E2324B19801620FF305E
:1059FC0001F0C4F9002426E73A00384928000EF0DB
:105A0C008DFC00280ED120000DF065FC81B2002920
:105A1C0000D1AFE2274B59808B20400001F0AEF94A
:105A2C00002410E73A002E4928000EF077FC0028DD
:105A3C0014D120000DF04FFC83B2013B9BB2FE2B26
:105A4C0000D999E2C0B21B4B187159790902014374
:105A5C001820FF3001F092F90024F4E63A002149B5
:105A6C0028000EF05BFC002800D087E220000DF02F
:105A7C0032FC83B2013B9BB2FE2B00D980E2C0B258
:105A8C000C4B58710002197901431820FF3001F0BA
:105A9C0075F90024D7E6C046A40A00202C7F010823
:105AAC007C85010888850108B00A0020347F010834
:105ABC004C74010848610020708601088486010836
:105ACC00B48601087085010878850108447F0108B7
